{
  "_format": "hh-sol-artifact-1",
  "contractName": "ApproveDetails2",
  "sourceName": "contracts/APPROVE.sol",
  "abi": [
    {
      "inputs": [
        {
          "internalType": "address",
          "name": "_APPROVE_DETAILS_CONTRACT_ADDRESS",
          "type": "address"
        },
        {
          "internalType": "address",
          "name": "_RBAC_CONTRACT_ADDRESS",
          "type": "address"
        }
      ],
      "stateMutability": "nonpayable",
      "type": "constructor"
    },
    {
      "inputs": [
        {
          "internalType": "string",
          "name": "_doctorName",
          "type": "string"
        },
        {
          "internalType": "string",
          "name": "_phoneNumber",
          "type": "string"
        },
        {
          "internalType": "string",
          "name": "_qualification",
          "type": "string"
        },
        {
          "internalType": "string",
          "name": "_photo",
          "type": "string"
        },
        {
          "internalType": "string",
          "name": "_dob",
          "type": "string"
        },
        {
          "internalType": "address",
          "name": "_HID",
          "type": "address"
        },
        {
          "internalType": "address",
          "name": "_DID",
          "type": "address"
        },
        {
          "internalType": "string",
          "name": "_department",
          "type": "string"
        }
      ],
      "name": "addDoctortoList",
      "outputs": [],
      "stateMutability": "nonpayable",
      "type": "function"
    },
    {
      "inputs": [
        {
          "internalType": "string",
          "name": "_officeName",
          "type": "string"
        },
        {
          "internalType": "string",
          "name": "_phoneNumber",
          "type": "string"
        },
        {
          "internalType": "address",
          "name": "_GID",
          "type": "address"
        }
      ],
      "name": "addGovernmentOfficetoList",
      "outputs": [],
      "stateMutability": "nonpayable",
      "type": "function"
    },
    {
      "inputs": [
        {
          "internalType": "string",
          "name": "_hospitalName",
          "type": "string"
        },
        {
          "internalType": "string",
          "name": "_phoneNumber",
          "type": "string"
        },
        {
          "internalType": "address",
          "name": "_HID",
          "type": "address"
        }
      ],
      "name": "addHospitaltoList",
      "outputs": [],
      "stateMutability": "nonpayable",
      "type": "function"
    },
    {
      "inputs": [
        {
          "internalType": "string",
          "name": "_details",
          "type": "string"
        },
        {
          "internalType": "address",
          "name": "_PID",
          "type": "address"
        }
      ],
      "name": "addPatienttoList",
      "outputs": [],
      "stateMutability": "nonpayable",
      "type": "function"
    },
    {
      "inputs": [
        {
          "internalType": "address",
          "name": "_instanceAddress",
          "type": "address"
        }
      ],
      "name": "getDoctorDetails",
      "outputs": [
        {
          "internalType": "string[6]",
          "name": "",
          "type": "string[6]"
        }
      ],
      "stateMutability": "view",
      "type": "function"
    },
    {
      "inputs": [
        {
          "internalType": "address",
          "name": "_instanceAddress",
          "type": "address"
        }
      ],
      "name": "getDoctorH",
      "outputs": [
        {
          "internalType": "address",
          "name": "",
          "type": "address"
        }
      ],
      "stateMutability": "view",
      "type": "function"
    },
    {
      "inputs": [
        {
          "internalType": "address",
          "name": "_instanceAddress",
          "type": "address"
        }
      ],
      "name": "getGovernmentDetails",
      "outputs": [
        {
          "internalType": "string[2]",
          "name": "",
          "type": "string[2]"
        }
      ],
      "stateMutability": "view",
      "type": "function"
    },
    {
      "inputs": [
        {
          "internalType": "address",
          "name": "_instanceAddress",
          "type": "address"
        }
      ],
      "name": "getHospitalDetails",
      "outputs": [
        {
          "internalType": "string[2]",
          "name": "",
          "type": "string[2]"
        }
      ],
      "stateMutability": "view",
      "type": "function"
    },
    {
      "inputs": [
        {
          "internalType": "address",
          "name": "_instanceAddress",
          "type": "address"
        }
      ],
      "name": "getPatientDetails",
      "outputs": [
        {
          "internalType": "string",
          "name": "",
          "type": "string"
        }
      ],
      "stateMutability": "view",
      "type": "function"
    }
  ],
  "bytecode": "0x608060405234801561001057600080fd5b50604051620048a6380380620048a68339810160408190526100319161007e565b60008054600160a060020a03938416600160a060020a031991821617909155600180549290931691161790556100b0565b8051600160a060020a038116811461007957600080fd5b919050565b60008060408385031215610090578182fd5b61009983610062565b91506100a760208401610062565b90509250929050565b6147e680620000c06000396000f3fe60806040523480156200001157600080fd5b5060043610620000915760e060020a60003504630bb307a881146200009657806310c9ef6914620000c557806322f544c914620000de578063b8eb6d1c146200010e578063bab90dbd1462000125578063c2ff4dc5146200014b578063dc1976e11462000162578063ef6f93c41462000179578063efe2ccc11462000190575b600080fd5b620000ad620000a736600462000cf1565b620001b6565b604051620000bc919062000fd8565b60405180910390f35b620000dc620000d636600462000e83565b6200033d565b005b620000f5620000ef36600462000cf1565b6200041c565b604051600160a060020a039091168152602001620000bc565b620000ad6200011f36600462000cf1565b620004fb565b6200013c6200013636600462000cf1565b620005b8565b604051620000bc919062001029565b620000dc6200015c36600462000db1565b620008fa565b620000dc6200017336600462000e06565b620009c7565b620000dc6200018a36600462000e06565b62000a98565b620001a7620001a136600462000cf1565b62000b34565b604051620000bc91906200106e565b620001c062000c12565b600160009054906101000a9004600160a060020a0316600160a060020a031663738833fb6040518163ffffffff1660e060020a02815260040160006040518083038186803b1580156200021257600080fd5b505afa15801562000227573d6000803e3d6000fd5b50505050604051806040016040528083600160a060020a031663c98d66c16040518163ffffffff1660e060020a02815260040160006040518083038186803b1580156200027357600080fd5b505afa15801562000288573d6000803e3d6000fd5b505050506040513d6000823e601f3d908101601f19168201604052620002b2919081019062000d36565b815260200183600160a060020a03166324db757f6040518163ffffffff1660e060020a02815260040160006040518083038186803b158015620002f457600080fd5b505afa15801562000309573d6000803e3d6000fd5b505050506040513d6000823e601f3d908101601f1916820160405262000333919081019062000d36565b905290505b919050565b60008888888888888888604051620003559062000c3a565b6200036898979695949392919062001135565b604051809103906000f08015801562000385573d6000803e3d6000fd5b5060005460405160e060020a63e899d753028152600160a060020a0380841660048301528681166024830152606060448301526003606483015260e860020a62444f4302608483015292935091169063e899d7539060a401600060405180830381600087803b158015620003f857600080fd5b505af11580156200040d573d6000803e3d6000fd5b50505050505050505050505050565b6001546040805160e060020a63738833fb0281529051600092600160a060020a03169163738833fb9160048083019286929190829003018186803b1580156200046457600080fd5b505afa15801562000479573d6000803e3d6000fd5b5050505081600160a060020a03166318769d466040518163ffffffff1660e060020a02815260040160206040518083038186803b158015620004ba57600080fd5b505afa158015620004cf573d6000803e3d6000fd5b505050506040513d601f19601f82011682018060405250810190620004f5919062000d17565b92915050565b6200050562000c12565b600160009054906101000a9004600160a060020a0316600160a060020a031663738833fb6040518163ffffffff1660e060020a02815260040160006040518083038186803b1580156200055757600080fd5b505afa1580156200056c573d6000803e3d6000fd5b50505050604051806040016040528083600160a060020a0316632c0a85166040518163ffffffff1660e060020a02815260040160006040518083038186803b1580156200027357600080fd5b620005c262000c48565b600160009054906101000a9004600160a060020a0316600160a060020a031663738833fb6040518163ffffffff1660e060020a02815260040160006040518083038186803b1580156200061457600080fd5b505afa15801562000629573d6000803e3d6000fd5b505050506040518060c0016040528083600160a060020a0316632796c8f06040518163ffffffff1660e060020a02815260040160006040518083038186803b1580156200067557600080fd5b505afa1580156200068a573d6000803e3d6000fd5b505050506040513d6000823e601f3d908101601f19168201604052620006b4919081019062000d36565b815260200183600160a060020a0316632f5319e16040518163ffffffff1660e060020a02815260040160006040518083038186803b158015620006f657600080fd5b505afa1580156200070b573d6000803e3d6000fd5b505050506040513d6000823e601f3d908101601f1916820160405262000735919081019062000d36565b815260200183600160a060020a031663ce3dc9416040518163ffffffff1660e060020a02815260040160006040518083038186803b1580156200077757600080fd5b505afa1580156200078c573d6000803e3d6000fd5b505050506040513d6000823e601f3d908101601f19168201604052620007b6919081019062000d36565b815260200183600160a060020a031663b2ec005e6040518163ffffffff1660e060020a02815260040160006040518083038186803b158015620007f857600080fd5b505afa1580156200080d573d6000803e3d6000fd5b505050506040513d6000823e601f3d908101601f1916820160405262000837919081019062000d36565b815260200183600160a060020a031663bef31c3c6040518163ffffffff1660e060020a02815260040160006040518083038186803b1580156200087957600080fd5b505afa1580156200088e573d6000803e3d6000fd5b505050506040513d6000823e601f3d908101601f19168201604052620008b8919081019062000d36565b815260200183600160a060020a03166327d206656040518163ffffffff1660e060020a02815260040160006040518083038186803b158015620002f457600080fd5b600082826040516200090c9062000c63565b6200091992919062001083565b604051809103906000f08015801562000936573d6000803e3d6000fd5b5060005460405160e060020a63e899d753028152600160a060020a0380841660048301528581166024830152606060448301526003606483015260ea60020a6214105502608483015292935091169063e899d7539060a401600060405180830381600087803b158015620009a957600080fd5b505af1158015620009be573d6000803e3d6000fd5b50505050505050565b6000838284604051620009da9062000c71565b620009e893929190620010b0565b604051809103906000f08015801562000a05573d6000803e3d6000fd5b5060005460405160e060020a63e899d753028152600160a060020a0380841660048301528581166024830152606060448301526003606483015260e860020a62484f5302608483015292935091169063e899d7539060a4015b600060405180830381600087803b15801562000a7957600080fd5b505af115801562000a8e573d6000803e3d6000fd5b5050505050505050565b600083838360405162000aab9062000c7f565b62000ab993929190620010f2565b604051809103906000f08015801562000ad6573d6000803e3d6000fd5b5060005460405160e060020a63e899d753028152600160a060020a0380841660048301528581166024830152606060448301526003606483015260e960020a6223a7ab02608483015292935091169063e899d7539060a40162000a5e565b6001546040805160e060020a63738833fb0281529051606092600160a060020a03169163738833fb916004808301926000929190829003018186803b15801562000b7d57600080fd5b505afa15801562000b92573d6000803e3d6000fd5b5050505081600160a060020a031663853e0b466040518163ffffffff1660e060020a02815260040160006040518083038186803b15801562000bd357600080fd5b505afa15801562000be8573d6000803e3d6000fd5b505050506040513d6000823e601f3d908101601f19168201604052620004f5919081019062000d36565b60405180604001604052806002905b606081526020019060019003908162000c215790505090565b610d7580620012a383390190565b6040805160c081019091526060815260056020820162000c21565b610ee7806200201883390190565b6111c38062002eff83390190565b6106ef80620040c283390190565b8035620003388162001289565b600082601f83011262000cab578081fd5b813562000cc262000cbc8262001212565b620011df565b81815284602083860101111562000cd7578283fd5b816020850160208301379081016020019190915292915050565b60006020828403121562000d03578081fd5b813562000d108162001289565b9392505050565b60006020828403121562000d29578081fd5b815162000d108162001289565b60006020828403121562000d48578081fd5b81516001604060020a0381111562000d5e578182fd5b8201601f8101841362000d6f578182fd5b805162000d8062000cbc8262001212565b81815285602083850101111562000d95578384fd5b62000da88260208301602086016200123c565b95945050505050565b6000806040838503121562000dc4578081fd5b82356001604060020a0381111562000dda578182fd5b62000de88582860162000c9a565b925050602083013562000dfb8162001289565b809150509250929050565b60008060006060848603121562000e1b578081fd5b83356001604060020a038082111562000e32578283fd5b62000e408783880162000c9a565b9450602086013591508082111562000e56578283fd5b5062000e658682870162000c9a565b925050604084013562000e788162001289565b809150509250925092565b600080600080600080600080610100898b03121562000ea0578384fd5b88356001604060020a038082111562000eb7578586fd5b62000ec58c838d0162000c9a565b995060208b013591508082111562000edb578586fd5b62000ee98c838d0162000c9a565b985060408b013591508082111562000eff578586fd5b62000f0d8c838d0162000c9a565b975060608b013591508082111562000f23578586fd5b62000f318c838d0162000c9a565b965060808b013591508082111562000f47578586fd5b62000f558c838d0162000c9a565b955062000f6560a08c0162000c8d565b945062000f7560c08c0162000c8d565b935060e08b013591508082111562000f8b578283fd5b5062000f9a8b828c0162000c9a565b9150509295985092959890939650565b6000815180845262000fc48160208601602086016200123c565b601f01601f19169290920160200192915050565b60208082526000906060830183820185845b60028110156200101d57601f198785030183526200100a84835162000faa565b9350918401919084019060010162000fea565b50919695505050505050565b602080825260009060e0830183820185845b60068110156200101d57601f198785030183526200105b84835162000faa565b935091840191908401906001016200103b565b60208152600062000d10602083018462000faa565b60408152600062001098604083018562000faa565b9050600160a060020a03831660208301529392505050565b606081526000620010c5606083018662000faa565b600160a060020a03851660208401528281036040840152620010e8818562000faa565b9695505050505050565b60608152600062001107606083018662000faa565b82810360208401526200111b818662000faa565b915050600160a060020a0383166040830152949350505050565b60006101008083526200114b8184018c62000faa565b9050828103602084015262001161818b62000faa565b9050828103604084015262001177818a62000faa565b905082810360608401526200118d818962000faa565b90508281036080840152620011a3818862000faa565b600160a060020a0387811660a0860152861660c085015283810360e08501529050620011d0818562000faa565b9b9a5050505050505050505050565b604051601f8201601f191681016001604060020a03811182821017156200120a576200120a6200126f565b604052919050565b60006001604060020a038211156200122e576200122e6200126f565b50601f01601f191660200190565b60005b83811015620012595781810151838201526020016200123f565b8381111562001269576000848401525b50505050565b60e060020a634e487b710260009081526041600452602490fd5b600160a060020a03811681146200129f57600080fd5b5056fe60806040523480156200001157600080fd5b5060405162000d7538038062000d75833981016040819052620000349162000272565b8751620000499060009060208b0190620000fc565b5060018054600160a060020a031916600160a060020a03841617905586516200007a9060029060208a0190620000fc565b50855162000090906003906020890190620000fc565b508451620000a6906004906020880190620000fc565b508351620000bc906005906020870190620000fc565b5060068054600160a060020a031916600160a060020a0385161790558051620000ed906009906020840190620000fc565b5050505050505050506200041e565b8280546200010a9062000399565b90600052602060002090601f0160209004810192826200012e576000855562000179565b82601f106200014957805160ff191683800117855562000179565b8280016001018555821562000179579182015b82811115620001795782518255916020019190600101906200015c565b50620001879291506200018b565b5090565b5b808211156200018757600081556001016200018c565b8051600160a060020a0381168114620001ba57600080fd5b919050565b600082601f830112620001d0578081fd5b81516001604060020a0380821115620001ed57620001ed620003ef565b604051601f8301601f19908116603f01168101908282118183101715620002185762000218620003ef565b8160405283815260209250868385880101111562000234578485fd5b8491505b8382101562000257578582018301518183018401529082019062000238565b838211156200026857848385830101525b9695505050505050565b600080600080600080600080610100898b0312156200028f578384fd5b88516001604060020a0380821115620002a6578586fd5b620002b48c838d01620001bf565b995060208b0151915080821115620002ca578586fd5b620002d88c838d01620001bf565b985060408b0151915080821115620002ee578586fd5b620002fc8c838d01620001bf565b975060608b015191508082111562000312578586fd5b620003208c838d01620001bf565b965060808b015191508082111562000336578586fd5b620003448c838d01620001bf565b95506200035460a08c01620001a2565b94506200036460c08c01620001a2565b935060e08b01519150808211156200037a578283fd5b50620003898b828c01620001bf565b9150509295985092959890939650565b600281046001821680620003ae57607f821691505b60208210811415620003e9577f4e487b7100000000000000000000000000000000000000000000000000000000600052602260045260246000fd5b50919050565b7f4e487b7100000000000000000000000000000000000000000000000000000000600052604160045260246000fd5b610947806200042e6000396000f3fe608060405234801561001057600080fd5b50600436106100b25760e060020a600035046318769d4681146100b75780632796c8f0146100e157806327d20665146100f65780632f5319e1146100fe578063503b1354146101065780636d263ceb1461011b5780637d0d625714610191578063839ea98f146101a4578063b2ec005e146101b7578063bc9c2d55146101bf578063bef31c3c146101d0578063ce3dc941146101d8578063d13fd1e8146101e0575b600080fd5b600654600160a060020a03165b604051600160a060020a0390911681526020015b60405180910390f35b6100e9610210565b6040516100d89190610819565b6100e96102a2565b6100e96102b1565b61010e6102c0565b6040516100d891906107cc565b61018f6101293660046106ac565b600160a060020a03166000818152600760205260408120805460ff191660019081179091556008805491820181559091527ff3f7a9fe364faab93b216da50a3214154f22a0a2b415b23a84c8169e8b636ee3018054600160a060020a0319169091179055565b005b61018f61019f3660046106ac565b610321565b61018f6101b23660046106cd565b6104a8565b6100e9610544565b600154600160a060020a03166100c4565b6100e9610553565b6100e9610562565b61018f6101ee3660046106ac565b60018054600160a060020a031916600160a060020a0392909216919091179055565b60606000805461021f90610883565b80601f016020809104026020016040519081016040528092919081815260200182805461024b90610883565b80156102985780601f1061026d57610100808354040283529160200191610298565b820191906000526020600020905b81548152906001019060200180831161027b57829003601f168201915b5050505050905090565b60606009805461021f90610883565b60606002805461021f90610883565b6060600880548060200260200160405190810160405280929190818152602001828054801561029857602002820191906000526020600020905b8154600160a060020a031681526001909101906020018083116102fa575050505050905090565b60005b6008546103339060019061086c565b8110156104a45781600160a060020a0316600882815481106103685760e060020a634e487b7102600052603260045260246000fd5b600091825260209091200154600160a060020a031614156104925760085460011461042a576008805461039d9060019061086c565b815481106103be5760e060020a634e487b7102600052603260045260246000fd5b60009182526020909120015460088054600160a060020a0390921691839081106103fb5760e060020a634e487b7102600052603260045260246000fd5b9060005260206000200160006101000a815481600160a060020a030219169083600160a060020a031602179055505b600160a060020a0382166000908152600760205260409020805460ff19169055600880548061046c5760e060020a634e487b7102600052603160045260246000fd5b60008281526020902081016000199081018054600160a060020a03191690550190555050565b8061049c816108c2565b915050610324565b5050565b86516104bb9060009060208a0190610571565b5085516104cf906002906020890190610571565b5084516104e3906003906020880190610571565b5083516104f7906004906020870190610571565b50825161050b906005906020860190610571565b5060068054600160a060020a031916600160a060020a038416179055805161053a906009906020840190610571565b5050505050505050565b60606004805461021f90610883565b60606005805461021f90610883565b60606003805461021f90610883565b82805461057d90610883565b90600052602060002090601f01602090048101928261059f57600085556105e5565b82601f106105b857805160ff19168380011785556105e5565b828001600101855582156105e5579182015b828111156105e55782518255916020019190600101906105ca565b506105f19291506105f5565b5090565b5b808211156105f157600081556001016105f6565b8035600160a060020a038116811461062157600080fd5b919050565b600082601f830112610636578081fd5b81356001604060020a0380821115610650576106506108f7565b604051601f8301601f19908116603f01168101908282118183101715610678576106786108f7565b81604052838152866020858801011115610690578485fd5b8360208701602083013792830160200193909352509392505050565b6000602082840312156106bd578081fd5b6106c68261060a565b9392505050565b600080600080600080600060e0888a0312156106e7578283fd5b87356001604060020a03808211156106fd578485fd5b6107098b838c01610626565b985060208a013591508082111561071e578485fd5b61072a8b838c01610626565b975060408a013591508082111561073f578485fd5b61074b8b838c01610626565b965060608a0135915080821115610760578485fd5b61076c8b838c01610626565b955060808a0135915080821115610781578485fd5b61078d8b838c01610626565b945061079b60a08b0161060a565b935060c08a01359150808211156107b0578283fd5b506107bd8a828b01610626565b91505092959891949750929550565b6020808252825182820181905260009190848201906040850190845b8181101561080d578351600160a060020a0316835292840192918401916001016107e8565b50909695505050505050565b6000602080835283518082850152825b8181101561084557858101830151858201604001528201610829565b818111156108565783604083870101525b50601f01601f1916929092016040019392505050565b60008282101561087e5761087e6108dd565b500390565b60028104600182168061089757607f821691505b602082108114156108bc5760e060020a634e487b710260009081526022600452602490fd5b50919050565b60006000198214156108d6576108d66108dd565b5060010190565b60e060020a634e487b710260009081526011600452602490fd5b60e060020a634e487b710260009081526041600452602490fdfea26469706673582212203f66b9f309de845b851aafc9046ba71debc02db3807c8cf065253ef6f046f29c64736f6c6343000804003360806040523480156200001157600080fd5b5060405162000ee738038062000ee7833981016040819052620000349162000134565b81516200004990600090602085019062000071565b5060018054600160a060020a031916600160a060020a039290921691909117905550620002a5565b8280546200007f9062000220565b90600052602060002090601f016020900481019282620000a35760008555620000ee565b82601f10620000be57805160ff1916838001178555620000ee565b82800160010185558215620000ee579182015b82811115620000ee578251825591602001919060010190620000d1565b50620000fc92915062000100565b5090565b5b80821115620000fc576000815560010162000101565b8051600160a060020a03811681146200012f57600080fd5b919050565b6000806040838503121562000147578182fd5b825167ffffffffffffffff808211156200015f578384fd5b818501915085601f83011262000173578384fd5b81518181111562000188576200018862000276565b604051601f8201601f19908116603f01168101908382118183101715620001b357620001b362000276565b81604052828152602093508884848701011115620001cf578687fd5b8691505b82821015620001f25784820184015181830185015290830190620001d3565b828211156200020357868484830101525b95506200021591505085820162000117565b925050509250929050565b6002810460018216806200023557607f821691505b6020821081141562000270577f4e487b7100000000000000000000000000000000000000000000000000000000600052602260045260246000fd5b50919050565b7f4e487b7100000000000000000000000000000000000000000000000000000000600052604160045260246000fd5b610c3280620002b56000396000f3fe608060405234801561001057600080fd5b50600436106100bd5760e060020a60003504631b470bc781146100c25780632c5ee501146101395780632c7ac18f146101595780633e8a80091461016c5780634780468f1461017f57806363c339c3146101f457806375a5219614610209578063853e0b461461021e57806398fc90e914610233578063996440c614610246578063a969890614610269578063bdf6c6731461027c578063c95171ae1461028f578063fbbf93a014610297575b600080fd5b6101376100d0366004610975565b6005805460018181019092557f036b6384b5eca791c62761152d0c79bb0604c104a5fb6f4eb0703f3154bb3db0018054600160a060020a03909316600160a060020a031990931683179055600091825260036020526040909120805460ff19169091179055565b005b600154604051600160a060020a0390911681526020015b60405180910390f35b6101376101673660046109a3565b61029f565b61013761017a3660046109a3565b6102e6565b61013761018d366004610975565b6004805460018181019092557f8a35acfbc15ff81a39ae7d344fd709f28e8600b4aa8c65c6b64bfe7fe36bd19b018054600160a060020a03909316600160a060020a031990931683179055600091825260026020526040909120805460ff19169091179055565b6101fc6102f9565b6040516101509190610ae4565b6102116103d2565b6040516101509190610a97565b610226610434565b6040516101509190610b44565b610137610241366004610975565b6104bd565b610259610254366004610975565b610634565b6040519015158152602001610150565b610137610277366004610975565b610652565b61025961028a366004610975565b6107c9565b6102116107e7565b610226610847565b6006805460018101825560009190915281516102e2917ff652222313e28459528d920b65115c16c04f3efc82aaedc97be59f3f377c0d3f019060208401906108dc565b5050565b80516102e29060009060208401906108dc565b60606006805480602002602001604051908101604052809291908181526020016000905b828210156103c957838290600052602060002001805461033c90610b6e565b80601f016020809104026020016040519081016040528092919081815260200182805461036890610b6e565b80156103b55780601f1061038a576101008083540402835291602001916103b5565b820191906000526020600020905b81548152906001019060200180831161039857829003601f168201915b50505050508152602001906001019061031d565b50505050905090565b6060600580548060200260200160405190810160405280929190818152602001828054801561042a57602002820191906000526020600020905b8154600160a060020a0316815260019091019060200180831161040c575b5050505050905090565b60606000805461044390610b6e565b80601f016020809104026020016040519081016040528092919081815260200182805461046f90610b6e565b801561042a5780601f106104915761010080835404028352916020019161042a565b820191906000526020600020905b81548152906001019060200180831161049f57509395945050505050565b60005b6004548110156102e25781600160a060020a0316600482815481106104f85760e060020a634e487b7102600052603260045260246000fd5b600091825260209091200154600160a060020a03161415610622576004546001146105ba576004805461052d90600190610b57565b8154811061054e5760e060020a634e487b7102600052603260045260246000fd5b60009182526020909120015460048054600160a060020a03909216918390811061058b5760e060020a634e487b7102600052603260045260246000fd5b9060005260206000200160006101000a815481600160a060020a030219169083600160a060020a031602179055505b60048054806105dc5760e060020a634e487b7102600052603160045260246000fd5b6000828152602080822083016000199081018054600160a060020a0319169055909201909255600160a060020a03841682526002905260409020805460ff191690555050565b8061062c81610bad565b9150506104c0565b600160a060020a031660009081526002602052604090205460ff1690565b60005b6005548110156102e25781600160a060020a03166005828154811061068d5760e060020a634e487b7102600052603260045260246000fd5b600091825260209091200154600160a060020a031614156107b75760045460011461074f57600580546106c290600190610b57565b815481106106e35760e060020a634e487b7102600052603260045260246000fd5b60009182526020909120015460058054600160a060020a0390921691839081106107205760e060020a634e487b7102600052603260045260246000fd5b9060005260206000200160006101000a815481600160a060020a030219169083600160a060020a031602179055505b60058054806107715760e060020a634e487b7102600052603160045260246000fd5b6000828152602080822083016000199081018054600160a060020a0319169055909201909255600160a060020a03841682526003905260409020805460ff191690555050565b806107c181610bad565b915050610655565b600160a060020a031660009081526003602052604090205460ff1690565b6060600480548060200260200160405190810160405280929190818152602001828054801561042a57602002820191906000526020600020908154600160a060020a0316815260019091019060200180831161040c575050505050905090565b606061085161085e565b6000805461044390610b6e565b61086732610634565b806108765750610876326107c9565b8061088b5750600154600160a060020a031632145b6108da5760405160e560020a62461bcd0281526020600482015260166024820152605160020a752932b9ba3934b1ba32b2103a37902820aa24a2a72a1702604482015260640160405180910390fd5b565b8280546108e890610b6e565b90600052602060002090601f01602090048101928261090a5760008555610950565b82601f1061092357805160ff1916838001178555610950565b82800160010185558215610950579182015b82811115610950578251825591602001919060010190610935565b5061095c929150610960565b5090565b5b8082111561095c5760008155600101610961565b600060208284031215610986578081fd5b8135600160a060020a038116811461099c578182fd5b9392505050565b6000602082840312156109b4578081fd5b81356001604060020a03808211156109ca578283fd5b818401915084601f8301126109dd578283fd5b8135818111156109ef576109ef610be2565b604051601f8201601f19908116603f01168101908382118183101715610a1757610a17610be2565b81604052828152876020848701011115610a2f578586fd5b826020860160208301379182016020019490945295945050505050565b60008151808452815b81811015610a7157602081850181015186830182015201610a55565b81811115610a825782602083870101525b50601f01601f19169290920160200192915050565b6020808252825182820181905260009190848201906040850190845b81811015610ad8578351600160a060020a031683529284019291840191600101610ab3565b50909695505050505050565b6000602080830181845280855180835260408601915060408482028701019250838701855b82811015610b3757603f19888603018452610b25858351610a4c565b94509285019290850190600101610b09565b5092979650505050505050565b60208152600061099c6020830184610a4c565b600082821015610b6957610b69610bc8565b500390565b600281046001821680610b8257607f821691505b60208210811415610ba75760e060020a634e487b710260009081526022600452602490fd5b50919050565b6000600019821415610bc157610bc1610bc8565b5060010190565b60e060020a634e487b710260009081526011600452602490fd5b60e060020a634e487b710260009081526041600452602490fdfea264697066735822122013cf7fbf1dad14158abd3de064d548e7bc62f55e00dda1b57e233df7a5932a5e64736f6c6343000804003360806040523480156200001157600080fd5b50604051620011c3380380620011c38339810160408190526200003491620001dd565b82516200004990600090602086019062000084565b5060018054600160a060020a031916600160a060020a03841617905580516200007a90600290602084019062000084565b50505050620002e9565b828054620000929062000264565b90600052602060002090601f016020900481019282620000b6576000855562000101565b82601f10620000d157805160ff191683800117855562000101565b8280016001018555821562000101579182015b8281111562000101578251825591602001919060010190620000e4565b506200010f92915062000113565b5090565b5b808211156200010f576000815560010162000114565b600082601f8301126200013b578081fd5b81516001604060020a0380821115620001585762000158620002ba565b604051601f8301601f19908116603f01168101908282118183101715620001835762000183620002ba565b816040528381526020925086838588010111156200019f578485fd5b8491505b83821015620001c25785820183015181830184015290820190620001a3565b83821115620001d357848385830101525b9695505050505050565b600080600060608486031215620001f2578283fd5b83516001604060020a038082111562000209578485fd5b62000217878388016200012a565b60208701519095509150600160a060020a038216821462000236578384fd5b6040860151919350808211156200024b578283fd5b506200025a868287016200012a565b9150509250925092565b6002810460018216806200027957607f821691505b60208210811415620002b4577f4e487b7100000000000000000000000000000000000000000000000000000000600052602260045260246000fd5b50919050565b7f4e487b7100000000000000000000000000000000000000000000000000000000600052604160045260246000fd5b610eca80620002f96000396000f3fe608060405234801561001057600080fd5b50600436106100de5760e060020a6000350463086c32e581146100e35780631fc72900146100f857806324db757f14610128578063363c80aa1461014657806338be48b41461015b5780634780468f1461016e57806352c07a9d146101e3578063679a131a146101f65780636d263ceb1461020b5780637d0d6257146102805780638f9c79ed1461029357806398fc90e9146102cf578063996440c6146102e2578063c95171ae1461030e578063c98d66c114610316578063ded15aaf1461031e578063e5b8459014610331575b600080fd5b6100f66100f1366004610b9d565b61034c565b005b6100f6610106366004610b6f565b60018054600160a060020a031916600160a060020a0392909216919091179055565b610130610363565b60405161013d9190610ddc565b60405180910390f35b61014e6103f5565b60405161013d9190610d7c565b6100f6610169366004610b9d565b6104ce565b6100f661017c366004610b6f565b6005805460018181019092557f036b6384b5eca791c62761152d0c79bb0604c104a5fb6f4eb0703f3154bb3db0018054600160a060020a03909316600160a060020a031990931683179055600091825260036020526040909120805460ff19169091179055565b6100f66101f1366004610b9d565b610511565b6101fe610651565b60405161013d9190610d2f565b6100f6610219366004610b6f565b6006805460018181019092557ff652222313e28459528d920b65115c16c04f3efc82aaedc97be59f3f377c0d3f018054600160a060020a03909316600160a060020a031990931683179055600091825260046020526040909120805460ff19169091179055565b6100f661028e366004610b6f565b6106b2565b6102bf6102a1366004610b6f565b600160a060020a031660009081526004602052604090205460ff1690565b604051901515815260200161013d565b6100f66102dd366004610b6f565b610829565b6102bf6102f0366004610b6f565b600160a060020a031660009081526003602052604090205460ff1690565b6101fe6109a0565b610130610a00565b6100f661032c366004610b9d565b610a0f565b600154604051600160a060020a03909116815260200161013d565b805161035f906002906020840190610a1e565b5050565b60606002805461037290610e06565b80601f016020809104026020016040519081016040528092919081815260200182805461039e90610e06565b80156103eb5780601f106103c0576101008083540402835291602001916103eb565b820191906000526020600020905b8154815290600101906020018083116103ce57829003601f168201915b5050505050905090565b60606007805480602002602001604051908101604052809291908181526020016000905b828210156104c557838290600052602060002001805461043890610e06565b80601f016020809104026020016040519081016040528092919081815260200182805461046490610e06565b80156104b15780601f10610486576101008083540402835291602001916104b1565b820191906000526020600020905b81548152906001019060200180831161049457829003601f168201915b505050505081526020019060010190610419565b50505050905090565b60078054600181018255600091909152815161035f917fa66cc928b5edb82af9bd49922954155ab7b0942694bea4ce44661d9a8736c68801906020840190610a1e565b60005b60075481101561035f5781805190602001206007828154811061054a5760e060020a634e487b7102600052603260045260246000fd5b906000526020600020016040516105619190610c91565b6040518091039020141561063f576007546001146105fb576007805461058990600190610def565b815481106105aa5760e060020a634e487b7102600052603260045260246000fd5b90600052602060002001600782815481106105d85760e060020a634e487b7102600052603260045260246000fd5b906000526020600020019080546105ee90610e06565b6105f9929190610aa2565b505b600780548061061d5760e060020a634e487b7102600052603160045260246000fd5b6001900381819060005260206000200160006106399190610b1d565b90555050565b8061064981610e45565b915050610514565b606060068054806020026020016040519081016040528092919081815260200182805480156103eb57602002820191906000526020600020905b8154600160a060020a0316815260019091019060200180831161068b575050505050905090565b60005b60065481101561035f5781600160a060020a0316600682815481106106ed5760e060020a634e487b7102600052603260045260246000fd5b600091825260209091200154600160a060020a03161415610817576006546001146107af576006805461072290600190610def565b815481106107435760e060020a634e487b7102600052603260045260246000fd5b60009182526020909120015460068054600160a060020a0390921691839081106107805760e060020a634e487b7102600052603260045260246000fd5b9060005260206000200160006101000a815481600160a060020a030219169083600160a060020a031602179055505b60068054806107d15760e060020a634e487b7102600052603160045260246000fd5b6000828152602080822083016000199081018054600160a060020a0319169055909201909255600160a060020a03841682526004905260409020805460ff191690555050565b8061082181610e45565b9150506106b5565b60005b60055481101561035f5781600160a060020a0316600582815481106108645760e060020a634e487b7102600052603260045260246000fd5b600091825260209091200154600160a060020a0316141561098e57600554600114610926576005805461089990600190610def565b815481106108ba5760e060020a634e487b7102600052603260045260246000fd5b60009182526020909120015460058054600160a060020a0390921691839081106108f75760e060020a634e487b7102600052603260045260246000fd5b9060005260206000200160006101000a815481600160a060020a030219169083600160a060020a031602179055505b60058054806109485760e060020a634e487b7102600052603160045260246000fd5b6000828152602080822083016000199081018054600160a060020a0319169055909201909255600160a060020a03841682526003905260409020805460ff191690555050565b8061099881610e45565b91505061082c565b606060058054806020026020016040519081016040528092919081815260200182805480156103eb57602002820191906000526020600020908154600160a060020a0316815260019091019060200180831161068b575050505050905090565b60606000805461037290610e06565b805161035f9060009060208401905b828054610a2a90610e06565b90600052602060002090601f016020900481019282610a4c5760008555610a92565b82601f10610a6557805160ff1916838001178555610a92565b82800160010185558215610a92579182015b82811115610a92578251825591602001919060010190610a77565b50610a9e929150610b5a565b5090565b828054610aae90610e06565b90600052602060002090601f016020900481019282610ad05760008555610a92565b82601f10610ae15780548555610a92565b82800160010185558215610a9257600052602060002091601f016020900482015b82811115610a92578254825591600101919060010190610b02565b508054610b2990610e06565b6000825580601f10610b39575050565b601f016020900490600052602060002090810190610b579190610b5a565b50565b5b80821115610a9e5760008155600101610b5b565b600060208284031215610b80578081fd5b8135600160a060020a0381168114610b96578182fd5b9392505050565b600060208284031215610bae578081fd5b81356001604060020a0380821115610bc4578283fd5b818401915084601f830112610bd7578283fd5b813581811115610be957610be9610e7a565b604051601f8201601f19908116603f01168101908382118183101715610c1157610c11610e7a565b81604052828152876020848701011115610c29578586fd5b826020860160208301379182016020019490945295945050505050565b60008151808452815b81811015610c6b57602081850181015186830182015201610c4f565b81811115610c7c5782602083870101525b50601f01601f19169290920160200192915050565b8154600090819060028104600180831680610cad57607f831692505b6020808410821415610cd05760e060020a634e487b710287526022600452602487fd5b818015610ce45760018114610cf557610d21565b60ff19861689528489019650610d21565b60008a815260209020885b86811015610d195781548b820152908501908301610d00565b505084890196505b509498975050505050505050565b6020808252825182820181905260009190848201906040850190845b81811015610d70578351600160a060020a031683529284019291840191600101610d4b565b50909695505050505050565b6000602080830181845280855180835260408601915060408482028701019250838701855b82811015610dcf57603f19888603018452610dbd858351610c46565b94509285019290850190600101610da1565b5092979650505050505050565b602081526000610b966020830184610c46565b600082821015610e0157610e01610e60565b500390565b600281046001821680610e1a57607f821691505b60208210811415610e3f5760e060020a634e487b710260009081526022600452602490fd5b50919050565b6000600019821415610e5957610e59610e60565b5060010190565b60e060020a634e487b710260009081526011600452602490fd5b60e060020a634e487b710260009081526041600452602490fdfea2646970667358221220aa4e3fd20c10df7682d9ee9e4a7ca04580e92524fbc8339a54f1a49e78e81a2964736f6c63430008040033608060405234801561001057600080fd5b506040516106ef3803806106ef83398101604081905261002f916101c0565b825161004290600090602086019061007f565b50815161005690600190602085019061007f565b5060028054600160a060020a031916600160a060020a0392909216919091179055506102c49050565b82805461008b90610241565b90600052602060002090601f0160209004810192826100ad57600085556100f3565b82601f106100c657805160ff19168380011785556100f3565b828001600101855582156100f3579182015b828111156100f35782518255916020019190600101906100d8565b506100ff929150610103565b5090565b5b808211156100ff5760008155600101610104565b600082601f830112610128578081fd5b81516001604060020a038082111561014257610142610295565b604051601f8301601f19908116603f0116810190828211818310171561016a5761016a610295565b81604052838152602092508683858801011115610185578485fd5b8491505b838210156101a65785820183015181830184015290820190610189565b838211156101b657848385830101525b9695505050505050565b6000806000606084860312156101d4578283fd5b83516001604060020a03808211156101ea578485fd5b6101f687838801610118565b9450602086015191508082111561020b578384fd5b5061021886828701610118565b60408601519093509050600160a060020a0381168114610236578182fd5b809150509250925092565b60028104600182168061025557607f821691505b6020821081141561028f577f4e487b7100000000000000000000000000000000000000000000000000000000600052602260045260246000fd5b50919050565b7f4e487b7100000000000000000000000000000000000000000000000000000000600052604160045260246000fd5b61041c806102d36000396000f3fe608060405234801561001057600080fd5b50600436106100655760e060020a6000350463086c32e5811461006a57806324db757f1461007f5780632c0a85161461009d578063441e2f09146100a5578063d665b298146100b8578063d67c2da3146100e8575b600080fd5b61007d610078366004610291565b610103565b005b61008761011a565b604051610094919061033a565b60405180910390f35b6100876101ac565b61007d6100b3366004610291565b6101bb565b61007d6100c6366004610263565b60028054600160a060020a031916600160a060020a0392909216919091179055565b600254604051600160a060020a039091168152602001610094565b80516101169060019060208401906101ca565b5050565b6060600180546101299061038d565b80601f01602080910402602001604051908101604052809291908181526020018280546101559061038d565b80156101a25780601f10610177576101008083540402835291602001916101a2565b820191906000526020600020905b81548152906001019060200180831161018557829003601f168201915b5050505050905090565b6060600080546101299061038d565b80516101169060009060208401905b8280546101d69061038d565b90600052602060002090601f0160209004810192826101f8576000855561023e565b82601f1061021157805160ff191683800117855561023e565b8280016001018555821561023e579182015b8281111561023e578251825591602001919060010190610223565b5061024a92915061024e565b5090565b5b8082111561024a576000815560010161024f565b600060208284031215610274578081fd5b8135600160a060020a038116811461028a578182fd5b9392505050565b6000602082840312156102a2578081fd5b81356001604060020a03808211156102b8578283fd5b818401915084601f8301126102cb578283fd5b8135818111156102dd576102dd6103cc565b604051601f8201601f19908116603f01168101908382118183101715610305576103056103cc565b8160405282815287602084870101111561031d578586fd5b826020860160208301379182016020019490945295945050505050565b6000602080835283518082850152825b818110156103665785810183015185820160400152820161034a565b818111156103775783604083870101525b50601f01601f1916929092016040019392505050565b6002810460018216806103a157607f821691505b602082108114156103c65760e060020a634e487b710260009081526022600452602490fd5b50919050565b60e060020a634e487b710260009081526041600452602490fdfea264697066735822122031ada13bf47a10e79058a8f19cefd0c4e92aee3053932a0ed5a2275e92f717b864736f6c63430008040033a26469706673582212208dc8ea07c893be5a3aa0692dae9cc38be62d4899f43fa6ba8d0abb3f41406d1c64736f6c63430008040033",
  "linkReferences": {},
  "deployedLinkReferences": {}
}