{
  "_format": "hh-sol-artifact-1",
  "contractName": "ApproveDetails",
  "sourceName": "contracts/APPROVE.sol",
  "abi": [
    {
      "inputs": [
        {
          "internalType": "address",
          "name": "_DHRMS_PAT_CONTRACT_ADDRESS",
          "type": "address"
        },
        {
          "internalType": "address",
          "name": "_DHRMS_HOS_CONTRACT_ADDRESS",
          "type": "address"
        },
        {
          "internalType": "address",
          "name": "_DHRMS_DOC_CONTRACT_ADDRESS",
          "type": "address"
        },
        {
          "internalType": "address",
          "name": "_DHRMS_GOV_CONTRACT_ADDRESS",
          "type": "address"
        }
      ],
      "stateMutability": "nonpayable",
      "type": "constructor"
    },
    {
      "inputs": [
        {
          "internalType": "address",
          "name": "instAdd",
          "type": "address"
        },
        {
          "internalType": "address",
          "name": "userAdd",
          "type": "address"
        },
        {
          "internalType": "string",
          "name": "userType",
          "type": "string"
        }
      ],
      "name": "addtoApproveList",
      "outputs": [],
      "stateMutability": "nonpayable",
      "type": "function"
    },
    {
      "inputs": [
        {
          "internalType": "address",
          "name": "_userAdd",
          "type": "address"
        }
      ],
      "name": "approve",
      "outputs": [],
      "stateMutability": "nonpayable",
      "type": "function"
    },
    {
      "inputs": [
        {
          "internalType": "address",
          "name": "_userAdd",
          "type": "address"
        }
      ],
      "name": "disApprove",
      "outputs": [],
      "stateMutability": "nonpayable",
      "type": "function"
    },
    {
      "inputs": [],
      "name": "getApproveList",
      "outputs": [
        {
          "components": [
            {
              "internalType": "address",
              "name": "instanceAdd",
              "type": "address"
            },
            {
              "internalType": "address",
              "name": "userAdd",
              "type": "address"
            },
            {
              "internalType": "string",
              "name": "userType",
              "type": "string"
            },
            {
              "internalType": "uint256",
              "name": "timestamp",
              "type": "uint256"
            }
          ],
          "internalType": "struct ApproveDetails.Approve[]",
          "name": "",
          "type": "tuple[]"
        }
      ],
      "stateMutability": "view",
      "type": "function"
    }
  ],
  "bytecode": "0x60806040523480156200001157600080fd5b5060405162001bd538038062001bd58339810160408190526200003491620000a5565b60018054600160a060020a03958616600160a060020a031991821617909155600380549486169482169490941790935560028054928516928416929092179091556000805491909316911617905562000101565b8051600160a060020a0381168114620000a057600080fd5b919050565b60008060008060808587031215620000bb578384fd5b620000c68562000088565b9350620000d66020860162000088565b9250620000e66040860162000088565b9150620000f66060860162000088565b905092959194509250565b611ac480620001116000396000f3fe608060405234801561001057600080fd5b506004361061004f5760e060020a600035046311c43b198114610054578063bdf9f64614610072578063daea85c514610087578063e899d7531461009a575b600080fd5b61005c6100ad565b60405161006991906117ae565b60405180910390f35b610085610080366004611594565b6101cb565b005b610085610095366004611594565b610386565b6100856100a83660046115d3565b61134d565b60606004805480602002602001604051908101604052809291908181526020016000905b828210156101c257600084815260209081902060408051608081018252600486029092018054600160a060020a0390811684526001820154169383019390935260028301805492939291840191610127906119eb565b80601f0160208091040260200160405190810160405280929190818152602001828054610153906119eb565b80156101a05780601f10610175576101008083540402835291602001916101a0565b820191906000526020600020905b81548152906001019060200180831161018357829003601f168201915b50505050508152602001600382015481525050815260200190600101906100d1565b50505050905090565b60005b6004548110156103825781600160a060020a0316600482815481106102065760e060020a634e487b7102600052603260045260246000fd5b6000918252602090912060016004909202010154600160a060020a03161415610370576004546001146103035760048054610243906001906119a4565b815481106102645760e060020a634e487b7102600052603260045260246000fd5b9060005260206000209060040201600482815481106102965760e060020a634e487b7102600052603260045260246000fd5b6000918252602090912082546004909202018054600160a060020a03928316600160a060020a031991821617825560018085015490830180549190941691161790915560028083018054918301916102ed906119eb565b6102f8929190611443565b506003918201549101555b60048054806103255760e060020a634e487b7102600052603160045260246000fd5b6000828152602081206004600019909301928302018054600160a060020a0319908116825560018201805490911690559061036360028301826114ce565b6003820160009055505090555b8061037a81611a2a565b9150506101ce565b5050565b60005b6004548110156103825781600160a060020a0316600482815481106103c15760e060020a634e487b7102600052603260045260246000fd5b6000918252602090912060016004909202010154600160a060020a0316141561133b577f8eeeb5290718f324aa0965d35cf24b6163c00698ab277824ce00bdf229264ecf600482815481106104295760e060020a634e487b7102600052603260045260246000fd5b90600052602060002090600402016002016040516104479190611710565b604051809103902014156106cf5760005460048054600160a060020a0390921691630d339ad29190849081106104905760e060020a634e487b7102600052603260045260246000fd5b600091825260208220600491820201546040805160e160020a631605428b0281529051600160a060020a0390921693632c0a851693828101939192829003018186803b1580156104df57600080fd5b505afa1580156104f3573d6000803e3d6000fd5b505050506040513d6000823e601f3d908101601f1916820160405261051b9190810190611672565b6004848154811061053f5760e060020a634e487b7102600052603260045260246000fd5b600091825260208220600491820201546040805160e060020a6324db757f0281529051600160a060020a03909216936324db757f93828101939192829003018186803b15801561058e57600080fd5b505afa1580156105a2573d6000803e3d6000fd5b505050506040513d6000823e601f3d908101601f191682016040526105ca9190810190611672565b600485815481106105ee5760e060020a634e487b7102600052603260045260246000fd5b6000918252602091829020600491820201546040805160e060020a63d67c2da30281529051600160a060020a039092169363d67c2da393828101939192829003018186803b15801561063f57600080fd5b505afa158015610653573d6000803e3d6000fd5b505050506040513d601f19601f8201168201806040525081019061067791906115b7565b6040518463ffffffff1660e060020a02815260040161069893929190611870565b600060405180830381600087803b1580156106b257600080fd5b505af11580156106c6573d6000803e3d6000fd5b50505050611183565b7fe89967e40ef7b0c8e3083f107bcd7bcce6d6477c95740e74040ab2217cf4eb16600482815481106107145760e060020a634e487b7102600052603260045260246000fd5b90600052602060002090600402016002016040516107329190611710565b6040518091039020141561092a5760035460048054600160a060020a03909216916351d9ab3891908490811061077b5760e060020a634e487b7102600052603260045260246000fd5b600091825260208220600491820201546040805160e060020a63c98d66c10281529051600160a060020a039092169363c98d66c193828101939192829003018186803b1580156107ca57600080fd5b505afa1580156107de573d6000803e3d6000fd5b505050506040513d6000823e601f3d908101601f191682016040526108069190810190611672565b6004848154811061082a5760e060020a634e487b7102600052603260045260246000fd5b600091825260208220600491820201546040805160e060020a6324db757f0281529051600160a060020a03909216936324db757f93828101939192829003018186803b15801561087957600080fd5b505afa15801561088d573d6000803e3d6000fd5b505050506040513d6000823e601f3d908101601f191682016040526108b59190810190611672565b600485815481106108d95760e060020a634e487b7102600052603260045260246000fd5b6000918252602091829020600491820201546040805160e460020a630e5b84590281529051600160a060020a039092169363e5b8459093828101939192829003018186803b15801561063f57600080fd5b7f292a01670a1b480b345e48d724cb4f30afd414d3da5da18241af2c83b5695bcb6004828154811061096f5760e060020a634e487b7102600052603260045260246000fd5b906000526020600020906004020160020160405161098d9190611710565b60405180910390201415610f4c5760025460048054600160a060020a0390921691632a386d199190849081106109d65760e060020a634e487b7102600052603260045260246000fd5b600091825260208220600491820201546040805160e460020a6302796c8f0281529051600160a060020a0390921693632796c8f093828101939192829003018186803b158015610a2557600080fd5b505afa158015610a39573d6000803e3d6000fd5b505050506040513d6000823e601f3d908101601f19168201604052610a619190810190611672565b60048481548110610a855760e060020a634e487b7102600052603260045260246000fd5b600091825260208220600491820201546040805160e060020a632f5319e10281529051600160a060020a0390921693632f5319e193828101939192829003018186803b158015610ad457600080fd5b505afa158015610ae8573d6000803e3d6000fd5b505050506040513d6000823e601f3d908101601f19168201604052610b109190810190611672565b60048581548110610b345760e060020a634e487b7102600052603260045260246000fd5b600091825260208220600491820201546040805160e060020a63ce3dc9410281529051600160a060020a039092169363ce3dc94193828101939192829003018186803b158015610b8357600080fd5b505afa158015610b97573d6000803e3d6000fd5b505050506040513d6000823e601f3d908101601f19168201604052610bbf9190810190611672565b60048681548110610be35760e060020a634e487b7102600052603260045260246000fd5b600091825260208220600491820201546040805160e160020a635976002f0281529051600160a060020a039092169363b2ec005e93828101939192829003018186803b158015610c3257600080fd5b505afa158015610c46573d6000803e3d6000fd5b505050506040513d6000823e601f3d908101601f19168201604052610c6e9190810190611672565b60048781548110610c925760e060020a634e487b7102600052603260045260246000fd5b600091825260208220600491820201546040805160e260020a632fbcc70f0281529051600160a060020a039092169363bef31c3c93828101939192829003018186803b158015610ce157600080fd5b505afa158015610cf5573d6000803e3d6000fd5b505050506040513d6000823e601f3d908101601f19168201604052610d1d9190810190611672565b60048881548110610d415760e060020a634e487b7102600052603260045260246000fd5b6000918252602091829020600491820201546040805160e160020a630c3b4ea30281529051600160a060020a03909216936318769d4693828101939192829003018186803b158015610d9257600080fd5b505afa158015610da6573d6000803e3d6000fd5b505050506040513d601f19601f82011682018060405250810190610dca91906115b7565b60048981548110610dee5760e060020a634e487b7102600052603260045260246000fd5b6000918252602091829020600491820201546040805160e060020a63bc9c2d550281529051600160a060020a039092169363bc9c2d5593828101939192829003018186803b158015610e3f57600080fd5b505afa158015610e53573d6000803e3d6000fd5b505050506040513d601f19601f82011682018060405250810190610e7791906115b7565b60048a81548110610e9b5760e060020a634e487b7102600052603260045260246000fd5b600091825260208220600491820201546040805160e060020a6327d206650281529051600160a060020a03909216936327d2066593828101939192829003018186803b158015610eea57600080fd5b505afa158015610efe573d6000803e3d6000fd5b505050506040513d6000823e601f3d908101601f19168201604052610f269190810190611672565b6040518963ffffffff1660e060020a0281526004016106989897969594939291906118af565b7f0e4d1b4fb2558687eecd651ee2d9d18ec141a4ebb5dcc49141fc72f92f80a66360048281548110610f915760e060020a634e487b7102600052603260045260246000fd5b9060005260206000209060040201600201604051610faf9190611710565b604051809103902014156111835760015460048054600160a060020a0390921691638bd87475919084908110610ff85760e060020a634e487b7102600052603260045260246000fd5b600091825260208220600491820201546040805160e160020a63429f05a30281529051600160a060020a039092169363853e0b4693828101939192829003018186803b15801561104757600080fd5b505afa15801561105b573d6000803e3d6000fd5b505050506040513d6000823e601f3d908101601f191682016040526110839190810190611672565b600484815481106110a75760e060020a634e487b7102600052603260045260246000fd5b6000918252602091829020600491820201546040805160e060020a632c5ee5010281529051600160a060020a0390921693632c5ee50193828101939192829003018186803b1580156110f857600080fd5b505afa15801561110c573d6000803e3d6000fd5b505050506040513d601f19601f8201168201806040525081019061113091906115b7565b6040518363ffffffff1660e060020a028152600401611150929190611845565b600060405180830381600087803b15801561116a57600080fd5b505af115801561117e573d6000803e3d6000fd5b505050505b600454600114156111ff5760048054806111b05760e060020a634e487b7102600052603160045260246000fd5b6000828152602081206004600019909301928302018054600160a060020a031990811682556001820180549091169055906111ee60028301826114ce565b60038201600090555050905561133b565b6004805461120f906001906119a4565b815481106112305760e060020a634e487b7102600052603260045260246000fd5b9060005260206000209060040201600482815481106112625760e060020a634e487b7102600052603260045260246000fd5b6000918252602090912082546004909202018054600160a060020a03928316600160a060020a031991821617825560018085015490830180549190941691161790915560028083018054918301916112b9906119eb565b6112c4929190611443565b5060039182015491015560048054806112f05760e060020a634e487b7102600052603160045260246000fd5b6000828152602081206004600019909301928302018054600160a060020a0319908116825560018201805490911690559061132e60028301826114ce565b6003820160009055505090555b8061134581611a2a565b915050610389565b60408051608081018252600160a060020a0380861682528481166020808401918252938301858152426060850152600480546001810182556000829052855191027f8a35acfbc15ff81a39ae7d344fd709f28e8600b4aa8c65c6b64bfe7fe36bd19b81018054928616600160a060020a031993841617815593517f8a35acfbc15ff81a39ae7d344fd709f28e8600b4aa8c65c6b64bfe7fe36bd19c820180549190961692169190911790935551805193949193611431937f8a35acfbc15ff81a39ae7d344fd709f28e8600b4aa8c65c6b64bfe7fe36bd19d0192919091019061150b565b50606082015181600301555050505050565b82805461144f906119eb565b90600052602060002090601f01602090048101928261147157600085556114be565b82601f1061148257805485556114be565b828001600101855582156114be57600052602060002091601f016020900482015b828111156114be5782548255916001019190600101906114a3565b506114ca92915061157f565b5090565b5080546114da906119eb565b6000825580601f106114ea575050565b601f016020900490600052602060002090810190611508919061157f565b50565b828054611517906119eb565b90600052602060002090601f01602090048101928261153957600085556114be565b82601f1061155257805160ff19168380011785556114be565b828001600101855582156114be579182015b828111156114be578251825591602001919060010190611564565b5b808211156114ca5760008155600101611580565b6000602082840312156115a5578081fd5b81356115b081611a79565b9392505050565b6000602082840312156115c8578081fd5b81516115b081611a79565b6000806000606084860312156115e7578182fd5b83356115f281611a79565b9250602084013561160281611a79565b915060408401356001604060020a0381111561161c578182fd5b8401601f8101861361162c578182fd5b803561163f61163a8261197d565b61194d565b818152876020838501011115611653578384fd5b8160208401602083013783602083830101528093505050509250925092565b600060208284031215611683578081fd5b81516001604060020a03811115611698578182fd5b8201601f810184136116a8578182fd5b80516116b661163a8261197d565b8181528560208385010111156116ca578384fd5b6116db8260208301602086016119bb565b95945050505050565b600081518084526116fc8160208601602086016119bb565b601f01601f19169290920160200192915050565b815460009081906002810460018083168061172c57607f831692505b602080841082141561174f5760e060020a634e487b710287526022600452602487fd5b8180156117635760018114611774576117a0565b60ff198616895284890196506117a0565b60008a815260209020885b868110156117985781548b82015290850190830161177f565b505084890196505b509498975050505050505050565b60208082528251828201819052600091906040908185019080840286018301878501865b8381101561183757888303603f1901855281518051600160a060020a03908116855288820151168885015286810151608088860181905290611816828701826116e4565b606093840151969093019590955250948701949250908601906001016117d2565b509098975050505050505050565b60408152600061185860408301856116e4565b9050600160a060020a03831660208301529392505050565b60608152600061188360608301866116e4565b828103602084015261189581866116e4565b915050600160a060020a0383166040830152949350505050565b60006101008083526118c38184018c6116e4565b905082810360208401526118d7818b6116e4565b905082810360408401526118eb818a6116e4565b905082810360608401526118ff81896116e4565b9050828103608084015261191381886116e4565b600160a060020a0387811660a0860152861660c085015283810360e0850152905061193e81856116e4565b9b9a5050505050505050505050565b604051601f8201601f191681016001604060020a038111828210171561197557611975611a5f565b604052919050565b60006001604060020a0382111561199657611996611a5f565b50601f01601f191660200190565b6000828210156119b6576119b6611a45565b500390565b60005b838110156119d65781810151838201526020016119be565b838111156119e5576000848401525b50505050565b6002810460018216806119ff57607f821691505b60208210811415611a245760e060020a634e487b710260009081526022600452602490fd5b50919050565b6000600019821415611a3e57611a3e611a45565b5060010190565b60e060020a634e487b710260009081526011600452602490fd5b60e060020a634e487b710260009081526041600452602490fd5b600160a060020a038116811461150857600080fdfea2646970667358221220fdbce8d277b6d37752bcd246a2e3e1f5b3bd626d6f283713a2760421f0a59e0f64736f6c63430008040033",
  "linkReferences": {},
  "deployedLinkReferences": {}
}