{
    "_format": "hh-sol-artifact-1",
    "contractName": "Hospital",
    "sourceName": "contracts/Hospital.sol",
    "abi": [
        {
            "inputs": [
                {
                    "internalType": "string",
                    "name": "_hospitalName",
                    "type": "string"
                },
                {
                    "internalType": "address",
                    "name": "_HID",
                    "type": "address"
                },
                {
                    "internalType": "string",
                    "name": "_phoneNumber",
                    "type": "string"
                }
            ],
            "stateMutability": "nonpayable",
            "type": "constructor"
        },
        {
            "inputs": [
                {
                    "internalType": "address",
                    "name": "_DID",
                    "type": "address"
                }
            ],
            "name": "addDoctor",
            "outputs": [],
            "stateMutability": "nonpayable",
            "type": "function"
        },
        {
            "inputs": [
                {
                    "internalType": "address",
                    "name": "_PID",
                    "type": "address"
                }
            ],
            "name": "addPatient",
            "outputs": [],
            "stateMutability": "nonpayable",
            "type": "function"
        },
        {
            "inputs": [
                {
                    "internalType": "string",
                    "name": "_file",
                    "type": "string"
                },
                {
                    "internalType": "address",
                    "name": "PID",
                    "type": "address"
                },
                {
                    "internalType": "address",
                    "name": "_HID",
                    "type": "address"
                }
            ],
            "name": "addToUplaodQueue",
            "outputs": [],
            "stateMutability": "nonpayable",
            "type": "function"
        },
        {
            "inputs": [],
            "name": "getDoctorsList",
            "outputs": [
                {
                    "internalType": "address[]",
                    "name": "",
                    "type": "address[]"
                }
            ],
            "stateMutability": "view",
            "type": "function"
        },
        {
            "inputs": [],
            "name": "getHID",
            "outputs": [
                {
                    "internalType": "address",
                    "name": "",
                    "type": "address"
                }
            ],
            "stateMutability": "view",
            "type": "function"
        },
        {
            "inputs": [],
            "name": "getHospitalName",
            "outputs": [
                {
                    "internalType": "string",
                    "name": "",
                    "type": "string"
                }
            ],
            "stateMutability": "view",
            "type": "function"
        },
        {
            "inputs": [],
            "name": "getPatientsList",
            "outputs": [
                {
                    "internalType": "address[]",
                    "name": "",
                    "type": "address[]"
                }
            ],
            "stateMutability": "view",
            "type": "function"
        },
        {
            "inputs": [],
            "name": "getPhoneNumber",
            "outputs": [
                {
                    "internalType": "string",
                    "name": "",
                    "type": "string"
                }
            ],
            "stateMutability": "view",
            "type": "function"
        },
        {
            "inputs": [],
            "name": "getUploadQueue",
            "outputs": [
                {
                    "components": [
                        {
                            "internalType": "address",
                            "name": "PID",
                            "type": "address"
                        },
                        {
                            "internalType": "string",
                            "name": "file",
                            "type": "string"
                        },
                        {
                            "internalType": "address",
                            "name": "DID",
                            "type": "address"
                        },
                        {
                            "internalType": "address",
                            "name": "HID",
                            "type": "address"
                        },
                        {
                            "internalType": "uint256",
                            "name": "timeStamp",
                            "type": "uint256"
                        }
                    ],
                    "internalType": "struct Hospital.fileDetails[]",
                    "name": "",
                    "type": "tuple[]"
                }
            ],
            "stateMutability": "view",
            "type": "function"
        },
        {
            "inputs": [
                {
                    "internalType": "address",
                    "name": "_DID",
                    "type": "address"
                }
            ],
            "name": "isDoctor",
            "outputs": [
                {
                    "internalType": "bool",
                    "name": "",
                    "type": "bool"
                }
            ],
            "stateMutability": "view",
            "type": "function"
        },
        {
            "inputs": [
                {
                    "internalType": "address",
                    "name": "_DID",
                    "type": "address"
                }
            ],
            "name": "isPatient",
            "outputs": [
                {
                    "internalType": "bool",
                    "name": "",
                    "type": "bool"
                }
            ],
            "stateMutability": "view",
            "type": "function"
        },
        {
            "inputs": [
                {
                    "internalType": "address",
                    "name": "_DID",
                    "type": "address"
                }
            ],
            "name": "removeDoctor",
            "outputs": [],
            "stateMutability": "nonpayable",
            "type": "function"
        },
        {
            "inputs": [
                {
                    "internalType": "address",
                    "name": "_PID",
                    "type": "address"
                }
            ],
            "name": "removePatient",
            "outputs": [],
            "stateMutability": "nonpayable",
            "type": "function"
        },
        {
            "inputs": [
                {
                    "internalType": "address",
                    "name": "_PID",
                    "type": "address"
                }
            ],
            "name": "removeReport",
            "outputs": [],
            "stateMutability": "nonpayable",
            "type": "function"
        },
        {
            "inputs": [
                {
                    "internalType": "address",
                    "name": "_HID",
                    "type": "address"
                }
            ],
            "name": "setHID",
            "outputs": [],
            "stateMutability": "nonpayable",
            "type": "function"
        },
        {
            "inputs": [
                {
                    "internalType": "string",
                    "name": "_hospitalName",
                    "type": "string"
                }
            ],
            "name": "setHospitalName",
            "outputs": [],
            "stateMutability": "nonpayable",
            "type": "function"
        },
        {
            "inputs": [
                {
                    "internalType": "string",
                    "name": "_phoneNumber",
                    "type": "string"
                }
            ],
            "name": "setPhoneNumber",
            "outputs": [],
            "stateMutability": "nonpayable",
            "type": "function"
        }
    ],
    "bytecode": "0x60806040523480156200001157600080fd5b50604051620015c9380380620015c98339810160408190526200003491620001dd565b82516200004990600090602086019062000084565b5060018054600160a060020a031916600160a060020a03841617905580516200007a90600290602084019062000084565b50505050620002e9565b828054620000929062000264565b90600052602060002090601f016020900481019282620000b6576000855562000101565b82601f10620000d157805160ff191683800117855562000101565b8280016001018555821562000101579182015b8281111562000101578251825591602001919060010190620000e4565b506200010f92915062000113565b5090565b5b808211156200010f576000815560010162000114565b600082601f8301126200013b578081fd5b81516001604060020a0380821115620001585762000158620002ba565b604051601f8301601f19908116603f01168101908282118183101715620001835762000183620002ba565b816040528381526020925086838588010111156200019f578485fd5b8491505b83821015620001c25785820183015181830184015290820190620001a3565b83821115620001d357848385830101525b9695505050505050565b600080600060608486031215620001f2578283fd5b83516001604060020a038082111562000209578485fd5b62000217878388016200012a565b60208701519095509150600160a060020a038216821462000236578384fd5b6040860151919350808211156200024b578283fd5b506200025a868287016200012a565b9150509250925092565b6002810460018216806200027957607f821691505b60208210811415620002b4577f4e487b7100000000000000000000000000000000000000000000000000000000600052602260045260246000fd5b50919050565b7f4e487b7100000000000000000000000000000000000000000000000000000000600052604160045260246000fd5b6112d080620002f96000396000f3fe608060405234801561001057600080fd5b50600436106100de5760e060020a6000350463086c32e581146100e35780631fc72900146100f857806324db757f14610128578063363c80aa146101465780633dcda7851461015b5780634780468f1461016e578063679a131a146101e35780636d263ceb146101f85780637d0d62571461026d57806387806430146102805780638f9c79ed1461029357806398fc90e9146102cf578063996440c6146102e2578063c95171ae1461030e578063c98d66c114610316578063ded15aaf1461031e578063e5b8459014610331575b600080fd5b6100f66100f136600461100d565b61034c565b005b6100f6610106366004610fec565b60018054600160a060020a031916600160a060020a0392909216919091179055565b610130610363565b60405161013d91906111e2565b60405180910390f35b61014e6103f5565b60405161013d919061113a565b6100f6610169366004610fec565b61052e565b6100f661017c366004610fec565b6005805460018181019092557f036b6384b5eca791c62761152d0c79bb0604c104a5fb6f4eb0703f3154bb3db0018054600160a060020a03909316600160a060020a031990931683179055600091825260036020526040909120805460ff19169091179055565b6101eb6107f3565b60405161013d91906110ed565b6100f6610206366004610fec565b6006805460018181019092557ff652222313e28459528d920b65115c16c04f3efc82aaedc97be59f3f377c0d3f018054600160a060020a03909316600160a060020a031990931683179055600091825260046020526040909120805460ff19169091179055565b6100f661027b366004610fec565b610854565b6100f661028e366004611047565b610a65565b6102bf6102a1366004610fec565b600160a060020a031660009081526004602052604090205460ff1690565b604051901515815260200161013d565b6100f66102dd366004610fec565b610b6d565b6102bf6102f0366004610fec565b600160a060020a031660009081526003602052604090205460ff1690565b6101eb610d7e565b610130610dde565b6100f661032c36600461100d565b610ded565b600154604051600160a060020a03909116815260200161013d565b805161035f906002906020840190610dfc565b5050565b6060600280546103729061120c565b80601f016020809104026020016040519081016040528092919081815260200182805461039e9061120c565b80156103eb5780601f106103c0576101008083540402835291602001916103eb565b820191906000526020600020905b8154815290600101906020018083116103ce57829003601f168201915b5050505050905090565b60606007805480602002602001604051908101604052809291908181526020016000905b828210156105255760008481526020908190206040805160a08101909152600585029091018054600160a060020a0316825260018101805492939192918401916104629061120c565b80601f016020809104026020016040519081016040528092919081815260200182805461048e9061120c565b80156104db5780601f106104b0576101008083540402835291602001916104db565b820191906000526020600020905b8154815290600101906020018083116104be57829003601f168201915b50505091835250506002820154600160a060020a03908116602080840191909152600384015490911660408301526004909201546060909101529082526001929092019101610419565b50505050905090565b6007546001148015610586575080600160a060020a0316600760008154811061056a5760e060020a634e487b7102600052603260045260246000fd5b6000918252602090912060059091020154600160a060020a0316145b1561060c5760078054806105ad5760e060020a634e487b7102600052603160045260246000fd5b6000828152602081206005600019909301928302018054600160a060020a0319168155906105de6001830182610e80565b50600281018054600160a060020a031990811690915560038201805490911690556000600490910155905550565b60005b60075481101561035f5781600160a060020a0316600782815481106106475760e060020a634e487b7102600052603260045260246000fd5b6000918252602090912060059091020154600160a060020a031614156107de5760078054610677906001906111f5565b815481106106985760e060020a634e487b7102600052603260045260246000fd5b9060005260206000209060050201600782815481106106ca5760e060020a634e487b7102600052603260045260246000fd5b6000918252602090912082546005909202018054600160a060020a031916600160a060020a03909216919091178155600180830180549183019161070d9061120c565b610718929190610eba565b506002828101549082018054600160a060020a03928316600160a060020a0319918216179091556003808501549084018054919093169116179055600491820154910155600780548061077e5760e060020a634e487b7102600052603160045260246000fd5b6000828152602081206005600019909301928302018054600160a060020a0319168155906107af6001830182610e80565b50600281018054600160a060020a03199081169091556003820180549091169055600060049091015590555050565b806107e88161124b565b91505061060f565b50565b606060068054806020026020016040519081016040528092919081815260200182805480156103eb57602002820191906000526020600020905b8154600160a060020a0316815260019091019060200180831161082d575050505050905090565b60065460011480156108a7575080600160a060020a031660066000815481106108905760e060020a634e487b7102600052603260045260246000fd5b600091825260209091200154600160a060020a0316145b156108f55760068054806108ce5760e060020a634e487b7102600052603160045260246000fd5b60008281526020902081016000199081018054600160a060020a0319169055019055610a44565b60005b600654811015610a425781600160a060020a0316600682815481106109305760e060020a634e487b7102600052603260045260246000fd5b600091825260209091200154600160a060020a03161415610a30576006805461095b906001906111f5565b8154811061097c5760e060020a634e487b7102600052603260045260246000fd5b60009182526020909120015460068054600160a060020a0390921691839081106109b95760e060020a634e487b7102600052603260045260246000fd5b9060005260206000200160006101000a815481600160a060020a030219169083600160a060020a031602179055506006805480610a095760e060020a634e487b7102600052603160045260246000fd5b60008281526020902081016000199081018054600160a060020a0319169055019055610a42565b80610a3a8161124b565b9150506108f8565b505b600160a060020a03166000908152600460205260409020805460ff19169055565b6040805160a081018252600160a060020a0384811682526020808301878152339484019490945284821660608401524260808401526007805460018101825560009190915283517fa66cc928b5edb82af9bd49922954155ab7b0942694bea4ce44661d9a8736c68860059092029182018054600160a060020a031916919094161783559351805193949293610b21937fa66cc928b5edb82af9bd49922954155ab7b0942694bea4ce44661d9a8736c68901929190910190610dfc565b506040820151600282018054600160a060020a03928316600160a060020a0319918216179091556060840151600384018054919093169116179055608090910151600490910155505050565b6005546001148015610bc0575080600160a060020a03166005600081548110610ba95760e060020a634e487b7102600052603260045260246000fd5b600091825260209091200154600160a060020a0316145b15610c0e576005805480610be75760e060020a634e487b7102600052603160045260246000fd5b60008281526020902081016000199081018054600160a060020a0319169055019055610d5d565b60005b600554811015610d5b5781600160a060020a031660058281548110610c495760e060020a634e487b7102600052603260045260246000fd5b600091825260209091200154600160a060020a03161415610d495760058054610c74906001906111f5565b81548110610c955760e060020a634e487b7102600052603260045260246000fd5b60009182526020909120015460058054600160a060020a039092169183908110610cd25760e060020a634e487b7102600052603260045260246000fd5b9060005260206000200160006101000a815481600160a060020a030219169083600160a060020a031602179055506005805480610d225760e060020a634e487b7102600052603160045260246000fd5b60008281526020902081016000199081018054600160a060020a0319169055019055610d5b565b80610d538161124b565b915050610c11565b505b600160a060020a03166000908152600360205260409020805460ff19169055565b606060058054806020026020016040519081016040528092919081815260200182805480156103eb57602002820191906000526020600020908154600160a060020a0316815260019091019060200180831161082d575050505050905090565b6060600080546103729061120c565b805161035f9060009060208401905b828054610e089061120c565b90600052602060002090601f016020900481019282610e2a5760008555610e70565b82601f10610e4357805160ff1916838001178555610e70565b82800160010185558215610e70579182015b82811115610e70578251825591602001919060010190610e55565b50610e7c929150610f35565b5090565b508054610e8c9061120c565b6000825580601f10610e9c575050565b601f0160209004906000526020600020908101906107f09190610f35565b828054610ec69061120c565b90600052602060002090601f016020900481019282610ee85760008555610e70565b82601f10610ef95780548555610e70565b82800160010185558215610e7057600052602060002091601f016020900482015b82811115610e70578254825591600101919060010190610f1a565b5b80821115610e7c5760008155600101610f36565b8035600160a060020a0381168114610f6157600080fd5b919050565b600082601f830112610f76578081fd5b81356001604060020a0380821115610f9057610f90611280565b604051601f8301601f19908116603f01168101908282118183101715610fb857610fb8611280565b81604052838152866020858801011115610fd0578485fd5b8360208701602083013792830160200193909352509392505050565b600060208284031215610ffd578081fd5b61100682610f4a565b9392505050565b60006020828403121561101e578081fd5b81356001604060020a03811115611033578182fd5b61103f84828501610f66565b949350505050565b60008060006060848603121561105b578182fd5b83356001604060020a03811115611070578283fd5b61107c86828701610f66565b93505061108b60208501610f4a565b915061109960408501610f4a565b90509250925092565b60008151808452815b818110156110c7576020818501810151868301820152016110ab565b818111156110d85782602083870101525b50601f01601f19169290920160200192915050565b6020808252825182820181905260009190848201906040850190845b8181101561112e578351600160a060020a031683529284019291840191600101611109565b50909695505050505050565b60208082528251828201819052600091906040908185019080840286018301878501865b838110156111d457888303603f1901855281518051600160a060020a0390811685528882015160a08a8701819052919061119a838801826110a2565b848b01518316888c01526060808601519093169288019290925250608092830151929095019190915250938601939086019060010161115e565b509098975050505050505050565b60208152600061100660208301846110a2565b60008282101561120757611207611266565b500390565b60028104600182168061122057607f821691505b602082108114156112455760e060020a634e487b710260009081526022600452602490fd5b50919050565b600060001982141561125f5761125f611266565b5060010190565b60e060020a634e487b710260009081526011600452602490fd5b60e060020a634e487b710260009081526041600452602490fdfea2646970667358221220579c934b704e1bf7c917a951ae8cedda27d04479d02f77560b7c14f8bb3b458064736f6c63430008040033",
    "linkReferences": {},
    "deployedLinkReferences": {}
}