{
  "_format": "hh-sol-artifact-1",
  "contractName": "ApproveDetails",
  "sourceName": "contracts/Main.sol",
  "abi": [
    {
      "inputs": [
        {
          "internalType": "address",
          "name": "_DHRMS_CONTRACT_ADDRESS",
          "type": "address"
        }
      ],
      "stateMutability": "nonpayable",
      "type": "constructor"
    },
    {
      "inputs": [
        {
          "internalType": "string",
          "name": "_doctorName",
          "type": "string"
        },
        {
          "internalType": "string",
          "name": "_phoneNumber",
          "type": "string"
        },
        {
          "internalType": "string",
          "name": "_qualification",
          "type": "string"
        },
        {
          "internalType": "string",
          "name": "_photo",
          "type": "string"
        },
        {
          "internalType": "string",
          "name": "_dob",
          "type": "string"
        },
        {
          "internalType": "address",
          "name": "_HID",
          "type": "address"
        },
        {
          "internalType": "address",
          "name": "_DID",
          "type": "address"
        },
        {
          "internalType": "string",
          "name": "_department",
          "type": "string"
        }
      ],
      "name": "addDoctortoList",
      "outputs": [],
      "stateMutability": "nonpayable",
      "type": "function"
    },
    {
      "inputs": [
        {
          "internalType": "string",
          "name": "_officeName",
          "type": "string"
        },
        {
          "internalType": "string",
          "name": "_phoneNumber",
          "type": "string"
        },
        {
          "internalType": "address",
          "name": "_GID",
          "type": "address"
        }
      ],
      "name": "addGovernmentOfficetoList",
      "outputs": [],
      "stateMutability": "nonpayable",
      "type": "function"
    },
    {
      "inputs": [
        {
          "internalType": "string",
          "name": "_hospitalName",
          "type": "string"
        },
        {
          "internalType": "string",
          "name": "_phoneNumber",
          "type": "string"
        },
        {
          "internalType": "address",
          "name": "_HID",
          "type": "address"
        }
      ],
      "name": "addHospitaltoList",
      "outputs": [],
      "stateMutability": "nonpayable",
      "type": "function"
    },
    {
      "inputs": [
        {
          "internalType": "string",
          "name": "_details",
          "type": "string"
        },
        {
          "internalType": "address",
          "name": "_PID",
          "type": "address"
        }
      ],
      "name": "addPatienttoList",
      "outputs": [],
      "stateMutability": "nonpayable",
      "type": "function"
    },
    {
      "inputs": [
        {
          "internalType": "address",
          "name": "_userAdd",
          "type": "address"
        }
      ],
      "name": "approve",
      "outputs": [],
      "stateMutability": "nonpayable",
      "type": "function"
    },
    {
      "inputs": [],
      "name": "getApproveList",
      "outputs": [
        {
          "components": [
            {
              "internalType": "address",
              "name": "instanceAdd",
              "type": "address"
            },
            {
              "internalType": "address",
              "name": "userAdd",
              "type": "address"
            },
            {
              "internalType": "string",
              "name": "userType",
              "type": "string"
            },
            {
              "internalType": "uint256",
              "name": "timestamp",
              "type": "uint256"
            }
          ],
          "internalType": "struct ApproveDetails.Approve[]",
          "name": "",
          "type": "tuple[]"
        }
      ],
      "stateMutability": "view",
      "type": "function"
    }
  ],
  "bytecode": "0x608060405234801561001057600080fd5b50604051620057d8380380620057d883398101604081905261003191610056565b60008054600160a060020a031916600160a060020a0392909216919091179055610084565b600060208284031215610067578081fd5b8151600160a060020a038116811461007d578182fd5b9392505050565b61574480620000946000396000f3fe60806040523480156200001157600080fd5b50600436106200006d5760e060020a600035046310c9ef6981146200007257806311c43b19146200008b578063c2ff4dc514620000ad578063daea85c514620000c4578063dc1976e114620000db578063ef6f93c414620000f2575b600080fd5b620000896200008336600462001aa0565b62000109565b005b620000956200023c565b604051620000a4919062001c9b565b60405180910390f35b62000089620000be366004620019ce565b62000364565b62000089620000d53660046200190e565b62000485565b62000089620000ec36600462001a23565b620014cc565b620000896200010336600462001a23565b620015f0565b60008888888888888888604051620001219062001701565b6200013498979695949392919062001de8565b604051809103906000f08015801562000151573d6000803e3d6000fd5b5060408051608081018252600160a060020a0380841682528681166020808401918252845180860186526003815260e860020a62444f43028183015294840194855242606085015260018054808201825560009190915284516004909102600080516020620056cf83398151915281018054928616600160a060020a03199384161781559351600080516020620056ef833981519152820180549190961692169190911790935593518051959650929490936200022493600080516020620056af8339815191529093019201906200170f565b50606082015181600301555050505050505050505050565b60606001805480602002602001604051908101604052809291908181526020016000905b828210156200035b57600084815260209081902060408051608081018252600486029092018054600160a060020a0390811684526001820154169383019390935260028301805492939291840191620002b99062001f3c565b80601f0160208091040260200160405190810160405280929190818152602001828054620002e79062001f3c565b8015620003385780601f106200030c5761010080835404028352916020019162000338565b820191906000526020600020905b8154815290600101906020018083116200031a57829003601f168201915b505050505081526020016003820154815250508152602001906001019062000260565b50505050905090565b6000828260405162000376906200179e565b6200038392919062001d36565b604051809103906000f080158015620003a0573d6000803e3d6000fd5b5060408051608081018252600160a060020a0380841682528581166020808401918252845180860186526003815260ea60020a62141055028183015294840194855242606085015260018054808201825560009190915284516004909102600080516020620056cf83398151915281018054928616600160a060020a03199384161781559351600080516020620056ef833981519152820180549190961692169190911790935593518051959650929490936200047393600080516020620056af8339815191529093019201906200170f565b50606082015181600301555050505050565b60005b600154811015620014c85781600160a060020a031660018281548110620004c25760e060020a634e487b7102600052603260045260246000fd5b6000918252602090912060016004909202010154600160a060020a03161415620014b3577f8eeeb5290718f324aa0965d35cf24b6163c00698ab277824ce00bdf229264ecf600182815481106200052c5760e060020a634e487b7102600052603260045260246000fd5b90600052602060002090600402016002016040516200054c919062001bf5565b60405180910390201415620007e95760005460018054600160a060020a0390921691630d339ad2919084908110620005975760e060020a634e487b7102600052603260045260246000fd5b600091825260208220600491820201546040805160e160020a631605428b0281529051600160a060020a0390921693632c0a851693828101939192829003018186803b158015620005e757600080fd5b505afa158015620005fc573d6000803e3d6000fd5b505050506040513d6000823e601f3d908101601f1916820160405262000626919081019062001953565b600184815481106200064b5760e060020a634e487b7102600052603260045260246000fd5b600091825260208220600491820201546040805160e060020a6324db757f0281529051600160a060020a03909216936324db757f93828101939192829003018186803b1580156200069b57600080fd5b505afa158015620006b0573d6000803e3d6000fd5b505050506040513d6000823e601f3d908101601f19168201604052620006da919081019062001953565b60018581548110620006ff5760e060020a634e487b7102600052603260045260246000fd5b6000918252602091829020600491820201546040805160e060020a63d67c2da30281529051600160a060020a039092169363d67c2da393828101939192829003018186803b1580156200075157600080fd5b505afa15801562000766573d6000803e3d6000fd5b505050506040513d601f19601f820116820180604052508101906200078c919062001934565b6040518463ffffffff1660e060020a028152600401620007af9392919062001da5565b600060405180830381600087803b158015620007ca57600080fd5b505af1158015620007df573d6000803e3d6000fd5b50505050620012ed565b7fe89967e40ef7b0c8e3083f107bcd7bcce6d6477c95740e74040ab2217cf4eb16600182815481106200082f5760e060020a634e487b7102600052603260045260246000fd5b90600052602060002090600402016002016040516200084f919062001bf5565b6040518091039020141562000a545760005460018054600160a060020a03909216916351d9ab389190849081106200089a5760e060020a634e487b7102600052603260045260246000fd5b600091825260208220600491820201546040805160e060020a63c98d66c10281529051600160a060020a039092169363c98d66c193828101939192829003018186803b158015620008ea57600080fd5b505afa158015620008ff573d6000803e3d6000fd5b505050506040513d6000823e601f3d908101601f1916820160405262000929919081019062001953565b600184815481106200094e5760e060020a634e487b7102600052603260045260246000fd5b600091825260208220600491820201546040805160e060020a6324db757f0281529051600160a060020a03909216936324db757f93828101939192829003018186803b1580156200099e57600080fd5b505afa158015620009b3573d6000803e3d6000fd5b505050506040513d6000823e601f3d908101601f19168201604052620009dd919081019062001953565b6001858154811062000a025760e060020a634e487b7102600052603260045260246000fd5b6000918252602091829020600491820201546040805160e460020a630e5b84590281529051600160a060020a039092169363e5b8459093828101939192829003018186803b1580156200075157600080fd5b7f292a01670a1b480b345e48d724cb4f30afd414d3da5da18241af2c83b5695bcb6001828154811062000a9a5760e060020a634e487b7102600052603260045260246000fd5b906000526020600020906004020160020160405162000aba919062001bf5565b60405180910390201415620010a45760005460018054600160a060020a0390921691632a386d1991908490811062000b055760e060020a634e487b7102600052603260045260246000fd5b600091825260208220600491820201546040805160e460020a6302796c8f0281529051600160a060020a0390921693632796c8f093828101939192829003018186803b15801562000b5557600080fd5b505afa15801562000b6a573d6000803e3d6000fd5b505050506040513d6000823e601f3d908101601f1916820160405262000b94919081019062001953565b6001848154811062000bb95760e060020a634e487b7102600052603260045260246000fd5b600091825260208220600491820201546040805160e060020a632f5319e10281529051600160a060020a0390921693632f5319e193828101939192829003018186803b15801562000c0957600080fd5b505afa15801562000c1e573d6000803e3d6000fd5b505050506040513d6000823e601f3d908101601f1916820160405262000c48919081019062001953565b6001858154811062000c6d5760e060020a634e487b7102600052603260045260246000fd5b600091825260208220600491820201546040805160e060020a63ce3dc9410281529051600160a060020a039092169363ce3dc94193828101939192829003018186803b15801562000cbd57600080fd5b505afa15801562000cd2573d6000803e3d6000fd5b505050506040513d6000823e601f3d908101601f1916820160405262000cfc919081019062001953565b6001868154811062000d215760e060020a634e487b7102600052603260045260246000fd5b600091825260208220600491820201546040805160e160020a635976002f0281529051600160a060020a039092169363b2ec005e93828101939192829003018186803b15801562000d7157600080fd5b505afa15801562000d86573d6000803e3d6000fd5b505050506040513d6000823e601f3d908101601f1916820160405262000db0919081019062001953565b6001878154811062000dd55760e060020a634e487b7102600052603260045260246000fd5b600091825260208220600491820201546040805160e260020a632fbcc70f0281529051600160a060020a039092169363bef31c3c93828101939192829003018186803b15801562000e2557600080fd5b505afa15801562000e3a573d6000803e3d6000fd5b505050506040513d6000823e601f3d908101601f1916820160405262000e64919081019062001953565b6001888154811062000e895760e060020a634e487b7102600052603260045260246000fd5b6000918252602091829020600491820201546040805160e160020a630c3b4ea30281529051600160a060020a03909216936318769d4693828101939192829003018186803b15801562000edb57600080fd5b505afa15801562000ef0573d6000803e3d6000fd5b505050506040513d601f19601f8201168201806040525081019062000f16919062001934565b6001898154811062000f3b5760e060020a634e487b7102600052603260045260246000fd5b6000918252602091829020600491820201546040805160e060020a63bc9c2d550281529051600160a060020a039092169363bc9c2d5593828101939192829003018186803b15801562000f8d57600080fd5b505afa15801562000fa2573d6000803e3d6000fd5b505050506040513d601f19601f8201168201806040525081019062000fc8919062001934565b60018a8154811062000fed5760e060020a634e487b7102600052603260045260246000fd5b600091825260208220600491820201546040805160e060020a6327d206650281529051600160a060020a03909216936327d2066593828101939192829003018186803b1580156200103d57600080fd5b505afa15801562001052573d6000803e3d6000fd5b505050506040513d6000823e601f3d908101601f191682016040526200107c919081019062001953565b6040518963ffffffff1660e060020a028152600401620007af98979695949392919062001de8565b7f0e4d1b4fb2558687eecd651ee2d9d18ec141a4ebb5dcc49141fc72f92f80a66360018281548110620010ea5760e060020a634e487b7102600052603260045260246000fd5b90600052602060002090600402016002016040516200110a919062001bf5565b60405180910390201415620012ed5760005460018054600160a060020a0390921691638bd87475919084908110620011555760e060020a634e487b7102600052603260045260246000fd5b600091825260208220600491820201546040805160e160020a63429f05a30281529051600160a060020a039092169363853e0b4693828101939192829003018186803b158015620011a557600080fd5b505afa158015620011ba573d6000803e3d6000fd5b505050506040513d6000823e601f3d908101601f19168201604052620011e4919081019062001953565b60018481548110620012095760e060020a634e487b7102600052603260045260246000fd5b6000918252602091829020600491820201546040805160e060020a632c5ee5010281529051600160a060020a0390921693632c5ee50193828101939192829003018186803b1580156200125b57600080fd5b505afa15801562001270573d6000803e3d6000fd5b505050506040513d601f19601f8201168201806040525081019062001296919062001934565b6040518363ffffffff1660e060020a028152600401620012b892919062001d36565b600060405180830381600087803b158015620012d357600080fd5b505af1158015620012e8573d6000803e3d6000fd5b505050505b6001805414156200136d5760018054806200131b5760e060020a634e487b7102600052603160045260246000fd5b6000828152602081206004600019909301928302018054600160a060020a031990811682556001820180549091169055906200135b6002830182620017ac565b600382016000905550509055620014b3565b600180546200137e90829062001eef565b81548110620013a05760e060020a634e487b7102600052603260045260246000fd5b906000526020600020906004020160018281548110620013d35760e060020a634e487b7102600052603260045260246000fd5b6000918252602090912082546004909202018054600160a060020a03928316600160a060020a031991821617825560018085015490830180549190941691161790915560028083018054918301916200142c9062001f3c565b62001439929190620017ee565b506003918201549101556001805480620014665760e060020a634e487b7102600052603160045260246000fd5b6000828152602081206004600019909301928302018054600160a060020a03199081168255600182018054909116905590620014a66002830182620017ac565b6003820160009055505090555b80620014bf8162001f7d565b91505062000488565b5050565b6000838284604051620014df9062001872565b620014ed9392919062001d63565b604051809103906000f0801580156200150a573d6000803e3d6000fd5b5060408051608081018252600160a060020a0380841682528581166020808401918252845180860186526003815260e860020a62484f53028183015294840194855242606085015260018054808201825560009190915284516004909102600080516020620056cf83398151915281018054928616600160a060020a03199384161781559351600080516020620056ef83398151915282018054919096169216919091179093559351805195965092949093620015dd93600080516020620056af8339815191529093019201906200170f565b5060608201518160030155505050505050565b6000838383604051620016039062001880565b620016119392919062001da5565b604051809103906000f0801580156200162e573d6000803e3d6000fd5b5060408051608081018252600160a060020a0380841682528581166020808401918252845180860186526003815260e960020a6223a7ab028183015294840194855242606085015260018054808201825560009190915284516004909102600080516020620056cf83398151915281018054928616600160a060020a03199384161781559351600080516020620056ef83398151915282018054919096169216919091179093559351805195965092949093620015dd93600080516020620056af8339815191529093019201906200170f565b610d318062001fe683390190565b8280546200171d9062001f3c565b90600052602060002090601f0160209004810192826200174157600085556200178c565b82601f106200175c57805160ff19168380011785556200178c565b828001600101855582156200178c579182015b828111156200178c5782518255916020019190600101906200176f565b506200179a9291506200188e565b5090565b610ee78062002d1783390190565b508054620017ba9062001f3c565b6000825580601f10620017cb575050565b601f016020900490600052602060002090810190620017eb91906200188e565b50565b828054620017fc9062001f3c565b90600052602060002090601f0160209004810192826200182057600085556200178c565b82601f106200183357805485556200178c565b828001600101855582156200178c57600052602060002091601f016020900482015b828111156200178c57825482559160010191906001019062001855565b6113c28062003bfe83390190565b6106ef8062004fc083390190565b5b808211156200179a57600081556001016200188f565b8035620018b28162001fcf565b919050565b600082601f830112620018c8578081fd5b8135620018df620018d98262001ec5565b62001e92565b818152846020838601011115620018f4578283fd5b816020850160208301379081016020019190915292915050565b60006020828403121562001920578081fd5b81356200192d8162001fcf565b9392505050565b60006020828403121562001946578081fd5b81516200192d8162001fcf565b60006020828403121562001965578081fd5b81516001604060020a038111156200197b578182fd5b8201601f810184136200198c578182fd5b80516200199d620018d98262001ec5565b818152856020838501011115620019b2578384fd5b620019c582602083016020860162001f09565b95945050505050565b60008060408385031215620019e1578081fd5b82356001604060020a03811115620019f7578182fd5b62001a0585828601620018b7565b925050602083013562001a188162001fcf565b809150509250929050565b60008060006060848603121562001a38578081fd5b83356001604060020a038082111562001a4f578283fd5b62001a5d87838801620018b7565b9450602086013591508082111562001a73578283fd5b5062001a8286828701620018b7565b925050604084013562001a958162001fcf565b809150509250925092565b600080600080600080600080610100898b03121562001abd578384fd5b88356001604060020a038082111562001ad4578586fd5b62001ae28c838d01620018b7565b995060208b013591508082111562001af8578586fd5b62001b068c838d01620018b7565b985060408b013591508082111562001b1c578586fd5b62001b2a8c838d01620018b7565b975060608b013591508082111562001b40578586fd5b62001b4e8c838d01620018b7565b965060808b013591508082111562001b64578586fd5b62001b728c838d01620018b7565b955062001b8260a08c01620018a5565b945062001b9260c08c01620018a5565b935060e08b013591508082111562001ba8578283fd5b5062001bb78b828c01620018b7565b9150509295985092959890939650565b6000815180845262001be181602086016020860162001f09565b601f01601f19169290920160200192915050565b815460009081906002810460018083168062001c1257607f831692505b602080841082141562001c365760e060020a634e487b710287526022600452602487fd5b81801562001c4d576001811462001c5f5762001c8d565b60ff1986168952848901965062001c8d565b60008a815260209020885b8681101562001c855781548b82015290850190830162001c6a565b505084890196505b509498975050505050505050565b60208082528251828201819052600091906040908185019080840286018301878501865b8381101562001d2857888303603f1901855281518051600160a060020a0390811685528882015116888501528681015160808886018190529062001d068287018262001bc7565b6060938401519690930195909552509487019492509086019060010162001cbf565b509098975050505050505050565b60408152600062001d4b604083018562001bc7565b9050600160a060020a03831660208301529392505050565b60608152600062001d78606083018662001bc7565b600160a060020a0385166020840152828103604084015262001d9b818562001bc7565b9695505050505050565b60608152600062001dba606083018662001bc7565b828103602084015262001dce818662001bc7565b915050600160a060020a0383166040830152949350505050565b600061010080835262001dfe8184018c62001bc7565b9050828103602084015262001e14818b62001bc7565b9050828103604084015262001e2a818a62001bc7565b9050828103606084015262001e40818962001bc7565b9050828103608084015262001e56818862001bc7565b600160a060020a0387811660a0860152861660c085015283810360e0850152905062001e83818562001bc7565b9b9a5050505050505050505050565b604051601f8201601f191681016001604060020a038111828210171562001ebd5762001ebd62001fb5565b604052919050565b60006001604060020a0382111562001ee15762001ee162001fb5565b50601f01601f191660200190565b60008282101562001f045762001f0462001f9b565b500390565b60005b8381101562001f2657818101518382015260200162001f0c565b8381111562001f36576000848401525b50505050565b60028104600182168062001f5157607f821691505b6020821081141562001f775760e060020a634e487b710260009081526022600452602490fd5b50919050565b600060001982141562001f945762001f9462001f9b565b5060010190565b60e060020a634e487b710260009081526011600452602490fd5b60e060020a634e487b710260009081526041600452602490fd5b600160a060020a0381168114620017eb57600080fdfe60806040523480156200001157600080fd5b5060405162000d3138038062000d31833981016040819052620000349162000272565b8751620000499060009060208b0190620000fc565b5060018054600160a060020a031916600160a060020a03841617905586516200007a9060029060208a0190620000fc565b50855162000090906003906020890190620000fc565b508451620000a6906004906020880190620000fc565b508351620000bc906005906020870190620000fc565b5060068054600160a060020a031916600160a060020a0385161790558051620000ed906009906020840190620000fc565b5050505050505050506200041e565b8280546200010a9062000399565b90600052602060002090601f0160209004810192826200012e576000855562000179565b82601f106200014957805160ff191683800117855562000179565b8280016001018555821562000179579182015b82811115620001795782518255916020019190600101906200015c565b50620001879291506200018b565b5090565b5b808211156200018757600081556001016200018c565b8051600160a060020a0381168114620001ba57600080fd5b919050565b600082601f830112620001d0578081fd5b81516001604060020a0380821115620001ed57620001ed620003ef565b604051601f8301601f19908116603f01168101908282118183101715620002185762000218620003ef565b8160405283815260209250868385880101111562000234578485fd5b8491505b8382101562000257578582018301518183018401529082019062000238565b838211156200026857848385830101525b9695505050505050565b600080600080600080600080610100898b0312156200028f578384fd5b88516001604060020a0380821115620002a6578586fd5b620002b48c838d01620001bf565b995060208b0151915080821115620002ca578586fd5b620002d88c838d01620001bf565b985060408b0151915080821115620002ee578586fd5b620002fc8c838d01620001bf565b975060608b015191508082111562000312578586fd5b620003208c838d01620001bf565b965060808b015191508082111562000336578586fd5b620003448c838d01620001bf565b95506200035460a08c01620001a2565b94506200036460c08c01620001a2565b935060e08b01519150808211156200037a578283fd5b50620003898b828c01620001bf565b9150509295985092959890939650565b600281046001821680620003ae57607f821691505b60208210811415620003e9577f4e487b7100000000000000000000000000000000000000000000000000000000600052602260045260246000fd5b50919050565b7f4e487b7100000000000000000000000000000000000000000000000000000000600052604160045260246000fd5b610903806200042e6000396000f3fe608060405234801561001057600080fd5b50600436106100f45760e060020a60003504630dd1d00881146100f957806318769d461461010e5780632796c8f01461013857806327d206651461014d5780632f5319e114610155578063503b13541461015d5780636d263ceb1461017257806377b7aee0146101e65780637d0d6257146101f9578063961a5d0a1461020c5780639cc0014b1461021f578063a0257dc414610232578063acfbe68814610245578063b2ec005e14610258578063bc9c2d5514610260578063bef31c3c14610271578063ce3dc94114610279578063d13fd1e814610281578063dec1c904146102b1575b600080fd5b61010c6101073660046106df565b6102e1565b005b600654600160a060020a03165b604051600160a060020a0390911681526020015b60405180910390f35b6101406102f8565b60405161012f91906107d5565b61014061038a565b610140610399565b6101656103a8565b60405161012f9190610788565b61010c6101803660046106b1565b600160a060020a03166000818152600760205260408120805460ff191660019081179091556008805491820181559091527ff3f7a9fe364faab93b216da50a3214154f22a0a2b415b23a84c8169e8b636ee3018054600160a060020a0319169091179055565b61010c6101f43660046106df565b610409565b61010c6102073660046106b1565b61041c565b61010c61021a3660046106df565b61059f565b61010c61022d3660046106df565b6105b2565b61010c6102403660046106df565b6105c5565b61010c6102533660046106df565b6105d8565b6101406105eb565b600154600160a060020a031661011b565b6101406105fa565b610140610609565b61010c61028f3660046106b1565b60018054600160a060020a031916600160a060020a0392909216919091179055565b61010c6102bf3660046106b1565b60068054600160a060020a031916600160a060020a0392909216919091179055565b80516102f4906009906020840190610618565b5050565b6060600080546103079061083f565b80601f01602080910402602001604051908101604052809291908181526020018280546103339061083f565b80156103805780601f1061035557610100808354040283529160200191610380565b820191906000526020600020905b81548152906001019060200180831161036357829003601f168201915b5050505050905090565b6060600980546103079061083f565b6060600280546103079061083f565b6060600880548060200260200160405190810160405280929190818152602001828054801561038057602002820191906000526020600020905b8154600160a060020a031681526001909101906020018083116103e2575050505050905090565b80516102f4906005906020840190610618565b60005b60085461042e90600190610828565b8110156102f45781600160a060020a0316600882815481106104635760e060020a634e487b7102600052603260045260246000fd5b600091825260209091200154600160a060020a0316141561058d57600854600114610525576008805461049890600190610828565b815481106104b95760e060020a634e487b7102600052603260045260246000fd5b60009182526020909120015460088054600160a060020a0390921691839081106104f65760e060020a634e487b7102600052603260045260246000fd5b9060005260206000200160006101000a815481600160a060020a030219169083600160a060020a031602179055505b600160a060020a0382166000908152600760205260409020805460ff1916905560088054806105675760e060020a634e487b7102600052603160045260246000fd5b60008281526020902081016000199081018054600160a060020a03191690550190555050565b806105978161087e565b91505061041f565b80516102f4906004906020840190610618565b80516102f4906000906020840190610618565b80516102f4906003906020840190610618565b80516102f4906002906020840190610618565b6060600480546103079061083f565b6060600580546103079061083f565b6060600380546103079061083f565b8280546106249061083f565b90600052602060002090601f016020900481019282610646576000855561068c565b82601f1061065f57805160ff191683800117855561068c565b8280016001018555821561068c579182015b8281111561068c578251825591602001919060010190610671565b5061069892915061069c565b5090565b5b80821115610698576000815560010161069d565b6000602082840312156106c2578081fd5b8135600160a060020a03811681146106d8578182fd5b9392505050565b6000602082840312156106f0578081fd5b81356001604060020a0380821115610706578283fd5b818401915084601f830112610719578283fd5b81358181111561072b5761072b6108b3565b604051601f8201601f19908116603f01168101908382118183101715610753576107536108b3565b8160405282815287602084870101111561076b578586fd5b826020860160208301379182016020019490945295945050505050565b6020808252825182820181905260009190848201906040850190845b818110156107c9578351600160a060020a0316835292840192918401916001016107a4565b50909695505050505050565b6000602080835283518082850152825b81811015610801578581018301518582016040015282016107e5565b818111156108125783604083870101525b50601f01601f1916929092016040019392505050565b60008282101561083a5761083a610899565b500390565b60028104600182168061085357607f821691505b602082108114156108785760e060020a634e487b710260009081526022600452602490fd5b50919050565b600060001982141561089257610892610899565b5060010190565b60e060020a634e487b710260009081526011600452602490fd5b60e060020a634e487b710260009081526041600452602490fdfea26469706673582212206f9c36f2dc49315a1426fb0414e390ce6d3207c3350d21e56b61633ff83a2ce564736f6c6343000804003360806040523480156200001157600080fd5b5060405162000ee738038062000ee7833981016040819052620000349162000134565b81516200004990600090602085019062000071565b5060018054600160a060020a031916600160a060020a039290921691909117905550620002a5565b8280546200007f9062000220565b90600052602060002090601f016020900481019282620000a35760008555620000ee565b82601f10620000be57805160ff1916838001178555620000ee565b82800160010185558215620000ee579182015b82811115620000ee578251825591602001919060010190620000d1565b50620000fc92915062000100565b5090565b5b80821115620000fc576000815560010162000101565b8051600160a060020a03811681146200012f57600080fd5b919050565b6000806040838503121562000147578182fd5b825167ffffffffffffffff808211156200015f578384fd5b818501915085601f83011262000173578384fd5b81518181111562000188576200018862000276565b604051601f8201601f19908116603f01168101908382118183101715620001b357620001b362000276565b81604052828152602093508884848701011115620001cf578687fd5b8691505b82821015620001f25784820184015181830185015290830190620001d3565b828211156200020357868484830101525b95506200021591505085820162000117565b925050509250929050565b6002810460018216806200023557607f821691505b6020821081141562000270577f4e487b7100000000000000000000000000000000000000000000000000000000600052602260045260246000fd5b50919050565b7f4e487b7100000000000000000000000000000000000000000000000000000000600052604160045260246000fd5b610c3280620002b56000396000f3fe608060405234801561001057600080fd5b50600436106100bd5760e060020a60003504631b470bc781146100c25780632c5ee501146101395780632c7ac18f146101595780633e8a80091461016c5780634780468f1461017f57806363c339c3146101f457806375a5219614610209578063853e0b461461021e57806398fc90e914610233578063996440c614610246578063a969890614610269578063bdf6c6731461027c578063c95171ae1461028f578063fbbf93a014610297575b600080fd5b6101376100d0366004610975565b6005805460018181019092557f036b6384b5eca791c62761152d0c79bb0604c104a5fb6f4eb0703f3154bb3db0018054600160a060020a03909316600160a060020a031990931683179055600091825260036020526040909120805460ff19169091179055565b005b600154604051600160a060020a0390911681526020015b60405180910390f35b6101376101673660046109a3565b61029f565b61013761017a3660046109a3565b6102e6565b61013761018d366004610975565b6004805460018181019092557f8a35acfbc15ff81a39ae7d344fd709f28e8600b4aa8c65c6b64bfe7fe36bd19b018054600160a060020a03909316600160a060020a031990931683179055600091825260026020526040909120805460ff19169091179055565b6101fc6102f9565b6040516101509190610ae4565b6102116103d2565b6040516101509190610a97565b610226610434565b6040516101509190610b44565b610137610241366004610975565b6104bd565b610259610254366004610975565b610634565b6040519015158152602001610150565b610137610277366004610975565b610652565b61025961028a366004610975565b6107c9565b6102116107e7565b610226610847565b6006805460018101825560009190915281516102e2917ff652222313e28459528d920b65115c16c04f3efc82aaedc97be59f3f377c0d3f019060208401906108dc565b5050565b80516102e29060009060208401906108dc565b60606006805480602002602001604051908101604052809291908181526020016000905b828210156103c957838290600052602060002001805461033c90610b6e565b80601f016020809104026020016040519081016040528092919081815260200182805461036890610b6e565b80156103b55780601f1061038a576101008083540402835291602001916103b5565b820191906000526020600020905b81548152906001019060200180831161039857829003601f168201915b50505050508152602001906001019061031d565b50505050905090565b6060600580548060200260200160405190810160405280929190818152602001828054801561042a57602002820191906000526020600020905b8154600160a060020a0316815260019091019060200180831161040c575b5050505050905090565b60606000805461044390610b6e565b80601f016020809104026020016040519081016040528092919081815260200182805461046f90610b6e565b801561042a5780601f106104915761010080835404028352916020019161042a565b820191906000526020600020905b81548152906001019060200180831161049f57509395945050505050565b60005b6004548110156102e25781600160a060020a0316600482815481106104f85760e060020a634e487b7102600052603260045260246000fd5b600091825260209091200154600160a060020a03161415610622576004546001146105ba576004805461052d90600190610b57565b8154811061054e5760e060020a634e487b7102600052603260045260246000fd5b60009182526020909120015460048054600160a060020a03909216918390811061058b5760e060020a634e487b7102600052603260045260246000fd5b9060005260206000200160006101000a815481600160a060020a030219169083600160a060020a031602179055505b60048054806105dc5760e060020a634e487b7102600052603160045260246000fd5b6000828152602080822083016000199081018054600160a060020a0319169055909201909255600160a060020a03841682526002905260409020805460ff191690555050565b8061062c81610bad565b9150506104c0565b600160a060020a031660009081526002602052604090205460ff1690565b60005b6005548110156102e25781600160a060020a03166005828154811061068d5760e060020a634e487b7102600052603260045260246000fd5b600091825260209091200154600160a060020a031614156107b75760045460011461074f57600580546106c290600190610b57565b815481106106e35760e060020a634e487b7102600052603260045260246000fd5b60009182526020909120015460058054600160a060020a0390921691839081106107205760e060020a634e487b7102600052603260045260246000fd5b9060005260206000200160006101000a815481600160a060020a030219169083600160a060020a031602179055505b60058054806107715760e060020a634e487b7102600052603160045260246000fd5b6000828152602080822083016000199081018054600160a060020a0319169055909201909255600160a060020a03841682526003905260409020805460ff191690555050565b806107c181610bad565b915050610655565b600160a060020a031660009081526003602052604090205460ff1690565b6060600480548060200260200160405190810160405280929190818152602001828054801561042a57602002820191906000526020600020908154600160a060020a0316815260019091019060200180831161040c575050505050905090565b606061085161085e565b6000805461044390610b6e565b61086732610634565b806108765750610876326107c9565b8061088b5750600154600160a060020a031632145b6108da5760405160e560020a62461bcd0281526020600482015260166024820152605160020a752932b9ba3934b1ba32b2103a37902820aa24a2a72a1702604482015260640160405180910390fd5b565b8280546108e890610b6e565b90600052602060002090601f01602090048101928261090a5760008555610950565b82601f1061092357805160ff1916838001178555610950565b82800160010185558215610950579182015b82811115610950578251825591602001919060010190610935565b5061095c929150610960565b5090565b5b8082111561095c5760008155600101610961565b600060208284031215610986578081fd5b8135600160a060020a038116811461099c578182fd5b9392505050565b6000602082840312156109b4578081fd5b81356001604060020a03808211156109ca578283fd5b818401915084601f8301126109dd578283fd5b8135818111156109ef576109ef610be2565b604051601f8201601f19908116603f01168101908382118183101715610a1757610a17610be2565b81604052828152876020848701011115610a2f578586fd5b826020860160208301379182016020019490945295945050505050565b60008151808452815b81811015610a7157602081850181015186830182015201610a55565b81811115610a825782602083870101525b50601f01601f19169290920160200192915050565b6020808252825182820181905260009190848201906040850190845b81811015610ad8578351600160a060020a031683529284019291840191600101610ab3565b50909695505050505050565b6000602080830181845280855180835260408601915060408482028701019250838701855b82811015610b3757603f19888603018452610b25858351610a4c565b94509285019290850190600101610b09565b5092979650505050505050565b60208152600061099c6020830184610a4c565b600082821015610b6957610b69610bc8565b500390565b600281046001821680610b8257607f821691505b60208210811415610ba75760e060020a634e487b710260009081526022600452602490fd5b50919050565b6000600019821415610bc157610bc1610bc8565b5060010190565b60e060020a634e487b710260009081526011600452602490fd5b60e060020a634e487b710260009081526041600452602490fdfea264697066735822122013cf7fbf1dad14158abd3de064d548e7bc62f55e00dda1b57e233df7a5932a5e64736f6c6343000804003360806040523480156200001157600080fd5b50604051620013c2380380620013c28339810160408190526200003491620001dd565b82516200004990600090602086019062000084565b5060018054600160a060020a031916600160a060020a03841617905580516200007a90600290602084019062000084565b50505050620002e9565b828054620000929062000264565b90600052602060002090601f016020900481019282620000b6576000855562000101565b82601f10620000d157805160ff191683800117855562000101565b8280016001018555821562000101579182015b8281111562000101578251825591602001919060010190620000e4565b506200010f92915062000113565b5090565b5b808211156200010f576000815560010162000114565b600082601f8301126200013b578081fd5b81516001604060020a0380821115620001585762000158620002ba565b604051601f8301601f19908116603f01168101908282118183101715620001835762000183620002ba565b816040528381526020925086838588010111156200019f578485fd5b8491505b83821015620001c25785820183015181830184015290820190620001a3565b83821115620001d357848385830101525b9695505050505050565b600080600060608486031215620001f2578283fd5b83516001604060020a038082111562000209578485fd5b62000217878388016200012a565b60208701519095509150600160a060020a038216821462000236578384fd5b6040860151919350808211156200024b578283fd5b506200025a868287016200012a565b9150509250925092565b6002810460018216806200027957607f821691505b60208210811415620002b4577f4e487b7100000000000000000000000000000000000000000000000000000000600052602260045260246000fd5b50919050565b7f4e487b7100000000000000000000000000000000000000000000000000000000600052604160045260246000fd5b6110c980620002f96000396000f3fe608060405234801561001057600080fd5b50600436106100de5760e060020a6000350463086c32e581146100e35780631fc72900146100f857806324db757f14610128578063363c80aa146101465780633dcda7851461015b5780634780468f1461016e578063679a131a146101e35780636d263ceb146101f85780637d0d62571461026d57806387806430146102805780638f9c79ed1461029357806398fc90e9146102cf578063996440c6146102e2578063c95171ae1461030e578063c98d66c114610316578063ded15aaf1461031e578063e5b8459014610331575b600080fd5b6100f66100f1366004610e06565b61034c565b005b6100f6610106366004610de5565b60018054600160a060020a031916600160a060020a0392909216919091179055565b610130610363565b60405161013d9190610fdb565b60405180910390f35b61014e6103f5565b60405161013d9190610f33565b6100f6610169366004610de5565b61052e565b6100f661017c366004610de5565b6005805460018181019092557f036b6384b5eca791c62761152d0c79bb0604c104a5fb6f4eb0703f3154bb3db0018054600160a060020a03909316600160a060020a031990931683179055600091825260036020526040909120805460ff19169091179055565b6101eb61071d565b60405161013d9190610ee6565b6100f6610206366004610de5565b6006805460018181019092557ff652222313e28459528d920b65115c16c04f3efc82aaedc97be59f3f377c0d3f018054600160a060020a03909316600160a060020a031990931683179055600091825260046020526040909120805460ff19169091179055565b6100f661027b366004610de5565b61077e565b6100f661028e366004610e40565b6108f5565b6102bf6102a1366004610de5565b600160a060020a031660009081526004602052604090205460ff1690565b604051901515815260200161013d565b6100f66102dd366004610de5565b6109fd565b6102bf6102f0366004610de5565b600160a060020a031660009081526003602052604090205460ff1690565b6101eb610b74565b610130610bd4565b6100f661032c366004610e06565b610be3565b600154604051600160a060020a03909116815260200161013d565b805161035f906002906020840190610bf2565b5050565b60606002805461037290611005565b80601f016020809104026020016040519081016040528092919081815260200182805461039e90611005565b80156103eb5780601f106103c0576101008083540402835291602001916103eb565b820191906000526020600020905b8154815290600101906020018083116103ce57829003601f168201915b5050505050905090565b60606007805480602002602001604051908101604052809291908181526020016000905b828210156105255760008481526020908190206040805160a08101909152600585029091018054600160a060020a03168252600181018054929391929184019161046290611005565b80601f016020809104026020016040519081016040528092919081815260200182805461048e90611005565b80156104db5780601f106104b0576101008083540402835291602001916104db565b820191906000526020600020905b8154815290600101906020018083116104be57829003601f168201915b50505091835250506002820154600160a060020a03908116602080840191909152600384015490911660408301526004909201546060909101529082526001929092019101610419565b50505050905090565b60005b60075481101561035f5781600160a060020a0316600782815481106105695760e060020a634e487b7102600052603260045260246000fd5b6000918252602090912060059091020154600160a060020a0316141561070b5760075460011461068957600780546105a390600190610fee565b815481106105c45760e060020a634e487b7102600052603260045260246000fd5b9060005260206000209060050201600782815481106105f65760e060020a634e487b7102600052603260045260246000fd5b6000918252602090912082546005909202018054600160a060020a031916600160a060020a03909216919091178155600180830180549183019161063990611005565b610644929190610c76565b506002828101549082018054600160a060020a03928316600160a060020a03199182161790915560038085015490840180549190931691161790556004918201549101555b60078054806106ab5760e060020a634e487b7102600052603160045260246000fd5b6000828152602081206005600019909301928302018054600160a060020a0319168155906106dc6001830182610cf1565b50600281018054600160a060020a03199081169091556003820180549091169055600060049091015590555050565b8061071581611044565b915050610531565b606060068054806020026020016040519081016040528092919081815260200182805480156103eb57602002820191906000526020600020905b8154600160a060020a03168152600190910190602001808311610757575050505050905090565b60005b60065481101561035f5781600160a060020a0316600682815481106107b95760e060020a634e487b7102600052603260045260246000fd5b600091825260209091200154600160a060020a031614156108e35760065460011461087b57600680546107ee90600190610fee565b8154811061080f5760e060020a634e487b7102600052603260045260246000fd5b60009182526020909120015460068054600160a060020a03909216918390811061084c5760e060020a634e487b7102600052603260045260246000fd5b9060005260206000200160006101000a815481600160a060020a030219169083600160a060020a031602179055505b600680548061089d5760e060020a634e487b7102600052603160045260246000fd5b6000828152602080822083016000199081018054600160a060020a0319169055909201909255600160a060020a03841682526004905260409020805460ff191690555050565b806108ed81611044565b915050610781565b6040805160a081018252600160a060020a0384811682526020808301878152339484019490945284821660608401524260808401526007805460018101825560009190915283517fa66cc928b5edb82af9bd49922954155ab7b0942694bea4ce44661d9a8736c68860059092029182018054600160a060020a0319169190941617835593518051939492936109b1937fa66cc928b5edb82af9bd49922954155ab7b0942694bea4ce44661d9a8736c68901929190910190610bf2565b506040820151600282018054600160a060020a03928316600160a060020a0319918216179091556060840151600384018054919093169116179055608090910151600490910155505050565b60005b60055481101561035f5781600160a060020a031660058281548110610a385760e060020a634e487b7102600052603260045260246000fd5b600091825260209091200154600160a060020a03161415610b6257600554600114610afa5760058054610a6d90600190610fee565b81548110610a8e5760e060020a634e487b7102600052603260045260246000fd5b60009182526020909120015460058054600160a060020a039092169183908110610acb5760e060020a634e487b7102600052603260045260246000fd5b9060005260206000200160006101000a815481600160a060020a030219169083600160a060020a031602179055505b6005805480610b1c5760e060020a634e487b7102600052603160045260246000fd5b6000828152602080822083016000199081018054600160a060020a0319169055909201909255600160a060020a03841682526003905260409020805460ff191690555050565b80610b6c81611044565b915050610a00565b606060058054806020026020016040519081016040528092919081815260200182805480156103eb57602002820191906000526020600020908154600160a060020a03168152600190910190602001808311610757575050505050905090565b60606000805461037290611005565b805161035f9060009060208401905b828054610bfe90611005565b90600052602060002090601f016020900481019282610c205760008555610c66565b82601f10610c3957805160ff1916838001178555610c66565b82800160010185558215610c66579182015b82811115610c66578251825591602001919060010190610c4b565b50610c72929150610d2e565b5090565b828054610c8290611005565b90600052602060002090601f016020900481019282610ca45760008555610c66565b82601f10610cb55780548555610c66565b82800160010185558215610c6657600052602060002091601f016020900482015b82811115610c66578254825591600101919060010190610cd6565b508054610cfd90611005565b6000825580601f10610d0d575050565b601f016020900490600052602060002090810190610d2b9190610d2e565b50565b5b80821115610c725760008155600101610d2f565b8035600160a060020a0381168114610d5a57600080fd5b919050565b600082601f830112610d6f578081fd5b81356001604060020a0380821115610d8957610d89611079565b604051601f8301601f19908116603f01168101908282118183101715610db157610db1611079565b81604052838152866020858801011115610dc9578485fd5b8360208701602083013792830160200193909352509392505050565b600060208284031215610df6578081fd5b610dff82610d43565b9392505050565b600060208284031215610e17578081fd5b81356001604060020a03811115610e2c578182fd5b610e3884828501610d5f565b949350505050565b600080600060608486031215610e54578182fd5b83356001604060020a03811115610e69578283fd5b610e7586828701610d5f565b935050610e8460208501610d43565b9150610e9260408501610d43565b90509250925092565b60008151808452815b81811015610ec057602081850181015186830182015201610ea4565b81811115610ed15782602083870101525b50601f01601f19169290920160200192915050565b6020808252825182820181905260009190848201906040850190845b81811015610f27578351600160a060020a031683529284019291840191600101610f02565b50909695505050505050565b60208082528251828201819052600091906040908185019080840286018301878501865b83811015610fcd57888303603f1901855281518051600160a060020a0390811685528882015160a08a87018190529190610f9383880182610e9b565b848b01518316888c015260608086015190931692880192909252506080928301519290950191909152509386019390860190600101610f57565b509098975050505050505050565b602081526000610dff6020830184610e9b565b6000828210156110005761100061105f565b500390565b60028104600182168061101957607f821691505b6020821081141561103e5760e060020a634e487b710260009081526022600452602490fd5b50919050565b60006000198214156110585761105861105f565b5060010190565b60e060020a634e487b710260009081526011600452602490fd5b60e060020a634e487b710260009081526041600452602490fdfea2646970667358221220544a06e65e4a3f5f17afe3046600b7d437327eae2bab69aae51bc33eb0a4916264736f6c63430008040033608060405234801561001057600080fd5b506040516106ef3803806106ef83398101604081905261002f916101c0565b825161004290600090602086019061007f565b50815161005690600190602085019061007f565b5060028054600160a060020a031916600160a060020a0392909216919091179055506102c49050565b82805461008b90610241565b90600052602060002090601f0160209004810192826100ad57600085556100f3565b82601f106100c657805160ff19168380011785556100f3565b828001600101855582156100f3579182015b828111156100f35782518255916020019190600101906100d8565b506100ff929150610103565b5090565b5b808211156100ff5760008155600101610104565b600082601f830112610128578081fd5b81516001604060020a038082111561014257610142610295565b604051601f8301601f19908116603f0116810190828211818310171561016a5761016a610295565b81604052838152602092508683858801011115610185578485fd5b8491505b838210156101a65785820183015181830184015290820190610189565b838211156101b657848385830101525b9695505050505050565b6000806000606084860312156101d4578283fd5b83516001604060020a03808211156101ea578485fd5b6101f687838801610118565b9450602086015191508082111561020b578384fd5b5061021886828701610118565b60408601519093509050600160a060020a0381168114610236578182fd5b809150509250925092565b60028104600182168061025557607f821691505b6020821081141561028f577f4e487b7100000000000000000000000000000000000000000000000000000000600052602260045260246000fd5b50919050565b7f4e487b7100000000000000000000000000000000000000000000000000000000600052604160045260246000fd5b61041c806102d36000396000f3fe608060405234801561001057600080fd5b50600436106100655760e060020a6000350463086c32e5811461006a57806324db757f1461007f5780632c0a85161461009d578063441e2f09146100a5578063d665b298146100b8578063d67c2da3146100e8575b600080fd5b61007d610078366004610291565b610103565b005b61008761011a565b604051610094919061033a565b60405180910390f35b6100876101ac565b61007d6100b3366004610291565b6101bb565b61007d6100c6366004610263565b60028054600160a060020a031916600160a060020a0392909216919091179055565b600254604051600160a060020a039091168152602001610094565b80516101169060019060208401906101ca565b5050565b6060600180546101299061038d565b80601f01602080910402602001604051908101604052809291908181526020018280546101559061038d565b80156101a25780601f10610177576101008083540402835291602001916101a2565b820191906000526020600020905b81548152906001019060200180831161018557829003601f168201915b5050505050905090565b6060600080546101299061038d565b80516101169060009060208401905b8280546101d69061038d565b90600052602060002090601f0160209004810192826101f8576000855561023e565b82601f1061021157805160ff191683800117855561023e565b8280016001018555821561023e579182015b8281111561023e578251825591602001919060010190610223565b5061024a92915061024e565b5090565b5b8082111561024a576000815560010161024f565b600060208284031215610274578081fd5b8135600160a060020a038116811461028a578182fd5b9392505050565b6000602082840312156102a2578081fd5b81356001604060020a03808211156102b8578283fd5b818401915084601f8301126102cb578283fd5b8135818111156102dd576102dd6103cc565b604051601f8201601f19908116603f01168101908382118183101715610305576103056103cc565b8160405282815287602084870101111561031d578586fd5b826020860160208301379182016020019490945295945050505050565b6000602080835283518082850152825b818110156103665785810183015185820160400152820161034a565b818111156103775783604083870101525b50601f01601f1916929092016040019392505050565b6002810460018216806103a157607f821691505b602082108114156103c65760e060020a634e487b710260009081526022600452602490fd5b50919050565b60e060020a634e487b710260009081526041600452602490fdfea264697066735822122031ada13bf47a10e79058a8f19cefd0c4e92aee3053932a0ed5a2275e92f717b864736f6c63430008040033b10e2d527612073b26eecdfd717e6a320cf44b4afac2b0732d9fcbe2b7fa0cf8b10e2d527612073b26eecdfd717e6a320cf44b4afac2b0732d9fcbe2b7fa0cf6b10e2d527612073b26eecdfd717e6a320cf44b4afac2b0732d9fcbe2b7fa0cf7a264697066735822122002ce728b28ab16b2a3d3d776f77c58abd072d4d91ca4765b9d96a8fa84c08f3564736f6c63430008040033",
  "linkReferences": {},
  "deployedLinkReferences": {}
}