{
  "_format": "hh-sol-artifact-1",
  "contractName": "ApproveDetails",
  "sourceName": "contracts/Main.sol",
  "abi": [
    {
      "inputs": [
        {
          "internalType": "address",
          "name": "_DHRMS_CONTRACT_ADDRESS",
          "type": "address"
        }
      ],
      "stateMutability": "nonpayable",
      "type": "constructor"
    },
    {
      "inputs": [
        {
          "internalType": "string",
          "name": "_doctorName",
          "type": "string"
        },
        {
          "internalType": "string",
          "name": "_phoneNumber",
          "type": "string"
        },
        {
          "internalType": "string",
          "name": "_qualification",
          "type": "string"
        },
        {
          "internalType": "string",
          "name": "_photo",
          "type": "string"
        },
        {
          "internalType": "string",
          "name": "_dob",
          "type": "string"
        },
        {
          "internalType": "address",
          "name": "_HID",
          "type": "address"
        },
        {
          "internalType": "address",
          "name": "_DID",
          "type": "address"
        },
        {
          "internalType": "string",
          "name": "_department",
          "type": "string"
        }
      ],
      "name": "addDoctortoList",
      "outputs": [],
      "stateMutability": "nonpayable",
      "type": "function"
    },
    {
      "inputs": [
        {
          "internalType": "string",
          "name": "_officeName",
          "type": "string"
        },
        {
          "internalType": "string",
          "name": "_phoneNumber",
          "type": "string"
        },
        {
          "internalType": "address",
          "name": "_GID",
          "type": "address"
        }
      ],
      "name": "addGovernmentOfficetoList",
      "outputs": [],
      "stateMutability": "nonpayable",
      "type": "function"
    },
    {
      "inputs": [
        {
          "internalType": "string",
          "name": "_hospitalName",
          "type": "string"
        },
        {
          "internalType": "string",
          "name": "_phoneNumber",
          "type": "string"
        },
        {
          "internalType": "address",
          "name": "_HID",
          "type": "address"
        }
      ],
      "name": "addHospitaltoList",
      "outputs": [],
      "stateMutability": "nonpayable",
      "type": "function"
    },
    {
      "inputs": [
        {
          "internalType": "string",
          "name": "_details",
          "type": "string"
        },
        {
          "internalType": "address",
          "name": "_PID",
          "type": "address"
        }
      ],
      "name": "addPatienttoList",
      "outputs": [],
      "stateMutability": "nonpayable",
      "type": "function"
    },
    {
      "inputs": [
        {
          "internalType": "address",
          "name": "_userAdd",
          "type": "address"
        }
      ],
      "name": "approve",
      "outputs": [],
      "stateMutability": "nonpayable",
      "type": "function"
    },
    {
      "inputs": [
        {
          "internalType": "address",
          "name": "_userAdd",
          "type": "address"
        }
      ],
      "name": "disApprove",
      "outputs": [],
      "stateMutability": "nonpayable",
      "type": "function"
    },
    {
      "inputs": [],
      "name": "getApproveList",
      "outputs": [
        {
          "components": [
            {
              "internalType": "address",
              "name": "instanceAdd",
              "type": "address"
            },
            {
              "internalType": "address",
              "name": "userAdd",
              "type": "address"
            },
            {
              "internalType": "string",
              "name": "userType",
              "type": "string"
            },
            {
              "internalType": "uint256",
              "name": "timestamp",
              "type": "uint256"
            }
          ],
          "internalType": "struct ApproveDetails.Approve[]",
          "name": "",
          "type": "tuple[]"
        }
      ],
      "stateMutability": "view",
      "type": "function"
    },
    {
      "inputs": [
        {
          "internalType": "address",
          "name": "_instanceAddress",
          "type": "address"
        }
      ],
      "name": "getDoctorDetails",
      "outputs": [
        {
          "internalType": "string[6]",
          "name": "",
          "type": "string[6]"
        }
      ],
      "stateMutability": "view",
      "type": "function"
    },
    {
      "inputs": [
        {
          "internalType": "address",
          "name": "_instanceAddress",
          "type": "address"
        }
      ],
      "name": "getGovernmentDetails",
      "outputs": [
        {
          "internalType": "string[2]",
          "name": "",
          "type": "string[2]"
        }
      ],
      "stateMutability": "view",
      "type": "function"
    },
    {
      "inputs": [
        {
          "internalType": "address",
          "name": "_instanceAddress",
          "type": "address"
        }
      ],
      "name": "getHospitalDetails",
      "outputs": [
        {
          "internalType": "string[2]",
          "name": "",
          "type": "string[2]"
        }
      ],
      "stateMutability": "view",
      "type": "function"
    },
    {
      "inputs": [
        {
          "internalType": "address",
          "name": "_instanceAddress",
          "type": "address"
        }
      ],
      "name": "getPatientDetails",
      "outputs": [
        {
          "internalType": "string",
          "name": "",
          "type": "string"
        }
      ],
      "stateMutability": "view",
      "type": "function"
    }
  ],
  "bytecode": "0x60806040523480156200001157600080fd5b50604051620060363803806200603683398101604081905262000034916200005a565b60008054600160a060020a031916600160a060020a03929092169190911790556200008a565b6000602082840312156200006c578081fd5b8151600160a060020a038116811462000083578182fd5b9392505050565b615f9c806200009a6000396000f3fe60806040523480156200001157600080fd5b5060043610620000a95760e060020a60003504630bb307a88114620000ae57806310c9ef6914620000dd57806311c43b1914620000f6578063b8eb6d1c146200010f578063bab90dbd1462000126578063bdf9f646146200014c578063c2ff4dc51462000163578063daea85c5146200017a578063dc1976e11462000191578063ef6f93c414620001a8578063efe2ccc114620001bf575b600080fd5b620000c5620000bf366004620020bb565b620001e5565b604051620000d4919062002448565b60405180910390f35b620000f4620000ee3660046200224d565b620002ff565b005b6200010062000432565b604051620000d49190620024de565b620000c562000120366004620020bb565b6200055a565b6200013d62000137366004620020bb565b620005ac565b604051620000d4919062002499565b620000f46200015d366004620020bb565b62000883565b620000f4620001743660046200217b565b62000a4e565b620000f46200018b366004620020bb565b62000b6f565b620000f4620001a2366004620021d0565b62001bb2565b620000f4620001b9366004620021d0565b62001cd6565b620001d6620001d0366004620020bb565b62001de7565b604051620000d4919062002579565b620001ef62001e6b565b604051806040016040528083600160a060020a031663c98d66c16040518163ffffffff1660e060020a02815260040160006040518083038186803b1580156200023757600080fd5b505afa1580156200024c573d6000803e3d6000fd5b505050506040513d6000823e601f3d908101601f1916820160405262000276919081019062002100565b815260200183600160a060020a03166324db757f6040518163ffffffff1660e060020a02815260040160006040518083038186803b158015620002b857600080fd5b505afa158015620002cd573d6000803e3d6000fd5b505050506040513d6000823e601f3d908101601f19168201604052620002f7919081019062002100565b905292915050565b60008888888888888888604051620003179062001e93565b6200032a98979695949392919062002640565b604051809103906000f08015801562000347573d6000803e3d6000fd5b5060408051608081018252600160a060020a0380841682528681166020808401918252845180860186526003815260e860020a62444f4302818301529484019485524260608501526001805480820182556000919091528451600490910260008051602062005f2783398151915281018054928616600160a060020a0319938416178155935160008051602062005f47833981519152820180549190961692169190911790935593518051959650929490936200041a9360008051602062005f0783398151915290930192019062001ea1565b50606082015181600301555050505050505050505050565b60606001805480602002602001604051908101604052809291908181526020016000905b828210156200055157600084815260209081902060408051608081018252600486029092018054600160a060020a0390811684526001820154169383019390935260028301805492939291840191620004af9062002794565b80601f0160208091040260200160405190810160405280929190818152602001828054620004dd9062002794565b80156200052e5780601f1062000502576101008083540402835291602001916200052e565b820191906000526020600020905b8154815290600101906020018083116200051057829003601f168201915b505050505081526020016003820154815250508152602001906001019062000456565b50505050905090565b6200056462001e6b565b604051806040016040528083600160a060020a0316632c0a85166040518163ffffffff1660e060020a02815260040160006040518083038186803b1580156200023757600080fd5b620005b662001f30565b6040518060c0016040528083600160a060020a0316632796c8f06040518163ffffffff1660e060020a02815260040160006040518083038186803b158015620005fe57600080fd5b505afa15801562000613573d6000803e3d6000fd5b505050506040513d6000823e601f3d908101601f191682016040526200063d919081019062002100565b815260200183600160a060020a0316632f5319e16040518163ffffffff1660e060020a02815260040160006040518083038186803b1580156200067f57600080fd5b505afa15801562000694573d6000803e3d6000fd5b505050506040513d6000823e601f3d908101601f19168201604052620006be919081019062002100565b815260200183600160a060020a031663ce3dc9416040518163ffffffff1660e060020a02815260040160006040518083038186803b1580156200070057600080fd5b505afa15801562000715573d6000803e3d6000fd5b505050506040513d6000823e601f3d908101601f191682016040526200073f919081019062002100565b815260200183600160a060020a031663b2ec005e6040518163ffffffff1660e060020a02815260040160006040518083038186803b1580156200078157600080fd5b505afa15801562000796573d6000803e3d6000fd5b505050506040513d6000823e601f3d908101601f19168201604052620007c0919081019062002100565b815260200183600160a060020a031663bef31c3c6040518163ffffffff1660e060020a02815260040160006040518083038186803b1580156200080257600080fd5b505afa15801562000817573d6000803e3d6000fd5b505050506040513d6000823e601f3d908101601f1916820160405262000841919081019062002100565b815260200183600160a060020a03166327d206656040518163ffffffff1660e060020a02815260040160006040518083038186803b158015620002b857600080fd5b60005b60015481101562000a4a5781600160a060020a031660018281548110620008c05760e060020a634e487b7102600052603260045260246000fd5b6000918252602090912060016004909202010154600160a060020a0316141562000a35576001805414620009c55760018054620008ff90829062002747565b81548110620009215760e060020a634e487b7102600052603260045260246000fd5b906000526020600020906004020160018281548110620009545760e060020a634e487b7102600052603260045260246000fd5b6000918252602090912082546004909202018054600160a060020a03928316600160a060020a03199182161782556001808501549083018054919094169116179091556002808301805491830191620009ad9062002794565b620009ba92919062001f4b565b506003918201549101555b6001805480620009e85760e060020a634e487b7102600052603160045260246000fd5b6000828152602081206004600019909301928302018054600160a060020a0319908116825560018201805490911690559062000a28600283018262001fcf565b6003820160009055505090555b8062000a4181620027d5565b91505062000886565b5050565b6000828260405162000a609062002011565b62000a6d9291906200258e565b604051809103906000f08015801562000a8a573d6000803e3d6000fd5b5060408051608081018252600160a060020a0380841682528581166020808401918252845180860186526003815260ea60020a6214105502818301529484019485524260608501526001805480820182556000919091528451600490910260008051602062005f2783398151915281018054928616600160a060020a0319938416178155935160008051602062005f478339815191528201805491909616921691909117909355935180519596509294909362000b5d9360008051602062005f0783398151915290930192019062001ea1565b50606082015181600301555050505050565b60005b60015481101562000a4a5781600160a060020a03166001828154811062000bac5760e060020a634e487b7102600052603260045260246000fd5b6000918252602090912060016004909202010154600160a060020a0316141562001b9d577f8eeeb5290718f324aa0965d35cf24b6163c00698ab277824ce00bdf229264ecf6001828154811062000c165760e060020a634e487b7102600052603260045260246000fd5b906000526020600020906004020160020160405162000c369190620023a2565b6040518091039020141562000ed35760005460018054600160a060020a0390921691630d339ad291908490811062000c815760e060020a634e487b7102600052603260045260246000fd5b600091825260208220600491820201546040805160e160020a631605428b0281529051600160a060020a0390921693632c0a851693828101939192829003018186803b15801562000cd157600080fd5b505afa15801562000ce6573d6000803e3d6000fd5b505050506040513d6000823e601f3d908101601f1916820160405262000d10919081019062002100565b6001848154811062000d355760e060020a634e487b7102600052603260045260246000fd5b600091825260208220600491820201546040805160e060020a6324db757f0281529051600160a060020a03909216936324db757f93828101939192829003018186803b15801562000d8557600080fd5b505afa15801562000d9a573d6000803e3d6000fd5b505050506040513d6000823e601f3d908101601f1916820160405262000dc4919081019062002100565b6001858154811062000de95760e060020a634e487b7102600052603260045260246000fd5b6000918252602091829020600491820201546040805160e060020a63d67c2da30281529051600160a060020a039092169363d67c2da393828101939192829003018186803b15801562000e3b57600080fd5b505afa15801562000e50573d6000803e3d6000fd5b505050506040513d601f19601f8201168201806040525081019062000e769190620020e1565b6040518463ffffffff1660e060020a02815260040162000e9993929190620025fd565b600060405180830381600087803b15801562000eb457600080fd5b505af115801562000ec9573d6000803e3d6000fd5b50505050620019d7565b7fe89967e40ef7b0c8e3083f107bcd7bcce6d6477c95740e74040ab2217cf4eb166001828154811062000f195760e060020a634e487b7102600052603260045260246000fd5b906000526020600020906004020160020160405162000f399190620023a2565b604051809103902014156200113e5760005460018054600160a060020a03909216916351d9ab3891908490811062000f845760e060020a634e487b7102600052603260045260246000fd5b600091825260208220600491820201546040805160e060020a63c98d66c10281529051600160a060020a039092169363c98d66c193828101939192829003018186803b15801562000fd457600080fd5b505afa15801562000fe9573d6000803e3d6000fd5b505050506040513d6000823e601f3d908101601f1916820160405262001013919081019062002100565b60018481548110620010385760e060020a634e487b7102600052603260045260246000fd5b600091825260208220600491820201546040805160e060020a6324db757f0281529051600160a060020a03909216936324db757f93828101939192829003018186803b1580156200108857600080fd5b505afa1580156200109d573d6000803e3d6000fd5b505050506040513d6000823e601f3d908101601f19168201604052620010c7919081019062002100565b60018581548110620010ec5760e060020a634e487b7102600052603260045260246000fd5b6000918252602091829020600491820201546040805160e460020a630e5b84590281529051600160a060020a039092169363e5b8459093828101939192829003018186803b15801562000e3b57600080fd5b7f292a01670a1b480b345e48d724cb4f30afd414d3da5da18241af2c83b5695bcb60018281548110620011845760e060020a634e487b7102600052603260045260246000fd5b9060005260206000209060040201600201604051620011a49190620023a2565b604051809103902014156200178e5760005460018054600160a060020a0390921691632a386d19919084908110620011ef5760e060020a634e487b7102600052603260045260246000fd5b600091825260208220600491820201546040805160e460020a6302796c8f0281529051600160a060020a0390921693632796c8f093828101939192829003018186803b1580156200123f57600080fd5b505afa15801562001254573d6000803e3d6000fd5b505050506040513d6000823e601f3d908101601f191682016040526200127e919081019062002100565b60018481548110620012a35760e060020a634e487b7102600052603260045260246000fd5b600091825260208220600491820201546040805160e060020a632f5319e10281529051600160a060020a0390921693632f5319e193828101939192829003018186803b158015620012f357600080fd5b505afa15801562001308573d6000803e3d6000fd5b505050506040513d6000823e601f3d908101601f1916820160405262001332919081019062002100565b60018581548110620013575760e060020a634e487b7102600052603260045260246000fd5b600091825260208220600491820201546040805160e060020a63ce3dc9410281529051600160a060020a039092169363ce3dc94193828101939192829003018186803b158015620013a757600080fd5b505afa158015620013bc573d6000803e3d6000fd5b505050506040513d6000823e601f3d908101601f19168201604052620013e6919081019062002100565b600186815481106200140b5760e060020a634e487b7102600052603260045260246000fd5b600091825260208220600491820201546040805160e160020a635976002f0281529051600160a060020a039092169363b2ec005e93828101939192829003018186803b1580156200145b57600080fd5b505afa15801562001470573d6000803e3d6000fd5b505050506040513d6000823e601f3d908101601f191682016040526200149a919081019062002100565b60018781548110620014bf5760e060020a634e487b7102600052603260045260246000fd5b600091825260208220600491820201546040805160e260020a632fbcc70f0281529051600160a060020a039092169363bef31c3c93828101939192829003018186803b1580156200150f57600080fd5b505afa15801562001524573d6000803e3d6000fd5b505050506040513d6000823e601f3d908101601f191682016040526200154e919081019062002100565b60018881548110620015735760e060020a634e487b7102600052603260045260246000fd5b6000918252602091829020600491820201546040805160e160020a630c3b4ea30281529051600160a060020a03909216936318769d4693828101939192829003018186803b158015620015c557600080fd5b505afa158015620015da573d6000803e3d6000fd5b505050506040513d601f19601f82011682018060405250810190620016009190620020e1565b60018981548110620016255760e060020a634e487b7102600052603260045260246000fd5b6000918252602091829020600491820201546040805160e060020a63bc9c2d550281529051600160a060020a039092169363bc9c2d5593828101939192829003018186803b1580156200167757600080fd5b505afa1580156200168c573d6000803e3d6000fd5b505050506040513d601f19601f82011682018060405250810190620016b29190620020e1565b60018a81548110620016d75760e060020a634e487b7102600052603260045260246000fd5b600091825260208220600491820201546040805160e060020a6327d206650281529051600160a060020a03909216936327d2066593828101939192829003018186803b1580156200172757600080fd5b505afa1580156200173c573d6000803e3d6000fd5b505050506040513d6000823e601f3d908101601f1916820160405262001766919081019062002100565b6040518963ffffffff1660e060020a02815260040162000e9998979695949392919062002640565b7f0e4d1b4fb2558687eecd651ee2d9d18ec141a4ebb5dcc49141fc72f92f80a66360018281548110620017d45760e060020a634e487b7102600052603260045260246000fd5b9060005260206000209060040201600201604051620017f49190620023a2565b60405180910390201415620019d75760005460018054600160a060020a0390921691638bd874759190849081106200183f5760e060020a634e487b7102600052603260045260246000fd5b600091825260208220600491820201546040805160e160020a63429f05a30281529051600160a060020a039092169363853e0b4693828101939192829003018186803b1580156200188f57600080fd5b505afa158015620018a4573d6000803e3d6000fd5b505050506040513d6000823e601f3d908101601f19168201604052620018ce919081019062002100565b60018481548110620018f35760e060020a634e487b7102600052603260045260246000fd5b6000918252602091829020600491820201546040805160e060020a632c5ee5010281529051600160a060020a0390921693632c5ee50193828101939192829003018186803b1580156200194557600080fd5b505afa1580156200195a573d6000803e3d6000fd5b505050506040513d601f19601f82011682018060405250810190620019809190620020e1565b6040518363ffffffff1660e060020a028152600401620019a29291906200258e565b600060405180830381600087803b158015620019bd57600080fd5b505af1158015620019d2573d6000803e3d6000fd5b505050505b60018054141562001a5757600180548062001a055760e060020a634e487b7102600052603160045260246000fd5b6000828152602081206004600019909301928302018054600160a060020a0319908116825560018201805490911690559062001a45600283018262001fcf565b60038201600090555050905562001b9d565b6001805462001a6890829062002747565b8154811062001a8a5760e060020a634e487b7102600052603260045260246000fd5b90600052602060002090600402016001828154811062001abd5760e060020a634e487b7102600052603260045260246000fd5b6000918252602090912082546004909202018054600160a060020a03928316600160a060020a0319918216178255600180850154908301805491909416911617909155600280830180549183019162001b169062002794565b62001b2392919062001f4b565b50600391820154910155600180548062001b505760e060020a634e487b7102600052603160045260246000fd5b6000828152602081206004600019909301928302018054600160a060020a0319908116825560018201805490911690559062001b90600283018262001fcf565b6003820160009055505090555b8062001ba981620027d5565b91505062000b72565b600083828460405162001bc5906200201f565b62001bd393929190620025bb565b604051809103906000f08015801562001bf0573d6000803e3d6000fd5b5060408051608081018252600160a060020a0380841682528581166020808401918252845180860186526003815260e860020a62484f5302818301529484019485524260608501526001805480820182556000919091528451600490910260008051602062005f2783398151915281018054928616600160a060020a0319938416178155935160008051602062005f478339815191528201805491909616921691909117909355935180519596509294909362001cc39360008051602062005f0783398151915290930192019062001ea1565b5060608201518160030155505050505050565b600083838360405162001ce9906200202d565b62001cf793929190620025fd565b604051809103906000f08015801562001d14573d6000803e3d6000fd5b5060408051608081018252600160a060020a0380841682528581166020808401918252845180860186526003815260e960020a6223a7ab02818301529484019485524260608501526001805480820182556000919091528451600490910260008051602062005f2783398151915281018054928616600160a060020a0319938416178155935160008051602062005f478339815191528201805491909616921691909117909355935180519596509294909362001cc39360008051602062005f0783398151915290930192019062001ea1565b606081600160a060020a031663fbbf93a06040518163ffffffff1660e060020a02815260040160006040518083038186803b15801562001e2657600080fd5b505afa15801562001e3b573d6000803e3d6000fd5b505050506040513d6000823e601f3d908101601f1916820160405262001e65919081019062002100565b92915050565b60405180604001604052806002905b606081526020019060019003908162001e7a5790505090565b610d31806200283e83390190565b82805462001eaf9062002794565b90600052602060002090601f01602090048101928262001ed3576000855562001f1e565b82601f1062001eee57805160ff191683800117855562001f1e565b8280016001018555821562001f1e579182015b8281111562001f1e57825182559160200191906001019062001f01565b5062001f2c9291506200203b565b5090565b6040805160c081019091526060815260056020820162001e7a565b82805462001f599062002794565b90600052602060002090601f01602090048101928262001f7d576000855562001f1e565b82601f1062001f90578054855562001f1e565b8280016001018555821562001f1e57600052602060002091601f016020900482015b8281111562001f1e57825482559160010191906001019062001fb2565b50805462001fdd9062002794565b6000825580601f1062001fee575050565b601f0160209004906000526020600020908101906200200e91906200203b565b50565b610ee7806200356f83390190565b6113c2806200445683390190565b6106ef806200581883390190565b5b8082111562001f2c57600081556001016200203c565b80356200205f8162002827565b919050565b600082601f83011262002075578081fd5b81356200208c62002086826200271d565b620026ea565b818152846020838601011115620020a1578283fd5b816020850160208301379081016020019190915292915050565b600060208284031215620020cd578081fd5b8135620020da8162002827565b9392505050565b600060208284031215620020f3578081fd5b8151620020da8162002827565b60006020828403121562002112578081fd5b81516001604060020a0381111562002128578182fd5b8201601f8101841362002139578182fd5b80516200214a62002086826200271d565b8181528560208385010111156200215f578384fd5b6200217282602083016020860162002761565b95945050505050565b600080604083850312156200218e578081fd5b82356001604060020a03811115620021a4578182fd5b620021b28582860162002064565b9250506020830135620021c58162002827565b809150509250929050565b600080600060608486031215620021e5578081fd5b83356001604060020a0380821115620021fc578283fd5b6200220a8783880162002064565b9450602086013591508082111562002220578283fd5b506200222f8682870162002064565b9250506040840135620022428162002827565b809150509250925092565b600080600080600080600080610100898b0312156200226a578384fd5b88356001604060020a038082111562002281578586fd5b6200228f8c838d0162002064565b995060208b0135915080821115620022a5578586fd5b620022b38c838d0162002064565b985060408b0135915080821115620022c9578586fd5b620022d78c838d0162002064565b975060608b0135915080821115620022ed578586fd5b620022fb8c838d0162002064565b965060808b013591508082111562002311578586fd5b6200231f8c838d0162002064565b95506200232f60a08c0162002052565b94506200233f60c08c0162002052565b935060e08b013591508082111562002355578283fd5b50620023648b828c0162002064565b9150509295985092959890939650565b600081518084526200238e81602086016020860162002761565b601f01601f19169290920160200192915050565b8154600090819060028104600180831680620023bf57607f831692505b6020808410821415620023e35760e060020a634e487b710287526022600452602487fd5b818015620023fa57600181146200240c576200243a565b60ff198616895284890196506200243a565b60008a815260209020885b86811015620024325781548b82015290850190830162002417565b505084890196505b509498975050505050505050565b60208082526000906060830183820185845b60028110156200248d57601f198785030183526200247a84835162002374565b935091840191908401906001016200245a565b50919695505050505050565b602080825260009060e0830183820185845b60068110156200248d57601f19878503018352620024cb84835162002374565b93509184019190840190600101620024ab565b60208082528251828201819052600091906040908185019080840286018301878501865b838110156200256b57888303603f1901855281518051600160a060020a03908116855288820151168885015286810151608088860181905290620025498287018262002374565b6060938401519690930195909552509487019492509086019060010162002502565b509098975050505050505050565b602081526000620020da602083018462002374565b604081526000620025a3604083018562002374565b9050600160a060020a03831660208301529392505050565b606081526000620025d0606083018662002374565b600160a060020a03851660208401528281036040840152620025f3818562002374565b9695505050505050565b60608152600062002612606083018662002374565b828103602084015262002626818662002374565b915050600160a060020a0383166040830152949350505050565b6000610100808352620026568184018c62002374565b905082810360208401526200266c818b62002374565b9050828103604084015262002682818a62002374565b9050828103606084015262002698818962002374565b90508281036080840152620026ae818862002374565b600160a060020a0387811660a0860152861660c085015283810360e08501529050620026db818562002374565b9b9a5050505050505050505050565b604051601f8201601f191681016001604060020a03811182821017156200271557620027156200280d565b604052919050565b60006001604060020a038211156200273957620027396200280d565b50601f01601f191660200190565b6000828210156200275c576200275c620027f3565b500390565b60005b838110156200277e57818101518382015260200162002764565b838111156200278e576000848401525b50505050565b600281046001821680620027a957607f821691505b60208210811415620027cf5760e060020a634e487b710260009081526022600452602490fd5b50919050565b6000600019821415620027ec57620027ec620027f3565b5060010190565b60e060020a634e487b710260009081526011600452602490fd5b60e060020a634e487b710260009081526041600452602490fd5b600160a060020a03811681146200200e57600080fdfe60806040523480156200001157600080fd5b5060405162000d3138038062000d31833981016040819052620000349162000272565b8751620000499060009060208b0190620000fc565b5060018054600160a060020a031916600160a060020a03841617905586516200007a9060029060208a0190620000fc565b50855162000090906003906020890190620000fc565b508451620000a6906004906020880190620000fc565b508351620000bc906005906020870190620000fc565b5060068054600160a060020a031916600160a060020a0385161790558051620000ed906009906020840190620000fc565b5050505050505050506200041e565b8280546200010a9062000399565b90600052602060002090601f0160209004810192826200012e576000855562000179565b82601f106200014957805160ff191683800117855562000179565b8280016001018555821562000179579182015b82811115620001795782518255916020019190600101906200015c565b50620001879291506200018b565b5090565b5b808211156200018757600081556001016200018c565b8051600160a060020a0381168114620001ba57600080fd5b919050565b600082601f830112620001d0578081fd5b81516001604060020a0380821115620001ed57620001ed620003ef565b604051601f8301601f19908116603f01168101908282118183101715620002185762000218620003ef565b8160405283815260209250868385880101111562000234578485fd5b8491505b8382101562000257578582018301518183018401529082019062000238565b838211156200026857848385830101525b9695505050505050565b600080600080600080600080610100898b0312156200028f578384fd5b88516001604060020a0380821115620002a6578586fd5b620002b48c838d01620001bf565b995060208b0151915080821115620002ca578586fd5b620002d88c838d01620001bf565b985060408b0151915080821115620002ee578586fd5b620002fc8c838d01620001bf565b975060608b015191508082111562000312578586fd5b620003208c838d01620001bf565b965060808b015191508082111562000336578586fd5b620003448c838d01620001bf565b95506200035460a08c01620001a2565b94506200036460c08c01620001a2565b935060e08b01519150808211156200037a578283fd5b50620003898b828c01620001bf565b9150509295985092959890939650565b600281046001821680620003ae57607f821691505b60208210811415620003e9577f4e487b7100000000000000000000000000000000000000000000000000000000600052602260045260246000fd5b50919050565b7f4e487b7100000000000000000000000000000000000000000000000000000000600052604160045260246000fd5b610903806200042e6000396000f3fe608060405234801561001057600080fd5b50600436106100f45760e060020a60003504630dd1d00881146100f957806318769d461461010e5780632796c8f01461013857806327d206651461014d5780632f5319e114610155578063503b13541461015d5780636d263ceb1461017257806377b7aee0146101e65780637d0d6257146101f9578063961a5d0a1461020c5780639cc0014b1461021f578063a0257dc414610232578063acfbe68814610245578063b2ec005e14610258578063bc9c2d5514610260578063bef31c3c14610271578063ce3dc94114610279578063d13fd1e814610281578063dec1c904146102b1575b600080fd5b61010c6101073660046106df565b6102e1565b005b600654600160a060020a03165b604051600160a060020a0390911681526020015b60405180910390f35b6101406102f8565b60405161012f91906107d5565b61014061038a565b610140610399565b6101656103a8565b60405161012f9190610788565b61010c6101803660046106b1565b600160a060020a03166000818152600760205260408120805460ff191660019081179091556008805491820181559091527ff3f7a9fe364faab93b216da50a3214154f22a0a2b415b23a84c8169e8b636ee3018054600160a060020a0319169091179055565b61010c6101f43660046106df565b610409565b61010c6102073660046106b1565b61041c565b61010c61021a3660046106df565b61059f565b61010c61022d3660046106df565b6105b2565b61010c6102403660046106df565b6105c5565b61010c6102533660046106df565b6105d8565b6101406105eb565b600154600160a060020a031661011b565b6101406105fa565b610140610609565b61010c61028f3660046106b1565b60018054600160a060020a031916600160a060020a0392909216919091179055565b61010c6102bf3660046106b1565b60068054600160a060020a031916600160a060020a0392909216919091179055565b80516102f4906009906020840190610618565b5050565b6060600080546103079061083f565b80601f01602080910402602001604051908101604052809291908181526020018280546103339061083f565b80156103805780601f1061035557610100808354040283529160200191610380565b820191906000526020600020905b81548152906001019060200180831161036357829003601f168201915b5050505050905090565b6060600980546103079061083f565b6060600280546103079061083f565b6060600880548060200260200160405190810160405280929190818152602001828054801561038057602002820191906000526020600020905b8154600160a060020a031681526001909101906020018083116103e2575050505050905090565b80516102f4906005906020840190610618565b60005b60085461042e90600190610828565b8110156102f45781600160a060020a0316600882815481106104635760e060020a634e487b7102600052603260045260246000fd5b600091825260209091200154600160a060020a0316141561058d57600854600114610525576008805461049890600190610828565b815481106104b95760e060020a634e487b7102600052603260045260246000fd5b60009182526020909120015460088054600160a060020a0390921691839081106104f65760e060020a634e487b7102600052603260045260246000fd5b9060005260206000200160006101000a815481600160a060020a030219169083600160a060020a031602179055505b600160a060020a0382166000908152600760205260409020805460ff1916905560088054806105675760e060020a634e487b7102600052603160045260246000fd5b60008281526020902081016000199081018054600160a060020a03191690550190555050565b806105978161087e565b91505061041f565b80516102f4906004906020840190610618565b80516102f4906000906020840190610618565b80516102f4906003906020840190610618565b80516102f4906002906020840190610618565b6060600480546103079061083f565b6060600580546103079061083f565b6060600380546103079061083f565b8280546106249061083f565b90600052602060002090601f016020900481019282610646576000855561068c565b82601f1061065f57805160ff191683800117855561068c565b8280016001018555821561068c579182015b8281111561068c578251825591602001919060010190610671565b5061069892915061069c565b5090565b5b80821115610698576000815560010161069d565b6000602082840312156106c2578081fd5b8135600160a060020a03811681146106d8578182fd5b9392505050565b6000602082840312156106f0578081fd5b81356001604060020a0380821115610706578283fd5b818401915084601f830112610719578283fd5b81358181111561072b5761072b6108b3565b604051601f8201601f19908116603f01168101908382118183101715610753576107536108b3565b8160405282815287602084870101111561076b578586fd5b826020860160208301379182016020019490945295945050505050565b6020808252825182820181905260009190848201906040850190845b818110156107c9578351600160a060020a0316835292840192918401916001016107a4565b50909695505050505050565b6000602080835283518082850152825b81811015610801578581018301518582016040015282016107e5565b818111156108125783604083870101525b50601f01601f1916929092016040019392505050565b60008282101561083a5761083a610899565b500390565b60028104600182168061085357607f821691505b602082108114156108785760e060020a634e487b710260009081526022600452602490fd5b50919050565b600060001982141561089257610892610899565b5060010190565b60e060020a634e487b710260009081526011600452602490fd5b60e060020a634e487b710260009081526041600452602490fdfea26469706673582212206f9c36f2dc49315a1426fb0414e390ce6d3207c3350d21e56b61633ff83a2ce564736f6c6343000804003360806040523480156200001157600080fd5b5060405162000ee738038062000ee7833981016040819052620000349162000134565b81516200004990600090602085019062000071565b5060018054600160a060020a031916600160a060020a039290921691909117905550620002a5565b8280546200007f9062000220565b90600052602060002090601f016020900481019282620000a35760008555620000ee565b82601f10620000be57805160ff1916838001178555620000ee565b82800160010185558215620000ee579182015b82811115620000ee578251825591602001919060010190620000d1565b50620000fc92915062000100565b5090565b5b80821115620000fc576000815560010162000101565b8051600160a060020a03811681146200012f57600080fd5b919050565b6000806040838503121562000147578182fd5b825167ffffffffffffffff808211156200015f578384fd5b818501915085601f83011262000173578384fd5b81518181111562000188576200018862000276565b604051601f8201601f19908116603f01168101908382118183101715620001b357620001b362000276565b81604052828152602093508884848701011115620001cf578687fd5b8691505b82821015620001f25784820184015181830185015290830190620001d3565b828211156200020357868484830101525b95506200021591505085820162000117565b925050509250929050565b6002810460018216806200023557607f821691505b6020821081141562000270577f4e487b7100000000000000000000000000000000000000000000000000000000600052602260045260246000fd5b50919050565b7f4e487b7100000000000000000000000000000000000000000000000000000000600052604160045260246000fd5b610c3280620002b56000396000f3fe608060405234801561001057600080fd5b50600436106100bd5760e060020a60003504631b470bc781146100c25780632c5ee501146101395780632c7ac18f146101595780633e8a80091461016c5780634780468f1461017f57806363c339c3146101f457806375a5219614610209578063853e0b461461021e57806398fc90e914610233578063996440c614610246578063a969890614610269578063bdf6c6731461027c578063c95171ae1461028f578063fbbf93a014610297575b600080fd5b6101376100d0366004610975565b6005805460018181019092557f036b6384b5eca791c62761152d0c79bb0604c104a5fb6f4eb0703f3154bb3db0018054600160a060020a03909316600160a060020a031990931683179055600091825260036020526040909120805460ff19169091179055565b005b600154604051600160a060020a0390911681526020015b60405180910390f35b6101376101673660046109a3565b61029f565b61013761017a3660046109a3565b6102e6565b61013761018d366004610975565b6004805460018181019092557f8a35acfbc15ff81a39ae7d344fd709f28e8600b4aa8c65c6b64bfe7fe36bd19b018054600160a060020a03909316600160a060020a031990931683179055600091825260026020526040909120805460ff19169091179055565b6101fc6102f9565b6040516101509190610ae4565b6102116103d2565b6040516101509190610a97565b610226610434565b6040516101509190610b44565b610137610241366004610975565b6104bd565b610259610254366004610975565b610634565b6040519015158152602001610150565b610137610277366004610975565b610652565b61025961028a366004610975565b6107c9565b6102116107e7565b610226610847565b6006805460018101825560009190915281516102e2917ff652222313e28459528d920b65115c16c04f3efc82aaedc97be59f3f377c0d3f019060208401906108dc565b5050565b80516102e29060009060208401906108dc565b60606006805480602002602001604051908101604052809291908181526020016000905b828210156103c957838290600052602060002001805461033c90610b6e565b80601f016020809104026020016040519081016040528092919081815260200182805461036890610b6e565b80156103b55780601f1061038a576101008083540402835291602001916103b5565b820191906000526020600020905b81548152906001019060200180831161039857829003601f168201915b50505050508152602001906001019061031d565b50505050905090565b6060600580548060200260200160405190810160405280929190818152602001828054801561042a57602002820191906000526020600020905b8154600160a060020a0316815260019091019060200180831161040c575b5050505050905090565b60606000805461044390610b6e565b80601f016020809104026020016040519081016040528092919081815260200182805461046f90610b6e565b801561042a5780601f106104915761010080835404028352916020019161042a565b820191906000526020600020905b81548152906001019060200180831161049f57509395945050505050565b60005b6004548110156102e25781600160a060020a0316600482815481106104f85760e060020a634e487b7102600052603260045260246000fd5b600091825260209091200154600160a060020a03161415610622576004546001146105ba576004805461052d90600190610b57565b8154811061054e5760e060020a634e487b7102600052603260045260246000fd5b60009182526020909120015460048054600160a060020a03909216918390811061058b5760e060020a634e487b7102600052603260045260246000fd5b9060005260206000200160006101000a815481600160a060020a030219169083600160a060020a031602179055505b60048054806105dc5760e060020a634e487b7102600052603160045260246000fd5b6000828152602080822083016000199081018054600160a060020a0319169055909201909255600160a060020a03841682526002905260409020805460ff191690555050565b8061062c81610bad565b9150506104c0565b600160a060020a031660009081526002602052604090205460ff1690565b60005b6005548110156102e25781600160a060020a03166005828154811061068d5760e060020a634e487b7102600052603260045260246000fd5b600091825260209091200154600160a060020a031614156107b75760045460011461074f57600580546106c290600190610b57565b815481106106e35760e060020a634e487b7102600052603260045260246000fd5b60009182526020909120015460058054600160a060020a0390921691839081106107205760e060020a634e487b7102600052603260045260246000fd5b9060005260206000200160006101000a815481600160a060020a030219169083600160a060020a031602179055505b60058054806107715760e060020a634e487b7102600052603160045260246000fd5b6000828152602080822083016000199081018054600160a060020a0319169055909201909255600160a060020a03841682526003905260409020805460ff191690555050565b806107c181610bad565b915050610655565b600160a060020a031660009081526003602052604090205460ff1690565b6060600480548060200260200160405190810160405280929190818152602001828054801561042a57602002820191906000526020600020908154600160a060020a0316815260019091019060200180831161040c575050505050905090565b606061085161085e565b6000805461044390610b6e565b61086732610634565b806108765750610876326107c9565b8061088b5750600154600160a060020a031632145b6108da5760405160e560020a62461bcd0281526020600482015260166024820152605160020a752932b9ba3934b1ba32b2103a37902820aa24a2a72a1702604482015260640160405180910390fd5b565b8280546108e890610b6e565b90600052602060002090601f01602090048101928261090a5760008555610950565b82601f1061092357805160ff1916838001178555610950565b82800160010185558215610950579182015b82811115610950578251825591602001919060010190610935565b5061095c929150610960565b5090565b5b8082111561095c5760008155600101610961565b600060208284031215610986578081fd5b8135600160a060020a038116811461099c578182fd5b9392505050565b6000602082840312156109b4578081fd5b81356001604060020a03808211156109ca578283fd5b818401915084601f8301126109dd578283fd5b8135818111156109ef576109ef610be2565b604051601f8201601f19908116603f01168101908382118183101715610a1757610a17610be2565b81604052828152876020848701011115610a2f578586fd5b826020860160208301379182016020019490945295945050505050565b60008151808452815b81811015610a7157602081850181015186830182015201610a55565b81811115610a825782602083870101525b50601f01601f19169290920160200192915050565b6020808252825182820181905260009190848201906040850190845b81811015610ad8578351600160a060020a031683529284019291840191600101610ab3565b50909695505050505050565b6000602080830181845280855180835260408601915060408482028701019250838701855b82811015610b3757603f19888603018452610b25858351610a4c565b94509285019290850190600101610b09565b5092979650505050505050565b60208152600061099c6020830184610a4c565b600082821015610b6957610b69610bc8565b500390565b600281046001821680610b8257607f821691505b60208210811415610ba75760e060020a634e487b710260009081526022600452602490fd5b50919050565b6000600019821415610bc157610bc1610bc8565b5060010190565b60e060020a634e487b710260009081526011600452602490fd5b60e060020a634e487b710260009081526041600452602490fdfea264697066735822122013cf7fbf1dad14158abd3de064d548e7bc62f55e00dda1b57e233df7a5932a5e64736f6c6343000804003360806040523480156200001157600080fd5b50604051620013c2380380620013c28339810160408190526200003491620001dd565b82516200004990600090602086019062000084565b5060018054600160a060020a031916600160a060020a03841617905580516200007a90600290602084019062000084565b50505050620002e9565b828054620000929062000264565b90600052602060002090601f016020900481019282620000b6576000855562000101565b82601f10620000d157805160ff191683800117855562000101565b8280016001018555821562000101579182015b8281111562000101578251825591602001919060010190620000e4565b506200010f92915062000113565b5090565b5b808211156200010f576000815560010162000114565b600082601f8301126200013b578081fd5b81516001604060020a0380821115620001585762000158620002ba565b604051601f8301601f19908116603f01168101908282118183101715620001835762000183620002ba565b816040528381526020925086838588010111156200019f578485fd5b8491505b83821015620001c25785820183015181830184015290820190620001a3565b83821115620001d357848385830101525b9695505050505050565b600080600060608486031215620001f2578283fd5b83516001604060020a038082111562000209578485fd5b62000217878388016200012a565b60208701519095509150600160a060020a038216821462000236578384fd5b6040860151919350808211156200024b578283fd5b506200025a868287016200012a565b9150509250925092565b6002810460018216806200027957607f821691505b60208210811415620002b4577f4e487b7100000000000000000000000000000000000000000000000000000000600052602260045260246000fd5b50919050565b7f4e487b7100000000000000000000000000000000000000000000000000000000600052604160045260246000fd5b6110c980620002f96000396000f3fe608060405234801561001057600080fd5b50600436106100de5760e060020a6000350463086c32e581146100e35780631fc72900146100f857806324db757f14610128578063363c80aa146101465780633dcda7851461015b5780634780468f1461016e578063679a131a146101e35780636d263ceb146101f85780637d0d62571461026d57806387806430146102805780638f9c79ed1461029357806398fc90e9146102cf578063996440c6146102e2578063c95171ae1461030e578063c98d66c114610316578063ded15aaf1461031e578063e5b8459014610331575b600080fd5b6100f66100f1366004610e06565b61034c565b005b6100f6610106366004610de5565b60018054600160a060020a031916600160a060020a0392909216919091179055565b610130610363565b60405161013d9190610fdb565b60405180910390f35b61014e6103f5565b60405161013d9190610f33565b6100f6610169366004610de5565b61052e565b6100f661017c366004610de5565b6005805460018181019092557f036b6384b5eca791c62761152d0c79bb0604c104a5fb6f4eb0703f3154bb3db0018054600160a060020a03909316600160a060020a031990931683179055600091825260036020526040909120805460ff19169091179055565b6101eb61071d565b60405161013d9190610ee6565b6100f6610206366004610de5565b6006805460018181019092557ff652222313e28459528d920b65115c16c04f3efc82aaedc97be59f3f377c0d3f018054600160a060020a03909316600160a060020a031990931683179055600091825260046020526040909120805460ff19169091179055565b6100f661027b366004610de5565b61077e565b6100f661028e366004610e40565b6108f5565b6102bf6102a1366004610de5565b600160a060020a031660009081526004602052604090205460ff1690565b604051901515815260200161013d565b6100f66102dd366004610de5565b6109fd565b6102bf6102f0366004610de5565b600160a060020a031660009081526003602052604090205460ff1690565b6101eb610b74565b610130610bd4565b6100f661032c366004610e06565b610be3565b600154604051600160a060020a03909116815260200161013d565b805161035f906002906020840190610bf2565b5050565b60606002805461037290611005565b80601f016020809104026020016040519081016040528092919081815260200182805461039e90611005565b80156103eb5780601f106103c0576101008083540402835291602001916103eb565b820191906000526020600020905b8154815290600101906020018083116103ce57829003601f168201915b5050505050905090565b60606007805480602002602001604051908101604052809291908181526020016000905b828210156105255760008481526020908190206040805160a08101909152600585029091018054600160a060020a03168252600181018054929391929184019161046290611005565b80601f016020809104026020016040519081016040528092919081815260200182805461048e90611005565b80156104db5780601f106104b0576101008083540402835291602001916104db565b820191906000526020600020905b8154815290600101906020018083116104be57829003601f168201915b50505091835250506002820154600160a060020a03908116602080840191909152600384015490911660408301526004909201546060909101529082526001929092019101610419565b50505050905090565b60005b60075481101561035f5781600160a060020a0316600782815481106105695760e060020a634e487b7102600052603260045260246000fd5b6000918252602090912060059091020154600160a060020a0316141561070b5760075460011461068957600780546105a390600190610fee565b815481106105c45760e060020a634e487b7102600052603260045260246000fd5b9060005260206000209060050201600782815481106105f65760e060020a634e487b7102600052603260045260246000fd5b6000918252602090912082546005909202018054600160a060020a031916600160a060020a03909216919091178155600180830180549183019161063990611005565b610644929190610c76565b506002828101549082018054600160a060020a03928316600160a060020a03199182161790915560038085015490840180549190931691161790556004918201549101555b60078054806106ab5760e060020a634e487b7102600052603160045260246000fd5b6000828152602081206005600019909301928302018054600160a060020a0319168155906106dc6001830182610cf1565b50600281018054600160a060020a03199081169091556003820180549091169055600060049091015590555050565b8061071581611044565b915050610531565b606060068054806020026020016040519081016040528092919081815260200182805480156103eb57602002820191906000526020600020905b8154600160a060020a03168152600190910190602001808311610757575050505050905090565b60005b60065481101561035f5781600160a060020a0316600682815481106107b95760e060020a634e487b7102600052603260045260246000fd5b600091825260209091200154600160a060020a031614156108e35760065460011461087b57600680546107ee90600190610fee565b8154811061080f5760e060020a634e487b7102600052603260045260246000fd5b60009182526020909120015460068054600160a060020a03909216918390811061084c5760e060020a634e487b7102600052603260045260246000fd5b9060005260206000200160006101000a815481600160a060020a030219169083600160a060020a031602179055505b600680548061089d5760e060020a634e487b7102600052603160045260246000fd5b6000828152602080822083016000199081018054600160a060020a0319169055909201909255600160a060020a03841682526004905260409020805460ff191690555050565b806108ed81611044565b915050610781565b6040805160a081018252600160a060020a0384811682526020808301878152339484019490945284821660608401524260808401526007805460018101825560009190915283517fa66cc928b5edb82af9bd49922954155ab7b0942694bea4ce44661d9a8736c68860059092029182018054600160a060020a0319169190941617835593518051939492936109b1937fa66cc928b5edb82af9bd49922954155ab7b0942694bea4ce44661d9a8736c68901929190910190610bf2565b506040820151600282018054600160a060020a03928316600160a060020a0319918216179091556060840151600384018054919093169116179055608090910151600490910155505050565b60005b60055481101561035f5781600160a060020a031660058281548110610a385760e060020a634e487b7102600052603260045260246000fd5b600091825260209091200154600160a060020a03161415610b6257600554600114610afa5760058054610a6d90600190610fee565b81548110610a8e5760e060020a634e487b7102600052603260045260246000fd5b60009182526020909120015460058054600160a060020a039092169183908110610acb5760e060020a634e487b7102600052603260045260246000fd5b9060005260206000200160006101000a815481600160a060020a030219169083600160a060020a031602179055505b6005805480610b1c5760e060020a634e487b7102600052603160045260246000fd5b6000828152602080822083016000199081018054600160a060020a0319169055909201909255600160a060020a03841682526003905260409020805460ff191690555050565b80610b6c81611044565b915050610a00565b606060058054806020026020016040519081016040528092919081815260200182805480156103eb57602002820191906000526020600020908154600160a060020a03168152600190910190602001808311610757575050505050905090565b60606000805461037290611005565b805161035f9060009060208401905b828054610bfe90611005565b90600052602060002090601f016020900481019282610c205760008555610c66565b82601f10610c3957805160ff1916838001178555610c66565b82800160010185558215610c66579182015b82811115610c66578251825591602001919060010190610c4b565b50610c72929150610d2e565b5090565b828054610c8290611005565b90600052602060002090601f016020900481019282610ca45760008555610c66565b82601f10610cb55780548555610c66565b82800160010185558215610c6657600052602060002091601f016020900482015b82811115610c66578254825591600101919060010190610cd6565b508054610cfd90611005565b6000825580601f10610d0d575050565b601f016020900490600052602060002090810190610d2b9190610d2e565b50565b5b80821115610c725760008155600101610d2f565b8035600160a060020a0381168114610d5a57600080fd5b919050565b600082601f830112610d6f578081fd5b81356001604060020a0380821115610d8957610d89611079565b604051601f8301601f19908116603f01168101908282118183101715610db157610db1611079565b81604052838152866020858801011115610dc9578485fd5b8360208701602083013792830160200193909352509392505050565b600060208284031215610df6578081fd5b610dff82610d43565b9392505050565b600060208284031215610e17578081fd5b81356001604060020a03811115610e2c578182fd5b610e3884828501610d5f565b949350505050565b600080600060608486031215610e54578182fd5b83356001604060020a03811115610e69578283fd5b610e7586828701610d5f565b935050610e8460208501610d43565b9150610e9260408501610d43565b90509250925092565b60008151808452815b81811015610ec057602081850181015186830182015201610ea4565b81811115610ed15782602083870101525b50601f01601f19169290920160200192915050565b6020808252825182820181905260009190848201906040850190845b81811015610f27578351600160a060020a031683529284019291840191600101610f02565b50909695505050505050565b60208082528251828201819052600091906040908185019080840286018301878501865b83811015610fcd57888303603f1901855281518051600160a060020a0390811685528882015160a08a87018190529190610f9383880182610e9b565b848b01518316888c015260608086015190931692880192909252506080928301519290950191909152509386019390860190600101610f57565b509098975050505050505050565b602081526000610dff6020830184610e9b565b6000828210156110005761100061105f565b500390565b60028104600182168061101957607f821691505b6020821081141561103e5760e060020a634e487b710260009081526022600452602490fd5b50919050565b60006000198214156110585761105861105f565b5060010190565b60e060020a634e487b710260009081526011600452602490fd5b60e060020a634e487b710260009081526041600452602490fdfea2646970667358221220544a06e65e4a3f5f17afe3046600b7d437327eae2bab69aae51bc33eb0a4916264736f6c63430008040033608060405234801561001057600080fd5b506040516106ef3803806106ef83398101604081905261002f916101c0565b825161004290600090602086019061007f565b50815161005690600190602085019061007f565b5060028054600160a060020a031916600160a060020a0392909216919091179055506102c49050565b82805461008b90610241565b90600052602060002090601f0160209004810192826100ad57600085556100f3565b82601f106100c657805160ff19168380011785556100f3565b828001600101855582156100f3579182015b828111156100f35782518255916020019190600101906100d8565b506100ff929150610103565b5090565b5b808211156100ff5760008155600101610104565b600082601f830112610128578081fd5b81516001604060020a038082111561014257610142610295565b604051601f8301601f19908116603f0116810190828211818310171561016a5761016a610295565b81604052838152602092508683858801011115610185578485fd5b8491505b838210156101a65785820183015181830184015290820190610189565b838211156101b657848385830101525b9695505050505050565b6000806000606084860312156101d4578283fd5b83516001604060020a03808211156101ea578485fd5b6101f687838801610118565b9450602086015191508082111561020b578384fd5b5061021886828701610118565b60408601519093509050600160a060020a0381168114610236578182fd5b809150509250925092565b60028104600182168061025557607f821691505b6020821081141561028f577f4e487b7100000000000000000000000000000000000000000000000000000000600052602260045260246000fd5b50919050565b7f4e487b7100000000000000000000000000000000000000000000000000000000600052604160045260246000fd5b61041c806102d36000396000f3fe608060405234801561001057600080fd5b50600436106100655760e060020a6000350463086c32e5811461006a57806324db757f1461007f5780632c0a85161461009d578063441e2f09146100a5578063d665b298146100b8578063d67c2da3146100e8575b600080fd5b61007d610078366004610291565b610103565b005b61008761011a565b604051610094919061033a565b60405180910390f35b6100876101ac565b61007d6100b3366004610291565b6101bb565b61007d6100c6366004610263565b60028054600160a060020a031916600160a060020a0392909216919091179055565b600254604051600160a060020a039091168152602001610094565b80516101169060019060208401906101ca565b5050565b6060600180546101299061038d565b80601f01602080910402602001604051908101604052809291908181526020018280546101559061038d565b80156101a25780601f10610177576101008083540402835291602001916101a2565b820191906000526020600020905b81548152906001019060200180831161018557829003601f168201915b5050505050905090565b6060600080546101299061038d565b80516101169060009060208401905b8280546101d69061038d565b90600052602060002090601f0160209004810192826101f8576000855561023e565b82601f1061021157805160ff191683800117855561023e565b8280016001018555821561023e579182015b8281111561023e578251825591602001919060010190610223565b5061024a92915061024e565b5090565b5b8082111561024a576000815560010161024f565b600060208284031215610274578081fd5b8135600160a060020a038116811461028a578182fd5b9392505050565b6000602082840312156102a2578081fd5b81356001604060020a03808211156102b8578283fd5b818401915084601f8301126102cb578283fd5b8135818111156102dd576102dd6103cc565b604051601f8201601f19908116603f01168101908382118183101715610305576103056103cc565b8160405282815287602084870101111561031d578586fd5b826020860160208301379182016020019490945295945050505050565b6000602080835283518082850152825b818110156103665785810183015185820160400152820161034a565b818111156103775783604083870101525b50601f01601f1916929092016040019392505050565b6002810460018216806103a157607f821691505b602082108114156103c65760e060020a634e487b710260009081526022600452602490fd5b50919050565b60e060020a634e487b710260009081526041600452602490fdfea264697066735822122031ada13bf47a10e79058a8f19cefd0c4e92aee3053932a0ed5a2275e92f717b864736f6c63430008040033b10e2d527612073b26eecdfd717e6a320cf44b4afac2b0732d9fcbe2b7fa0cf8b10e2d527612073b26eecdfd717e6a320cf44b4afac2b0732d9fcbe2b7fa0cf6b10e2d527612073b26eecdfd717e6a320cf44b4afac2b0732d9fcbe2b7fa0cf7a264697066735822122033a126746e6ac23ce4b7f514780e5ca9cfc085a93db7465a0755366332d57e7764736f6c63430008040033",
  "linkReferences": {},
  "deployedLinkReferences": {}
}