{
  "_format": "hh-sol-artifact-1",
  "contractName": "DHRMS",
  "sourceName": "contracts/Main.sol",
  "abi": [
    {
      "inputs": [
        {
          "internalType": "string",
          "name": "_officeName",
          "type": "string"
        },
        {
          "internalType": "string",
          "name": "_phoneNumber",
          "type": "string"
        },
        {
          "internalType": "address",
          "name": "_RBAC_CONTRACT_ADDRESS",
          "type": "address"
        }
      ],
      "stateMutability": "nonpayable",
      "type": "constructor"
    },
    {
      "anonymous": false,
      "inputs": [
        {
          "indexed": false,
          "internalType": "string",
          "name": "_doctorName",
          "type": "string"
        },
        {
          "indexed": false,
          "internalType": "string",
          "name": "_phoneNumber",
          "type": "string"
        },
        {
          "indexed": false,
          "internalType": "string",
          "name": "_qualification",
          "type": "string"
        },
        {
          "indexed": false,
          "internalType": "string",
          "name": "_photo",
          "type": "string"
        },
        {
          "indexed": false,
          "internalType": "string",
          "name": "_dob",
          "type": "string"
        },
        {
          "indexed": false,
          "internalType": "address",
          "name": "_HID",
          "type": "address"
        },
        {
          "indexed": false,
          "internalType": "address",
          "name": "_DID",
          "type": "address"
        },
        {
          "indexed": false,
          "internalType": "string",
          "name": "_department",
          "type": "string"
        }
      ],
      "name": "newDoctor",
      "type": "event"
    },
    {
      "anonymous": false,
      "inputs": [
        {
          "indexed": false,
          "internalType": "string",
          "name": "HospitalName",
          "type": "string"
        },
        {
          "indexed": false,
          "internalType": "string",
          "name": "ph_no",
          "type": "string"
        },
        {
          "indexed": false,
          "internalType": "address",
          "name": "HID",
          "type": "address"
        }
      ],
      "name": "newHospital",
      "type": "event"
    },
    {
      "anonymous": false,
      "inputs": [
        {
          "indexed": false,
          "internalType": "string",
          "name": "officeName",
          "type": "string"
        },
        {
          "indexed": false,
          "internalType": "string",
          "name": "_phoneNumber",
          "type": "string"
        },
        {
          "indexed": false,
          "internalType": "address",
          "name": "_GID",
          "type": "address"
        }
      ],
      "name": "newOffice",
      "type": "event"
    },
    {
      "anonymous": false,
      "inputs": [
        {
          "indexed": false,
          "internalType": "string",
          "name": "_details",
          "type": "string"
        },
        {
          "indexed": false,
          "internalType": "address",
          "name": "_PID",
          "type": "address"
        }
      ],
      "name": "newPatient",
      "type": "event"
    },
    {
      "anonymous": false,
      "inputs": [
        {
          "indexed": false,
          "internalType": "address",
          "name": "_DID",
          "type": "address"
        }
      ],
      "name": "newReadAccess",
      "type": "event"
    },
    {
      "anonymous": false,
      "inputs": [
        {
          "indexed": false,
          "internalType": "string",
          "name": "_file",
          "type": "string"
        },
        {
          "indexed": false,
          "internalType": "address",
          "name": "_PID",
          "type": "address"
        }
      ],
      "name": "newRecordForUpload",
      "type": "event"
    },
    {
      "anonymous": false,
      "inputs": [
        {
          "indexed": false,
          "internalType": "string",
          "name": "_file",
          "type": "string"
        },
        {
          "indexed": false,
          "internalType": "address",
          "name": "_PID",
          "type": "address"
        },
        {
          "indexed": false,
          "internalType": "address",
          "name": "_HID",
          "type": "address"
        }
      ],
      "name": "newRecordForUploadH",
      "type": "event"
    },
    {
      "anonymous": false,
      "inputs": [
        {
          "indexed": false,
          "internalType": "address",
          "name": "_HID",
          "type": "address"
        }
      ],
      "name": "newWriteAccess",
      "type": "event"
    },
    {
      "anonymous": false,
      "inputs": [
        {
          "indexed": false,
          "internalType": "address",
          "name": "_DID",
          "type": "address"
        }
      ],
      "name": "removeReadAccessDoctor",
      "type": "event"
    },
    {
      "anonymous": false,
      "inputs": [
        {
          "indexed": false,
          "internalType": "address",
          "name": "_HID",
          "type": "address"
        }
      ],
      "name": "removeWriteAccessHospital",
      "type": "event"
    },
    {
      "inputs": [
        {
          "internalType": "string",
          "name": "_doctorName",
          "type": "string"
        },
        {
          "internalType": "string",
          "name": "_phoneNumber",
          "type": "string"
        },
        {
          "internalType": "string",
          "name": "_qualification",
          "type": "string"
        },
        {
          "internalType": "string",
          "name": "_photo",
          "type": "string"
        },
        {
          "internalType": "string",
          "name": "_dob",
          "type": "string"
        },
        {
          "internalType": "address",
          "name": "_HID",
          "type": "address"
        },
        {
          "internalType": "address",
          "name": "_DID",
          "type": "address"
        },
        {
          "internalType": "string",
          "name": "_department",
          "type": "string"
        }
      ],
      "name": "addDoctor",
      "outputs": [],
      "stateMutability": "nonpayable",
      "type": "function"
    },
    {
      "inputs": [
        {
          "internalType": "string",
          "name": "_officeName",
          "type": "string"
        },
        {
          "internalType": "string",
          "name": "_phoneNumber",
          "type": "string"
        },
        {
          "internalType": "address",
          "name": "_GID",
          "type": "address"
        }
      ],
      "name": "addGovernmentOffice",
      "outputs": [],
      "stateMutability": "nonpayable",
      "type": "function"
    },
    {
      "inputs": [
        {
          "internalType": "string",
          "name": "_hospitalName",
          "type": "string"
        },
        {
          "internalType": "string",
          "name": "_phoneNumber",
          "type": "string"
        },
        {
          "internalType": "address",
          "name": "_HID",
          "type": "address"
        }
      ],
      "name": "addHospital",
      "outputs": [],
      "stateMutability": "nonpayable",
      "type": "function"
    },
    {
      "inputs": [
        {
          "internalType": "string",
          "name": "_details",
          "type": "string"
        },
        {
          "internalType": "address",
          "name": "_PID",
          "type": "address"
        }
      ],
      "name": "addPatient",
      "outputs": [],
      "stateMutability": "nonpayable",
      "type": "function"
    },
    {
      "inputs": [
        {
          "internalType": "address",
          "name": "_DID",
          "type": "address"
        }
      ],
      "name": "getDoctorDetails",
      "outputs": [
        {
          "internalType": "string[6]",
          "name": "",
          "type": "string[6]"
        }
      ],
      "stateMutability": "view",
      "type": "function"
    },
    {
      "inputs": [
        {
          "internalType": "address",
          "name": "_DID",
          "type": "address"
        }
      ],
      "name": "getDoctorH",
      "outputs": [
        {
          "internalType": "address",
          "name": "",
          "type": "address"
        }
      ],
      "stateMutability": "view",
      "type": "function"
    },
    {
      "inputs": [
        {
          "internalType": "address",
          "name": "_PID",
          "type": "address"
        }
      ],
      "name": "getDoctorsList",
      "outputs": [
        {
          "internalType": "address[]",
          "name": "",
          "type": "address[]"
        }
      ],
      "stateMutability": "view",
      "type": "function"
    },
    {
      "inputs": [
        {
          "internalType": "address",
          "name": "_GID",
          "type": "address"
        }
      ],
      "name": "getGovernmentDetails",
      "outputs": [
        {
          "internalType": "string[2]",
          "name": "",
          "type": "string[2]"
        }
      ],
      "stateMutability": "view",
      "type": "function"
    },
    {
      "inputs": [
        {
          "internalType": "address",
          "name": "_HID",
          "type": "address"
        }
      ],
      "name": "getHospitalDetails",
      "outputs": [
        {
          "internalType": "string[2]",
          "name": "",
          "type": "string[2]"
        }
      ],
      "stateMutability": "view",
      "type": "function"
    },
    {
      "inputs": [
        {
          "internalType": "address",
          "name": "_HID",
          "type": "address"
        }
      ],
      "name": "getHospitalDoctorList",
      "outputs": [
        {
          "internalType": "address[]",
          "name": "",
          "type": "address[]"
        }
      ],
      "stateMutability": "view",
      "type": "function"
    },
    {
      "inputs": [
        {
          "internalType": "address",
          "name": "_HID",
          "type": "address"
        }
      ],
      "name": "getHospitalPatientList",
      "outputs": [
        {
          "internalType": "address[]",
          "name": "",
          "type": "address[]"
        }
      ],
      "stateMutability": "view",
      "type": "function"
    },
    {
      "inputs": [
        {
          "internalType": "address",
          "name": "_PID",
          "type": "address"
        }
      ],
      "name": "getHospitalsList",
      "outputs": [
        {
          "internalType": "address[]",
          "name": "",
          "type": "address[]"
        }
      ],
      "stateMutability": "view",
      "type": "function"
    },
    {
      "inputs": [
        {
          "internalType": "address",
          "name": "_PID",
          "type": "address"
        }
      ],
      "name": "getPatientDetails",
      "outputs": [
        {
          "internalType": "string",
          "name": "",
          "type": "string"
        }
      ],
      "stateMutability": "view",
      "type": "function"
    },
    {
      "inputs": [
        {
          "internalType": "address",
          "name": "_PID",
          "type": "address"
        }
      ],
      "name": "getPatientDetailsForGov",
      "outputs": [
        {
          "internalType": "string",
          "name": "",
          "type": "string"
        }
      ],
      "stateMutability": "view",
      "type": "function"
    },
    {
      "inputs": [
        {
          "internalType": "address",
          "name": "_DID",
          "type": "address"
        }
      ],
      "name": "getPatientList",
      "outputs": [
        {
          "internalType": "address[]",
          "name": "",
          "type": "address[]"
        }
      ],
      "stateMutability": "view",
      "type": "function"
    },
    {
      "inputs": [
        {
          "internalType": "address",
          "name": "_PID",
          "type": "address"
        }
      ],
      "name": "getRecordsHistory",
      "outputs": [
        {
          "internalType": "string[]",
          "name": "",
          "type": "string[]"
        }
      ],
      "stateMutability": "view",
      "type": "function"
    },
    {
      "inputs": [
        {
          "internalType": "address",
          "name": "_DID",
          "type": "address"
        }
      ],
      "name": "giveReadAccess",
      "outputs": [],
      "stateMutability": "nonpayable",
      "type": "function"
    },
    {
      "inputs": [
        {
          "internalType": "address",
          "name": "_HID",
          "type": "address"
        }
      ],
      "name": "giveWriteAccess",
      "outputs": [],
      "stateMutability": "nonpayable",
      "type": "function"
    },
    {
      "inputs": [
        {
          "internalType": "address",
          "name": "_DID",
          "type": "address"
        }
      ],
      "name": "removeReadAccess",
      "outputs": [],
      "stateMutability": "nonpayable",
      "type": "function"
    },
    {
      "inputs": [
        {
          "internalType": "address",
          "name": "_HID",
          "type": "address"
        }
      ],
      "name": "removeWriteAccess",
      "outputs": [],
      "stateMutability": "nonpayable",
      "type": "function"
    },
    {
      "inputs": [
        {
          "internalType": "address",
          "name": "_PID",
          "type": "address"
        },
        {
          "internalType": "string",
          "name": "_CID",
          "type": "string"
        }
      ],
      "name": "reportUploaded",
      "outputs": [],
      "stateMutability": "nonpayable",
      "type": "function"
    },
    {
      "inputs": [
        {
          "internalType": "string",
          "name": "_file",
          "type": "string"
        },
        {
          "internalType": "address",
          "name": "_PID",
          "type": "address"
        }
      ],
      "name": "sendRecordsForUpload",
      "outputs": [],
      "stateMutability": "nonpayable",
      "type": "function"
    },
    {
      "inputs": [
        {
          "internalType": "string",
          "name": "_file",
          "type": "string"
        },
        {
          "internalType": "address",
          "name": "_PID",
          "type": "address"
        },
        {
          "internalType": "address",
          "name": "_HID",
          "type": "address"
        }
      ],
      "name": "sendRecordsForUploadH",
      "outputs": [],
      "stateMutability": "nonpayable",
      "type": "function"
    }
  ],
  "bytecode": "0x60806040523480156200001157600080fd5b506040516200685038038062006850833981016040819052620000349162000153565b8282336040516200004590620000b6565b62000053939291906200020a565b604051809103906000f08015801562000070573d6000803e3d6000fd5b503360009081526003602052604090208054600160a060020a03928316600160a060020a0319918216179091556004805493909216921691909117905550620002af9050565b6106ef806200616183390190565b600082601f830112620000d5578081fd5b81516001604060020a0380821115620000f257620000f262000280565b604051601f8301601f19908116603f011681019082821181831017156200011d576200011d62000280565b8160405283815286602085880101111562000136578485fd5b620001498460208301602089016200024d565b9695505050505050565b60008060006060848603121562000168578283fd5b83516001604060020a03808211156200017f578485fd5b6200018d87838801620000c4565b94506020860151915080821115620001a3578384fd5b50620001b286828701620000c4565b60408601519093509050600160a060020a0381168114620001d1578182fd5b809150509250925092565b60008151808452620001f68160208601602086016200024d565b601f01601f19169290920160200192915050565b6060815260006200021f6060830186620001dc565b8281036020840152620002338186620001dc565b915050600160a060020a0383166040830152949350505050565b60005b838110156200026a57818101518382015260200162000250565b838111156200027a576000848401525b50505050565b7f4e487b7100000000000000000000000000000000000000000000000000000000600052604160045260246000fd5b615ea280620002bf6000396000f3fe60806040523480156200001157600080fd5b5060043610620001395760e060020a60003504630bb307a881146200013e5780630d339ad2146200016d57806313fa0535146200018657806322f544c9146200019d5780632a386d1914620001c35780634dd3bc0614620001da57806351d9ab381462000200578063666ac06d14620002175780637228c274146200022e5780637aa8074014620002545780638bd87475146200026b5780639c9113091462000282578063a726065f1462000299578063af0611b014620002b0578063b39a225d14620002d6578063b8eb6d1c14620002ed578063bab90dbd1462000304578063c2ec5fe2146200032a578063d18dbe251462000341578063efe2ccc11462000358578063eff172a0146200036f578063f03977581462000386578063fae73e55146200039d575b600080fd5b620001556200014f36600462001ee9565b620003b4565b6040516200016491906200241d565b60405180910390f35b620001846200017e366004620021f3565b620004fe565b005b620001846200019736600462001ee9565b6200062b565b620001b4620001ae36600462001ee9565b62000760565b604051620001649190620023ba565b62000184620001d436600462002265565b620007f7565b620001f1620001eb36600462001ee9565b62000939565b60405162000164919062002517565b6200018462000211366004620021f3565b620009dc565b620001846200022836600462001ee9565b62000afa565b620002456200023f36600462001ee9565b62000c24565b604051620001649190620023ce565b620001846200026536600462001ee9565b62000cb9565b620001846200027c36600462002135565b62000de3565b620002456200029336600462001ee9565b62000f08565b62000245620002aa36600462001ee9565b62000f5e565b620002c7620002c136600462001ee9565b62000fb4565b604051620001649190620024b3565b62000245620002e736600462001ee9565b62001049565b62000155620002fe36600462001ee9565b6200109f565b6200031b6200031536600462001ee9565b620011a2565b6040516200016491906200246e565b620001846200033b36600462001f2e565b62001512565b620002456200035236600462001ee9565b6200160f565b620001f16200036936600462001ee9565b62001665565b620001846200038036600462001ee9565b620016bb565b62000184620003973660046200218a565b620017e5565b62000184620003ae36600462002135565b6200189f565b620003be62001db8565b60408051808201808352600160a060020a03808616600090815260026020528481205460e060020a63c98d66c102909352935192938493929091169163c98d66c19160448086019290818703018186803b1580156200041c57600080fd5b505afa15801562000431573d6000803e3d6000fd5b505050506040513d6000823e601f3d908101601f191682016040526200045b9190810190620020ff565b8152600160a060020a03808516600090815260026020908152604080832054815160e060020a6324db757f02815291519290950194909316926324db757f926004808301939192829003018186803b158015620004b757600080fd5b505afa158015620004cc573d6000803e3d6000fd5b505050506040513d6000823e601f3d908101601f19168201604052620004f69190810190620020ff565b905292915050565b62000508620019e7565b828282604051620005199062001de0565b6200052793929190620025d0565b604051809103906000f08015801562000544573d6000803e3d6000fd5b50600160a060020a03828116600081815260036020526040908190208054600160a060020a0319169484169490941790935560048054935160e360020a631cbf05f902815260b260020a6911d3d5915493935153950291810191909152602481019190915291169063e5f82fc890604401600060405180830381600087803b158015620005d057600080fd5b505af1158015620005e5573d6000803e3d6000fd5b505050507f5a221f2af3823dc4e865f47eb777fd1098e90f3302646b66d2001149303a0fae8383836040516200061e93929190620025d0565b60405180910390a1505050565b6200063562001acb565b336000908152602081905260409081902054905160e060020a634780468f028152600160a060020a0390911690634780468f9062000678908490600401620023ba565b600060405180830381600087803b1580156200069357600080fd5b505af1158015620006a8573d6000803e3d6000fd5b505050600160a060020a038083166000908152600160205260409081902054905160e060020a636d263ceb02815291169150636d263ceb90620006f0903390600401620023ba565b600060405180830381600087803b1580156200070b57600080fd5b505af115801562000720573d6000803e3d6000fd5b505050507f53a5d5073445924f6f0ab5d28be5957021597716e4ce5287d530b44d9e1bd79581604051620007559190620023ba565b60405180910390a150565b600160a060020a03808216600090815260016020908152604080832054815160e160020a630c3b4ea30281529151939416926318769d4692600480840193919291829003018186803b158015620007b657600080fd5b505afa158015620007cb573d6000803e3d6000fd5b505050506040513d601f19601f82011682018060405250810190620007f1919062001f0f565b92915050565b62000801620019e7565b8787878787878787604051620008179062001dee565b6200082a98979695949392919062002613565b604051809103906000f08015801562000847573d6000803e3d6000fd5b50600160a060020a03838116600081815260016020526040908190208054600160a060020a0319169484169490941790935560048054935160e360020a631cbf05f902815260d160020a652227a1aa27a90291810191909152602481019190915291169063e5f82fc890604401600060405180830381600087803b158015620008cf57600080fd5b505af1158015620008e4573d6000803e3d6000fd5b505050507f7ac1eb3e2fa678a2606f7b6f7a51be798e4818cb448cb2e2ed79b10542bc7cb088888888888888886040516200092798979695949392919062002613565b60405180910390a15050505050505050565b606062000945620019e7565b600160a060020a0380831660009081526020819052604080822054815160e560020a6307ddfc9d028152915193169263fbbf93a092600480840193919291829003018186803b1580156200099857600080fd5b505afa158015620009ad573d6000803e3d6000fd5b505050506040513d6000823e601f3d908101601f19168201604052620007f19190810190620020ff565b919050565b620009e6620019e7565b828183604051620009f79062001dfc565b62000a05939291906200258e565b604051809103906000f08015801562000a22573d6000803e3d6000fd5b50600160a060020a03828116600081815260026020526040908190208054600160a060020a0319169484169490941790935560048054935160e360020a631cbf05f902815260c260020a671213d4d4125510530291810191909152602481019190915291169063e5f82fc890604401600060405180830381600087803b15801562000aac57600080fd5b505af115801562000ac1573d6000803e3d6000fd5b505050507fc0bf761bab03f0ace87d44f1cafb9a354a731c0068428df38a4c236ba2b6e5aa8383836040516200061e93929190620025d0565b62000b0462001acb565b336000908152602081905260409081902054905160e060020a6398fc90e9028152600160a060020a03909116906398fc90e99062000b47908490600401620023ba565b600060405180830381600087803b15801562000b6257600080fd5b505af115801562000b77573d6000803e3d6000fd5b505050600160a060020a038083166000908152600160205260409081902054905160e060020a637d0d625702815291169150637d0d62579062000bbf903390600401620023ba565b600060405180830381600087803b15801562000bda57600080fd5b505af115801562000bef573d6000803e3d6000fd5b505050507f643ced6c3ed4b4f2b12bb31a053be47f35392a7eb3530af0da0f1bd5a3d427bb81604051620007559190620023ba565b600160a060020a0380821660009081526002602052604080822054815160e160020a6364a8b8d70281529151606094919091169263c95171ae9260048082019391829003018186803b15801562000c7a57600080fd5b505afa15801562000c8f573d6000803e3d6000fd5b505050506040513d6000823e601f3d908101601f19168201604052620007f1919081019062001f81565b62000cc362001acb565b336000908152602081905260409081902054905160e160020a6354b4c483028152600160a060020a039091169063a96989069062000d06908490600401620023ba565b600060405180830381600087803b15801562000d2157600080fd5b505af115801562000d36573d6000803e3d6000fd5b505050600160a060020a038083166000908152600260205260409081902054905160e060020a637d0d625702815291169150637d0d62579062000d7e903390600401620023ba565b600060405180830381600087803b15801562000d9957600080fd5b505af115801562000dae573d6000803e3d6000fd5b505050507f5bf130f35b955ef046877f1772742e11cd0383e12ede97089d30dc257b6055d881604051620007559190620023ba565b62000ded620019e7565b818160405162000dfd9062001e0a565b62000e0a9291906200252c565b604051809103906000f08015801562000e27573d6000803e3d6000fd5b50600160a060020a03828116600081815260208190526040908190208054600160a060020a0319169484169490941790935560048054935160e360020a631cbf05f902815260ca60020a66141055125153950291810191909152602481019190915291169063e5f82fc890604401600060405180830381600087803b15801562000eb057600080fd5b505af115801562000ec5573d6000803e3d6000fd5b505050507f2cc2297518d2e95f47e8d56a542b31d771111b8005cd026ebb7cd0d9107fbeec828260405162000efc9291906200252c565b60405180910390a15050565b600160a060020a0380821660009081526001602052604080822054815160e260020a63140ec4d50281529151606094919091169263503b13549260048082019391829003018186803b15801562000c7a57600080fd5b600160a060020a0380821660009081526020819052604080822054815160e160020a633ad290cb028152915160609491909116926375a521969260048082019391829003018186803b15801562000c7a57600080fd5b600160a060020a0380821660009081526020819052604080822054815160e060020a6363c339c3028152915160609491909116926363c339c39260048082019391829003018186803b1580156200100a57600080fd5b505afa1580156200101f573d6000803e3d6000fd5b505050506040513d6000823e601f3d908101601f19168201604052620007f1919081019062002024565b600160a060020a0380821660009081526002602052604080822054815160e160020a6333cd098d0281529151606094919091169263679a131a9260048082019391829003018186803b15801562000c7a57600080fd5b620010a962001db8565b60408051808201808352600160a060020a03808616600090815260036020528481205460e160020a631605428b029093529351929384939290911691632c0a85169160448086019290818703018186803b1580156200110757600080fd5b505afa1580156200111c573d6000803e3d6000fd5b505050506040513d6000823e601f3d908101601f19168201604052620011469190810190620020ff565b8152600160a060020a03808516600090815260036020908152604080832054815160e060020a6324db757f02815291519290950194909316926324db757f926004808301939192829003018186803b158015620004b757600080fd5b620011ac62001e18565b6040805160c08101808352600160a060020a03808616600090815260016020528481205460e460020a6302796c8f029093529351929384939290911691632796c8f09160c48086019290818703018186803b1580156200120b57600080fd5b505afa15801562001220573d6000803e3d6000fd5b505050506040513d6000823e601f3d908101601f191682016040526200124a9190810190620020ff565b8152600160a060020a03808516600090815260016020908152604080832054815160e060020a632f5319e10281529151929095019490931692632f5319e1926004808301939192829003018186803b158015620012a657600080fd5b505afa158015620012bb573d6000803e3d6000fd5b505050506040513d6000823e601f3d908101601f19168201604052620012e59190810190620020ff565b8152600160a060020a03808516600090815260016020908152604080832054815160e060020a63ce3dc941028152915192909501949093169263ce3dc941926004808301939192829003018186803b1580156200134157600080fd5b505afa15801562001356573d6000803e3d6000fd5b505050506040513d6000823e601f3d908101601f19168201604052620013809190810190620020ff565b8152600160a060020a03808516600090815260016020908152604080832054815160e160020a635976002f028152915192909501949093169263b2ec005e926004808301939192829003018186803b158015620013dc57600080fd5b505afa158015620013f1573d6000803e3d6000fd5b505050506040513d6000823e601f3d908101601f191682016040526200141b9190810190620020ff565b8152600160a060020a03808516600090815260016020908152604080832054815160e260020a632fbcc70f028152915192909501949093169263bef31c3c926004808301939192829003018186803b1580156200147757600080fd5b505afa1580156200148c573d6000803e3d6000fd5b505050506040513d6000823e601f3d908101601f19168201604052620014b69190810190620020ff565b8152600160a060020a03808516600090815260016020908152604080832054815160e060020a6327d2066502815291519290950194909316926327d20665926004808301939192829003018186803b158015620004b757600080fd5b6200151c62001ba0565b600160a060020a038083166000908152602081905260409081902054905160e060020a632c7ac18f028152911690632c7ac18f906200156090849060040162002517565b600060405180830381600087803b1580156200157b57600080fd5b505af115801562001590573d6000803e3d6000fd5b5050336000908152600260205260409081902054905160e060020a633dcda785028152600160a060020a039091169250633dcda7859150620015d7908590600401620023ba565b600060405180830381600087803b158015620015f257600080fd5b505af115801562001607573d6000803e3d6000fd5b505050505050565b600160a060020a0380821660009081526020819052604080822054815160e160020a6364a8b8d70281529151606094919091169263c95171ae9260048082019391829003018186803b15801562000c7a57600080fd5b600160a060020a0380821660009081526020819052604080822054815160e560020a6307ddfc9d0281529151606094919091169263fbbf93a09260048082019391829003018186803b1580156200099857600080fd5b620016c562001acb565b336000908152602081905260409081902054905160e060020a631b470bc7028152600160a060020a0390911690631b470bc79062001708908490600401620023ba565b600060405180830381600087803b1580156200172357600080fd5b505af115801562001738573d6000803e3d6000fd5b505050600160a060020a038083166000908152600260205260409081902054905160e060020a636d263ceb02815291169150636d263ceb9062001780903390600401620023ba565b600060405180830381600087803b1580156200179b57600080fd5b505af1158015620017b0573d6000803e3d6000fd5b505050507ff2e80366c255f5b265e62473d0d8bb0434b573ebddcd2f54ea020c53f7e2b40f81604051620007559190620023ba565b620017ef62001ba0565b336000908152600260205260409081902054905160e460020a6308780643028152600160a060020a0390911690638780643090620018369086908690869060040162002559565b600060405180830381600087803b1580156200185157600080fd5b505af115801562001866573d6000803e3d6000fd5b505050507f48c05cd96788c4764657e993136a23a8cadeb1fb184af08d28a5c67435195ec78383836040516200061e9392919062002559565b620018a962001c76565b33600090815260016020908152604080832054815160e160020a630c3b4ea30281529151600160a060020a03909116926318769d469260048082019391829003018186803b158015620018fb57600080fd5b505afa15801562001910573d6000803e3d6000fd5b505050506040513d601f19601f8201168201806040525081019062001936919062001f0f565b600160a060020a038082166000908152600260205260409081902054905160e460020a63087806430281529293501690638780643090620019809086908690869060040162002559565b600060405180830381600087803b1580156200199b57600080fd5b505af1158015620019b0573d6000803e3d6000fd5b505050507f27d49ad94ae77b9904d394961a5a3eca91f927e8829d026a2fe22a0a6fcabb1283836040516200061e9291906200252c565b620019f23262001d4a565b6004805460405160e060020a636c2b04fd028152600160a060020a0390911691636c2b04fd9162001a2691329101620023ba565b60206040518083038186803b15801562001a3f57600080fd5b505afa15801562001a54573d6000803e3d6000fd5b505050506040513d601f19601f8201168201806040525081019062001a7a9190620020dd565b62001ac95760405160e560020a62461bcd0281526020600482015260146024820152606160020a732932b9ba3934b1ba32b2103a37903ab9b2b939970260448201526064015b60405180910390fd5b565b6004805460405160e060020a638f9c79ed028152600160a060020a0390911691638f9c79ed9162001aff91329101620023ba565b60206040518083038186803b15801562001b1857600080fd5b505afa15801562001b2d573d6000803e3d6000fd5b505050506040513d601f19601f8201168201806040525081019062001b539190620020dd565b62001ac95760405160e560020a62461bcd0281526020600482015260166024820152605160020a752932b9ba3934b1ba32b2103a37902820aa24a2a72a1702604482015260640162001ac0565b6004805460405160e060020a63bdf6c673028152600160a060020a039091169163bdf6c6739162001bd491329101620023ba565b60206040518083038186803b15801562001bed57600080fd5b505afa15801562001c02573d6000803e3d6000fd5b505050506040513d601f19601f8201168201806040525081019062001c289190620020dd565b62001ac95760405160e560020a62461bcd0281526020600482015260176024820152604960020a762932b9ba3934b1ba32b2103a37902427a9a824aa20a61702604482015260640162001ac0565b6004805460405160e160020a634cb22063028152600160a060020a039091169163996440c69162001caa91329101620023ba565b60206040518083038186803b15801562001cc357600080fd5b505afa15801562001cd8573d6000803e3d6000fd5b505050506040513d601f19601f8201168201806040525081019062001cfe9190620020dd565b62001ac95760405160e560020a62461bcd0281526020600482015260156024820152605960020a742932b9ba3934b1ba32b2103a37902227a1aa27a91702604482015260640162001ac0565b62001d948160405160240162001d619190620023ba565b60408051601f19818403018152919052602081018051600160e060020a031660e160020a63161765e10217905262001d97565b50565b80516a636f6e736f6c652e6c6f67602083016000808483855afa5050505050565b60405180604001604052806002905b606081526020019060019003908162001dc75790505090565b6106ef80620027a483390190565b610d318062002e9383390190565b6113c28062003bc483390190565b610ee78062004f8683390190565b6040805160c081019091526060815260056020820162001dc7565b8035620009d7816200278d565b600082601f83011262001e51578081fd5b813562001e6862001e628262002716565b620026bd565b81815284602083860101111562001e7d578283fd5b816020850160208301379081016020019190915292915050565b600082601f83011262001ea8578081fd5b815162001eb962001e628262002716565b81815284602083860101111562001ece578283fd5b62001ee182602083016020870162002740565b949350505050565b60006020828403121562001efb578081fd5b813562001f08816200278d565b9392505050565b60006020828403121562001f21578081fd5b815162001f08816200278d565b6000806040838503121562001f41578081fd5b823562001f4e816200278d565b915060208301356001604060020a0381111562001f69578182fd5b62001f778582860162001e40565b9150509250929050565b6000602080838503121562001f94578182fd5b82516001604060020a0381111562001faa578283fd5b8301601f8101851362001fbb578283fd5b805162001fcc62001e6282620026f0565b818152838101908385018584028501860189101562001fe9578687fd5b8694505b838510156200201857805162002003816200278d565b83526001949094019391850191850162001fed565b50979650505050505050565b6000602080838503121562002037578182fd5b82516001604060020a03808211156200204e578384fd5b818501915085601f83011262002062578384fd5b81516200207362001e6282620026f0565b81815284810190848601868402860187018a101562002090578788fd5b875b84811015620020ce57815186811115620020aa57898afd5b620020ba8c8a838b010162001e97565b855250928701929087019060010162002092565b50909998505050505050505050565b600060208284031215620020ef578081fd5b8151801515811462001f08578182fd5b60006020828403121562002111578081fd5b81516001604060020a0381111562002127578182fd5b62001ee18482850162001e97565b6000806040838503121562002148578182fd5b82356001604060020a038111156200215e578283fd5b6200216c8582860162001e40565b92505060208301356200217f816200278d565b809150509250929050565b6000806000606084860312156200219f578081fd5b83356001604060020a03811115620021b5578182fd5b620021c38682870162001e40565b9350506020840135620021d6816200278d565b91506040840135620021e8816200278d565b809150509250925092565b60008060006060848603121562002208578283fd5b83356001604060020a03808211156200221f578485fd5b6200222d8783880162001e40565b9450602086013591508082111562002243578384fd5b50620022528682870162001e40565b9250506040840135620021e8816200278d565b600080600080600080600080610100898b03121562002282578384fd5b88356001604060020a038082111562002299578586fd5b620022a78c838d0162001e40565b995060208b0135915080821115620022bd578586fd5b620022cb8c838d0162001e40565b985060408b0135915080821115620022e1578586fd5b620022ef8c838d0162001e40565b975060608b013591508082111562002305578586fd5b620023138c838d0162001e40565b965060808b013591508082111562002329578586fd5b620023378c838d0162001e40565b95506200234760a08c0162001e33565b94506200235760c08c0162001e33565b935060e08b01359150808211156200236d578283fd5b506200237c8b828c0162001e40565b9150509295985092959890939650565b60008151808452620023a681602086016020860162002740565b601f01601f19169290920160200192915050565b600160a060020a0391909116815260200190565b6020808252825182820181905260009190848201906040850190845b8181101562002411578351600160a060020a031683529284019291840191600101620023ea565b50909695505050505050565b60208082526000906060830183820185845b60028110156200246257601f198785030183526200244f8483516200238c565b935091840191908401906001016200242f565b50919695505050505050565b602080825260009060e0830183820185845b60068110156200246257601f19878503018352620024a08483516200238c565b9350918401919084019060010162002480565b6000602080830181845280855180835260408601915060408482028701019250838701855b828110156200250a57603f19888603018452620024f78583516200238c565b94509285019290850190600101620024d8565b5092979650505050505050565b60208152600062001f0860208301846200238c565b6040815260006200254160408301856200238c565b9050600160a060020a03831660208301529392505050565b6060815260006200256e60608301866200238c565b600160a060020a0394851660208401529290931660409091015292915050565b606081526000620025a360608301866200238c565b600160a060020a03851660208401528281036040840152620025c681856200238c565b9695505050505050565b606081526000620025e560608301866200238c565b8281036020840152620025f981866200238c565b915050600160a060020a0383166040830152949350505050565b6000610100808352620026298184018c6200238c565b905082810360208401526200263f818b6200238c565b9050828103604084015262002655818a6200238c565b905082810360608401526200266b81896200238c565b905082810360808401526200268181886200238c565b600160a060020a0387811660a0860152861660c085015283810360e08501529050620026ae81856200238c565b9b9a5050505050505050505050565b604051601f8201601f191681016001604060020a0381118282101715620026e857620026e862002773565b604052919050565b60006001604060020a038211156200270c576200270c62002773565b5060209081020190565b60006001604060020a0382111562002732576200273262002773565b50601f01601f191660200190565b60005b838110156200275d57818101518382015260200162002743565b838111156200276d576000848401525b50505050565b60e060020a634e487b710260009081526041600452602490fd5b600160a060020a038116811462001d9457600080fdfe608060405234801561001057600080fd5b506040516106ef3803806106ef83398101604081905261002f916101c0565b825161004290600090602086019061007f565b50815161005690600190602085019061007f565b5060028054600160a060020a031916600160a060020a0392909216919091179055506102c49050565b82805461008b90610241565b90600052602060002090601f0160209004810192826100ad57600085556100f3565b82601f106100c657805160ff19168380011785556100f3565b828001600101855582156100f3579182015b828111156100f35782518255916020019190600101906100d8565b506100ff929150610103565b5090565b5b808211156100ff5760008155600101610104565b600082601f830112610128578081fd5b81516001604060020a038082111561014257610142610295565b604051601f8301601f19908116603f0116810190828211818310171561016a5761016a610295565b81604052838152602092508683858801011115610185578485fd5b8491505b838210156101a65785820183015181830184015290820190610189565b838211156101b657848385830101525b9695505050505050565b6000806000606084860312156101d4578283fd5b83516001604060020a03808211156101ea578485fd5b6101f687838801610118565b9450602086015191508082111561020b578384fd5b5061021886828701610118565b60408601519093509050600160a060020a0381168114610236578182fd5b809150509250925092565b60028104600182168061025557607f821691505b6020821081141561028f577f4e487b7100000000000000000000000000000000000000000000000000000000600052602260045260246000fd5b50919050565b7f4e487b7100000000000000000000000000000000000000000000000000000000600052604160045260246000fd5b61041c806102d36000396000f3fe608060405234801561001057600080fd5b50600436106100655760e060020a6000350463086c32e5811461006a57806324db757f1461007f5780632c0a85161461009d578063441e2f09146100a5578063d665b298146100b8578063d67c2da3146100e8575b600080fd5b61007d610078366004610291565b610103565b005b61008761011a565b604051610094919061033a565b60405180910390f35b6100876101ac565b61007d6100b3366004610291565b6101bb565b61007d6100c6366004610263565b60028054600160a060020a031916600160a060020a0392909216919091179055565b600254604051600160a060020a039091168152602001610094565b80516101169060019060208401906101ca565b5050565b6060600180546101299061038d565b80601f01602080910402602001604051908101604052809291908181526020018280546101559061038d565b80156101a25780601f10610177576101008083540402835291602001916101a2565b820191906000526020600020905b81548152906001019060200180831161018557829003601f168201915b5050505050905090565b6060600080546101299061038d565b80516101169060009060208401905b8280546101d69061038d565b90600052602060002090601f0160209004810192826101f8576000855561023e565b82601f1061021157805160ff191683800117855561023e565b8280016001018555821561023e579182015b8281111561023e578251825591602001919060010190610223565b5061024a92915061024e565b5090565b5b8082111561024a576000815560010161024f565b600060208284031215610274578081fd5b8135600160a060020a038116811461028a578182fd5b9392505050565b6000602082840312156102a2578081fd5b81356001604060020a03808211156102b8578283fd5b818401915084601f8301126102cb578283fd5b8135818111156102dd576102dd6103cc565b604051601f8201601f19908116603f01168101908382118183101715610305576103056103cc565b8160405282815287602084870101111561031d578586fd5b826020860160208301379182016020019490945295945050505050565b6000602080835283518082850152825b818110156103665785810183015185820160400152820161034a565b818111156103775783604083870101525b50601f01601f1916929092016040019392505050565b6002810460018216806103a157607f821691505b602082108114156103c65760e060020a634e487b710260009081526022600452602490fd5b50919050565b60e060020a634e487b710260009081526041600452602490fdfea264697066735822122031ada13bf47a10e79058a8f19cefd0c4e92aee3053932a0ed5a2275e92f717b864736f6c6343000804003360806040523480156200001157600080fd5b5060405162000d3138038062000d31833981016040819052620000349162000272565b8751620000499060009060208b0190620000fc565b5060018054600160a060020a031916600160a060020a03841617905586516200007a9060029060208a0190620000fc565b50855162000090906003906020890190620000fc565b508451620000a6906004906020880190620000fc565b508351620000bc906005906020870190620000fc565b5060068054600160a060020a031916600160a060020a0385161790558051620000ed906009906020840190620000fc565b5050505050505050506200041e565b8280546200010a9062000399565b90600052602060002090601f0160209004810192826200012e576000855562000179565b82601f106200014957805160ff191683800117855562000179565b8280016001018555821562000179579182015b82811115620001795782518255916020019190600101906200015c565b50620001879291506200018b565b5090565b5b808211156200018757600081556001016200018c565b8051600160a060020a0381168114620001ba57600080fd5b919050565b600082601f830112620001d0578081fd5b81516001604060020a0380821115620001ed57620001ed620003ef565b604051601f8301601f19908116603f01168101908282118183101715620002185762000218620003ef565b8160405283815260209250868385880101111562000234578485fd5b8491505b8382101562000257578582018301518183018401529082019062000238565b838211156200026857848385830101525b9695505050505050565b600080600080600080600080610100898b0312156200028f578384fd5b88516001604060020a0380821115620002a6578586fd5b620002b48c838d01620001bf565b995060208b0151915080821115620002ca578586fd5b620002d88c838d01620001bf565b985060408b0151915080821115620002ee578586fd5b620002fc8c838d01620001bf565b975060608b015191508082111562000312578586fd5b620003208c838d01620001bf565b965060808b015191508082111562000336578586fd5b620003448c838d01620001bf565b95506200035460a08c01620001a2565b94506200036460c08c01620001a2565b935060e08b01519150808211156200037a578283fd5b50620003898b828c01620001bf565b9150509295985092959890939650565b600281046001821680620003ae57607f821691505b60208210811415620003e9577f4e487b7100000000000000000000000000000000000000000000000000000000600052602260045260246000fd5b50919050565b7f4e487b7100000000000000000000000000000000000000000000000000000000600052604160045260246000fd5b610903806200042e6000396000f3fe608060405234801561001057600080fd5b50600436106100f45760e060020a60003504630dd1d00881146100f957806318769d461461010e5780632796c8f01461013857806327d206651461014d5780632f5319e114610155578063503b13541461015d5780636d263ceb1461017257806377b7aee0146101e65780637d0d6257146101f9578063961a5d0a1461020c5780639cc0014b1461021f578063a0257dc414610232578063acfbe68814610245578063b2ec005e14610258578063bc9c2d5514610260578063bef31c3c14610271578063ce3dc94114610279578063d13fd1e814610281578063dec1c904146102b1575b600080fd5b61010c6101073660046106df565b6102e1565b005b600654600160a060020a03165b604051600160a060020a0390911681526020015b60405180910390f35b6101406102f8565b60405161012f91906107d5565b61014061038a565b610140610399565b6101656103a8565b60405161012f9190610788565b61010c6101803660046106b1565b600160a060020a03166000818152600760205260408120805460ff191660019081179091556008805491820181559091527ff3f7a9fe364faab93b216da50a3214154f22a0a2b415b23a84c8169e8b636ee3018054600160a060020a0319169091179055565b61010c6101f43660046106df565b610409565b61010c6102073660046106b1565b61041c565b61010c61021a3660046106df565b61059f565b61010c61022d3660046106df565b6105b2565b61010c6102403660046106df565b6105c5565b61010c6102533660046106df565b6105d8565b6101406105eb565b600154600160a060020a031661011b565b6101406105fa565b610140610609565b61010c61028f3660046106b1565b60018054600160a060020a031916600160a060020a0392909216919091179055565b61010c6102bf3660046106b1565b60068054600160a060020a031916600160a060020a0392909216919091179055565b80516102f4906009906020840190610618565b5050565b6060600080546103079061083f565b80601f01602080910402602001604051908101604052809291908181526020018280546103339061083f565b80156103805780601f1061035557610100808354040283529160200191610380565b820191906000526020600020905b81548152906001019060200180831161036357829003601f168201915b5050505050905090565b6060600980546103079061083f565b6060600280546103079061083f565b6060600880548060200260200160405190810160405280929190818152602001828054801561038057602002820191906000526020600020905b8154600160a060020a031681526001909101906020018083116103e2575050505050905090565b80516102f4906005906020840190610618565b60005b60085461042e90600190610828565b8110156102f45781600160a060020a0316600882815481106104635760e060020a634e487b7102600052603260045260246000fd5b600091825260209091200154600160a060020a0316141561058d57600854600114610525576008805461049890600190610828565b815481106104b95760e060020a634e487b7102600052603260045260246000fd5b60009182526020909120015460088054600160a060020a0390921691839081106104f65760e060020a634e487b7102600052603260045260246000fd5b9060005260206000200160006101000a815481600160a060020a030219169083600160a060020a031602179055505b600160a060020a0382166000908152600760205260409020805460ff1916905560088054806105675760e060020a634e487b7102600052603160045260246000fd5b60008281526020902081016000199081018054600160a060020a03191690550190555050565b806105978161087e565b91505061041f565b80516102f4906004906020840190610618565b80516102f4906000906020840190610618565b80516102f4906003906020840190610618565b80516102f4906002906020840190610618565b6060600480546103079061083f565b6060600580546103079061083f565b6060600380546103079061083f565b8280546106249061083f565b90600052602060002090601f016020900481019282610646576000855561068c565b82601f1061065f57805160ff191683800117855561068c565b8280016001018555821561068c579182015b8281111561068c578251825591602001919060010190610671565b5061069892915061069c565b5090565b5b80821115610698576000815560010161069d565b6000602082840312156106c2578081fd5b8135600160a060020a03811681146106d8578182fd5b9392505050565b6000602082840312156106f0578081fd5b81356001604060020a0380821115610706578283fd5b818401915084601f830112610719578283fd5b81358181111561072b5761072b6108b3565b604051601f8201601f19908116603f01168101908382118183101715610753576107536108b3565b8160405282815287602084870101111561076b578586fd5b826020860160208301379182016020019490945295945050505050565b6020808252825182820181905260009190848201906040850190845b818110156107c9578351600160a060020a0316835292840192918401916001016107a4565b50909695505050505050565b6000602080835283518082850152825b81811015610801578581018301518582016040015282016107e5565b818111156108125783604083870101525b50601f01601f1916929092016040019392505050565b60008282101561083a5761083a610899565b500390565b60028104600182168061085357607f821691505b602082108114156108785760e060020a634e487b710260009081526022600452602490fd5b50919050565b600060001982141561089257610892610899565b5060010190565b60e060020a634e487b710260009081526011600452602490fd5b60e060020a634e487b710260009081526041600452602490fdfea26469706673582212206f9c36f2dc49315a1426fb0414e390ce6d3207c3350d21e56b61633ff83a2ce564736f6c6343000804003360806040523480156200001157600080fd5b50604051620013c2380380620013c28339810160408190526200003491620001dd565b82516200004990600090602086019062000084565b5060018054600160a060020a031916600160a060020a03841617905580516200007a90600290602084019062000084565b50505050620002e9565b828054620000929062000264565b90600052602060002090601f016020900481019282620000b6576000855562000101565b82601f10620000d157805160ff191683800117855562000101565b8280016001018555821562000101579182015b8281111562000101578251825591602001919060010190620000e4565b506200010f92915062000113565b5090565b5b808211156200010f576000815560010162000114565b600082601f8301126200013b578081fd5b81516001604060020a0380821115620001585762000158620002ba565b604051601f8301601f19908116603f01168101908282118183101715620001835762000183620002ba565b816040528381526020925086838588010111156200019f578485fd5b8491505b83821015620001c25785820183015181830184015290820190620001a3565b83821115620001d357848385830101525b9695505050505050565b600080600060608486031215620001f2578283fd5b83516001604060020a038082111562000209578485fd5b62000217878388016200012a565b60208701519095509150600160a060020a038216821462000236578384fd5b6040860151919350808211156200024b578283fd5b506200025a868287016200012a565b9150509250925092565b6002810460018216806200027957607f821691505b60208210811415620002b4577f4e487b7100000000000000000000000000000000000000000000000000000000600052602260045260246000fd5b50919050565b7f4e487b7100000000000000000000000000000000000000000000000000000000600052604160045260246000fd5b6110c980620002f96000396000f3fe608060405234801561001057600080fd5b50600436106100de5760e060020a6000350463086c32e581146100e35780631fc72900146100f857806324db757f14610128578063363c80aa146101465780633dcda7851461015b5780634780468f1461016e578063679a131a146101e35780636d263ceb146101f85780637d0d62571461026d57806387806430146102805780638f9c79ed1461029357806398fc90e9146102cf578063996440c6146102e2578063c95171ae1461030e578063c98d66c114610316578063ded15aaf1461031e578063e5b8459014610331575b600080fd5b6100f66100f1366004610e06565b61034c565b005b6100f6610106366004610de5565b60018054600160a060020a031916600160a060020a0392909216919091179055565b610130610363565b60405161013d9190610fdb565b60405180910390f35b61014e6103f5565b60405161013d9190610f33565b6100f6610169366004610de5565b61052e565b6100f661017c366004610de5565b6005805460018181019092557f036b6384b5eca791c62761152d0c79bb0604c104a5fb6f4eb0703f3154bb3db0018054600160a060020a03909316600160a060020a031990931683179055600091825260036020526040909120805460ff19169091179055565b6101eb61071d565b60405161013d9190610ee6565b6100f6610206366004610de5565b6006805460018181019092557ff652222313e28459528d920b65115c16c04f3efc82aaedc97be59f3f377c0d3f018054600160a060020a03909316600160a060020a031990931683179055600091825260046020526040909120805460ff19169091179055565b6100f661027b366004610de5565b61077e565b6100f661028e366004610e40565b6108f5565b6102bf6102a1366004610de5565b600160a060020a031660009081526004602052604090205460ff1690565b604051901515815260200161013d565b6100f66102dd366004610de5565b6109fd565b6102bf6102f0366004610de5565b600160a060020a031660009081526003602052604090205460ff1690565b6101eb610b74565b610130610bd4565b6100f661032c366004610e06565b610be3565b600154604051600160a060020a03909116815260200161013d565b805161035f906002906020840190610bf2565b5050565b60606002805461037290611005565b80601f016020809104026020016040519081016040528092919081815260200182805461039e90611005565b80156103eb5780601f106103c0576101008083540402835291602001916103eb565b820191906000526020600020905b8154815290600101906020018083116103ce57829003601f168201915b5050505050905090565b60606007805480602002602001604051908101604052809291908181526020016000905b828210156105255760008481526020908190206040805160a08101909152600585029091018054600160a060020a03168252600181018054929391929184019161046290611005565b80601f016020809104026020016040519081016040528092919081815260200182805461048e90611005565b80156104db5780601f106104b0576101008083540402835291602001916104db565b820191906000526020600020905b8154815290600101906020018083116104be57829003601f168201915b50505091835250506002820154600160a060020a03908116602080840191909152600384015490911660408301526004909201546060909101529082526001929092019101610419565b50505050905090565b60005b60075481101561035f5781600160a060020a0316600782815481106105695760e060020a634e487b7102600052603260045260246000fd5b6000918252602090912060059091020154600160a060020a0316141561070b5760075460011461068957600780546105a390600190610fee565b815481106105c45760e060020a634e487b7102600052603260045260246000fd5b9060005260206000209060050201600782815481106105f65760e060020a634e487b7102600052603260045260246000fd5b6000918252602090912082546005909202018054600160a060020a031916600160a060020a03909216919091178155600180830180549183019161063990611005565b610644929190610c76565b506002828101549082018054600160a060020a03928316600160a060020a03199182161790915560038085015490840180549190931691161790556004918201549101555b60078054806106ab5760e060020a634e487b7102600052603160045260246000fd5b6000828152602081206005600019909301928302018054600160a060020a0319168155906106dc6001830182610cf1565b50600281018054600160a060020a03199081169091556003820180549091169055600060049091015590555050565b8061071581611044565b915050610531565b606060068054806020026020016040519081016040528092919081815260200182805480156103eb57602002820191906000526020600020905b8154600160a060020a03168152600190910190602001808311610757575050505050905090565b60005b60065481101561035f5781600160a060020a0316600682815481106107b95760e060020a634e487b7102600052603260045260246000fd5b600091825260209091200154600160a060020a031614156108e35760065460011461087b57600680546107ee90600190610fee565b8154811061080f5760e060020a634e487b7102600052603260045260246000fd5b60009182526020909120015460068054600160a060020a03909216918390811061084c5760e060020a634e487b7102600052603260045260246000fd5b9060005260206000200160006101000a815481600160a060020a030219169083600160a060020a031602179055505b600680548061089d5760e060020a634e487b7102600052603160045260246000fd5b6000828152602080822083016000199081018054600160a060020a0319169055909201909255600160a060020a03841682526004905260409020805460ff191690555050565b806108ed81611044565b915050610781565b6040805160a081018252600160a060020a0384811682526020808301878152339484019490945284821660608401524260808401526007805460018101825560009190915283517fa66cc928b5edb82af9bd49922954155ab7b0942694bea4ce44661d9a8736c68860059092029182018054600160a060020a0319169190941617835593518051939492936109b1937fa66cc928b5edb82af9bd49922954155ab7b0942694bea4ce44661d9a8736c68901929190910190610bf2565b506040820151600282018054600160a060020a03928316600160a060020a0319918216179091556060840151600384018054919093169116179055608090910151600490910155505050565b60005b60055481101561035f5781600160a060020a031660058281548110610a385760e060020a634e487b7102600052603260045260246000fd5b600091825260209091200154600160a060020a03161415610b6257600554600114610afa5760058054610a6d90600190610fee565b81548110610a8e5760e060020a634e487b7102600052603260045260246000fd5b60009182526020909120015460058054600160a060020a039092169183908110610acb5760e060020a634e487b7102600052603260045260246000fd5b9060005260206000200160006101000a815481600160a060020a030219169083600160a060020a031602179055505b6005805480610b1c5760e060020a634e487b7102600052603160045260246000fd5b6000828152602080822083016000199081018054600160a060020a0319169055909201909255600160a060020a03841682526003905260409020805460ff191690555050565b80610b6c81611044565b915050610a00565b606060058054806020026020016040519081016040528092919081815260200182805480156103eb57602002820191906000526020600020908154600160a060020a03168152600190910190602001808311610757575050505050905090565b60606000805461037290611005565b805161035f9060009060208401905b828054610bfe90611005565b90600052602060002090601f016020900481019282610c205760008555610c66565b82601f10610c3957805160ff1916838001178555610c66565b82800160010185558215610c66579182015b82811115610c66578251825591602001919060010190610c4b565b50610c72929150610d2e565b5090565b828054610c8290611005565b90600052602060002090601f016020900481019282610ca45760008555610c66565b82601f10610cb55780548555610c66565b82800160010185558215610c6657600052602060002091601f016020900482015b82811115610c66578254825591600101919060010190610cd6565b508054610cfd90611005565b6000825580601f10610d0d575050565b601f016020900490600052602060002090810190610d2b9190610d2e565b50565b5b80821115610c725760008155600101610d2f565b8035600160a060020a0381168114610d5a57600080fd5b919050565b600082601f830112610d6f578081fd5b81356001604060020a0380821115610d8957610d89611079565b604051601f8301601f19908116603f01168101908282118183101715610db157610db1611079565b81604052838152866020858801011115610dc9578485fd5b8360208701602083013792830160200193909352509392505050565b600060208284031215610df6578081fd5b610dff82610d43565b9392505050565b600060208284031215610e17578081fd5b81356001604060020a03811115610e2c578182fd5b610e3884828501610d5f565b949350505050565b600080600060608486031215610e54578182fd5b83356001604060020a03811115610e69578283fd5b610e7586828701610d5f565b935050610e8460208501610d43565b9150610e9260408501610d43565b90509250925092565b60008151808452815b81811015610ec057602081850181015186830182015201610ea4565b81811115610ed15782602083870101525b50601f01601f19169290920160200192915050565b6020808252825182820181905260009190848201906040850190845b81811015610f27578351600160a060020a031683529284019291840191600101610f02565b50909695505050505050565b60208082528251828201819052600091906040908185019080840286018301878501865b83811015610fcd57888303603f1901855281518051600160a060020a0390811685528882015160a08a87018190529190610f9383880182610e9b565b848b01518316888c015260608086015190931692880192909252506080928301519290950191909152509386019390860190600101610f57565b509098975050505050505050565b602081526000610dff6020830184610e9b565b6000828210156110005761100061105f565b500390565b60028104600182168061101957607f821691505b6020821081141561103e5760e060020a634e487b710260009081526022600452602490fd5b50919050565b60006000198214156110585761105861105f565b5060010190565b60e060020a634e487b710260009081526011600452602490fd5b60e060020a634e487b710260009081526041600452602490fdfea2646970667358221220544a06e65e4a3f5f17afe3046600b7d437327eae2bab69aae51bc33eb0a4916264736f6c6343000804003360806040523480156200001157600080fd5b5060405162000ee738038062000ee7833981016040819052620000349162000134565b81516200004990600090602085019062000071565b5060018054600160a060020a031916600160a060020a039290921691909117905550620002a5565b8280546200007f9062000220565b90600052602060002090601f016020900481019282620000a35760008555620000ee565b82601f10620000be57805160ff1916838001178555620000ee565b82800160010185558215620000ee579182015b82811115620000ee578251825591602001919060010190620000d1565b50620000fc92915062000100565b5090565b5b80821115620000fc576000815560010162000101565b8051600160a060020a03811681146200012f57600080fd5b919050565b6000806040838503121562000147578182fd5b825167ffffffffffffffff808211156200015f578384fd5b818501915085601f83011262000173578384fd5b81518181111562000188576200018862000276565b604051601f8201601f19908116603f01168101908382118183101715620001b357620001b362000276565b81604052828152602093508884848701011115620001cf578687fd5b8691505b82821015620001f25784820184015181830185015290830190620001d3565b828211156200020357868484830101525b95506200021591505085820162000117565b925050509250929050565b6002810460018216806200023557607f821691505b6020821081141562000270577f4e487b7100000000000000000000000000000000000000000000000000000000600052602260045260246000fd5b50919050565b7f4e487b7100000000000000000000000000000000000000000000000000000000600052604160045260246000fd5b610c3280620002b56000396000f3fe608060405234801561001057600080fd5b50600436106100bd5760e060020a60003504631b470bc781146100c25780632c5ee501146101395780632c7ac18f146101595780633e8a80091461016c5780634780468f1461017f57806363c339c3146101f457806375a5219614610209578063853e0b461461021e57806398fc90e914610233578063996440c614610246578063a969890614610269578063bdf6c6731461027c578063c95171ae1461028f578063fbbf93a014610297575b600080fd5b6101376100d0366004610975565b6005805460018181019092557f036b6384b5eca791c62761152d0c79bb0604c104a5fb6f4eb0703f3154bb3db0018054600160a060020a03909316600160a060020a031990931683179055600091825260036020526040909120805460ff19169091179055565b005b600154604051600160a060020a0390911681526020015b60405180910390f35b6101376101673660046109a3565b61029f565b61013761017a3660046109a3565b6102e6565b61013761018d366004610975565b6004805460018181019092557f8a35acfbc15ff81a39ae7d344fd709f28e8600b4aa8c65c6b64bfe7fe36bd19b018054600160a060020a03909316600160a060020a031990931683179055600091825260026020526040909120805460ff19169091179055565b6101fc6102f9565b6040516101509190610ae4565b6102116103d2565b6040516101509190610a97565b610226610434565b6040516101509190610b44565b610137610241366004610975565b6104bd565b610259610254366004610975565b610634565b6040519015158152602001610150565b610137610277366004610975565b610652565b61025961028a366004610975565b6107c9565b6102116107e7565b610226610847565b6006805460018101825560009190915281516102e2917ff652222313e28459528d920b65115c16c04f3efc82aaedc97be59f3f377c0d3f019060208401906108dc565b5050565b80516102e29060009060208401906108dc565b60606006805480602002602001604051908101604052809291908181526020016000905b828210156103c957838290600052602060002001805461033c90610b6e565b80601f016020809104026020016040519081016040528092919081815260200182805461036890610b6e565b80156103b55780601f1061038a576101008083540402835291602001916103b5565b820191906000526020600020905b81548152906001019060200180831161039857829003601f168201915b50505050508152602001906001019061031d565b50505050905090565b6060600580548060200260200160405190810160405280929190818152602001828054801561042a57602002820191906000526020600020905b8154600160a060020a0316815260019091019060200180831161040c575b5050505050905090565b60606000805461044390610b6e565b80601f016020809104026020016040519081016040528092919081815260200182805461046f90610b6e565b801561042a5780601f106104915761010080835404028352916020019161042a565b820191906000526020600020905b81548152906001019060200180831161049f57509395945050505050565b60005b6004548110156102e25781600160a060020a0316600482815481106104f85760e060020a634e487b7102600052603260045260246000fd5b600091825260209091200154600160a060020a03161415610622576004546001146105ba576004805461052d90600190610b57565b8154811061054e5760e060020a634e487b7102600052603260045260246000fd5b60009182526020909120015460048054600160a060020a03909216918390811061058b5760e060020a634e487b7102600052603260045260246000fd5b9060005260206000200160006101000a815481600160a060020a030219169083600160a060020a031602179055505b60048054806105dc5760e060020a634e487b7102600052603160045260246000fd5b6000828152602080822083016000199081018054600160a060020a0319169055909201909255600160a060020a03841682526002905260409020805460ff191690555050565b8061062c81610bad565b9150506104c0565b600160a060020a031660009081526002602052604090205460ff1690565b60005b6005548110156102e25781600160a060020a03166005828154811061068d5760e060020a634e487b7102600052603260045260246000fd5b600091825260209091200154600160a060020a031614156107b75760045460011461074f57600580546106c290600190610b57565b815481106106e35760e060020a634e487b7102600052603260045260246000fd5b60009182526020909120015460058054600160a060020a0390921691839081106107205760e060020a634e487b7102600052603260045260246000fd5b9060005260206000200160006101000a815481600160a060020a030219169083600160a060020a031602179055505b60058054806107715760e060020a634e487b7102600052603160045260246000fd5b6000828152602080822083016000199081018054600160a060020a0319169055909201909255600160a060020a03841682526003905260409020805460ff191690555050565b806107c181610bad565b915050610655565b600160a060020a031660009081526003602052604090205460ff1690565b6060600480548060200260200160405190810160405280929190818152602001828054801561042a57602002820191906000526020600020908154600160a060020a0316815260019091019060200180831161040c575050505050905090565b606061085161085e565b6000805461044390610b6e565b61086732610634565b806108765750610876326107c9565b8061088b5750600154600160a060020a031632145b6108da5760405160e560020a62461bcd0281526020600482015260166024820152605160020a752932b9ba3934b1ba32b2103a37902820aa24a2a72a1702604482015260640160405180910390fd5b565b8280546108e890610b6e565b90600052602060002090601f01602090048101928261090a5760008555610950565b82601f1061092357805160ff1916838001178555610950565b82800160010185558215610950579182015b82811115610950578251825591602001919060010190610935565b5061095c929150610960565b5090565b5b8082111561095c5760008155600101610961565b600060208284031215610986578081fd5b8135600160a060020a038116811461099c578182fd5b9392505050565b6000602082840312156109b4578081fd5b81356001604060020a03808211156109ca578283fd5b818401915084601f8301126109dd578283fd5b8135818111156109ef576109ef610be2565b604051601f8201601f19908116603f01168101908382118183101715610a1757610a17610be2565b81604052828152876020848701011115610a2f578586fd5b826020860160208301379182016020019490945295945050505050565b60008151808452815b81811015610a7157602081850181015186830182015201610a55565b81811115610a825782602083870101525b50601f01601f19169290920160200192915050565b6020808252825182820181905260009190848201906040850190845b81811015610ad8578351600160a060020a031683529284019291840191600101610ab3565b50909695505050505050565b6000602080830181845280855180835260408601915060408482028701019250838701855b82811015610b3757603f19888603018452610b25858351610a4c565b94509285019290850190600101610b09565b5092979650505050505050565b60208152600061099c6020830184610a4c565b600082821015610b6957610b69610bc8565b500390565b600281046001821680610b8257607f821691505b60208210811415610ba75760e060020a634e487b710260009081526022600452602490fd5b50919050565b6000600019821415610bc157610bc1610bc8565b5060010190565b60e060020a634e487b710260009081526011600452602490fd5b60e060020a634e487b710260009081526041600452602490fdfea264697066735822122013cf7fbf1dad14158abd3de064d548e7bc62f55e00dda1b57e233df7a5932a5e64736f6c63430008040033a26469706673582212204cde761ad5c5c129d51abfcdc282bd5e62171fbaa0c435c3a09d08619635830864736f6c63430008040033608060405234801561001057600080fd5b506040516106ef3803806106ef83398101604081905261002f916101c0565b825161004290600090602086019061007f565b50815161005690600190602085019061007f565b5060028054600160a060020a031916600160a060020a0392909216919091179055506102c49050565b82805461008b90610241565b90600052602060002090601f0160209004810192826100ad57600085556100f3565b82601f106100c657805160ff19168380011785556100f3565b828001600101855582156100f3579182015b828111156100f35782518255916020019190600101906100d8565b506100ff929150610103565b5090565b5b808211156100ff5760008155600101610104565b600082601f830112610128578081fd5b81516001604060020a038082111561014257610142610295565b604051601f8301601f19908116603f0116810190828211818310171561016a5761016a610295565b81604052838152602092508683858801011115610185578485fd5b8491505b838210156101a65785820183015181830184015290820190610189565b838211156101b657848385830101525b9695505050505050565b6000806000606084860312156101d4578283fd5b83516001604060020a03808211156101ea578485fd5b6101f687838801610118565b9450602086015191508082111561020b578384fd5b5061021886828701610118565b60408601519093509050600160a060020a0381168114610236578182fd5b809150509250925092565b60028104600182168061025557607f821691505b6020821081141561028f577f4e487b7100000000000000000000000000000000000000000000000000000000600052602260045260246000fd5b50919050565b7f4e487b7100000000000000000000000000000000000000000000000000000000600052604160045260246000fd5b61041c806102d36000396000f3fe608060405234801561001057600080fd5b50600436106100655760e060020a6000350463086c32e5811461006a57806324db757f1461007f5780632c0a85161461009d578063441e2f09146100a5578063d665b298146100b8578063d67c2da3146100e8575b600080fd5b61007d610078366004610291565b610103565b005b61008761011a565b604051610094919061033a565b60405180910390f35b6100876101ac565b61007d6100b3366004610291565b6101bb565b61007d6100c6366004610263565b60028054600160a060020a031916600160a060020a0392909216919091179055565b600254604051600160a060020a039091168152602001610094565b80516101169060019060208401906101ca565b5050565b6060600180546101299061038d565b80601f01602080910402602001604051908101604052809291908181526020018280546101559061038d565b80156101a25780601f10610177576101008083540402835291602001916101a2565b820191906000526020600020905b81548152906001019060200180831161018557829003601f168201915b5050505050905090565b6060600080546101299061038d565b80516101169060009060208401905b8280546101d69061038d565b90600052602060002090601f0160209004810192826101f8576000855561023e565b82601f1061021157805160ff191683800117855561023e565b8280016001018555821561023e579182015b8281111561023e578251825591602001919060010190610223565b5061024a92915061024e565b5090565b5b8082111561024a576000815560010161024f565b600060208284031215610274578081fd5b8135600160a060020a038116811461028a578182fd5b9392505050565b6000602082840312156102a2578081fd5b81356001604060020a03808211156102b8578283fd5b818401915084601f8301126102cb578283fd5b8135818111156102dd576102dd6103cc565b604051601f8201601f19908116603f01168101908382118183101715610305576103056103cc565b8160405282815287602084870101111561031d578586fd5b826020860160208301379182016020019490945295945050505050565b6000602080835283518082850152825b818110156103665785810183015185820160400152820161034a565b818111156103775783604083870101525b50601f01601f1916929092016040019392505050565b6002810460018216806103a157607f821691505b602082108114156103c65760e060020a634e487b710260009081526022600452602490fd5b50919050565b60e060020a634e487b710260009081526041600452602490fdfea264697066735822122031ada13bf47a10e79058a8f19cefd0c4e92aee3053932a0ed5a2275e92f717b864736f6c63430008040033",
  "linkReferences": {},
  "deployedLinkReferences": {}
}