{
  "_format": "hh-sol-artifact-1",
  "contractName": "DHRMS_HOS",
  "sourceName": "contracts/DHRMS_HOS.sol",
  "abi": [
    {
      "inputs": [
        {
          "internalType": "address",
          "name": "_STORAGE_CONTRACT_ADDRESS",
          "type": "address"
        },
        {
          "internalType": "address",
          "name": "_RBAC_CONTRACT_ADDRESS",
          "type": "address"
        }
      ],
      "stateMutability": "nonpayable",
      "type": "constructor"
    },
    {
      "anonymous": false,
      "inputs": [
        {
          "indexed": false,
          "internalType": "string",
          "name": "HospitalName",
          "type": "string"
        },
        {
          "indexed": false,
          "internalType": "string",
          "name": "ph_no",
          "type": "string"
        },
        {
          "indexed": false,
          "internalType": "address",
          "name": "HID",
          "type": "address"
        }
      ],
      "name": "editHospital",
      "type": "event"
    },
    {
      "anonymous": false,
      "inputs": [
        {
          "indexed": false,
          "internalType": "string",
          "name": "HospitalName",
          "type": "string"
        },
        {
          "indexed": false,
          "internalType": "string",
          "name": "ph_no",
          "type": "string"
        },
        {
          "indexed": false,
          "internalType": "address",
          "name": "HID",
          "type": "address"
        }
      ],
      "name": "newHospital",
      "type": "event"
    },
    {
      "anonymous": false,
      "inputs": [
        {
          "indexed": false,
          "internalType": "string",
          "name": "_file",
          "type": "string"
        }
      ],
      "name": "newRecordForUploadH",
      "type": "event"
    },
    {
      "anonymous": false,
      "inputs": [
        {
          "indexed": false,
          "internalType": "address",
          "name": "_HID",
          "type": "address"
        }
      ],
      "name": "removeOldHospital",
      "type": "event"
    },
    {
      "inputs": [
        {
          "internalType": "string",
          "name": "_hospitalName",
          "type": "string"
        },
        {
          "internalType": "string",
          "name": "_phoneNumber",
          "type": "string"
        },
        {
          "internalType": "address",
          "name": "_HID",
          "type": "address"
        }
      ],
      "name": "addHospital",
      "outputs": [],
      "stateMutability": "nonpayable",
      "type": "function"
    },
    {
      "inputs": [
        {
          "internalType": "address",
          "name": "_HID",
          "type": "address"
        }
      ],
      "name": "getHospitalDetails",
      "outputs": [
        {
          "internalType": "string[2]",
          "name": "",
          "type": "string[2]"
        }
      ],
      "stateMutability": "view",
      "type": "function"
    },
    {
      "inputs": [
        {
          "internalType": "address",
          "name": "_HID",
          "type": "address"
        }
      ],
      "name": "getHospitalDoctorList",
      "outputs": [
        {
          "internalType": "address[]",
          "name": "",
          "type": "address[]"
        }
      ],
      "stateMutability": "view",
      "type": "function"
    },
    {
      "inputs": [
        {
          "internalType": "address",
          "name": "_HID",
          "type": "address"
        }
      ],
      "name": "getHospitalPatientList",
      "outputs": [
        {
          "internalType": "address[]",
          "name": "",
          "type": "address[]"
        }
      ],
      "stateMutability": "view",
      "type": "function"
    },
    {
      "inputs": [],
      "name": "getUploadQueue",
      "outputs": [
        {
          "internalType": "string[]",
          "name": "",
          "type": "string[]"
        }
      ],
      "stateMutability": "view",
      "type": "function"
    },
    {
      "inputs": [
        {
          "internalType": "address",
          "name": "_HID",
          "type": "address"
        }
      ],
      "name": "removeHospital",
      "outputs": [],
      "stateMutability": "nonpayable",
      "type": "function"
    },
    {
      "inputs": [
        {
          "internalType": "address",
          "name": "_PID",
          "type": "address"
        },
        {
          "internalType": "string",
          "name": "_CID",
          "type": "string"
        },
        {
          "internalType": "string",
          "name": "_file",
          "type": "string"
        }
      ],
      "name": "reportUploaded",
      "outputs": [],
      "stateMutability": "nonpayable",
      "type": "function"
    },
    {
      "inputs": [
        {
          "internalType": "string",
          "name": "_file",
          "type": "string"
        }
      ],
      "name": "sendRecordsForUploadH",
      "outputs": [],
      "stateMutability": "nonpayable",
      "type": "function"
    },
    {
      "inputs": [
        {
          "internalType": "string",
          "name": "_hospitalName",
          "type": "string"
        },
        {
          "internalType": "string",
          "name": "_phoneNumber",
          "type": "string"
        },
        {
          "internalType": "address",
          "name": "_HID",
          "type": "address"
        }
      ],
      "name": "setHospitalDetails",
      "outputs": [],
      "stateMutability": "nonpayable",
      "type": "function"
    }
  ],
  "bytecode": "0x60806040523480156200001157600080fd5b5060405162002b3838038062002b38833981016040819052620000349162000083565b60008054600160a060020a03938416600160a060020a03199182161790915560018054929093169116179055620000ba565b8051600160a060020a03811681146200007e57600080fd5b919050565b6000806040838503121562000096578182fd5b620000a18362000066565b9150620000b16020840162000066565b90509250929050565b612a6e80620000ca6000396000f3fe60806040523480156200001157600080fd5b5060043610620000915760e060020a60003504630bb307a8811462000096578063363c80aa14620000c55780634444aa4214620000de57806351d9ab3814620000f75780635fe51ad5146200010e5780637228c2741462000125578063a09bc91f146200014b578063a96989061462000162578063b39a225d1462000179575b600080fd5b620000ad620000a73660046200122e565b62000190565b604051620000bc919062001615565b60405180910390f35b620000cf620003b9565b604051620000bc919062001666565b620000f5620000ef366004620014b6565b62000524565b005b620000f562000108366004620014b6565b6200085e565b620000f56200011f3660046200144a565b62000a2a565b6200013c620001363660046200122e565b62000bbe565b604051620000bc9190620015c6565b620000f56200015c36600462001273565b62000cc9565b620000f5620001733660046200122e565b62000f13565b6200013c6200018a3660046200122e565b62001089565b6200019a6200114f565b604080518082019182905260005460e060020a6334a968d702909252908190600160a060020a03166334a968d7620001d6866044850162001561565b60206040518083038186803b158015620001ef57600080fd5b505afa15801562000204573d6000803e3d6000fd5b505050506040513d601f19601f820116820180604052508101906200022a919062001254565b600160a060020a031663c98d66c16040518163ffffffff1660e060020a02815260040160006040518083038186803b1580156200026657600080fd5b505afa1580156200027b573d6000803e3d6000fd5b505050506040513d6000823e601f3d908101601f19168201604052620002a5919081019062001480565b815260005460405160e060020a6334a968d7028152602090920191600160a060020a03909116906334a968d790620002e290879060040162001561565b60206040518083038186803b158015620002fb57600080fd5b505afa15801562000310573d6000803e3d6000fd5b505050506040513d601f19601f8201168201806040525081019062000336919062001254565b600160a060020a03166324db757f6040518163ffffffff1660e060020a02815260040160006040518083038186803b1580156200037257600080fd5b505afa15801562000387573d6000803e3d6000fd5b505050506040513d6000823e601f3d908101601f19168201604052620003b1919081019062001480565b905292915050565b6001546040805160e260020a632b7e5f9f0281529051606092600160a060020a03169163adf97e7c916004808301926000929190829003018186803b1580156200040257600080fd5b505afa15801562000417573d6000803e3d6000fd5b505060005460405160e060020a6334a968d7028152600160a060020a0390911692506334a968d791506200045090339060040162001561565b60206040518083038186803b1580156200046957600080fd5b505afa1580156200047e573d6000803e3d6000fd5b505050506040513d601f19601f82011682018060405250810190620004a4919062001254565b600160a060020a031663363c80aa6040518163ffffffff1660e060020a02815260040160006040518083038186803b158015620004e057600080fd5b505afa158015620004f5573d6000803e3d6000fd5b505050506040513d6000823e601f3d908101601f191682016040526200051f919081019062001391565b905090565b60015460405160e060020a63ef8a085f0281528291600160a060020a03169063ef8a085f90620005599084906004016200158f565b60006040518083038186803b1580156200057257600080fd5b505afa15801562000587573d6000803e3d6000fd5b5050505060008054906101000a9004600160a060020a0316600160a060020a031663f552dec883868587604051620005bf9062001177565b620005cd93929190620016df565b604051809103906000f080158015620005ea573d6000803e3d6000fd5b506040518363ffffffff1660e060020a0281526004016200060d92919062001575565b600060405180830381600087803b1580156200062857600080fd5b505af11580156200063d573d6000803e3d6000fd5b505060005460405160e060020a6334a968d7028152600160a060020a0390911692506334a968d791506200067690859060040162001561565b60206040518083038186803b1580156200068f57600080fd5b505afa158015620006a4573d6000803e3d6000fd5b505050506040513d601f19601f82011682018060405250810190620006ca919062001254565b600160a060020a031663ded15aaf856040518263ffffffff1660e060020a028152600401620006fa9190620016ca565b600060405180830381600087803b1580156200071557600080fd5b505af11580156200072a573d6000803e3d6000fd5b505060005460405160e060020a6334a968d7028152600160a060020a0390911692506334a968d791506200076390859060040162001561565b60206040518083038186803b1580156200077c57600080fd5b505afa15801562000791573d6000803e3d6000fd5b505050506040513d601f19601f82011682018060405250810190620007b7919062001254565b600160a060020a031663086c32e5846040518263ffffffff1660e060020a028152600401620007e79190620016ca565b600060405180830381600087803b1580156200080257600080fd5b505af115801562000817573d6000803e3d6000fd5b505050507fd45ae22609b069966902bc4e4a5320e914bebb724665919b4a674bb6e3acd0c4848484604051620008509392919062001721565b60405180910390a150505050565b600160009054906101000a9004600160a060020a0316600160a060020a031663738833fb6040518163ffffffff1660e060020a02815260040160006040518083038186803b158015620008b057600080fd5b505afa158015620008c5573d6000803e3d6000fd5b5050505060008054906101000a9004600160a060020a0316600160a060020a031663f552dec882858486604051620008fd9062001177565b6200090b93929190620016df565b604051809103906000f08015801562000928573d6000803e3d6000fd5b506040518363ffffffff1660e060020a0281526004016200094b92919062001575565b600060405180830381600087803b1580156200096657600080fd5b505af11580156200097b573d6000803e3d6000fd5b505060015460405160e360020a631cbf05f9028152600160a060020a03909116925063e5f82fc89150620009b490849060040162001764565b600060405180830381600087803b158015620009cf57600080fd5b505af1158015620009e4573d6000803e3d6000fd5b505050507fc0bf761bab03f0ace87d44f1cafb9a354a731c0068428df38a4c236ba2b6e5aa83838360405162000a1d9392919062001721565b60405180910390a1505050565b600160009054906101000a9004600160a060020a0316600160a060020a031663adf97e7c6040518163ffffffff1660e060020a02815260040160006040518083038186803b15801562000a7c57600080fd5b505afa15801562000a91573d6000803e3d6000fd5b505060005460405160e060020a6334a968d7028152600160a060020a0390911692506334a968d7915062000aca90339060040162001561565b60206040518083038186803b15801562000ae357600080fd5b505afa15801562000af8573d6000803e3d6000fd5b505050506040513d601f19601f8201168201806040525081019062000b1e919062001254565b600160a060020a03166338be48b4826040518263ffffffff1660e060020a02815260040162000b4e9190620016ca565b600060405180830381600087803b15801562000b6957600080fd5b505af115801562000b7e573d6000803e3d6000fd5b505050507f700e72ff57e14a5c8eec5ce668a965fc657b34e78be8b3b2c9f348860c64a15a8160405162000bb39190620016ca565b60405180910390a150565b60005460405160e060020a6334a968d7028152606091600160a060020a0316906334a968d79062000bf490859060040162001561565b60206040518083038186803b15801562000c0d57600080fd5b505afa15801562000c22573d6000803e3d6000fd5b505050506040513d601f19601f8201168201806040525081019062000c48919062001254565b600160a060020a031663c95171ae6040518163ffffffff1660e060020a02815260040160006040518083038186803b15801562000c8457600080fd5b505afa15801562000c99573d6000803e3d6000fd5b505050506040513d6000823e601f3d908101601f1916820160405262000cc39190810190620012ee565b92915050565b600160009054906101000a9004600160a060020a0316600160a060020a031663adf97e7c6040518163ffffffff1660e060020a02815260040160006040518083038186803b15801562000d1b57600080fd5b505afa15801562000d30573d6000803e3d6000fd5b505060005460405160e060020a6310c5f025028152600160a060020a0390911692506310c5f025915062000d6990869060040162001561565b60206040518083038186803b15801562000d8257600080fd5b505afa15801562000d97573d6000803e3d6000fd5b505050506040513d601f19601f8201168201806040525081019062000dbd919062001254565b600160a060020a0316632c7ac18f836040518263ffffffff1660e060020a02815260040162000ded9190620016ca565b600060405180830381600087803b15801562000e0857600080fd5b505af115801562000e1d573d6000803e3d6000fd5b505060005460405160e060020a6334a968d7028152600160a060020a0390911692506334a968d7915062000e5690339060040162001561565b60206040518083038186803b15801562000e6f57600080fd5b505afa15801562000e84573d6000803e3d6000fd5b505050506040513d601f19601f8201168201806040525081019062000eaa919062001254565b600160a060020a03166352c07a9d826040518263ffffffff1660e060020a02815260040162000eda9190620016ca565b600060405180830381600087803b15801562000ef557600080fd5b505af115801562000f0a573d6000803e3d6000fd5b50505050505050565b60015460405160e060020a63ef8a085f0281528291600160a060020a03169063ef8a085f9062000f489084906004016200158f565b60006040518083038186803b15801562000f6157600080fd5b505afa15801562000f76573d6000803e3d6000fd5b505060005460405160e160020a633bfb49c9028152600160a060020a0390911692506377f69392915062000faf90859060040162001561565b600060405180830381600087803b15801562000fca57600080fd5b505af115801562000fdf573d6000803e3d6000fd5b505060015460405160e060020a638dd19969028152600160a060020a039091169250638dd1996991506200101890859060040162001764565b600060405180830381600087803b1580156200103357600080fd5b505af115801562001048573d6000803e3d6000fd5b505050507ff20aeec924b4130fcc6a8f323517a73d2e1b5c2d22e67af69c75a888db141d52826040516200107d919062001561565b60405180910390a15050565b60005460405160e060020a6334a968d7028152606091600160a060020a0316906334a968d790620010bf90859060040162001561565b60206040518083038186803b158015620010d857600080fd5b505afa158015620010ed573d6000803e3d6000fd5b505050506040513d601f19601f8201168201806040525081019062001113919062001254565b600160a060020a031663679a131a6040518163ffffffff1660e060020a02815260040160006040518083038186803b15801562000c8457600080fd5b60405180604001604052806002905b60608152602001906001900390816200115e5790505090565b6111c3806200187683390190565b600082601f83011262001196578081fd5b8135620011ad620011a782620017e5565b6200178c565b818152846020838601011115620011c2578283fd5b816020850160208301379081016020019190915292915050565b600082601f830112620011ed578081fd5b8151620011fe620011a782620017e5565b81815284602083860101111562001213578283fd5b620012268260208301602087016200180f565b949350505050565b60006020828403121562001240578081fd5b81356200124d816200185c565b9392505050565b60006020828403121562001266578081fd5b81516200124d816200185c565b60008060006060848603121562001288578182fd5b833562001295816200185c565b925060208401356001604060020a0380821115620012b1578384fd5b620012bf8783880162001185565b93506040860135915080821115620012d5578283fd5b50620012e48682870162001185565b9150509250925092565b6000602080838503121562001301578182fd5b82516001604060020a0381111562001317578283fd5b8301601f8101851362001328578283fd5b805162001339620011a782620017bf565b818152838101908385018584028501860189101562001356578687fd5b8694505b838510156200138557805162001370816200185c565b8352600194909401939185019185016200135a565b50979650505050505050565b60006020808385031215620013a4578182fd5b82516001604060020a0380821115620013bb578384fd5b818501915085601f830112620013cf578384fd5b8151620013e0620011a782620017bf565b81815284810190848601868402860187018a1015620013fd578788fd5b875b848110156200143b578151868111156200141757898afd5b620014278c8a838b0101620011dc565b8552509287019290870190600101620013ff565b50909998505050505050505050565b6000602082840312156200145c578081fd5b81356001604060020a0381111562001472578182fd5b620012268482850162001185565b60006020828403121562001492578081fd5b81516001604060020a03811115620014a8578182fd5b6200122684828501620011dc565b600080600060608486031215620014cb578283fd5b83356001604060020a0380821115620014e2578485fd5b620014f08783880162001185565b9450602086013591508082111562001506578384fd5b50620015158682870162001185565b925050604084013562001528816200185c565b809150509250925092565b600081518084526200154d8160208601602086016200180f565b601f01601f19169290920160200192915050565b600160a060020a0391909116815260200190565b600160a060020a0392831681529116602082015260400190565b600160a060020a0391909116815260406020820181905260089082015260c260020a671213d4d41255105302606082015260800190565b6020808252825182820181905260009190848201906040850190845b8181101562001609578351600160a060020a031683529284019291840191600101620015e2565b50909695505050505050565b60208082526000906060830183820185845b60028110156200165a57601f198785030183526200164784835162001533565b9350918401919084019060010162001627565b50919695505050505050565b6000602080830181845280855180835260408601915060408482028701019250838701855b82811015620016bd57603f19888603018452620016aa85835162001533565b945092850192908501906001016200168b565b5092979650505050505050565b6020815260006200124d602083018462001533565b606081526000620016f4606083018662001533565b600160a060020a0385166020840152828103604084015262001717818562001533565b9695505050505050565b60608152600062001736606083018662001533565b82810360208401526200174a818662001533565b915050600160a060020a0383166040830152949350505050565b60c260020a671213d4d412551053028152600160a060020a0391909116602082015260400190565b604051601f8201601f191681016001604060020a0381118282101715620017b757620017b762001842565b604052919050565b60006001604060020a03821115620017db57620017db62001842565b5060209081020190565b60006001604060020a0382111562001801576200180162001842565b50601f01601f191660200190565b60005b838110156200182c57818101518382015260200162001812565b838111156200183c576000848401525b50505050565b60e060020a634e487b710260009081526041600452602490fd5b600160a060020a03811681146200187257600080fd5b5056fe60806040523480156200001157600080fd5b50604051620011c3380380620011c38339810160408190526200003491620001dd565b82516200004990600090602086019062000084565b5060018054600160a060020a031916600160a060020a03841617905580516200007a90600290602084019062000084565b50505050620002e9565b828054620000929062000264565b90600052602060002090601f016020900481019282620000b6576000855562000101565b82601f10620000d157805160ff191683800117855562000101565b8280016001018555821562000101579182015b8281111562000101578251825591602001919060010190620000e4565b506200010f92915062000113565b5090565b5b808211156200010f576000815560010162000114565b600082601f8301126200013b578081fd5b81516001604060020a0380821115620001585762000158620002ba565b604051601f8301601f19908116603f01168101908282118183101715620001835762000183620002ba565b816040528381526020925086838588010111156200019f578485fd5b8491505b83821015620001c25785820183015181830184015290820190620001a3565b83821115620001d357848385830101525b9695505050505050565b600080600060608486031215620001f2578283fd5b83516001604060020a038082111562000209578485fd5b62000217878388016200012a565b60208701519095509150600160a060020a038216821462000236578384fd5b6040860151919350808211156200024b578283fd5b506200025a868287016200012a565b9150509250925092565b6002810460018216806200027957607f821691505b60208210811415620002b4577f4e487b7100000000000000000000000000000000000000000000000000000000600052602260045260246000fd5b50919050565b7f4e487b7100000000000000000000000000000000000000000000000000000000600052604160045260246000fd5b610eca80620002f96000396000f3fe608060405234801561001057600080fd5b50600436106100de5760e060020a6000350463086c32e581146100e35780631fc72900146100f857806324db757f14610128578063363c80aa1461014657806338be48b41461015b5780634780468f1461016e57806352c07a9d146101e3578063679a131a146101f65780636d263ceb1461020b5780637d0d6257146102805780638f9c79ed1461029357806398fc90e9146102cf578063996440c6146102e2578063c95171ae1461030e578063c98d66c114610316578063ded15aaf1461031e578063e5b8459014610331575b600080fd5b6100f66100f1366004610b9d565b61034c565b005b6100f6610106366004610b6f565b60018054600160a060020a031916600160a060020a0392909216919091179055565b610130610363565b60405161013d9190610ddc565b60405180910390f35b61014e6103f5565b60405161013d9190610d7c565b6100f6610169366004610b9d565b6104ce565b6100f661017c366004610b6f565b6005805460018181019092557f036b6384b5eca791c62761152d0c79bb0604c104a5fb6f4eb0703f3154bb3db0018054600160a060020a03909316600160a060020a031990931683179055600091825260036020526040909120805460ff19169091179055565b6100f66101f1366004610b9d565b610511565b6101fe610651565b60405161013d9190610d2f565b6100f6610219366004610b6f565b6006805460018181019092557ff652222313e28459528d920b65115c16c04f3efc82aaedc97be59f3f377c0d3f018054600160a060020a03909316600160a060020a031990931683179055600091825260046020526040909120805460ff19169091179055565b6100f661028e366004610b6f565b6106b2565b6102bf6102a1366004610b6f565b600160a060020a031660009081526004602052604090205460ff1690565b604051901515815260200161013d565b6100f66102dd366004610b6f565b610829565b6102bf6102f0366004610b6f565b600160a060020a031660009081526003602052604090205460ff1690565b6101fe6109a0565b610130610a00565b6100f661032c366004610b9d565b610a0f565b600154604051600160a060020a03909116815260200161013d565b805161035f906002906020840190610a1e565b5050565b60606002805461037290610e06565b80601f016020809104026020016040519081016040528092919081815260200182805461039e90610e06565b80156103eb5780601f106103c0576101008083540402835291602001916103eb565b820191906000526020600020905b8154815290600101906020018083116103ce57829003601f168201915b5050505050905090565b60606007805480602002602001604051908101604052809291908181526020016000905b828210156104c557838290600052602060002001805461043890610e06565b80601f016020809104026020016040519081016040528092919081815260200182805461046490610e06565b80156104b15780601f10610486576101008083540402835291602001916104b1565b820191906000526020600020905b81548152906001019060200180831161049457829003601f168201915b505050505081526020019060010190610419565b50505050905090565b60078054600181018255600091909152815161035f917fa66cc928b5edb82af9bd49922954155ab7b0942694bea4ce44661d9a8736c68801906020840190610a1e565b60005b60075481101561035f5781805190602001206007828154811061054a5760e060020a634e487b7102600052603260045260246000fd5b906000526020600020016040516105619190610c91565b6040518091039020141561063f576007546001146105fb576007805461058990600190610def565b815481106105aa5760e060020a634e487b7102600052603260045260246000fd5b90600052602060002001600782815481106105d85760e060020a634e487b7102600052603260045260246000fd5b906000526020600020019080546105ee90610e06565b6105f9929190610aa2565b505b600780548061061d5760e060020a634e487b7102600052603160045260246000fd5b6001900381819060005260206000200160006106399190610b1d565b90555050565b8061064981610e45565b915050610514565b606060068054806020026020016040519081016040528092919081815260200182805480156103eb57602002820191906000526020600020905b8154600160a060020a0316815260019091019060200180831161068b575050505050905090565b60005b60065481101561035f5781600160a060020a0316600682815481106106ed5760e060020a634e487b7102600052603260045260246000fd5b600091825260209091200154600160a060020a03161415610817576006546001146107af576006805461072290600190610def565b815481106107435760e060020a634e487b7102600052603260045260246000fd5b60009182526020909120015460068054600160a060020a0390921691839081106107805760e060020a634e487b7102600052603260045260246000fd5b9060005260206000200160006101000a815481600160a060020a030219169083600160a060020a031602179055505b60068054806107d15760e060020a634e487b7102600052603160045260246000fd5b6000828152602080822083016000199081018054600160a060020a0319169055909201909255600160a060020a03841682526004905260409020805460ff191690555050565b8061082181610e45565b9150506106b5565b60005b60055481101561035f5781600160a060020a0316600582815481106108645760e060020a634e487b7102600052603260045260246000fd5b600091825260209091200154600160a060020a0316141561098e57600554600114610926576005805461089990600190610def565b815481106108ba5760e060020a634e487b7102600052603260045260246000fd5b60009182526020909120015460058054600160a060020a0390921691839081106108f75760e060020a634e487b7102600052603260045260246000fd5b9060005260206000200160006101000a815481600160a060020a030219169083600160a060020a031602179055505b60058054806109485760e060020a634e487b7102600052603160045260246000fd5b6000828152602080822083016000199081018054600160a060020a0319169055909201909255600160a060020a03841682526003905260409020805460ff191690555050565b8061099881610e45565b91505061082c565b606060058054806020026020016040519081016040528092919081815260200182805480156103eb57602002820191906000526020600020908154600160a060020a0316815260019091019060200180831161068b575050505050905090565b60606000805461037290610e06565b805161035f9060009060208401905b828054610a2a90610e06565b90600052602060002090601f016020900481019282610a4c5760008555610a92565b82601f10610a6557805160ff1916838001178555610a92565b82800160010185558215610a92579182015b82811115610a92578251825591602001919060010190610a77565b50610a9e929150610b5a565b5090565b828054610aae90610e06565b90600052602060002090601f016020900481019282610ad05760008555610a92565b82601f10610ae15780548555610a92565b82800160010185558215610a9257600052602060002091601f016020900482015b82811115610a92578254825591600101919060010190610b02565b508054610b2990610e06565b6000825580601f10610b39575050565b601f016020900490600052602060002090810190610b579190610b5a565b50565b5b80821115610a9e5760008155600101610b5b565b600060208284031215610b80578081fd5b8135600160a060020a0381168114610b96578182fd5b9392505050565b600060208284031215610bae578081fd5b81356001604060020a0380821115610bc4578283fd5b818401915084601f830112610bd7578283fd5b813581811115610be957610be9610e7a565b604051601f8201601f19908116603f01168101908382118183101715610c1157610c11610e7a565b81604052828152876020848701011115610c29578586fd5b826020860160208301379182016020019490945295945050505050565b60008151808452815b81811015610c6b57602081850181015186830182015201610c4f565b81811115610c7c5782602083870101525b50601f01601f19169290920160200192915050565b8154600090819060028104600180831680610cad57607f831692505b6020808410821415610cd05760e060020a634e487b710287526022600452602487fd5b818015610ce45760018114610cf557610d21565b60ff19861689528489019650610d21565b60008a815260209020885b86811015610d195781548b820152908501908301610d00565b505084890196505b509498975050505050505050565b6020808252825182820181905260009190848201906040850190845b81811015610d70578351600160a060020a031683529284019291840191600101610d4b565b50909695505050505050565b6000602080830181845280855180835260408601915060408482028701019250838701855b82811015610dcf57603f19888603018452610dbd858351610c46565b94509285019290850190600101610da1565b5092979650505050505050565b602081526000610b966020830184610c46565b600082821015610e0157610e01610e60565b500390565b600281046001821680610e1a57607f821691505b60208210811415610e3f5760e060020a634e487b710260009081526022600452602490fd5b50919050565b6000600019821415610e5957610e59610e60565b5060010190565b60e060020a634e487b710260009081526011600452602490fd5b60e060020a634e487b710260009081526041600452602490fdfea2646970667358221220aa4e3fd20c10df7682d9ee9e4a7ca04580e92524fbc8339a54f1a49e78e81a2964736f6c63430008040033a26469706673582212203b4ebd1b4b78d64c394255dc104058d139bfb531af2b2cdbd73af108419aee0e64736f6c63430008040033",
  "linkReferences": {},
  "deployedLinkReferences": {}
}