{
  "_format": "hh-sol-artifact-1",
  "contractName": "DHRMS",
  "sourceName": "contracts/Main.sol",
  "abi": [
    {
      "inputs": [
        {
          "internalType": "string",
          "name": "_officeName",
          "type": "string"
        },
        {
          "internalType": "string",
          "name": "_phoneNumber",
          "type": "string"
        },
        {
          "internalType": "address",
          "name": "_RBAC_CONTRACT_ADDRESS",
          "type": "address"
        }
      ],
      "stateMutability": "nonpayable",
      "type": "constructor"
    },
    {
      "anonymous": false,
      "inputs": [
        {
          "indexed": false,
          "internalType": "string",
          "name": "_doctorName",
          "type": "string"
        },
        {
          "indexed": false,
          "internalType": "string",
          "name": "_phoneNumber",
          "type": "string"
        },
        {
          "indexed": false,
          "internalType": "string",
          "name": "_qualification",
          "type": "string"
        },
        {
          "indexed": false,
          "internalType": "string",
          "name": "_photo",
          "type": "string"
        },
        {
          "indexed": false,
          "internalType": "string",
          "name": "_dob",
          "type": "string"
        },
        {
          "indexed": false,
          "internalType": "address",
          "name": "_HID",
          "type": "address"
        },
        {
          "indexed": false,
          "internalType": "address",
          "name": "_DID",
          "type": "address"
        },
        {
          "indexed": false,
          "internalType": "string",
          "name": "_department",
          "type": "string"
        }
      ],
      "name": "newDoctor",
      "type": "event"
    },
    {
      "anonymous": false,
      "inputs": [
        {
          "indexed": false,
          "internalType": "string",
          "name": "HospitalName",
          "type": "string"
        },
        {
          "indexed": false,
          "internalType": "string",
          "name": "ph_no",
          "type": "string"
        },
        {
          "indexed": false,
          "internalType": "address",
          "name": "HID",
          "type": "address"
        }
      ],
      "name": "newHospital",
      "type": "event"
    },
    {
      "anonymous": false,
      "inputs": [
        {
          "indexed": false,
          "internalType": "string",
          "name": "officeName",
          "type": "string"
        },
        {
          "indexed": false,
          "internalType": "string",
          "name": "_phoneNumber",
          "type": "string"
        },
        {
          "indexed": false,
          "internalType": "address",
          "name": "_GID",
          "type": "address"
        }
      ],
      "name": "newOffice",
      "type": "event"
    },
    {
      "anonymous": false,
      "inputs": [
        {
          "indexed": false,
          "internalType": "string",
          "name": "_details",
          "type": "string"
        },
        {
          "indexed": false,
          "internalType": "address",
          "name": "_PID",
          "type": "address"
        }
      ],
      "name": "newPatient",
      "type": "event"
    },
    {
      "anonymous": false,
      "inputs": [
        {
          "indexed": false,
          "internalType": "address",
          "name": "_DID",
          "type": "address"
        }
      ],
      "name": "newReadAccess",
      "type": "event"
    },
    {
      "anonymous": false,
      "inputs": [
        {
          "indexed": false,
          "internalType": "string",
          "name": "_record",
          "type": "string"
        }
      ],
      "name": "newRecordForUpload",
      "type": "event"
    },
    {
      "anonymous": false,
      "inputs": [
        {
          "indexed": false,
          "internalType": "string",
          "name": "_record",
          "type": "string"
        }
      ],
      "name": "newRecordForUploadH",
      "type": "event"
    },
    {
      "anonymous": false,
      "inputs": [
        {
          "indexed": false,
          "internalType": "address",
          "name": "_HID",
          "type": "address"
        }
      ],
      "name": "newWriteAccess",
      "type": "event"
    },
    {
      "anonymous": false,
      "inputs": [
        {
          "indexed": false,
          "internalType": "address",
          "name": "_DID",
          "type": "address"
        }
      ],
      "name": "removeReadAccessDoctor",
      "type": "event"
    },
    {
      "anonymous": false,
      "inputs": [
        {
          "indexed": false,
          "internalType": "address",
          "name": "_HID",
          "type": "address"
        }
      ],
      "name": "removeWriteAccessHospital",
      "type": "event"
    },
    {
      "inputs": [
        {
          "internalType": "string",
          "name": "_doctorName",
          "type": "string"
        },
        {
          "internalType": "string",
          "name": "_phoneNumber",
          "type": "string"
        },
        {
          "internalType": "string",
          "name": "_qualification",
          "type": "string"
        },
        {
          "internalType": "string",
          "name": "_photo",
          "type": "string"
        },
        {
          "internalType": "string",
          "name": "_dob",
          "type": "string"
        },
        {
          "internalType": "address",
          "name": "_HID",
          "type": "address"
        },
        {
          "internalType": "address",
          "name": "_DID",
          "type": "address"
        },
        {
          "internalType": "string",
          "name": "_department",
          "type": "string"
        }
      ],
      "name": "addDoctor",
      "outputs": [],
      "stateMutability": "nonpayable",
      "type": "function"
    },
    {
      "inputs": [
        {
          "internalType": "string",
          "name": "_officeName",
          "type": "string"
        },
        {
          "internalType": "string",
          "name": "_phoneNumber",
          "type": "string"
        },
        {
          "internalType": "address",
          "name": "_GID",
          "type": "address"
        }
      ],
      "name": "addGovernmentOffice",
      "outputs": [],
      "stateMutability": "nonpayable",
      "type": "function"
    },
    {
      "inputs": [
        {
          "internalType": "string",
          "name": "_hospitalName",
          "type": "string"
        },
        {
          "internalType": "string",
          "name": "_phoneNumber",
          "type": "string"
        },
        {
          "internalType": "address",
          "name": "_HID",
          "type": "address"
        }
      ],
      "name": "addHospital",
      "outputs": [],
      "stateMutability": "nonpayable",
      "type": "function"
    },
    {
      "inputs": [
        {
          "internalType": "string",
          "name": "_details",
          "type": "string"
        },
        {
          "internalType": "address",
          "name": "_PID",
          "type": "address"
        }
      ],
      "name": "addPatient",
      "outputs": [],
      "stateMutability": "nonpayable",
      "type": "function"
    },
    {
      "inputs": [
        {
          "internalType": "address",
          "name": "_DID",
          "type": "address"
        }
      ],
      "name": "getDoctorDetails",
      "outputs": [
        {
          "internalType": "string[6]",
          "name": "",
          "type": "string[6]"
        }
      ],
      "stateMutability": "view",
      "type": "function"
    },
    {
      "inputs": [
        {
          "internalType": "address",
          "name": "_DID",
          "type": "address"
        }
      ],
      "name": "getDoctorH",
      "outputs": [
        {
          "internalType": "address",
          "name": "",
          "type": "address"
        }
      ],
      "stateMutability": "view",
      "type": "function"
    },
    {
      "inputs": [
        {
          "internalType": "address",
          "name": "_PID",
          "type": "address"
        }
      ],
      "name": "getDoctorsList",
      "outputs": [
        {
          "internalType": "address[]",
          "name": "",
          "type": "address[]"
        }
      ],
      "stateMutability": "view",
      "type": "function"
    },
    {
      "inputs": [
        {
          "internalType": "address",
          "name": "_GID",
          "type": "address"
        }
      ],
      "name": "getGovernmentDetails",
      "outputs": [
        {
          "internalType": "string[2]",
          "name": "",
          "type": "string[2]"
        }
      ],
      "stateMutability": "view",
      "type": "function"
    },
    {
      "inputs": [
        {
          "internalType": "address",
          "name": "_HID",
          "type": "address"
        }
      ],
      "name": "getHospitalDetails",
      "outputs": [
        {
          "internalType": "string[2]",
          "name": "",
          "type": "string[2]"
        }
      ],
      "stateMutability": "view",
      "type": "function"
    },
    {
      "inputs": [
        {
          "internalType": "address",
          "name": "_HID",
          "type": "address"
        }
      ],
      "name": "getHospitalDoctorList",
      "outputs": [
        {
          "internalType": "address[]",
          "name": "",
          "type": "address[]"
        }
      ],
      "stateMutability": "view",
      "type": "function"
    },
    {
      "inputs": [
        {
          "internalType": "address",
          "name": "_HID",
          "type": "address"
        }
      ],
      "name": "getHospitalPatientList",
      "outputs": [
        {
          "internalType": "address[]",
          "name": "",
          "type": "address[]"
        }
      ],
      "stateMutability": "view",
      "type": "function"
    },
    {
      "inputs": [
        {
          "internalType": "address",
          "name": "_PID",
          "type": "address"
        }
      ],
      "name": "getHospitalsList",
      "outputs": [
        {
          "internalType": "address[]",
          "name": "",
          "type": "address[]"
        }
      ],
      "stateMutability": "view",
      "type": "function"
    },
    {
      "inputs": [
        {
          "internalType": "address",
          "name": "_PID",
          "type": "address"
        }
      ],
      "name": "getPatientDetails",
      "outputs": [
        {
          "internalType": "string",
          "name": "",
          "type": "string"
        }
      ],
      "stateMutability": "view",
      "type": "function"
    },
    {
      "inputs": [
        {
          "internalType": "address",
          "name": "_PID",
          "type": "address"
        }
      ],
      "name": "getPatientDetailsForGov",
      "outputs": [
        {
          "internalType": "string",
          "name": "",
          "type": "string"
        }
      ],
      "stateMutability": "view",
      "type": "function"
    },
    {
      "inputs": [
        {
          "internalType": "address",
          "name": "_DID",
          "type": "address"
        }
      ],
      "name": "getPatientList",
      "outputs": [
        {
          "internalType": "address[]",
          "name": "",
          "type": "address[]"
        }
      ],
      "stateMutability": "view",
      "type": "function"
    },
    {
      "inputs": [
        {
          "internalType": "address",
          "name": "_PID",
          "type": "address"
        }
      ],
      "name": "getRecordsHistory",
      "outputs": [
        {
          "internalType": "string[]",
          "name": "",
          "type": "string[]"
        }
      ],
      "stateMutability": "view",
      "type": "function"
    },
    {
      "inputs": [],
      "name": "getUploadQueue",
      "outputs": [
        {
          "internalType": "string[]",
          "name": "",
          "type": "string[]"
        }
      ],
      "stateMutability": "view",
      "type": "function"
    },
    {
      "inputs": [
        {
          "internalType": "address",
          "name": "_DID",
          "type": "address"
        }
      ],
      "name": "giveReadAccess",
      "outputs": [],
      "stateMutability": "nonpayable",
      "type": "function"
    },
    {
      "inputs": [
        {
          "internalType": "address",
          "name": "_HID",
          "type": "address"
        }
      ],
      "name": "giveWriteAccess",
      "outputs": [],
      "stateMutability": "nonpayable",
      "type": "function"
    },
    {
      "inputs": [
        {
          "internalType": "address",
          "name": "_DID",
          "type": "address"
        }
      ],
      "name": "removeReadAccess",
      "outputs": [],
      "stateMutability": "nonpayable",
      "type": "function"
    },
    {
      "inputs": [
        {
          "internalType": "address",
          "name": "_HID",
          "type": "address"
        }
      ],
      "name": "removeWriteAccess",
      "outputs": [],
      "stateMutability": "nonpayable",
      "type": "function"
    },
    {
      "inputs": [
        {
          "internalType": "address",
          "name": "_PID",
          "type": "address"
        },
        {
          "internalType": "string",
          "name": "_record",
          "type": "string"
        },
        {
          "internalType": "string",
          "name": "_CID",
          "type": "string"
        }
      ],
      "name": "reportUploaded",
      "outputs": [],
      "stateMutability": "nonpayable",
      "type": "function"
    },
    {
      "inputs": [
        {
          "internalType": "string",
          "name": "_record",
          "type": "string"
        }
      ],
      "name": "sendRecordsForUpload",
      "outputs": [],
      "stateMutability": "nonpayable",
      "type": "function"
    },
    {
      "inputs": [
        {
          "internalType": "string",
          "name": "_record",
          "type": "string"
        }
      ],
      "name": "sendRecordsForUploadH",
      "outputs": [],
      "stateMutability": "nonpayable",
      "type": "function"
    },
    {
      "inputs": [
        {
          "internalType": "string",
          "name": "_officeName",
          "type": "string"
        },
        {
          "internalType": "string",
          "name": "_phoneNumber",
          "type": "string"
        },
        {
          "internalType": "address",
          "name": "_GID",
          "type": "address"
        }
      ],
      "name": "updateGovernmentDetails",
      "outputs": [],
      "stateMutability": "nonpayable",
      "type": "function"
    },
    {
      "inputs": [
        {
          "internalType": "string",
          "name": "_hospitalName",
          "type": "string"
        },
        {
          "internalType": "string",
          "name": "_phoneNumber",
          "type": "string"
        },
        {
          "internalType": "address",
          "name": "_HID",
          "type": "address"
        }
      ],
      "name": "updateHospitalDetails",
      "outputs": [],
      "stateMutability": "nonpayable",
      "type": "function"
    },
    {
      "inputs": [
        {
          "internalType": "string",
          "name": "_details",
          "type": "string"
        },
        {
          "internalType": "address",
          "name": "_PID",
          "type": "address"
        }
      ],
      "name": "updatePatientDetails",
      "outputs": [],
      "stateMutability": "nonpayable",
      "type": "function"
    }
  ],
  "bytecode": "0x60806040523480156200001157600080fd5b506040516200697738038062006977833981016040819052620000349162000153565b8282336040516200004590620000b6565b62000053939291906200020a565b604051809103906000f08015801562000070573d6000803e3d6000fd5b503360009081526003602052604090208054600160a060020a03928316600160a060020a0319918216179091556004805493909216921691909117905550620002af9050565b610714806200626383390190565b600082601f830112620000d5578081fd5b81516001604060020a0380821115620000f257620000f262000280565b604051601f8301601f19908116603f011681019082821181831017156200011d576200011d62000280565b8160405283815286602085880101111562000136578485fd5b620001498460208301602089016200024d565b9695505050505050565b60008060006060848603121562000168578283fd5b83516001604060020a03808211156200017f578485fd5b6200018d87838801620000c4565b94506020860151915080821115620001a3578384fd5b50620001b286828701620000c4565b60408601519093509050600160a060020a0381168114620001d1578182fd5b809150509250925092565b60008151808452620001f68160208601602086016200024d565b601f01601f19169290920160200192915050565b6060815260006200021f6060830186620001dc565b8281036020840152620002338186620001dc565b915050600160a060020a0383166040830152949350505050565b60005b838110156200026a57818101518382015260200162000250565b838111156200027a576000848401525b50505050565b7f4e487b7100000000000000000000000000000000000000000000000000000000600052604160045260246000fd5b615fa480620002bf6000396000f3fe60806040523480156200001157600080fd5b5060043610620001695760e060020a60003504630bb307a881146200016e5780630d339ad2146200019d57806313fa053514620001b657806322f544c914620001cd5780632a386d1914620001f35780632cdc57e3146200020a578063363c80aa146200022157806346aa9be8146200023a5780634dd3bc06146200025157806351d9ab381462000277578063583c9804146200028e5780635fe51ad514620002a5578063666ac06d14620002bc5780637228c27414620002d35780637aa8074014620002f95780638bd8747514620003105780639c9113091462000327578063a09bc91f146200033e578063a726065f1462000355578063af0611b0146200036c578063b39a225d1462000383578063b8eb6d1c146200039a578063bab90dbd14620003b1578063d18dbe2514620003d7578063efe2ccc114620003ee578063eff172a01462000405578063fe53ca99146200041c575b600080fd5b620001856200017f36600462002121565b62000433565b60405162000194919062002655565b60405180910390f35b620001b4620001ae36600462002420565b6200057d565b005b620001b4620001c736600462002121565b620006aa565b620001e4620001de36600462002121565b620007df565b604051620001949190620025f2565b620001b4620002043660046200249d565b62000876565b620001b46200021b36600462002420565b620009b8565b6200022b62000a41565b604051620001949190620026eb565b620001b46200024b36600462002420565b62000ae1565b620002686200026236600462002121565b62000b31565b6040516200019491906200274f565b620001b46200028836600462002420565b62000bd4565b620001b46200029f3660046200235f565b62000cf2565b620001b4620002b63660046200235f565b62000e40565b620001b4620002cd36600462002121565b62000ef2565b620002ea620002e436600462002121565b6200101c565b60405162000194919062002606565b620001b46200030a36600462002121565b620010b1565b620001b462000321366004620023cb565b620011db565b620002ea6200033836600462002121565b620012f4565b620001b46200034f36600462002166565b6200134a565b620002ea6200036636600462002121565b6200140f565b6200022b6200037d36600462002121565b62001465565b620002ea6200039436600462002121565b620014fa565b62000185620003ab36600462002121565b62001550565b620003c8620003c236600462002121565b62001653565b604051620001949190620026a6565b620002ea620003e836600462002121565b620019c3565b62000268620003ff36600462002121565b62001a19565b620001b46200041636600462002121565b62001a6f565b620001b46200042d366004620023cb565b62001b99565b6200043d62001ff0565b60408051808201808352600160a060020a03808616600090815260026020528481205460e060020a63c98d66c102909352935192938493929091169163c98d66c19160448086019290818703018186803b1580156200049b57600080fd5b505afa158015620004b0573d6000803e3d6000fd5b505050506040513d6000823e601f3d908101601f19168201604052620004da919081019062002395565b8152600160a060020a03808516600090815260026020908152604080832054815160e060020a6324db757f02815291519290950194909316926324db757f926004808301939192829003018186803b1580156200053657600080fd5b505afa1580156200054b573d6000803e3d6000fd5b505050506040513d6000823e601f3d908101601f1916820160405262000575919081019062002395565b905292915050565b6200058762001c1f565b828282604051620005989062002018565b620005a69392919062002805565b604051809103906000f080158015620005c3573d6000803e3d6000fd5b50600160a060020a03828116600081815260036020526040908190208054600160a060020a0319169484169490941790935560048054935160e360020a631cbf05f902815260b260020a6911d3d5915493935153950291810191909152602481019190915291169063e5f82fc890604401600060405180830381600087803b1580156200064f57600080fd5b505af115801562000664573d6000803e3d6000fd5b505050507f5a221f2af3823dc4e865f47eb777fd1098e90f3302646b66d2001149303a0fae8383836040516200069d9392919062002805565b60405180910390a1505050565b620006b462001d03565b336000908152602081905260409081902054905160e060020a634780468f028152600160a060020a0390911690634780468f90620006f7908490600401620025f2565b600060405180830381600087803b1580156200071257600080fd5b505af115801562000727573d6000803e3d6000fd5b505050600160a060020a038083166000908152600160205260409081902054905160e060020a636d263ceb02815291169150636d263ceb906200076f903390600401620025f2565b600060405180830381600087803b1580156200078a57600080fd5b505af11580156200079f573d6000803e3d6000fd5b505050507f53a5d5073445924f6f0ab5d28be5957021597716e4ce5287d530b44d9e1bd79581604051620007d49190620025f2565b60405180910390a150565b600160a060020a03808216600090815260016020908152604080832054815160e160020a630c3b4ea30281529151939416926318769d4692600480840193919291829003018186803b1580156200083557600080fd5b505afa1580156200084a573d6000803e3d6000fd5b505050506040513d601f19601f8201168201806040525081019062000870919062002147565b92915050565b6200088062001c1f565b8787878787878787604051620008969062002026565b620008a998979695949392919062002848565b604051809103906000f080158015620008c6573d6000803e3d6000fd5b50600160a060020a03838116600081815260016020526040908190208054600160a060020a0319169484169490941790935560048054935160e360020a631cbf05f902815260d160020a652227a1aa27a90291810191909152602481019190915291169063e5f82fc890604401600060405180830381600087803b1580156200094e57600080fd5b505af115801562000963573d6000803e3d6000fd5b505050507f7ac1eb3e2fa678a2606f7b6f7a51be798e4818cb448cb2e2ed79b10542bc7cb08888888888888888604051620009a698979695949392919062002848565b60405180910390a15050505050505050565b620009c262001c1f565b600160a060020a038082166000908152600360205260409081902054905160e060020a637071eebb028152911690637071eebb9062000a089086908690600401620027d3565b600060405180830381600087803b15801562000a2357600080fd5b505af115801562000a38573d6000803e3d6000fd5b50505050505050565b606062000a4d62001dd8565b3360009081526002602052604080822054815160e160020a631b1e40550281529151600160a060020a039091169263363c80aa9260048082019391829003018186803b15801562000a9d57600080fd5b505afa15801562000ab2573d6000803e3d6000fd5b505050506040513d6000823e601f3d908101601f1916820160405262000adc919081019062002284565b905090565b62000aeb62001c1f565b600160a060020a038082166000908152600260205260409081902054905160e160020a6324d9fd730281529116906349b3fae69062000a089086908690600401620027d3565b606062000b3d62001c1f565b600160a060020a0380831660009081526020819052604080822054815160e560020a6307ddfc9d028152915193169263fbbf93a092600480840193919291829003018186803b15801562000b9057600080fd5b505afa15801562000ba5573d6000803e3d6000fd5b505050506040513d6000823e601f3d908101601f1916820160405262000870919081019062002395565b919050565b62000bde62001c1f565b82818360405162000bef9062002034565b62000bfd9392919062002791565b604051809103906000f08015801562000c1a573d6000803e3d6000fd5b50600160a060020a03828116600081815260026020526040908190208054600160a060020a0319169484169490941790935560048054935160e360020a631cbf05f902815260c260020a671213d4d4125510530291810191909152602481019190915291169063e5f82fc890604401600060405180830381600087803b15801562000ca457600080fd5b505af115801562000cb9573d6000803e3d6000fd5b505050507fc0bf761bab03f0ace87d44f1cafb9a354a731c0068428df38a4c236ba2b6e5aa8383836040516200069d9392919062002805565b62000cfc62001eae565b33600090815260016020908152604080832054815160e160020a630c3b4ea30281529151600160a060020a03909116926318769d469260048082019391829003018186803b15801562000d4e57600080fd5b505afa15801562000d63573d6000803e3d6000fd5b505050506040513d601f19601f8201168201806040525081019062000d89919062002147565b600160a060020a038082166000908152600260205260409081902054905160e260020a630e2f922d02815292935016906338be48b49062000dcf9085906004016200274f565b600060405180830381600087803b15801562000dea57600080fd5b505af115801562000dff573d6000803e3d6000fd5b505050507f3fed060ecdb2d42b2c9473943537ea7ec330e0d523a03429ed29b0fff6b7e8818260405162000e3491906200274f565b60405180910390a15050565b62000e4a62001dd8565b336000908152600260205260409081902054905160e260020a630e2f922d028152600160a060020a03909116906338be48b49062000e8d9084906004016200274f565b600060405180830381600087803b15801562000ea857600080fd5b505af115801562000ebd573d6000803e3d6000fd5b505050507f700e72ff57e14a5c8eec5ce668a965fc657b34e78be8b3b2c9f348860c64a15a81604051620007d491906200274f565b62000efc62001d03565b336000908152602081905260409081902054905160e060020a6398fc90e9028152600160a060020a03909116906398fc90e99062000f3f908490600401620025f2565b600060405180830381600087803b15801562000f5a57600080fd5b505af115801562000f6f573d6000803e3d6000fd5b505050600160a060020a038083166000908152600160205260409081902054905160e060020a637d0d625702815291169150637d0d62579062000fb7903390600401620025f2565b600060405180830381600087803b15801562000fd257600080fd5b505af115801562000fe7573d6000803e3d6000fd5b505050507f643ced6c3ed4b4f2b12bb31a053be47f35392a7eb3530af0da0f1bd5a3d427bb81604051620007d49190620025f2565b600160a060020a0380821660009081526002602052604080822054815160e160020a6364a8b8d70281529151606094919091169263c95171ae9260048082019391829003018186803b1580156200107257600080fd5b505afa15801562001087573d6000803e3d6000fd5b505050506040513d6000823e601f3d908101601f19168201604052620008709190810190620021e1565b620010bb62001d03565b336000908152602081905260409081902054905160e160020a6354b4c483028152600160a060020a039091169063a969890690620010fe908490600401620025f2565b600060405180830381600087803b1580156200111957600080fd5b505af11580156200112e573d6000803e3d6000fd5b505050600160a060020a038083166000908152600260205260409081902054905160e060020a637d0d625702815291169150637d0d62579062001176903390600401620025f2565b600060405180830381600087803b1580156200119157600080fd5b505af1158015620011a6573d6000803e3d6000fd5b505050507f5bf130f35b955ef046877f1772742e11cd0383e12ede97089d30dc257b6055d881604051620007d49190620025f2565b620011e562001c1f565b8181604051620011f59062002042565b6200120292919062002764565b604051809103906000f0801580156200121f573d6000803e3d6000fd5b50600160a060020a03828116600081815260208190526040908190208054600160a060020a0319169484169490941790935560048054935160e360020a631cbf05f902815260ca60020a66141055125153950291810191909152602481019190915291169063e5f82fc890604401600060405180830381600087803b158015620012a857600080fd5b505af1158015620012bd573d6000803e3d6000fd5b505050507f2cc2297518d2e95f47e8d56a542b31d771111b8005cd026ebb7cd0d9107fbeec828260405162000e3492919062002764565b600160a060020a0380821660009081526001602052604080822054815160e260020a63140ec4d50281529151606094919091169263503b13549260048082019391829003018186803b1580156200107257600080fd5b6200135462001dd8565b600160a060020a038084166000908152602081905260409081902054905160e060020a632c7ac18f028152911690632c7ac18f90620013989084906004016200274f565b600060405180830381600087803b158015620013b357600080fd5b505af1158015620013c8573d6000803e3d6000fd5b5050336000908152600260205260409081902054905160e060020a6352c07a9d028152600160a060020a0390911692506352c07a9d915062000a089085906004016200274f565b600160a060020a0380821660009081526020819052604080822054815160e160020a633ad290cb028152915160609491909116926375a521969260048082019391829003018186803b1580156200107257600080fd5b600160a060020a0380821660009081526020819052604080822054815160e060020a6363c339c3028152915160609491909116926363c339c39260048082019391829003018186803b158015620014bb57600080fd5b505afa158015620014d0573d6000803e3d6000fd5b505050506040513d6000823e601f3d908101601f1916820160405262000870919081019062002284565b600160a060020a0380821660009081526002602052604080822054815160e160020a6333cd098d0281529151606094919091169263679a131a9260048082019391829003018186803b1580156200107257600080fd5b6200155a62001ff0565b60408051808201808352600160a060020a03808616600090815260036020528481205460e160020a631605428b029093529351929384939290911691632c0a85169160448086019290818703018186803b158015620015b857600080fd5b505afa158015620015cd573d6000803e3d6000fd5b505050506040513d6000823e601f3d908101601f19168201604052620015f7919081019062002395565b8152600160a060020a03808516600090815260036020908152604080832054815160e060020a6324db757f02815291519290950194909316926324db757f926004808301939192829003018186803b1580156200053657600080fd5b6200165d62002050565b6040805160c08101808352600160a060020a03808616600090815260016020528481205460e460020a6302796c8f029093529351929384939290911691632796c8f09160c48086019290818703018186803b158015620016bc57600080fd5b505afa158015620016d1573d6000803e3d6000fd5b505050506040513d6000823e601f3d908101601f19168201604052620016fb919081019062002395565b8152600160a060020a03808516600090815260016020908152604080832054815160e060020a632f5319e10281529151929095019490931692632f5319e1926004808301939192829003018186803b1580156200175757600080fd5b505afa1580156200176c573d6000803e3d6000fd5b505050506040513d6000823e601f3d908101601f1916820160405262001796919081019062002395565b8152600160a060020a03808516600090815260016020908152604080832054815160e060020a63ce3dc941028152915192909501949093169263ce3dc941926004808301939192829003018186803b158015620017f257600080fd5b505afa15801562001807573d6000803e3d6000fd5b505050506040513d6000823e601f3d908101601f1916820160405262001831919081019062002395565b8152600160a060020a03808516600090815260016020908152604080832054815160e160020a635976002f028152915192909501949093169263b2ec005e926004808301939192829003018186803b1580156200188d57600080fd5b505afa158015620018a2573d6000803e3d6000fd5b505050506040513d6000823e601f3d908101601f19168201604052620018cc919081019062002395565b8152600160a060020a03808516600090815260016020908152604080832054815160e260020a632fbcc70f028152915192909501949093169263bef31c3c926004808301939192829003018186803b1580156200192857600080fd5b505afa1580156200193d573d6000803e3d6000fd5b505050506040513d6000823e601f3d908101601f1916820160405262001967919081019062002395565b8152600160a060020a03808516600090815260016020908152604080832054815160e060020a6327d2066502815291519290950194909316926327d20665926004808301939192829003018186803b1580156200053657600080fd5b600160a060020a0380821660009081526020819052604080822054815160e160020a6364a8b8d70281529151606094919091169263c95171ae9260048082019391829003018186803b1580156200107257600080fd5b600160a060020a0380821660009081526020819052604080822054815160e560020a6307ddfc9d0281529151606094919091169263fbbf93a09260048082019391829003018186803b15801562000b9057600080fd5b62001a7962001d03565b336000908152602081905260409081902054905160e060020a631b470bc7028152600160a060020a0390911690631b470bc79062001abc908490600401620025f2565b600060405180830381600087803b15801562001ad757600080fd5b505af115801562001aec573d6000803e3d6000fd5b505050600160a060020a038083166000908152600260205260409081902054905160e060020a636d263ceb02815291169150636d263ceb9062001b34903390600401620025f2565b600060405180830381600087803b15801562001b4f57600080fd5b505af115801562001b64573d6000803e3d6000fd5b505050507ff2e80366c255f5b265e62473d0d8bb0434b573ebddcd2f54ea020c53f7e2b40f81604051620007d49190620025f2565b62001ba362001c1f565b600160a060020a038082166000908152602081905260409081902054905160e060020a633e8a8009028152911690633e8a80099062001be79085906004016200274f565b600060405180830381600087803b15801562001c0257600080fd5b505af115801562001c17573d6000803e3d6000fd5b505050505050565b62001c2a3262001f82565b6004805460405160e060020a636c2b04fd028152600160a060020a0390911691636c2b04fd9162001c5e91329101620025f2565b60206040518083038186803b15801562001c7757600080fd5b505afa15801562001c8c573d6000803e3d6000fd5b505050506040513d601f19601f8201168201806040525081019062001cb291906200233d565b62001d015760405160e560020a62461bcd0281526020600482015260146024820152606160020a732932b9ba3934b1ba32b2103a37903ab9b2b939970260448201526064015b60405180910390fd5b565b6004805460405160e060020a638f9c79ed028152600160a060020a0390911691638f9c79ed9162001d3791329101620025f2565b60206040518083038186803b15801562001d5057600080fd5b505afa15801562001d65573d6000803e3d6000fd5b505050506040513d601f19601f8201168201806040525081019062001d8b91906200233d565b62001d015760405160e560020a62461bcd0281526020600482015260166024820152605160020a752932b9ba3934b1ba32b2103a37902820aa24a2a72a1702604482015260640162001cf8565b6004805460405160e060020a63bdf6c673028152600160a060020a039091169163bdf6c6739162001e0c91329101620025f2565b60206040518083038186803b15801562001e2557600080fd5b505afa15801562001e3a573d6000803e3d6000fd5b505050506040513d601f19601f8201168201806040525081019062001e6091906200233d565b62001d015760405160e560020a62461bcd0281526020600482015260176024820152604960020a762932b9ba3934b1ba32b2103a37902427a9a824aa20a61702604482015260640162001cf8565b6004805460405160e160020a634cb22063028152600160a060020a039091169163996440c69162001ee291329101620025f2565b60206040518083038186803b15801562001efb57600080fd5b505afa15801562001f10573d6000803e3d6000fd5b505050506040513d601f19601f8201168201806040525081019062001f3691906200233d565b62001d015760405160e560020a62461bcd0281526020600482015260156024820152605960020a742932b9ba3934b1ba32b2103a37902227a1aa27a91702604482015260640162001cf8565b62001fcc8160405160240162001f999190620025f2565b60408051601f19818403018152919052602081018051600160e060020a031660e160020a63161765e10217905262001fcf565b50565b80516a636f6e736f6c652e6c6f67602083016000808483855afa5050505050565b60405180604001604052806002905b606081526020019060019003908162001fff5790505090565b61071480620029d983390190565b610d7580620030ed83390190565b6112268062003e6283390190565b610ee7806200508883390190565b6040805160c081019091526060815260056020820162001fff565b803562000bcf81620029c2565b600082601f83011262002089578081fd5b8135620020a06200209a826200294b565b620028f2565b818152846020838601011115620020b5578283fd5b816020850160208301379081016020019190915292915050565b600082601f830112620020e0578081fd5b8151620020f16200209a826200294b565b81815284602083860101111562002106578283fd5b6200211982602083016020870162002975565b949350505050565b60006020828403121562002133578081fd5b81356200214081620029c2565b9392505050565b60006020828403121562002159578081fd5b81516200214081620029c2565b6000806000606084860312156200217b578182fd5b83356200218881620029c2565b925060208401356001604060020a0380821115620021a4578384fd5b620021b28783880162002078565b93506040860135915080821115620021c8578283fd5b50620021d78682870162002078565b9150509250925092565b60006020808385031215620021f4578182fd5b82516001604060020a038111156200220a578283fd5b8301601f810185136200221b578283fd5b80516200222c6200209a8262002925565b818152838101908385018584028501860189101562002249578687fd5b8694505b83851015620022785780516200226381620029c2565b8352600194909401939185019185016200224d565b50979650505050505050565b6000602080838503121562002297578182fd5b82516001604060020a0380821115620022ae578384fd5b818501915085601f830112620022c2578384fd5b8151620022d36200209a8262002925565b81815284810190848601868402860187018a1015620022f0578788fd5b875b848110156200232e578151868111156200230a57898afd5b6200231a8c8a838b0101620020cf565b8552509287019290870190600101620022f2565b50909998505050505050505050565b6000602082840312156200234f578081fd5b8151801515811462002140578182fd5b60006020828403121562002371578081fd5b81356001604060020a0381111562002387578182fd5b620021198482850162002078565b600060208284031215620023a7578081fd5b81516001604060020a03811115620023bd578182fd5b6200211984828501620020cf565b60008060408385031215620023de578182fd5b82356001604060020a03811115620023f4578283fd5b620024028582860162002078565b92505060208301356200241581620029c2565b809150509250929050565b60008060006060848603121562002435578283fd5b83356001604060020a03808211156200244c578485fd5b6200245a8783880162002078565b9450602086013591508082111562002470578384fd5b506200247f8682870162002078565b92505060408401356200249281620029c2565b809150509250925092565b600080600080600080600080610100898b031215620024ba578384fd5b88356001604060020a0380821115620024d1578586fd5b620024df8c838d0162002078565b995060208b0135915080821115620024f5578586fd5b620025038c838d0162002078565b985060408b013591508082111562002519578586fd5b620025278c838d0162002078565b975060608b01359150808211156200253d578586fd5b6200254b8c838d0162002078565b965060808b013591508082111562002561578586fd5b6200256f8c838d0162002078565b95506200257f60a08c016200206b565b94506200258f60c08c016200206b565b935060e08b0135915080821115620025a5578283fd5b50620025b48b828c0162002078565b9150509295985092959890939650565b60008151808452620025de81602086016020860162002975565b601f01601f19169290920160200192915050565b600160a060020a0391909116815260200190565b6020808252825182820181905260009190848201906040850190845b8181101562002649578351600160a060020a03168352928401929184019160010162002622565b50909695505050505050565b60208082526000906060830183820185845b60028110156200269a57601f1987850301835262002687848351620025c4565b9350918401919084019060010162002667565b50919695505050505050565b602080825260009060e0830183820185845b60068110156200269a57601f19878503018352620026d8848351620025c4565b93509184019190840190600101620026b8565b6000602080830181845280855180835260408601915060408482028701019250838701855b828110156200274257603f198886030184526200272f858351620025c4565b9450928501929085019060010162002710565b5092979650505050505050565b602081526000620021406020830184620025c4565b604081526000620027796040830185620025c4565b9050600160a060020a03831660208301529392505050565b606081526000620027a66060830186620025c4565b600160a060020a03851660208401528281036040840152620027c98185620025c4565b9695505050505050565b604081526000620027e86040830185620025c4565b8281036020840152620027fc8185620025c4565b95945050505050565b6060815260006200281a6060830186620025c4565b82810360208401526200282e8186620025c4565b915050600160a060020a0383166040830152949350505050565b60006101008083526200285e8184018c620025c4565b9050828103602084015262002874818b620025c4565b905082810360408401526200288a818a620025c4565b90508281036060840152620028a08189620025c4565b90508281036080840152620028b68188620025c4565b600160a060020a0387811660a0860152861660c085015283810360e08501529050620028e38185620025c4565b9b9a5050505050505050505050565b604051601f8201601f191681016001604060020a03811182821017156200291d576200291d620029a8565b604052919050565b60006001604060020a03821115620029415762002941620029a8565b5060209081020190565b60006001604060020a03821115620029675762002967620029a8565b50601f01601f191660200190565b60005b838110156200299257818101518382015260200162002978565b83811115620029a2576000848401525b50505050565b60e060020a634e487b710260009081526041600452602490fd5b600160a060020a038116811462001fcc57600080fdfe608060405234801561001057600080fd5b5060405161071438038061071483398101604081905261002f916101c0565b825161004290600090602086019061007f565b50815161005690600190602085019061007f565b5060028054600160a060020a031916600160a060020a0392909216919091179055506102c49050565b82805461008b90610241565b90600052602060002090601f0160209004810192826100ad57600085556100f3565b82601f106100c657805160ff19168380011785556100f3565b828001600101855582156100f3579182015b828111156100f35782518255916020019190600101906100d8565b506100ff929150610103565b5090565b5b808211156100ff5760008155600101610104565b600082601f830112610128578081fd5b81516001604060020a038082111561014257610142610295565b604051601f8301601f19908116603f0116810190828211818310171561016a5761016a610295565b81604052838152602092508683858801011115610185578485fd5b8491505b838210156101a65785820183015181830184015290820190610189565b838211156101b657848385830101525b9695505050505050565b6000806000606084860312156101d4578283fd5b83516001604060020a03808211156101ea578485fd5b6101f687838801610118565b9450602086015191508082111561020b578384fd5b5061021886828701610118565b60408601519093509050600160a060020a0381168114610236578182fd5b809150509250925092565b60028104600182168061025557607f821691505b6020821081141561028f577f4e487b7100000000000000000000000000000000000000000000000000000000600052602260045260246000fd5b50919050565b7f4e487b7100000000000000000000000000000000000000000000000000000000600052604160045260246000fd5b610441806102d36000396000f3fe608060405234801561001057600080fd5b506004361061005a5760e060020a600035046324db757f811461005f5780632c0a85161461007d5780637071eebb14610085578063d665b2981461009a578063d67c2da3146100ca575b600080fd5b6100676100e5565b604051610074919061035f565b60405180910390f35b610067610177565b6100986100933660046102ff565b610186565b005b6100986100a83660046102d1565b60028054600160a060020a031916600160a060020a0392909216919091179055565b600254604051600160a060020a039091168152602001610074565b6060600180546100f4906103b2565b80601f0160208091040260200160405190810160405280929190818152602001828054610120906103b2565b801561016d5780601f106101425761010080835404028352916020019161016d565b820191906000526020600020905b81548152906001019060200180831161015057829003601f168201915b5050505050905090565b6060600080546100f4906103b2565b81516101999060009060208501906101b2565b5080516101ad9060019060208401906101b2565b505050565b8280546101be906103b2565b90600052602060002090601f0160209004810192826101e05760008555610226565b82601f106101f957805160ff1916838001178555610226565b82800160010185558215610226579182015b8281111561022657825182559160200191906001019061020b565b50610232929150610236565b5090565b5b808211156102325760008155600101610237565b600082601f83011261025b578081fd5b81356001604060020a0380821115610275576102756103f1565b604051601f8301601f19908116603f0116810190828211818310171561029d5761029d6103f1565b816040528381528660208588010111156102b5578485fd5b8360208701602083013792830160200193909352509392505050565b6000602082840312156102e2578081fd5b8135600160a060020a03811681146102f8578182fd5b9392505050565b60008060408385031215610311578081fd5b82356001604060020a0380821115610327578283fd5b6103338683870161024b565b93506020850135915080821115610348578283fd5b506103558582860161024b565b9150509250929050565b6000602080835283518082850152825b8181101561038b5785810183015185820160400152820161036f565b8181111561039c5783604083870101525b50601f01601f1916929092016040019392505050565b6002810460018216806103c657607f821691505b602082108114156103eb5760e060020a634e487b710260009081526022600452602490fd5b50919050565b60e060020a634e487b710260009081526041600452602490fdfea2646970667358221220eefd788f4460d7942627250e6e13c465c3e6e1de833ab2e092c088f5b3dd524964736f6c6343000804003360806040523480156200001157600080fd5b5060405162000d7538038062000d75833981016040819052620000349162000272565b8751620000499060009060208b0190620000fc565b5060018054600160a060020a031916600160a060020a03841617905586516200007a9060029060208a0190620000fc565b50855162000090906003906020890190620000fc565b508451620000a6906004906020880190620000fc565b508351620000bc906005906020870190620000fc565b5060068054600160a060020a031916600160a060020a0385161790558051620000ed906009906020840190620000fc565b5050505050505050506200041e565b8280546200010a9062000399565b90600052602060002090601f0160209004810192826200012e576000855562000179565b82601f106200014957805160ff191683800117855562000179565b8280016001018555821562000179579182015b82811115620001795782518255916020019190600101906200015c565b50620001879291506200018b565b5090565b5b808211156200018757600081556001016200018c565b8051600160a060020a0381168114620001ba57600080fd5b919050565b600082601f830112620001d0578081fd5b81516001604060020a0380821115620001ed57620001ed620003ef565b604051601f8301601f19908116603f01168101908282118183101715620002185762000218620003ef565b8160405283815260209250868385880101111562000234578485fd5b8491505b8382101562000257578582018301518183018401529082019062000238565b838211156200026857848385830101525b9695505050505050565b600080600080600080600080610100898b0312156200028f578384fd5b88516001604060020a0380821115620002a6578586fd5b620002b48c838d01620001bf565b995060208b0151915080821115620002ca578586fd5b620002d88c838d01620001bf565b985060408b0151915080821115620002ee578586fd5b620002fc8c838d01620001bf565b975060608b015191508082111562000312578586fd5b620003208c838d01620001bf565b965060808b015191508082111562000336578586fd5b620003448c838d01620001bf565b95506200035460a08c01620001a2565b94506200036460c08c01620001a2565b935060e08b01519150808211156200037a578283fd5b50620003898b828c01620001bf565b9150509295985092959890939650565b600281046001821680620003ae57607f821691505b60208210811415620003e9577f4e487b7100000000000000000000000000000000000000000000000000000000600052602260045260246000fd5b50919050565b7f4e487b7100000000000000000000000000000000000000000000000000000000600052604160045260246000fd5b610947806200042e6000396000f3fe608060405234801561001057600080fd5b50600436106100b25760e060020a600035046318769d4681146100b75780632796c8f0146100e157806327d20665146100f65780632f5319e1146100fe578063503b1354146101065780636d263ceb1461011b5780637d0d625714610191578063839ea98f146101a4578063b2ec005e146101b7578063bc9c2d55146101bf578063bef31c3c146101d0578063ce3dc941146101d8578063d13fd1e8146101e0575b600080fd5b600654600160a060020a03165b604051600160a060020a0390911681526020015b60405180910390f35b6100e9610210565b6040516100d89190610819565b6100e96102a2565b6100e96102b1565b61010e6102c0565b6040516100d891906107cc565b61018f6101293660046106ac565b600160a060020a03166000818152600760205260408120805460ff191660019081179091556008805491820181559091527ff3f7a9fe364faab93b216da50a3214154f22a0a2b415b23a84c8169e8b636ee3018054600160a060020a0319169091179055565b005b61018f61019f3660046106ac565b610321565b61018f6101b23660046106cd565b6104a8565b6100e9610544565b600154600160a060020a03166100c4565b6100e9610553565b6100e9610562565b61018f6101ee3660046106ac565b60018054600160a060020a031916600160a060020a0392909216919091179055565b60606000805461021f90610883565b80601f016020809104026020016040519081016040528092919081815260200182805461024b90610883565b80156102985780601f1061026d57610100808354040283529160200191610298565b820191906000526020600020905b81548152906001019060200180831161027b57829003601f168201915b5050505050905090565b60606009805461021f90610883565b60606002805461021f90610883565b6060600880548060200260200160405190810160405280929190818152602001828054801561029857602002820191906000526020600020905b8154600160a060020a031681526001909101906020018083116102fa575050505050905090565b60005b6008546103339060019061086c565b8110156104a45781600160a060020a0316600882815481106103685760e060020a634e487b7102600052603260045260246000fd5b600091825260209091200154600160a060020a031614156104925760085460011461042a576008805461039d9060019061086c565b815481106103be5760e060020a634e487b7102600052603260045260246000fd5b60009182526020909120015460088054600160a060020a0390921691839081106103fb5760e060020a634e487b7102600052603260045260246000fd5b9060005260206000200160006101000a815481600160a060020a030219169083600160a060020a031602179055505b600160a060020a0382166000908152600760205260409020805460ff19169055600880548061046c5760e060020a634e487b7102600052603160045260246000fd5b60008281526020902081016000199081018054600160a060020a03191690550190555050565b8061049c816108c2565b915050610324565b5050565b86516104bb9060009060208a0190610571565b5085516104cf906002906020890190610571565b5084516104e3906003906020880190610571565b5083516104f7906004906020870190610571565b50825161050b906005906020860190610571565b5060068054600160a060020a031916600160a060020a038416179055805161053a906009906020840190610571565b5050505050505050565b60606004805461021f90610883565b60606005805461021f90610883565b60606003805461021f90610883565b82805461057d90610883565b90600052602060002090601f01602090048101928261059f57600085556105e5565b82601f106105b857805160ff19168380011785556105e5565b828001600101855582156105e5579182015b828111156105e55782518255916020019190600101906105ca565b506105f19291506105f5565b5090565b5b808211156105f157600081556001016105f6565b8035600160a060020a038116811461062157600080fd5b919050565b600082601f830112610636578081fd5b81356001604060020a0380821115610650576106506108f7565b604051601f8301601f19908116603f01168101908282118183101715610678576106786108f7565b81604052838152866020858801011115610690578485fd5b8360208701602083013792830160200193909352509392505050565b6000602082840312156106bd578081fd5b6106c68261060a565b9392505050565b600080600080600080600060e0888a0312156106e7578283fd5b87356001604060020a03808211156106fd578485fd5b6107098b838c01610626565b985060208a013591508082111561071e578485fd5b61072a8b838c01610626565b975060408a013591508082111561073f578485fd5b61074b8b838c01610626565b965060608a0135915080821115610760578485fd5b61076c8b838c01610626565b955060808a0135915080821115610781578485fd5b61078d8b838c01610626565b945061079b60a08b0161060a565b935060c08a01359150808211156107b0578283fd5b506107bd8a828b01610626565b91505092959891949750929550565b6020808252825182820181905260009190848201906040850190845b8181101561080d578351600160a060020a0316835292840192918401916001016107e8565b50909695505050505050565b6000602080835283518082850152825b8181101561084557858101830151858201604001528201610829565b818111156108565783604083870101525b50601f01601f1916929092016040019392505050565b60008282101561087e5761087e6108dd565b500390565b60028104600182168061089757607f821691505b602082108114156108bc5760e060020a634e487b710260009081526022600452602490fd5b50919050565b60006000198214156108d6576108d66108dd565b5060010190565b60e060020a634e487b710260009081526011600452602490fd5b60e060020a634e487b710260009081526041600452602490fdfea264697066735822122077545a9ff546df2ec7f1faf4f2ca89b0ffb32b7bb1cb7fcd32316c9ed2aed40264736f6c6343000804003360806040523480156200001157600080fd5b5060405162001226380380620012268339810160408190526200003491620001dd565b82516200004990600090602086019062000084565b5060018054600160a060020a031916600160a060020a03841617905580516200007a90600290602084019062000084565b50505050620002e9565b828054620000929062000264565b90600052602060002090601f016020900481019282620000b6576000855562000101565b82601f10620000d157805160ff191683800117855562000101565b8280016001018555821562000101579182015b8281111562000101578251825591602001919060010190620000e4565b506200010f92915062000113565b5090565b5b808211156200010f576000815560010162000114565b600082601f8301126200013b578081fd5b81516001604060020a0380821115620001585762000158620002ba565b604051601f8301601f19908116603f01168101908282118183101715620001835762000183620002ba565b816040528381526020925086838588010111156200019f578485fd5b8491505b83821015620001c25785820183015181830184015290820190620001a3565b83821115620001d357848385830101525b9695505050505050565b600080600060608486031215620001f2578283fd5b83516001604060020a038082111562000209578485fd5b62000217878388016200012a565b60208701519095509150600160a060020a038216821462000236578384fd5b6040860151919350808211156200024b578283fd5b506200025a868287016200012a565b9150509250925092565b6002810460018216806200027957607f821691505b60208210811415620002b4577f4e487b7100000000000000000000000000000000000000000000000000000000600052602260045260246000fd5b50919050565b7f4e487b7100000000000000000000000000000000000000000000000000000000600052604160045260246000fd5b610f2d80620002f96000396000f3fe608060405234801561001057600080fd5b50600436106100d35760e060020a60003504631fc7290081146100d857806324db757f1461010a578063363c80aa1461012857806338be48b41461013d5780634780468f1461015057806349b3fae6146101c557806352c07a9d146101d8578063679a131a146101eb5780636d263ceb146102005780637d0d6257146102755780638f9c79ed1461028857806398fc90e9146102c4578063996440c6146102d7578063c95171ae14610303578063c98d66c11461030b578063e5b8459014610313575b600080fd5b6101086100e6366004610be1565b60018054600160a060020a031916600160a060020a0392909216919091179055565b005b61011261032e565b60405161011f9190610e3f565b60405180910390f35b6101306103c0565b60405161011f9190610ddf565b61010861014b366004610c0f565b610499565b61010861015e366004610be1565b6005805460018181019092557f036b6384b5eca791c62761152d0c79bb0604c104a5fb6f4eb0703f3154bb3db0018054600160a060020a03909316600160a060020a031990931683179055600091825260036020526040909120805460ff19169091179055565b6101086101d3366004610c49565b6104e0565b6101086101e6366004610c0f565b61050c565b6101f361064c565b60405161011f9190610d92565b61010861020e366004610be1565b6006805460018181019092557ff652222313e28459528d920b65115c16c04f3efc82aaedc97be59f3f377c0d3f018054600160a060020a03909316600160a060020a031990931683179055600091825260046020526040909120805460ff19169091179055565b610108610283366004610be1565b6106ad565b6102b4610296366004610be1565b600160a060020a031660009081526004602052604090205460ff1690565b604051901515815260200161011f565b6101086102d2366004610be1565b610824565b6102b46102e5366004610be1565b600160a060020a031660009081526003602052604090205460ff1690565b6101f361099b565b6101126109fb565b600154604051600160a060020a03909116815260200161011f565b60606002805461033d90610e69565b80601f016020809104026020016040519081016040528092919081815260200182805461036990610e69565b80156103b65780601f1061038b576101008083540402835291602001916103b6565b820191906000526020600020905b81548152906001019060200180831161039957829003601f168201915b5050505050905090565b60606007805480602002602001604051908101604052809291908181526020016000905b8282101561049057838290600052602060002001805461040390610e69565b80601f016020809104026020016040519081016040528092919081815260200182805461042f90610e69565b801561047c5780601f106104515761010080835404028352916020019161047c565b820191906000526020600020905b81548152906001019060200180831161045f57829003601f168201915b5050505050815260200190600101906103e4565b50505050905090565b6007805460018101825560009190915281516104dc917fa66cc928b5edb82af9bd49922954155ab7b0942694bea4ce44661d9a8736c68801906020840190610a0a565b5050565b81516104f3906000906020850190610a0a565b508051610507906002906020840190610a0a565b505050565b60005b6007548110156104dc578180519060200120600782815481106105455760e060020a634e487b7102600052603260045260246000fd5b9060005260206000200160405161055c9190610cf4565b6040518091039020141561063a576007546001146105f6576007805461058490600190610e52565b815481106105a55760e060020a634e487b7102600052603260045260246000fd5b90600052602060002001600782815481106105d35760e060020a634e487b7102600052603260045260246000fd5b906000526020600020019080546105e990610e69565b6105f4929190610a8e565b505b60078054806106185760e060020a634e487b7102600052603160045260246000fd5b6001900381819060005260206000200160006106349190610b09565b90555050565b8061064481610ea8565b91505061050f565b606060068054806020026020016040519081016040528092919081815260200182805480156103b657602002820191906000526020600020905b8154600160a060020a03168152600190910190602001808311610686575050505050905090565b60005b6006548110156104dc5781600160a060020a0316600682815481106106e85760e060020a634e487b7102600052603260045260246000fd5b600091825260209091200154600160a060020a03161415610812576006546001146107aa576006805461071d90600190610e52565b8154811061073e5760e060020a634e487b7102600052603260045260246000fd5b60009182526020909120015460068054600160a060020a03909216918390811061077b5760e060020a634e487b7102600052603260045260246000fd5b9060005260206000200160006101000a815481600160a060020a030219169083600160a060020a031602179055505b60068054806107cc5760e060020a634e487b7102600052603160045260246000fd5b6000828152602080822083016000199081018054600160a060020a0319169055909201909255600160a060020a03841682526004905260409020805460ff191690555050565b8061081c81610ea8565b9150506106b0565b60005b6005548110156104dc5781600160a060020a03166005828154811061085f5760e060020a634e487b7102600052603260045260246000fd5b600091825260209091200154600160a060020a0316141561098957600554600114610921576005805461089490600190610e52565b815481106108b55760e060020a634e487b7102600052603260045260246000fd5b60009182526020909120015460058054600160a060020a0390921691839081106108f25760e060020a634e487b7102600052603260045260246000fd5b9060005260206000200160006101000a815481600160a060020a030219169083600160a060020a031602179055505b60058054806109435760e060020a634e487b7102600052603160045260246000fd5b6000828152602080822083016000199081018054600160a060020a0319169055909201909255600160a060020a03841682526003905260409020805460ff191690555050565b8061099381610ea8565b915050610827565b606060058054806020026020016040519081016040528092919081815260200182805480156103b657602002820191906000526020600020908154600160a060020a03168152600190910190602001808311610686575050505050905090565b60606000805461033d90610e69565b828054610a1690610e69565b90600052602060002090601f016020900481019282610a385760008555610a7e565b82601f10610a5157805160ff1916838001178555610a7e565b82800160010185558215610a7e579182015b82811115610a7e578251825591602001919060010190610a63565b50610a8a929150610b46565b5090565b828054610a9a90610e69565b90600052602060002090601f016020900481019282610abc5760008555610a7e565b82601f10610acd5780548555610a7e565b82800160010185558215610a7e57600052602060002091601f016020900482015b82811115610a7e578254825591600101919060010190610aee565b508054610b1590610e69565b6000825580601f10610b25575050565b601f016020900490600052602060002090810190610b439190610b46565b50565b5b80821115610a8a5760008155600101610b47565b600082601f830112610b6b578081fd5b81356001604060020a0380821115610b8557610b85610edd565b604051601f8301601f19908116603f01168101908282118183101715610bad57610bad610edd565b81604052838152866020858801011115610bc5578485fd5b8360208701602083013792830160200193909352509392505050565b600060208284031215610bf2578081fd5b8135600160a060020a0381168114610c08578182fd5b9392505050565b600060208284031215610c20578081fd5b81356001604060020a03811115610c35578182fd5b610c4184828501610b5b565b949350505050565b60008060408385031215610c5b578081fd5b82356001604060020a0380821115610c71578283fd5b610c7d86838701610b5b565b93506020850135915080821115610c92578283fd5b50610c9f85828601610b5b565b9150509250929050565b60008151808452815b81811015610cce57602081850181015186830182015201610cb2565b81811115610cdf5782602083870101525b50601f01601f19169290920160200192915050565b8154600090819060028104600180831680610d1057607f831692505b6020808410821415610d335760e060020a634e487b710287526022600452602487fd5b818015610d475760018114610d5857610d84565b60ff19861689528489019650610d84565b60008a815260209020885b86811015610d7c5781548b820152908501908301610d63565b505084890196505b509498975050505050505050565b6020808252825182820181905260009190848201906040850190845b81811015610dd3578351600160a060020a031683529284019291840191600101610dae565b50909695505050505050565b6000602080830181845280855180835260408601915060408482028701019250838701855b82811015610e3257603f19888603018452610e20858351610ca9565b94509285019290850190600101610e04565b5092979650505050505050565b602081526000610c086020830184610ca9565b600082821015610e6457610e64610ec3565b500390565b600281046001821680610e7d57607f821691505b60208210811415610ea25760e060020a634e487b710260009081526022600452602490fd5b50919050565b6000600019821415610ebc57610ebc610ec3565b5060010190565b60e060020a634e487b710260009081526011600452602490fd5b60e060020a634e487b710260009081526041600452602490fdfea264697066735822122001669724f0792c96987353e3767c2d34698f6f38cd1fe3551267a8c51dc7f24f64736f6c6343000804003360806040523480156200001157600080fd5b5060405162000ee738038062000ee7833981016040819052620000349162000134565b81516200004990600090602085019062000071565b5060018054600160a060020a031916600160a060020a039290921691909117905550620002a5565b8280546200007f9062000220565b90600052602060002090601f016020900481019282620000a35760008555620000ee565b82601f10620000be57805160ff1916838001178555620000ee565b82800160010185558215620000ee579182015b82811115620000ee578251825591602001919060010190620000d1565b50620000fc92915062000100565b5090565b5b80821115620000fc576000815560010162000101565b8051600160a060020a03811681146200012f57600080fd5b919050565b6000806040838503121562000147578182fd5b825167ffffffffffffffff808211156200015f578384fd5b818501915085601f83011262000173578384fd5b81518181111562000188576200018862000276565b604051601f8201601f19908116603f01168101908382118183101715620001b357620001b362000276565b81604052828152602093508884848701011115620001cf578687fd5b8691505b82821015620001f25784820184015181830185015290830190620001d3565b828211156200020357868484830101525b95506200021591505085820162000117565b925050509250929050565b6002810460018216806200023557607f821691505b6020821081141562000270577f4e487b7100000000000000000000000000000000000000000000000000000000600052602260045260246000fd5b50919050565b7f4e487b7100000000000000000000000000000000000000000000000000000000600052604160045260246000fd5b610c3280620002b56000396000f3fe608060405234801561001057600080fd5b50600436106100bd5760e060020a60003504631b470bc781146100c25780632c5ee501146101395780632c7ac18f146101595780633e8a80091461016c5780634780468f1461017f57806363c339c3146101f457806375a5219614610209578063853e0b461461021e57806398fc90e914610233578063996440c614610246578063a969890614610269578063bdf6c6731461027c578063c95171ae1461028f578063fbbf93a014610297575b600080fd5b6101376100d0366004610975565b6005805460018181019092557f036b6384b5eca791c62761152d0c79bb0604c104a5fb6f4eb0703f3154bb3db0018054600160a060020a03909316600160a060020a031990931683179055600091825260036020526040909120805460ff19169091179055565b005b600154604051600160a060020a0390911681526020015b60405180910390f35b6101376101673660046109a3565b61029f565b61013761017a3660046109a3565b6102e6565b61013761018d366004610975565b6004805460018181019092557f8a35acfbc15ff81a39ae7d344fd709f28e8600b4aa8c65c6b64bfe7fe36bd19b018054600160a060020a03909316600160a060020a031990931683179055600091825260026020526040909120805460ff19169091179055565b6101fc6102f9565b6040516101509190610ae4565b6102116103d2565b6040516101509190610a97565b610226610434565b6040516101509190610b44565b610137610241366004610975565b6104bd565b610259610254366004610975565b610634565b6040519015158152602001610150565b610137610277366004610975565b610652565b61025961028a366004610975565b6107c9565b6102116107e7565b610226610847565b6006805460018101825560009190915281516102e2917ff652222313e28459528d920b65115c16c04f3efc82aaedc97be59f3f377c0d3f019060208401906108dc565b5050565b80516102e29060009060208401906108dc565b60606006805480602002602001604051908101604052809291908181526020016000905b828210156103c957838290600052602060002001805461033c90610b6e565b80601f016020809104026020016040519081016040528092919081815260200182805461036890610b6e565b80156103b55780601f1061038a576101008083540402835291602001916103b5565b820191906000526020600020905b81548152906001019060200180831161039857829003601f168201915b50505050508152602001906001019061031d565b50505050905090565b6060600580548060200260200160405190810160405280929190818152602001828054801561042a57602002820191906000526020600020905b8154600160a060020a0316815260019091019060200180831161040c575b5050505050905090565b60606000805461044390610b6e565b80601f016020809104026020016040519081016040528092919081815260200182805461046f90610b6e565b801561042a5780601f106104915761010080835404028352916020019161042a565b820191906000526020600020905b81548152906001019060200180831161049f57509395945050505050565b60005b6004548110156102e25781600160a060020a0316600482815481106104f85760e060020a634e487b7102600052603260045260246000fd5b600091825260209091200154600160a060020a03161415610622576004546001146105ba576004805461052d90600190610b57565b8154811061054e5760e060020a634e487b7102600052603260045260246000fd5b60009182526020909120015460048054600160a060020a03909216918390811061058b5760e060020a634e487b7102600052603260045260246000fd5b9060005260206000200160006101000a815481600160a060020a030219169083600160a060020a031602179055505b60048054806105dc5760e060020a634e487b7102600052603160045260246000fd5b6000828152602080822083016000199081018054600160a060020a0319169055909201909255600160a060020a03841682526002905260409020805460ff191690555050565b8061062c81610bad565b9150506104c0565b600160a060020a031660009081526002602052604090205460ff1690565b60005b6005548110156102e25781600160a060020a03166005828154811061068d5760e060020a634e487b7102600052603260045260246000fd5b600091825260209091200154600160a060020a031614156107b75760045460011461074f57600580546106c290600190610b57565b815481106106e35760e060020a634e487b7102600052603260045260246000fd5b60009182526020909120015460058054600160a060020a0390921691839081106107205760e060020a634e487b7102600052603260045260246000fd5b9060005260206000200160006101000a815481600160a060020a030219169083600160a060020a031602179055505b60058054806107715760e060020a634e487b7102600052603160045260246000fd5b6000828152602080822083016000199081018054600160a060020a0319169055909201909255600160a060020a03841682526003905260409020805460ff191690555050565b806107c181610bad565b915050610655565b600160a060020a031660009081526003602052604090205460ff1690565b6060600480548060200260200160405190810160405280929190818152602001828054801561042a57602002820191906000526020600020908154600160a060020a0316815260019091019060200180831161040c575050505050905090565b606061085161085e565b6000805461044390610b6e565b61086732610634565b806108765750610876326107c9565b8061088b5750600154600160a060020a031632145b6108da5760405160e560020a62461bcd0281526020600482015260166024820152605160020a752932b9ba3934b1ba32b2103a37902820aa24a2a72a1702604482015260640160405180910390fd5b565b8280546108e890610b6e565b90600052602060002090601f01602090048101928261090a5760008555610950565b82601f1061092357805160ff1916838001178555610950565b82800160010185558215610950579182015b82811115610950578251825591602001919060010190610935565b5061095c929150610960565b5090565b5b8082111561095c5760008155600101610961565b600060208284031215610986578081fd5b8135600160a060020a038116811461099c578182fd5b9392505050565b6000602082840312156109b4578081fd5b81356001604060020a03808211156109ca578283fd5b818401915084601f8301126109dd578283fd5b8135818111156109ef576109ef610be2565b604051601f8201601f19908116603f01168101908382118183101715610a1757610a17610be2565b81604052828152876020848701011115610a2f578586fd5b826020860160208301379182016020019490945295945050505050565b60008151808452815b81811015610a7157602081850181015186830182015201610a55565b81811115610a825782602083870101525b50601f01601f19169290920160200192915050565b6020808252825182820181905260009190848201906040850190845b81811015610ad8578351600160a060020a031683529284019291840191600101610ab3565b50909695505050505050565b6000602080830181845280855180835260408601915060408482028701019250838701855b82811015610b3757603f19888603018452610b25858351610a4c565b94509285019290850190600101610b09565b5092979650505050505050565b60208152600061099c6020830184610a4c565b600082821015610b6957610b69610bc8565b500390565b600281046001821680610b8257607f821691505b60208210811415610ba75760e060020a634e487b710260009081526022600452602490fd5b50919050565b6000600019821415610bc157610bc1610bc8565b5060010190565b60e060020a634e487b710260009081526011600452602490fd5b60e060020a634e487b710260009081526041600452602490fdfea264697066735822122013cf7fbf1dad14158abd3de064d548e7bc62f55e00dda1b57e233df7a5932a5e64736f6c63430008040033a26469706673582212202a28bb54a9f994f530e181b2d393d2908c47da7e74cfa6fd5ba8f2b6a401118664736f6c63430008040033608060405234801561001057600080fd5b5060405161071438038061071483398101604081905261002f916101c0565b825161004290600090602086019061007f565b50815161005690600190602085019061007f565b5060028054600160a060020a031916600160a060020a0392909216919091179055506102c49050565b82805461008b90610241565b90600052602060002090601f0160209004810192826100ad57600085556100f3565b82601f106100c657805160ff19168380011785556100f3565b828001600101855582156100f3579182015b828111156100f35782518255916020019190600101906100d8565b506100ff929150610103565b5090565b5b808211156100ff5760008155600101610104565b600082601f830112610128578081fd5b81516001604060020a038082111561014257610142610295565b604051601f8301601f19908116603f0116810190828211818310171561016a5761016a610295565b81604052838152602092508683858801011115610185578485fd5b8491505b838210156101a65785820183015181830184015290820190610189565b838211156101b657848385830101525b9695505050505050565b6000806000606084860312156101d4578283fd5b83516001604060020a03808211156101ea578485fd5b6101f687838801610118565b9450602086015191508082111561020b578384fd5b5061021886828701610118565b60408601519093509050600160a060020a0381168114610236578182fd5b809150509250925092565b60028104600182168061025557607f821691505b6020821081141561028f577f4e487b7100000000000000000000000000000000000000000000000000000000600052602260045260246000fd5b50919050565b7f4e487b7100000000000000000000000000000000000000000000000000000000600052604160045260246000fd5b610441806102d36000396000f3fe608060405234801561001057600080fd5b506004361061005a5760e060020a600035046324db757f811461005f5780632c0a85161461007d5780637071eebb14610085578063d665b2981461009a578063d67c2da3146100ca575b600080fd5b6100676100e5565b604051610074919061035f565b60405180910390f35b610067610177565b6100986100933660046102ff565b610186565b005b6100986100a83660046102d1565b60028054600160a060020a031916600160a060020a0392909216919091179055565b600254604051600160a060020a039091168152602001610074565b6060600180546100f4906103b2565b80601f0160208091040260200160405190810160405280929190818152602001828054610120906103b2565b801561016d5780601f106101425761010080835404028352916020019161016d565b820191906000526020600020905b81548152906001019060200180831161015057829003601f168201915b5050505050905090565b6060600080546100f4906103b2565b81516101999060009060208501906101b2565b5080516101ad9060019060208401906101b2565b505050565b8280546101be906103b2565b90600052602060002090601f0160209004810192826101e05760008555610226565b82601f106101f957805160ff1916838001178555610226565b82800160010185558215610226579182015b8281111561022657825182559160200191906001019061020b565b50610232929150610236565b5090565b5b808211156102325760008155600101610237565b600082601f83011261025b578081fd5b81356001604060020a0380821115610275576102756103f1565b604051601f8301601f19908116603f0116810190828211818310171561029d5761029d6103f1565b816040528381528660208588010111156102b5578485fd5b8360208701602083013792830160200193909352509392505050565b6000602082840312156102e2578081fd5b8135600160a060020a03811681146102f8578182fd5b9392505050565b60008060408385031215610311578081fd5b82356001604060020a0380821115610327578283fd5b6103338683870161024b565b93506020850135915080821115610348578283fd5b506103558582860161024b565b9150509250929050565b6000602080835283518082850152825b8181101561038b5785810183015185820160400152820161036f565b8181111561039c5783604083870101525b50601f01601f1916929092016040019392505050565b6002810460018216806103c657607f821691505b602082108114156103eb5760e060020a634e487b710260009081526022600452602490fd5b50919050565b60e060020a634e487b710260009081526041600452602490fdfea2646970667358221220eefd788f4460d7942627250e6e13c465c3e6e1de833ab2e092c088f5b3dd524964736f6c63430008040033",
  "linkReferences": {},
  "deployedLinkReferences": {}
}