{
  "_format": "hh-sol-artifact-1",
  "contractName": "DHRMS_DOC",
  "sourceName": "contracts/DHRMS_DOC.sol",
  "abi": [
    {
      "inputs": [
        {
          "internalType": "address",
          "name": "_STORAGE_CONTRACT_ADDRESS",
          "type": "address"
        },
        {
          "internalType": "address",
          "name": "_RBAC_CONTRACT_ADDRESS",
          "type": "address"
        }
      ],
      "stateMutability": "nonpayable",
      "type": "constructor"
    },
    {
      "anonymous": false,
      "inputs": [
        {
          "indexed": false,
          "internalType": "string",
          "name": "_doctorName",
          "type": "string"
        },
        {
          "indexed": false,
          "internalType": "string",
          "name": "_phoneNumber",
          "type": "string"
        },
        {
          "indexed": false,
          "internalType": "string",
          "name": "_qualification",
          "type": "string"
        },
        {
          "indexed": false,
          "internalType": "string",
          "name": "_photo",
          "type": "string"
        },
        {
          "indexed": false,
          "internalType": "string",
          "name": "_dob",
          "type": "string"
        },
        {
          "indexed": false,
          "internalType": "address",
          "name": "_HID",
          "type": "address"
        },
        {
          "indexed": false,
          "internalType": "address",
          "name": "_DID",
          "type": "address"
        },
        {
          "indexed": false,
          "internalType": "string",
          "name": "_department",
          "type": "string"
        }
      ],
      "name": "editDoctor",
      "type": "event"
    },
    {
      "anonymous": false,
      "inputs": [
        {
          "indexed": false,
          "internalType": "string",
          "name": "_doctorName",
          "type": "string"
        },
        {
          "indexed": false,
          "internalType": "string",
          "name": "_phoneNumber",
          "type": "string"
        },
        {
          "indexed": false,
          "internalType": "string",
          "name": "_qualification",
          "type": "string"
        },
        {
          "indexed": false,
          "internalType": "string",
          "name": "_photo",
          "type": "string"
        },
        {
          "indexed": false,
          "internalType": "string",
          "name": "_dob",
          "type": "string"
        },
        {
          "indexed": false,
          "internalType": "address",
          "name": "_HID",
          "type": "address"
        },
        {
          "indexed": false,
          "internalType": "address",
          "name": "_DID",
          "type": "address"
        },
        {
          "indexed": false,
          "internalType": "string",
          "name": "_department",
          "type": "string"
        }
      ],
      "name": "newDoctor",
      "type": "event"
    },
    {
      "anonymous": false,
      "inputs": [
        {
          "indexed": false,
          "internalType": "string",
          "name": "_file",
          "type": "string"
        }
      ],
      "name": "newRecordForUpload",
      "type": "event"
    },
    {
      "anonymous": false,
      "inputs": [
        {
          "indexed": false,
          "internalType": "address",
          "name": "_DID",
          "type": "address"
        }
      ],
      "name": "removeOldDoctor",
      "type": "event"
    },
    {
      "inputs": [
        {
          "internalType": "string",
          "name": "_doctorName",
          "type": "string"
        },
        {
          "internalType": "string",
          "name": "_phoneNumber",
          "type": "string"
        },
        {
          "internalType": "string",
          "name": "_qualification",
          "type": "string"
        },
        {
          "internalType": "string",
          "name": "_photo",
          "type": "string"
        },
        {
          "internalType": "string",
          "name": "_dob",
          "type": "string"
        },
        {
          "internalType": "address",
          "name": "_HID",
          "type": "address"
        },
        {
          "internalType": "address",
          "name": "_DID",
          "type": "address"
        },
        {
          "internalType": "string",
          "name": "_department",
          "type": "string"
        }
      ],
      "name": "addDoctor",
      "outputs": [],
      "stateMutability": "nonpayable",
      "type": "function"
    },
    {
      "inputs": [
        {
          "internalType": "address",
          "name": "_DID",
          "type": "address"
        }
      ],
      "name": "getDoctorDetails",
      "outputs": [
        {
          "internalType": "string[6]",
          "name": "",
          "type": "string[6]"
        }
      ],
      "stateMutability": "view",
      "type": "function"
    },
    {
      "inputs": [
        {
          "internalType": "address",
          "name": "_DID",
          "type": "address"
        }
      ],
      "name": "getDoctorH",
      "outputs": [
        {
          "internalType": "address",
          "name": "",
          "type": "address"
        }
      ],
      "stateMutability": "view",
      "type": "function"
    },
    {
      "inputs": [
        {
          "internalType": "address",
          "name": "_DID",
          "type": "address"
        }
      ],
      "name": "getPatientListOfDoc",
      "outputs": [
        {
          "internalType": "address[]",
          "name": "",
          "type": "address[]"
        }
      ],
      "stateMutability": "view",
      "type": "function"
    },
    {
      "inputs": [
        {
          "internalType": "address",
          "name": "_DID",
          "type": "address"
        }
      ],
      "name": "removeDoctor",
      "outputs": [],
      "stateMutability": "nonpayable",
      "type": "function"
    },
    {
      "inputs": [
        {
          "internalType": "string",
          "name": "_file",
          "type": "string"
        }
      ],
      "name": "sendRecordsForUpload",
      "outputs": [],
      "stateMutability": "nonpayable",
      "type": "function"
    },
    {
      "inputs": [
        {
          "internalType": "string",
          "name": "_doctorName",
          "type": "string"
        },
        {
          "internalType": "string",
          "name": "_phoneNumber",
          "type": "string"
        },
        {
          "internalType": "string",
          "name": "_qualification",
          "type": "string"
        },
        {
          "internalType": "string",
          "name": "_photo",
          "type": "string"
        },
        {
          "internalType": "string",
          "name": "_dob",
          "type": "string"
        },
        {
          "internalType": "address",
          "name": "_HID",
          "type": "address"
        },
        {
          "internalType": "address",
          "name": "_DID",
          "type": "address"
        },
        {
          "internalType": "string",
          "name": "_department",
          "type": "string"
        }
      ],
      "name": "setDoctorDetails",
      "outputs": [],
      "stateMutability": "nonpayable",
      "type": "function"
    }
  ],
  "bytecode": "0x60806040523480156200001157600080fd5b5060405162002c4438038062002c44833981016040819052620000349162000083565b60008054600160a060020a03938416600160a060020a03199182161790915560018054929093169116179055620000ba565b8051600160a060020a03811681146200007e57600080fd5b919050565b6000806040838503121562000096578182fd5b620000a18362000066565b9150620000b16020840162000066565b90509250929050565b612b7a80620000ca6000396000f3fe60806040523480156200001157600080fd5b5060043610620000795760e060020a60003504630ec66bed81146200007e57806322f544c914620000975780632a386d1914620000c6578063583c980414620000dd57806398fc90e914620000f4578063bab90dbd146200010b578063bb7197181462000131575b600080fd5b620000956200008f36600462001957565b62000157565b005b620000ae620000a83660046200179a565b620005d7565b604051620000bd919062001aac565b60405180910390f35b62000095620000d736600462001957565b620006de565b62000095620000ee3660046200189e565b620009ba565b62000095620001053660046200179a565b62000c51565b620001226200011c3660046200179a565b62000f9c565b604051620000bd919062001b44565b62000148620001423660046200179a565b620015f6565b604051620000bd919062001af5565b60015460405160e060020a63ef8a085f0281528391600160a060020a03169063ef8a085f906200018c90849060040162001ac0565b60006040518083038186803b158015620001a557600080fd5b505afa158015620001ba573d6000803e3d6000fd5b505060005460405160e060020a632ed226ad028152600160a060020a0390911692506334a968d791508290632ed226ad90620001fb90339060040162001aac565b60206040518083038186803b1580156200021457600080fd5b505afa15801562000229573d6000803e3d6000fd5b505050506040513d601f19601f820116820180604052508101906200024f9190620017c0565b600160a060020a03166318769d466040518163ffffffff1660e060020a02815260040160206040518083038186803b1580156200028b57600080fd5b505afa158015620002a0573d6000803e3d6000fd5b505050506040513d601f19601f82011682018060405250810190620002c69190620017c0565b6040518263ffffffff1660e060020a028152600401620002e7919062001aac565b60206040518083038186803b1580156200030057600080fd5b505afa15801562000315573d6000803e3d6000fd5b505050506040513d601f19601f820116820180604052508101906200033b9190620017c0565b600160a060020a03166398fc90e9846040518263ffffffff1660e060020a0281526004016200036b919062001aac565b600060405180830381600087803b1580156200038657600080fd5b505af11580156200039b573d6000803e3d6000fd5b505060005460405160e060020a632ed226ad028152600160a060020a039091169250632ed226ad9150620003d490339060040162001aac565b60206040518083038186803b158015620003ed57600080fd5b505afa15801562000402573d6000803e3d6000fd5b505050506040513d601f19601f82011682018060405250810190620004289190620017c0565b600160a060020a031663839ea98f8a8a8a8a8a8a896040518863ffffffff1660e060020a02815260040162000464979695949392919062001c54565b600060405180830381600087803b1580156200047f57600080fd5b505af115801562000494573d6000803e3d6000fd5b505060005460405160e060020a6334a968d7028152600160a060020a0390911692506334a968d79150620004cd90879060040162001aac565b60206040518083038186803b158015620004e657600080fd5b505afa158015620004fb573d6000803e3d6000fd5b505050506040513d601f19601f82011682018060405250810190620005219190620017c0565b600160a060020a0316634780468f846040518263ffffffff1660e060020a02815260040162000551919062001aac565b600060405180830381600087803b1580156200056c57600080fd5b505af115801562000581573d6000803e3d6000fd5b505050507f3735573c67c2920408d5a7ad0e57a732e6af020f7255921f06da3cf62580e6088989898989898989604051620005c498979695949392919062001baa565b60405180910390a1505050505050505050565b6000805460405160e060020a632ed226ad028152600160a060020a0390911690632ed226ad906200060d90859060040162001aac565b60206040518083038186803b1580156200062657600080fd5b505afa1580156200063b573d6000803e3d6000fd5b505050506040513d601f19601f82011682018060405250810190620006619190620017c0565b600160a060020a03166318769d466040518163ffffffff1660e060020a02815260040160206040518083038186803b1580156200069d57600080fd5b505afa158015620006b2573d6000803e3d6000fd5b505050506040513d601f19601f82011682018060405250810190620006d89190620017c0565b92915050565b600160009054906101000a9004600160a060020a0316600160a060020a031663738833fb6040518163ffffffff1660e060020a02815260040160006040518083038186803b1580156200073057600080fd5b505afa15801562000745573d6000803e3d6000fd5b5050505060008054906101000a9004600160a060020a0316600160a060020a031663860df70f838a8a8a8a8a8a8a8a6040516200078290620016fb565b6200079598979695949392919062001baa565b604051809103906000f080158015620007b2573d6000803e3d6000fd5b5060405160e060020a63ffffffff8516028152600160a060020a03928316600482015291166024820152604401600060405180830381600087803b158015620007fa57600080fd5b505af11580156200080f573d6000803e3d6000fd5b505060015460405160e360020a631cbf05f9028152600160a060020a03909116925063e5f82fc891506200084890859060040162001cf2565b600060405180830381600087803b1580156200086357600080fd5b505af115801562000878573d6000803e3d6000fd5b505060005460405160e060020a6334a968d7028152600160a060020a0390911692506334a968d79150620008b190869060040162001aac565b60206040518083038186803b158015620008ca57600080fd5b505afa158015620008df573d6000803e3d6000fd5b505050506040513d601f19601f82011682018060405250810190620009059190620017c0565b600160a060020a0316634780468f836040518263ffffffff1660e060020a02815260040162000935919062001aac565b600060405180830381600087803b1580156200095057600080fd5b505af115801562000965573d6000803e3d6000fd5b505050507f7ac1eb3e2fa678a2606f7b6f7a51be798e4818cb448cb2e2ed79b10542bc7cb08888888888888888604051620009a898979695949392919062001baa565b60405180910390a15050505050505050565b600160009054906101000a9004600160a060020a0316600160a060020a031663853dd9f76040518163ffffffff1660e060020a02815260040160006040518083038186803b15801562000a0c57600080fd5b505afa15801562000a21573d6000803e3d6000fd5b50506000805460405160e060020a632ed226ad028152919350600160a060020a03169150632ed226ad9062000a5b90339060040162001aac565b60206040518083038186803b15801562000a7457600080fd5b505afa15801562000a89573d6000803e3d6000fd5b505050506040513d601f19601f8201168201806040525081019062000aaf9190620017c0565b600160a060020a03166318769d466040518163ffffffff1660e060020a02815260040160206040518083038186803b15801562000aeb57600080fd5b505afa15801562000b00573d6000803e3d6000fd5b505050506040513d601f19601f8201168201806040525081019062000b269190620017c0565b60005460405160e060020a6334a968d7028152919250600160a060020a0316906334a968d79062000b5c90849060040162001aac565b60206040518083038186803b15801562000b7557600080fd5b505afa15801562000b8a573d6000803e3d6000fd5b505050506040513d601f19601f8201168201806040525081019062000bb09190620017c0565b600160a060020a03166338be48b4836040518263ffffffff1660e060020a02815260040162000be0919062001b95565b600060405180830381600087803b15801562000bfb57600080fd5b505af115801562000c10573d6000803e3d6000fd5b505050507f3fed060ecdb2d42b2c9473943537ea7ec330e0d523a03429ed29b0fff6b7e8818260405162000c45919062001b95565b60405180910390a15050565b60015460405160e060020a63ef8a085f0281528291600160a060020a03169063ef8a085f9062000c8690849060040162001ac0565b60006040518083038186803b15801562000c9f57600080fd5b505afa15801562000cb4573d6000803e3d6000fd5b505060005460405160e060020a63d6ee0c73028152600160a060020a03909116925063d6ee0c73915062000ced90859060040162001aac565b600060405180830381600087803b15801562000d0857600080fd5b505af115801562000d1d573d6000803e3d6000fd5b505060015460405160e060020a638dd19969028152600160a060020a039091169250638dd19969915062000d5690859060040162001cf2565b600060405180830381600087803b15801562000d7157600080fd5b505af115801562000d86573d6000803e3d6000fd5b505060005460405160e060020a632ed226ad028152600160a060020a0390911692506334a968d791508290632ed226ad9062000dc790339060040162001aac565b60206040518083038186803b15801562000de057600080fd5b505afa15801562000df5573d6000803e3d6000fd5b505050506040513d601f19601f8201168201806040525081019062000e1b9190620017c0565b600160a060020a03166318769d466040518163ffffffff1660e060020a02815260040160206040518083038186803b15801562000e5757600080fd5b505afa15801562000e6c573d6000803e3d6000fd5b505050506040513d601f19601f8201168201806040525081019062000e929190620017c0565b6040518263ffffffff1660e060020a02815260040162000eb3919062001aac565b60206040518083038186803b15801562000ecc57600080fd5b505afa15801562000ee1573d6000803e3d6000fd5b505050506040513d601f19601f8201168201806040525081019062000f079190620017c0565b600160a060020a03166398fc90e9836040518263ffffffff1660e060020a02815260040162000f37919062001aac565b600060405180830381600087803b15801562000f5257600080fd5b505af115801562000f67573d6000803e3d6000fd5b505050507f37038e1769f3894abfd22bf303d3b2eb88572f5cec4f32e15f61d355e38465e98260405162000c45919062001aac565b62000fa662001709565b6040805160c081019182905260005460e060020a632ed226ad02909252908190600160a060020a0316632ed226ad62000fe38660c4850162001aac565b60206040518083038186803b15801562000ffc57600080fd5b505afa15801562001011573d6000803e3d6000fd5b505050506040513d601f19601f82011682018060405250810190620010379190620017c0565b600160a060020a0316632796c8f06040518163ffffffff1660e060020a02815260040160006040518083038186803b1580156200107357600080fd5b505afa15801562001088573d6000803e3d6000fd5b505050506040513d6000823e601f3d908101601f19168201604052620010b29190810190620018dc565b815260005460405160e060020a632ed226ad028152602090920191600160a060020a0390911690632ed226ad90620010ef90879060040162001aac565b60206040518083038186803b1580156200110857600080fd5b505afa1580156200111d573d6000803e3d6000fd5b505050506040513d601f19601f82011682018060405250810190620011439190620017c0565b600160a060020a0316632f5319e16040518163ffffffff1660e060020a02815260040160006040518083038186803b1580156200117f57600080fd5b505afa15801562001194573d6000803e3d6000fd5b505050506040513d6000823e601f3d908101601f19168201604052620011be9190810190620018dc565b815260005460405160e060020a632ed226ad028152602090920191600160a060020a0390911690632ed226ad90620011fb90879060040162001aac565b60206040518083038186803b1580156200121457600080fd5b505afa15801562001229573d6000803e3d6000fd5b505050506040513d601f19601f820116820180604052508101906200124f9190620017c0565b600160a060020a031663ce3dc9416040518163ffffffff1660e060020a02815260040160006040518083038186803b1580156200128b57600080fd5b505afa158015620012a0573d6000803e3d6000fd5b505050506040513d6000823e601f3d908101601f19168201604052620012ca9190810190620018dc565b815260005460405160e060020a632ed226ad028152602090920191600160a060020a0390911690632ed226ad906200130790879060040162001aac565b60206040518083038186803b1580156200132057600080fd5b505afa15801562001335573d6000803e3d6000fd5b505050506040513d601f19601f820116820180604052508101906200135b9190620017c0565b600160a060020a031663b2ec005e6040518163ffffffff1660e060020a02815260040160006040518083038186803b1580156200139757600080fd5b505afa158015620013ac573d6000803e3d6000fd5b505050506040513d6000823e601f3d908101601f19168201604052620013d69190810190620018dc565b815260005460405160e060020a632ed226ad028152602090920191600160a060020a0390911690632ed226ad906200141390879060040162001aac565b60206040518083038186803b1580156200142c57600080fd5b505afa15801562001441573d6000803e3d6000fd5b505050506040513d601f19601f82011682018060405250810190620014679190620017c0565b600160a060020a031663bef31c3c6040518163ffffffff1660e060020a02815260040160006040518083038186803b158015620014a357600080fd5b505afa158015620014b8573d6000803e3d6000fd5b505050506040513d6000823e601f3d908101601f19168201604052620014e29190810190620018dc565b815260005460405160e060020a632ed226ad028152602090920191600160a060020a0390911690632ed226ad906200151f90879060040162001aac565b60206040518083038186803b1580156200153857600080fd5b505afa1580156200154d573d6000803e3d6000fd5b505050506040513d601f19601f82011682018060405250810190620015739190620017c0565b600160a060020a03166327d206656040518163ffffffff1660e060020a02815260040160006040518083038186803b158015620015af57600080fd5b505afa158015620015c4573d6000803e3d6000fd5b505050506040513d6000823e601f3d908101601f19168201604052620015ee9190810190620018dc565b905292915050565b60005460405160e060020a632ed226ad028152606091600160a060020a031690632ed226ad906200162c90859060040162001aac565b60206040518083038186803b1580156200164557600080fd5b505afa1580156200165a573d6000803e3d6000fd5b505050506040513d601f19601f82011682018060405250810190620016809190620017c0565b600160a060020a031663503b13546040518163ffffffff1660e060020a02815260040160006040518083038186803b158015620016bc57600080fd5b505afa158015620016d1573d6000803e3d6000fd5b505050506040513d6000823e601f3d908101601f19168201604052620006d89190810190620017df565b610d698062001ddc83390190565b6040518060c001604052806006905b6060815260200190600190039081620017185790505090565b80356200173e8162001dc2565b919050565b600082601f83011262001754578081fd5b81356200176b620017658262001d4b565b62001d18565b81815284602083860101111562001780578283fd5b816020850160208301379081016020019190915292915050565b600060208284031215620017ac578081fd5b8135620017b98162001dc2565b9392505050565b600060208284031215620017d2578081fd5b8151620017b98162001dc2565b60006020808385031215620017f2578182fd5b82516001604060020a038082111562001809578384fd5b818501915085601f8301126200181d578384fd5b81518181111562001832576200183262001da8565b83810291506200184484830162001d18565b8181528481019084860184860187018a10156200185f578788fd5b8795505b838610156200189157805194506200187b8562001dc2565b8483526001959095019491860191860162001863565b5098975050505050505050565b600060208284031215620018b0578081fd5b81356001604060020a03811115620018c6578182fd5b620018d48482850162001743565b949350505050565b600060208284031215620018ee578081fd5b81516001604060020a0381111562001904578182fd5b8201601f8101841362001915578182fd5b805162001926620017658262001d4b565b8181528560208385010111156200193b578384fd5b6200194e82602083016020860162001d75565b95945050505050565b600080600080600080600080610100898b03121562001974578384fd5b88356001604060020a03808211156200198b578586fd5b620019998c838d0162001743565b995060208b0135915080821115620019af578586fd5b620019bd8c838d0162001743565b985060408b0135915080821115620019d3578586fd5b620019e18c838d0162001743565b975060608b0135915080821115620019f7578586fd5b62001a058c838d0162001743565b965060808b013591508082111562001a1b578586fd5b62001a298c838d0162001743565b955062001a3960a08c0162001731565b945062001a4960c08c0162001731565b935060e08b013591508082111562001a5f578283fd5b5062001a6e8b828c0162001743565b9150509295985092959890939650565b6000815180845262001a9881602086016020860162001d75565b601f01601f19169290920160200192915050565b600160a060020a0391909116815260200190565b600160a060020a0391909116815260406020820181905260069082015260d160020a652227a1aa27a902606082015260800190565b6020808252825182820181905260009190848201906040850190845b8181101562001b38578351600160a060020a03168352928401929184019160010162001b11565b50909695505050505050565b602080825260009060e0830183820185845b600681101562001b8957601f1987850301835262001b7684835162001a7e565b9350918401919084019060010162001b56565b50919695505050505050565b602081526000620017b9602083018462001a7e565b600061010080835262001bc08184018c62001a7e565b9050828103602084015262001bd6818b62001a7e565b9050828103604084015262001bec818a62001a7e565b9050828103606084015262001c02818962001a7e565b9050828103608084015262001c18818862001a7e565b600160a060020a0387811660a0860152861660c085015283810360e0850152905062001c45818562001a7e565b9b9a5050505050505050505050565b60e08152600062001c6960e083018a62001a7e565b828103602084015262001c7d818a62001a7e565b9050828103604084015262001c93818962001a7e565b9050828103606084015262001ca9818862001a7e565b9050828103608084015262001cbf818762001a7e565b600160a060020a03861660a085015283810360c0850152905062001ce4818562001a7e565b9a9950505050505050505050565b60d160020a652227a1aa27a9028152600160a060020a0391909116602082015260400190565b604051601f8201601f191681016001604060020a038111828210171562001d435762001d4362001da8565b604052919050565b60006001604060020a0382111562001d675762001d6762001da8565b50601f01601f191660200190565b60005b8381101562001d9257818101518382015260200162001d78565b8381111562001da2576000848401525b50505050565b60e060020a634e487b710260009081526041600452602490fd5b600160a060020a038116811462001dd857600080fd5b5056fe60806040523480156200001157600080fd5b5060405162000d6938038062000d69833981016040819052620000349162000272565b8751620000499060009060208b0190620000fc565b5060018054600160a060020a031916600160a060020a03841617905586516200007a9060029060208a0190620000fc565b50855162000090906003906020890190620000fc565b508451620000a6906004906020880190620000fc565b508351620000bc906005906020870190620000fc565b5060068054600160a060020a031916600160a060020a0385161790558051620000ed906009906020840190620000fc565b5050505050505050506200041e565b8280546200010a9062000399565b90600052602060002090601f0160209004810192826200012e576000855562000179565b82601f106200014957805160ff191683800117855562000179565b8280016001018555821562000179579182015b82811115620001795782518255916020019190600101906200015c565b50620001879291506200018b565b5090565b5b808211156200018757600081556001016200018c565b8051600160a060020a0381168114620001ba57600080fd5b919050565b600082601f830112620001d0578081fd5b81516001604060020a0380821115620001ed57620001ed620003ef565b604051601f8301601f19908116603f01168101908282118183101715620002185762000218620003ef565b8160405283815260209250868385880101111562000234578485fd5b8491505b8382101562000257578582018301518183018401529082019062000238565b838211156200026857848385830101525b9695505050505050565b600080600080600080600080610100898b0312156200028f578384fd5b88516001604060020a0380821115620002a6578586fd5b620002b48c838d01620001bf565b995060208b0151915080821115620002ca578586fd5b620002d88c838d01620001bf565b985060408b0151915080821115620002ee578586fd5b620002fc8c838d01620001bf565b975060608b015191508082111562000312578586fd5b620003208c838d01620001bf565b965060808b015191508082111562000336578586fd5b620003448c838d01620001bf565b95506200035460a08c01620001a2565b94506200036460c08c01620001a2565b935060e08b01519150808211156200037a578283fd5b50620003898b828c01620001bf565b9150509295985092959890939650565b600281046001821680620003ae57607f821691505b60208210811415620003e9577f4e487b7100000000000000000000000000000000000000000000000000000000600052602260045260246000fd5b50919050565b7f4e487b7100000000000000000000000000000000000000000000000000000000600052604160045260246000fd5b61093b806200042e6000396000f3fe608060405234801561001057600080fd5b50600436106100b25760e060020a600035046318769d4681146100b75780632796c8f0146100e157806327d20665146100f65780632f5319e1146100fe578063503b1354146101065780636d263ceb1461011b5780637d0d625714610191578063839ea98f146101a4578063b2ec005e146101b7578063bc9c2d55146101bf578063bef31c3c146101d0578063ce3dc941146101d8578063d13fd1e8146101e0575b600080fd5b600654600160a060020a03165b604051600160a060020a0390911681526020015b60405180910390f35b6100e9610210565b6040516100d8919061080d565b6100e96102a2565b6100e96102b1565b61010e6102c0565b6040516100d891906107c0565b61018f6101293660046106a0565b600160a060020a03166000818152600760205260408120805460ff191660019081179091556008805491820181559091527ff3f7a9fe364faab93b216da50a3214154f22a0a2b415b23a84c8169e8b636ee3018054600160a060020a0319169091179055565b005b61018f61019f3660046106a0565b610321565b61018f6101b23660046106c1565b61049c565b6100e9610538565b600154600160a060020a03166100c4565b6100e9610547565b6100e9610556565b61018f6101ee3660046106a0565b60018054600160a060020a031916600160a060020a0392909216919091179055565b60606000805461021f90610877565b80601f016020809104026020016040519081016040528092919081815260200182805461024b90610877565b80156102985780601f1061026d57610100808354040283529160200191610298565b820191906000526020600020905b81548152906001019060200180831161027b57829003601f168201915b5050505050905090565b60606009805461021f90610877565b60606002805461021f90610877565b6060600880548060200260200160405190810160405280929190818152602001828054801561029857602002820191906000526020600020905b8154600160a060020a031681526001909101906020018083116102fa575050505050905090565b60005b6008548110156104985781600160a060020a03166008828154811061035c5760e060020a634e487b7102600052603260045260246000fd5b600091825260209091200154600160a060020a031614156104865760085460011461041e576008805461039190600190610860565b815481106103b25760e060020a634e487b7102600052603260045260246000fd5b60009182526020909120015460088054600160a060020a0390921691839081106103ef5760e060020a634e487b7102600052603260045260246000fd5b9060005260206000200160006101000a815481600160a060020a030219169083600160a060020a031602179055505b600160a060020a0382166000908152600760205260409020805460ff1916905560088054806104605760e060020a634e487b7102600052603160045260246000fd5b60008281526020902081016000199081018054600160a060020a03191690550190555050565b80610490816108b6565b915050610324565b5050565b86516104af9060009060208a0190610565565b5085516104c3906002906020890190610565565b5084516104d7906003906020880190610565565b5083516104eb906004906020870190610565565b5082516104ff906005906020860190610565565b5060068054600160a060020a031916600160a060020a038416179055805161052e906009906020840190610565565b5050505050505050565b60606004805461021f90610877565b60606005805461021f90610877565b60606003805461021f90610877565b82805461057190610877565b90600052602060002090601f01602090048101928261059357600085556105d9565b82601f106105ac57805160ff19168380011785556105d9565b828001600101855582156105d9579182015b828111156105d95782518255916020019190600101906105be565b506105e59291506105e9565b5090565b5b808211156105e557600081556001016105ea565b8035600160a060020a038116811461061557600080fd5b919050565b600082601f83011261062a578081fd5b81356001604060020a0380821115610644576106446108eb565b604051601f8301601f19908116603f0116810190828211818310171561066c5761066c6108eb565b81604052838152866020858801011115610684578485fd5b8360208701602083013792830160200193909352509392505050565b6000602082840312156106b1578081fd5b6106ba826105fe565b9392505050565b600080600080600080600060e0888a0312156106db578283fd5b87356001604060020a03808211156106f1578485fd5b6106fd8b838c0161061a565b985060208a0135915080821115610712578485fd5b61071e8b838c0161061a565b975060408a0135915080821115610733578485fd5b61073f8b838c0161061a565b965060608a0135915080821115610754578485fd5b6107608b838c0161061a565b955060808a0135915080821115610775578485fd5b6107818b838c0161061a565b945061078f60a08b016105fe565b935060c08a01359150808211156107a4578283fd5b506107b18a828b0161061a565b91505092959891949750929550565b6020808252825182820181905260009190848201906040850190845b81811015610801578351600160a060020a0316835292840192918401916001016107dc565b50909695505050505050565b6000602080835283518082850152825b818110156108395785810183015185820160400152820161081d565b8181111561084a5783604083870101525b50601f01601f1916929092016040019392505050565b600082821015610872576108726108d1565b500390565b60028104600182168061088b57607f821691505b602082108114156108b05760e060020a634e487b710260009081526022600452602490fd5b50919050565b60006000198214156108ca576108ca6108d1565b5060010190565b60e060020a634e487b710260009081526011600452602490fd5b60e060020a634e487b710260009081526041600452602490fdfea2646970667358221220acee26a31c83d9feee6d6ba2f891bf49e11ff6c537bd50d1668e8b048931cb4a64736f6c63430008040033a2646970667358221220f656625cabd69c80cf0b3b83648927a5d5ac0c08319e917e5b0e2267073a584664736f6c63430008040033",
  "linkReferences": {},
  "deployedLinkReferences": {}
}