{
  "_format": "hh-sol-artifact-1",
  "contractName": "DHRMS_GOV",
  "sourceName": "contracts/DHRMS_GOV.sol",
  "abi": [
    {
      "inputs": [
        {
          "internalType": "address",
          "name": "_STORAGE_CONTRACT_ADDRESS",
          "type": "address"
        },
        {
          "internalType": "address",
          "name": "_RBAC_CONTRACT_ADDRESS",
          "type": "address"
        }
      ],
      "stateMutability": "nonpayable",
      "type": "constructor"
    },
    {
      "anonymous": false,
      "inputs": [
        {
          "indexed": false,
          "internalType": "string",
          "name": "officeName",
          "type": "string"
        },
        {
          "indexed": false,
          "internalType": "string",
          "name": "_phoneNumber",
          "type": "string"
        },
        {
          "indexed": false,
          "internalType": "address",
          "name": "_GID",
          "type": "address"
        }
      ],
      "name": "editOffice",
      "type": "event"
    },
    {
      "anonymous": false,
      "inputs": [
        {
          "indexed": false,
          "internalType": "string",
          "name": "officeName",
          "type": "string"
        },
        {
          "indexed": false,
          "internalType": "string",
          "name": "_phoneNumber",
          "type": "string"
        },
        {
          "indexed": false,
          "internalType": "address",
          "name": "_GID",
          "type": "address"
        }
      ],
      "name": "newOffice",
      "type": "event"
    },
    {
      "anonymous": false,
      "inputs": [
        {
          "indexed": false,
          "internalType": "address",
          "name": "_GID",
          "type": "address"
        }
      ],
      "name": "removeOldGovernment",
      "type": "event"
    },
    {
      "inputs": [
        {
          "internalType": "string",
          "name": "_officeName",
          "type": "string"
        },
        {
          "internalType": "string",
          "name": "_phoneNumber",
          "type": "string"
        },
        {
          "internalType": "address",
          "name": "_GID",
          "type": "address"
        }
      ],
      "name": "addGovernmentOffice",
      "outputs": [],
      "stateMutability": "nonpayable",
      "type": "function"
    },
    {
      "inputs": [
        {
          "internalType": "address",
          "name": "_GID",
          "type": "address"
        }
      ],
      "name": "getGovernmentDetails",
      "outputs": [
        {
          "internalType": "string[2]",
          "name": "",
          "type": "string[2]"
        }
      ],
      "stateMutability": "view",
      "type": "function"
    },
    {
      "inputs": [
        {
          "internalType": "address",
          "name": "_GID",
          "type": "address"
        }
      ],
      "name": "removeGovernment",
      "outputs": [],
      "stateMutability": "nonpayable",
      "type": "function"
    },
    {
      "inputs": [
        {
          "internalType": "string",
          "name": "_officeName",
          "type": "string"
        },
        {
          "internalType": "string",
          "name": "_phoneNumber",
          "type": "string"
        },
        {
          "internalType": "address",
          "name": "_GID",
          "type": "address"
        }
      ],
      "name": "setGovernmentOfficeDetails",
      "outputs": [],
      "stateMutability": "nonpayable",
      "type": "function"
    }
  ],
  "bytecode": "0x608060405234801561001057600080fd5b5060405161146738038061146783398101604081905261002f9161007c565b60008054600160a060020a03938416600160a060020a031991821617909155600180549290931691161790556100ae565b8051600160a060020a038116811461007757600080fd5b919050565b6000806040838503121561008e578182fd5b61009783610060565b91506100a560208401610060565b90509250929050565b6113aa806100bd6000396000f3fe60806040523480156200001157600080fd5b5060043610620000555760e060020a60003504630d339ad281146200005a5780634b711dcc1462000073578063b8eb6d1c146200008a578063ce4977e914620000b9575b600080fd5b620000716200006b36600462000a30565b620000d0565b005b620000716200008436600462000970565b620002a6565b620000a16200009b36600462000970565b62000440565b604051620000b0919062000aef565b60405180910390f35b62000071620000ca36600462000a30565b62000669565b600160009054906101000a9004600160a060020a0316600160a060020a031663738833fb6040518163ffffffff1660e060020a02815260040160006040518083038186803b1580156200012257600080fd5b505afa15801562000137573d6000803e3d6000fd5b5050505060008054906101000a9004600160a060020a0316600160a060020a03166315085494828585856040516200016f90620008e3565b6200017d9392919062000b55565b604051809103906000f0801580156200019a573d6000803e3d6000fd5b5060405160e060020a63ffffffff8516028152600160a060020a03928316600482015291166024820152604401600060405180830381600087803b158015620001e257600080fd5b505af1158015620001f7573d6000803e3d6000fd5b505060015460405160e360020a631cbf05f9028152600160a060020a03909116925063e5f82fc891506200023090849060040162000b98565b600060405180830381600087803b1580156200024b57600080fd5b505af115801562000260573d6000803e3d6000fd5b505050507f5a221f2af3823dc4e865f47eb777fd1098e90f3302646b66d2001149303a0fae838383604051620002999392919062000b55565b60405180910390a1505050565b6001546040805160e060020a63ef8a085f028152600160a060020a0380851660048301526024820192909252600a604482015260b260020a6911d3d5915493935153950260648201528392919091169063ef8a085f9060840160006040518083038186803b1580156200031857600080fd5b505afa1580156200032d573d6000803e3d6000fd5b505060005460405160e160020a637ca511ab028152600160a060020a03909116925063f94a235691506200036690859060040162000adb565b600060405180830381600087803b1580156200038157600080fd5b505af115801562000396573d6000803e3d6000fd5b505060015460405160e060020a638dd19969028152600160a060020a039091169250638dd199699150620003cf90859060040162000b98565b600060405180830381600087803b158015620003ea57600080fd5b505af1158015620003ff573d6000803e3d6000fd5b505050507f84844dd311723a5b892d6584e39e8690b0c7193700dee9ecde38ad937dd7e3a78260405162000434919062000adb565b60405180910390a15050565b6200044a620008f1565b604080518082019182905260005460e360020a63114279a702909252908190600160a060020a0316638a13cd3862000486866044850162000adb565b60206040518083038186803b1580156200049f57600080fd5b505afa158015620004b4573d6000803e3d6000fd5b505050506040513d601f19601f82011682018060405250810190620004da919062000996565b600160a060020a0316632c0a85166040518163ffffffff1660e060020a02815260040160006040518083038186803b1580156200051657600080fd5b505afa1580156200052b573d6000803e3d6000fd5b505050506040513d6000823e601f3d908101601f19168201604052620005559190810190620009b5565b815260005460405160e360020a63114279a7028152602090920191600160a060020a0390911690638a13cd38906200059290879060040162000adb565b60206040518083038186803b158015620005ab57600080fd5b505afa158015620005c0573d6000803e3d6000fd5b505050506040513d601f19601f82011682018060405250810190620005e6919062000996565b600160a060020a03166324db757f6040518163ffffffff1660e060020a02815260040160006040518083038186803b1580156200062257600080fd5b505afa15801562000637573d6000803e3d6000fd5b505050506040513d6000823e601f3d908101601f19168201604052620006619190810190620009b5565b905292915050565b600160009054906101000a9004600160a060020a0316600160a060020a031663738833fb6040518163ffffffff1660e060020a02815260040160006040518083038186803b158015620006bb57600080fd5b505afa158015620006d0573d6000803e3d6000fd5b505060005460405160e360020a63114279a7028152600160a060020a039091169250638a13cd3891506200070990849060040162000adb565b60206040518083038186803b1580156200072257600080fd5b505afa15801562000737573d6000803e3d6000fd5b505050506040513d601f19601f820116820180604052508101906200075d919062000996565b600160a060020a031663441e2f09846040518263ffffffff1660e060020a0281526004016200078d919062000b40565b600060405180830381600087803b158015620007a857600080fd5b505af1158015620007bd573d6000803e3d6000fd5b505060005460405160e360020a63114279a7028152600160a060020a039091169250638a13cd389150620007f690849060040162000adb565b60206040518083038186803b1580156200080f57600080fd5b505afa15801562000824573d6000803e3d6000fd5b505050506040513d601f19601f820116820180604052508101906200084a919062000996565b600160a060020a031663086c32e5836040518263ffffffff1660e060020a0281526004016200087a919062000b40565b600060405180830381600087803b1580156200089557600080fd5b505af1158015620008aa573d6000803e3d6000fd5b505050507f6d734ab4428a25ef339a6234f3ef0ed1e4b1c07d3f510d14f4b5d3af4c04729c838383604051620002999392919062000b55565b6106ef8062000c8683390190565b60405180604001604052806002905b6060815260200190600190039081620009005790505090565b600082601f8301126200092a578081fd5b8135620009416200093b8262000bf5565b62000bc2565b81815284602083860101111562000956578283fd5b816020850160208301379081016020019190915292915050565b60006020828403121562000982578081fd5b81356200098f8162000c6c565b9392505050565b600060208284031215620009a8578081fd5b81516200098f8162000c6c565b600060208284031215620009c7578081fd5b81516001604060020a03811115620009dd578182fd5b8201601f81018413620009ee578182fd5b8051620009ff6200093b8262000bf5565b81815285602083850101111562000a14578384fd5b62000a2782602083016020860162000c1f565b95945050505050565b60008060006060848603121562000a45578182fd5b83356001604060020a038082111562000a5c578384fd5b62000a6a8783880162000919565b9450602086013591508082111562000a80578384fd5b5062000a8f8682870162000919565b925050604084013562000aa28162000c6c565b809150509250925092565b6000815180845262000ac781602086016020860162000c1f565b601f01601f19169290920160200192915050565b600160a060020a0391909116815260200190565b60208082526000906060830183820185845b600281101562000b3457601f1987850301835262000b2184835162000aad565b9350918401919084019060010162000b01565b50919695505050505050565b6020815260006200098f602083018462000aad565b60608152600062000b6a606083018662000aad565b828103602084015262000b7e818662000aad565b915050600160a060020a0383166040830152949350505050565b60b260020a6911d3d591549393515395028152600160a060020a0391909116602082015260400190565b604051601f8201601f191681016001604060020a038111828210171562000bed5762000bed62000c52565b604052919050565b60006001604060020a0382111562000c115762000c1162000c52565b50601f01601f191660200190565b60005b8381101562000c3c57818101518382015260200162000c22565b8381111562000c4c576000848401525b50505050565b60e060020a634e487b710260009081526041600452602490fd5b600160a060020a038116811462000c8257600080fd5b5056fe608060405234801561001057600080fd5b506040516106ef3803806106ef83398101604081905261002f916101c0565b825161004290600090602086019061007f565b50815161005690600190602085019061007f565b5060028054600160a060020a031916600160a060020a0392909216919091179055506102c49050565b82805461008b90610241565b90600052602060002090601f0160209004810192826100ad57600085556100f3565b82601f106100c657805160ff19168380011785556100f3565b828001600101855582156100f3579182015b828111156100f35782518255916020019190600101906100d8565b506100ff929150610103565b5090565b5b808211156100ff5760008155600101610104565b600082601f830112610128578081fd5b81516001604060020a038082111561014257610142610295565b604051601f8301601f19908116603f0116810190828211818310171561016a5761016a610295565b81604052838152602092508683858801011115610185578485fd5b8491505b838210156101a65785820183015181830184015290820190610189565b838211156101b657848385830101525b9695505050505050565b6000806000606084860312156101d4578283fd5b83516001604060020a03808211156101ea578485fd5b6101f687838801610118565b9450602086015191508082111561020b578384fd5b5061021886828701610118565b60408601519093509050600160a060020a0381168114610236578182fd5b809150509250925092565b60028104600182168061025557607f821691505b6020821081141561028f577f4e487b7100000000000000000000000000000000000000000000000000000000600052602260045260246000fd5b50919050565b7f4e487b7100000000000000000000000000000000000000000000000000000000600052604160045260246000fd5b61041c806102d36000396000f3fe608060405234801561001057600080fd5b50600436106100655760e060020a6000350463086c32e5811461006a57806324db757f1461007f5780632c0a85161461009d578063441e2f09146100a5578063d665b298146100b8578063d67c2da3146100e8575b600080fd5b61007d610078366004610291565b610103565b005b61008761011a565b604051610094919061033a565b60405180910390f35b6100876101ac565b61007d6100b3366004610291565b6101bb565b61007d6100c6366004610263565b60028054600160a060020a031916600160a060020a0392909216919091179055565b600254604051600160a060020a039091168152602001610094565b80516101169060019060208401906101ca565b5050565b6060600180546101299061038d565b80601f01602080910402602001604051908101604052809291908181526020018280546101559061038d565b80156101a25780601f10610177576101008083540402835291602001916101a2565b820191906000526020600020905b81548152906001019060200180831161018557829003601f168201915b5050505050905090565b6060600080546101299061038d565b80516101169060009060208401905b8280546101d69061038d565b90600052602060002090601f0160209004810192826101f8576000855561023e565b82601f1061021157805160ff191683800117855561023e565b8280016001018555821561023e579182015b8281111561023e578251825591602001919060010190610223565b5061024a92915061024e565b5090565b5b8082111561024a576000815560010161024f565b600060208284031215610274578081fd5b8135600160a060020a038116811461028a578182fd5b9392505050565b6000602082840312156102a2578081fd5b81356001604060020a03808211156102b8578283fd5b818401915084601f8301126102cb578283fd5b8135818111156102dd576102dd6103cc565b604051601f8201601f19908116603f01168101908382118183101715610305576103056103cc565b8160405282815287602084870101111561031d578586fd5b826020860160208301379182016020019490945295945050505050565b6000602080835283518082850152825b818110156103665785810183015185820160400152820161034a565b818111156103775783604083870101525b50601f01601f1916929092016040019392505050565b6002810460018216806103a157607f821691505b602082108114156103c65760e060020a634e487b710260009081526022600452602490fd5b50919050565b60e060020a634e487b710260009081526041600452602490fdfea264697066735822122031ada13bf47a10e79058a8f19cefd0c4e92aee3053932a0ed5a2275e92f717b864736f6c63430008040033a2646970667358221220f3de3b4e34c95f587fd3cd4cdfb410c09af24785ec815399fac2451365c761e564736f6c63430008040033",
  "linkReferences": {},
  "deployedLinkReferences": {}
}