{
  "_format": "hh-sol-artifact-1",
  "contractName": "Main",
  "sourceName": "contracts/Main.sol",
  "abi": [
    {
      "inputs": [
        {
          "internalType": "string",
          "name": "_officeName",
          "type": "string"
        },
        {
          "internalType": "string",
          "name": "_phoneNumber",
          "type": "string"
        }
      ],
      "stateMutability": "nonpayable",
      "type": "constructor"
    },
    {
      "anonymous": false,
      "inputs": [
        {
          "indexed": true,
          "internalType": "bytes32",
          "name": "role",
          "type": "bytes32"
        },
        {
          "indexed": true,
          "internalType": "bytes32",
          "name": "previousAdminRole",
          "type": "bytes32"
        },
        {
          "indexed": true,
          "internalType": "bytes32",
          "name": "newAdminRole",
          "type": "bytes32"
        }
      ],
      "name": "RoleAdminChanged",
      "type": "event"
    },
    {
      "anonymous": false,
      "inputs": [
        {
          "indexed": true,
          "internalType": "bytes32",
          "name": "role",
          "type": "bytes32"
        },
        {
          "indexed": true,
          "internalType": "address",
          "name": "account",
          "type": "address"
        },
        {
          "indexed": true,
          "internalType": "address",
          "name": "sender",
          "type": "address"
        }
      ],
      "name": "RoleGranted",
      "type": "event"
    },
    {
      "anonymous": false,
      "inputs": [
        {
          "indexed": true,
          "internalType": "bytes32",
          "name": "role",
          "type": "bytes32"
        },
        {
          "indexed": true,
          "internalType": "address",
          "name": "account",
          "type": "address"
        },
        {
          "indexed": true,
          "internalType": "address",
          "name": "sender",
          "type": "address"
        }
      ],
      "name": "RoleRevoked",
      "type": "event"
    },
    {
      "anonymous": false,
      "inputs": [
        {
          "indexed": false,
          "internalType": "string",
          "name": "_doctorName",
          "type": "string"
        },
        {
          "indexed": false,
          "internalType": "string",
          "name": "_phoneNumber",
          "type": "string"
        },
        {
          "indexed": false,
          "internalType": "string",
          "name": "_qualification",
          "type": "string"
        },
        {
          "indexed": false,
          "internalType": "string",
          "name": "_photo",
          "type": "string"
        },
        {
          "indexed": false,
          "internalType": "string",
          "name": "_dob",
          "type": "string"
        },
        {
          "indexed": false,
          "internalType": "address",
          "name": "_HID",
          "type": "address"
        },
        {
          "indexed": false,
          "internalType": "address",
          "name": "_DID",
          "type": "address"
        },
        {
          "indexed": false,
          "internalType": "string",
          "name": "_department",
          "type": "string"
        }
      ],
      "name": "newDoctor",
      "type": "event"
    },
    {
      "anonymous": false,
      "inputs": [
        {
          "indexed": false,
          "internalType": "string",
          "name": "HospitalName",
          "type": "string"
        },
        {
          "indexed": false,
          "internalType": "string",
          "name": "ph_no",
          "type": "string"
        },
        {
          "indexed": false,
          "internalType": "address",
          "name": "HID",
          "type": "address"
        }
      ],
      "name": "newHospital",
      "type": "event"
    },
    {
      "anonymous": false,
      "inputs": [
        {
          "indexed": false,
          "internalType": "string",
          "name": "officeName",
          "type": "string"
        },
        {
          "indexed": false,
          "internalType": "string",
          "name": "_phoneNumber",
          "type": "string"
        },
        {
          "indexed": false,
          "internalType": "address",
          "name": "_GID",
          "type": "address"
        }
      ],
      "name": "newOffice",
      "type": "event"
    },
    {
      "anonymous": false,
      "inputs": [
        {
          "indexed": false,
          "internalType": "string",
          "name": "_details",
          "type": "string"
        },
        {
          "indexed": false,
          "internalType": "address",
          "name": "_PID",
          "type": "address"
        }
      ],
      "name": "newPatient",
      "type": "event"
    },
    {
      "anonymous": false,
      "inputs": [
        {
          "indexed": false,
          "internalType": "address",
          "name": "_DID",
          "type": "address"
        }
      ],
      "name": "newReadAccess",
      "type": "event"
    },
    {
      "anonymous": false,
      "inputs": [
        {
          "indexed": false,
          "internalType": "string",
          "name": "_file",
          "type": "string"
        },
        {
          "indexed": false,
          "internalType": "address",
          "name": "_PID",
          "type": "address"
        }
      ],
      "name": "newRecordForUpload",
      "type": "event"
    },
    {
      "anonymous": false,
      "inputs": [
        {
          "indexed": false,
          "internalType": "string",
          "name": "_file",
          "type": "string"
        },
        {
          "indexed": false,
          "internalType": "address",
          "name": "_PID",
          "type": "address"
        },
        {
          "indexed": false,
          "internalType": "address",
          "name": "_HID",
          "type": "address"
        }
      ],
      "name": "newRecordForUploadH",
      "type": "event"
    },
    {
      "anonymous": false,
      "inputs": [
        {
          "indexed": false,
          "internalType": "address",
          "name": "_HID",
          "type": "address"
        }
      ],
      "name": "newWriteAccess",
      "type": "event"
    },
    {
      "anonymous": false,
      "inputs": [
        {
          "indexed": false,
          "internalType": "address",
          "name": "_DID",
          "type": "address"
        }
      ],
      "name": "removeReadAccessDoctor",
      "type": "event"
    },
    {
      "anonymous": false,
      "inputs": [
        {
          "indexed": false,
          "internalType": "address",
          "name": "_HID",
          "type": "address"
        }
      ],
      "name": "removeWriteAccessHospital",
      "type": "event"
    },
    {
      "inputs": [],
      "name": "DEFAULT_ADMIN_ROLE",
      "outputs": [
        {
          "internalType": "bytes32",
          "name": "",
          "type": "bytes32"
        }
      ],
      "stateMutability": "view",
      "type": "function"
    },
    {
      "inputs": [],
      "name": "DOCTOR",
      "outputs": [
        {
          "internalType": "bytes32",
          "name": "",
          "type": "bytes32"
        }
      ],
      "stateMutability": "view",
      "type": "function"
    },
    {
      "inputs": [],
      "name": "GOVERNMENT",
      "outputs": [
        {
          "internalType": "bytes32",
          "name": "",
          "type": "bytes32"
        }
      ],
      "stateMutability": "view",
      "type": "function"
    },
    {
      "inputs": [],
      "name": "HOSPITAL",
      "outputs": [
        {
          "internalType": "bytes32",
          "name": "",
          "type": "bytes32"
        }
      ],
      "stateMutability": "view",
      "type": "function"
    },
    {
      "inputs": [],
      "name": "PATIENT",
      "outputs": [
        {
          "internalType": "bytes32",
          "name": "",
          "type": "bytes32"
        }
      ],
      "stateMutability": "view",
      "type": "function"
    },
    {
      "inputs": [
        {
          "internalType": "string",
          "name": "_doctorName",
          "type": "string"
        },
        {
          "internalType": "string",
          "name": "_phoneNumber",
          "type": "string"
        },
        {
          "internalType": "string",
          "name": "_qualification",
          "type": "string"
        },
        {
          "internalType": "string",
          "name": "_photo",
          "type": "string"
        },
        {
          "internalType": "string",
          "name": "_dob",
          "type": "string"
        },
        {
          "internalType": "address",
          "name": "_HID",
          "type": "address"
        },
        {
          "internalType": "address",
          "name": "_DID",
          "type": "address"
        },
        {
          "internalType": "string",
          "name": "_department",
          "type": "string"
        }
      ],
      "name": "addDoctor",
      "outputs": [],
      "stateMutability": "nonpayable",
      "type": "function"
    },
    {
      "inputs": [
        {
          "internalType": "string",
          "name": "_officeName",
          "type": "string"
        },
        {
          "internalType": "string",
          "name": "_phoneNumber",
          "type": "string"
        },
        {
          "internalType": "address",
          "name": "_GID",
          "type": "address"
        }
      ],
      "name": "addGovernmentOffice",
      "outputs": [],
      "stateMutability": "nonpayable",
      "type": "function"
    },
    {
      "inputs": [
        {
          "internalType": "string",
          "name": "_hospitalName",
          "type": "string"
        },
        {
          "internalType": "string",
          "name": "_phoneNumber",
          "type": "string"
        },
        {
          "internalType": "address",
          "name": "_HID",
          "type": "address"
        }
      ],
      "name": "addHospital",
      "outputs": [],
      "stateMutability": "nonpayable",
      "type": "function"
    },
    {
      "inputs": [
        {
          "internalType": "string",
          "name": "_details",
          "type": "string"
        },
        {
          "internalType": "address",
          "name": "_PID",
          "type": "address"
        }
      ],
      "name": "addPatient",
      "outputs": [],
      "stateMutability": "nonpayable",
      "type": "function"
    },
    {
      "inputs": [
        {
          "internalType": "address",
          "name": "_DID",
          "type": "address"
        }
      ],
      "name": "getDoctorDetails",
      "outputs": [
        {
          "internalType": "string[6]",
          "name": "",
          "type": "string[6]"
        }
      ],
      "stateMutability": "view",
      "type": "function"
    },
    {
      "inputs": [
        {
          "internalType": "address",
          "name": "_DID",
          "type": "address"
        }
      ],
      "name": "getDoctorH",
      "outputs": [
        {
          "internalType": "address",
          "name": "",
          "type": "address"
        }
      ],
      "stateMutability": "view",
      "type": "function"
    },
    {
      "inputs": [
        {
          "internalType": "address",
          "name": "_PID",
          "type": "address"
        }
      ],
      "name": "getDoctorsList",
      "outputs": [
        {
          "internalType": "address[]",
          "name": "",
          "type": "address[]"
        }
      ],
      "stateMutability": "view",
      "type": "function"
    },
    {
      "inputs": [
        {
          "internalType": "address",
          "name": "_GID",
          "type": "address"
        }
      ],
      "name": "getGovernmentDetails",
      "outputs": [
        {
          "internalType": "string[2]",
          "name": "",
          "type": "string[2]"
        }
      ],
      "stateMutability": "view",
      "type": "function"
    },
    {
      "inputs": [
        {
          "internalType": "address",
          "name": "_HID",
          "type": "address"
        }
      ],
      "name": "getHospitalDetails",
      "outputs": [
        {
          "internalType": "string[2]",
          "name": "",
          "type": "string[2]"
        }
      ],
      "stateMutability": "view",
      "type": "function"
    },
    {
      "inputs": [
        {
          "internalType": "address",
          "name": "_HID",
          "type": "address"
        }
      ],
      "name": "getHospitalDoctorList",
      "outputs": [
        {
          "internalType": "address[]",
          "name": "",
          "type": "address[]"
        }
      ],
      "stateMutability": "view",
      "type": "function"
    },
    {
      "inputs": [
        {
          "internalType": "address",
          "name": "_HID",
          "type": "address"
        }
      ],
      "name": "getHospitalPatientList",
      "outputs": [
        {
          "internalType": "address[]",
          "name": "",
          "type": "address[]"
        }
      ],
      "stateMutability": "view",
      "type": "function"
    },
    {
      "inputs": [
        {
          "internalType": "address",
          "name": "_PID",
          "type": "address"
        }
      ],
      "name": "getHospitalsList",
      "outputs": [
        {
          "internalType": "address[]",
          "name": "",
          "type": "address[]"
        }
      ],
      "stateMutability": "view",
      "type": "function"
    },
    {
      "inputs": [
        {
          "internalType": "address",
          "name": "_PID",
          "type": "address"
        }
      ],
      "name": "getPatientDetails",
      "outputs": [
        {
          "internalType": "string",
          "name": "",
          "type": "string"
        }
      ],
      "stateMutability": "view",
      "type": "function"
    },
    {
      "inputs": [
        {
          "internalType": "address",
          "name": "_DID",
          "type": "address"
        }
      ],
      "name": "getPatientList",
      "outputs": [
        {
          "internalType": "address[]",
          "name": "",
          "type": "address[]"
        }
      ],
      "stateMutability": "view",
      "type": "function"
    },
    {
      "inputs": [
        {
          "internalType": "address",
          "name": "_PID",
          "type": "address"
        }
      ],
      "name": "getRecordsHistory",
      "outputs": [
        {
          "internalType": "string[]",
          "name": "",
          "type": "string[]"
        }
      ],
      "stateMutability": "view",
      "type": "function"
    },
    {
      "inputs": [
        {
          "internalType": "bytes32",
          "name": "role",
          "type": "bytes32"
        }
      ],
      "name": "getRoleAdmin",
      "outputs": [
        {
          "internalType": "bytes32",
          "name": "",
          "type": "bytes32"
        }
      ],
      "stateMutability": "view",
      "type": "function"
    },
    {
      "inputs": [
        {
          "internalType": "address",
          "name": "_DID",
          "type": "address"
        }
      ],
      "name": "giveReadAccess",
      "outputs": [],
      "stateMutability": "nonpayable",
      "type": "function"
    },
    {
      "inputs": [
        {
          "internalType": "address",
          "name": "_HID",
          "type": "address"
        }
      ],
      "name": "giveWriteAccess",
      "outputs": [],
      "stateMutability": "nonpayable",
      "type": "function"
    },
    {
      "inputs": [
        {
          "internalType": "bytes32",
          "name": "role",
          "type": "bytes32"
        },
        {
          "internalType": "address",
          "name": "account",
          "type": "address"
        }
      ],
      "name": "grantRole",
      "outputs": [],
      "stateMutability": "nonpayable",
      "type": "function"
    },
    {
      "inputs": [
        {
          "internalType": "bytes32",
          "name": "role",
          "type": "bytes32"
        },
        {
          "internalType": "address",
          "name": "account",
          "type": "address"
        }
      ],
      "name": "hasRole",
      "outputs": [
        {
          "internalType": "bool",
          "name": "",
          "type": "bool"
        }
      ],
      "stateMutability": "view",
      "type": "function"
    },
    {
      "inputs": [
        {
          "internalType": "address",
          "name": "_GID",
          "type": "address"
        }
      ],
      "name": "isDoctor",
      "outputs": [
        {
          "internalType": "bool",
          "name": "",
          "type": "bool"
        }
      ],
      "stateMutability": "view",
      "type": "function"
    },
    {
      "inputs": [
        {
          "internalType": "address",
          "name": "_GID",
          "type": "address"
        }
      ],
      "name": "isGovernment",
      "outputs": [
        {
          "internalType": "bool",
          "name": "",
          "type": "bool"
        }
      ],
      "stateMutability": "view",
      "type": "function"
    },
    {
      "inputs": [
        {
          "internalType": "address",
          "name": "_GID",
          "type": "address"
        }
      ],
      "name": "isHospital",
      "outputs": [
        {
          "internalType": "bool",
          "name": "",
          "type": "bool"
        }
      ],
      "stateMutability": "view",
      "type": "function"
    },
    {
      "inputs": [
        {
          "internalType": "address",
          "name": "_GID",
          "type": "address"
        }
      ],
      "name": "isPatient",
      "outputs": [
        {
          "internalType": "bool",
          "name": "",
          "type": "bool"
        }
      ],
      "stateMutability": "view",
      "type": "function"
    },
    {
      "inputs": [
        {
          "internalType": "address",
          "name": "_DID",
          "type": "address"
        }
      ],
      "name": "removeReadAccess",
      "outputs": [],
      "stateMutability": "nonpayable",
      "type": "function"
    },
    {
      "inputs": [
        {
          "internalType": "address",
          "name": "_HID",
          "type": "address"
        }
      ],
      "name": "removeWriteAccess",
      "outputs": [],
      "stateMutability": "nonpayable",
      "type": "function"
    },
    {
      "inputs": [
        {
          "internalType": "bytes32",
          "name": "role",
          "type": "bytes32"
        },
        {
          "internalType": "address",
          "name": "account",
          "type": "address"
        }
      ],
      "name": "renounceRole",
      "outputs": [],
      "stateMutability": "nonpayable",
      "type": "function"
    },
    {
      "inputs": [
        {
          "internalType": "address",
          "name": "_PID",
          "type": "address"
        },
        {
          "internalType": "string",
          "name": "_CID",
          "type": "string"
        }
      ],
      "name": "reportUploaded",
      "outputs": [],
      "stateMutability": "nonpayable",
      "type": "function"
    },
    {
      "inputs": [
        {
          "internalType": "bytes32",
          "name": "role",
          "type": "bytes32"
        },
        {
          "internalType": "address",
          "name": "account",
          "type": "address"
        }
      ],
      "name": "revokeRole",
      "outputs": [],
      "stateMutability": "nonpayable",
      "type": "function"
    },
    {
      "inputs": [
        {
          "internalType": "string",
          "name": "_file",
          "type": "string"
        },
        {
          "internalType": "address",
          "name": "_PID",
          "type": "address"
        }
      ],
      "name": "sendRecordsForUpload",
      "outputs": [],
      "stateMutability": "nonpayable",
      "type": "function"
    },
    {
      "inputs": [
        {
          "internalType": "string",
          "name": "_file",
          "type": "string"
        },
        {
          "internalType": "address",
          "name": "_PID",
          "type": "address"
        },
        {
          "internalType": "address",
          "name": "_HID",
          "type": "address"
        }
      ],
      "name": "sendRecordsForUploadH",
      "outputs": [],
      "stateMutability": "nonpayable",
      "type": "function"
    },
    {
      "inputs": [
        {
          "internalType": "bytes4",
          "name": "interfaceId",
          "type": "bytes4"
        }
      ],
      "name": "supportsInterface",
      "outputs": [
        {
          "internalType": "bool",
          "name": "",
          "type": "bool"
        }
      ],
      "stateMutability": "view",
      "type": "function"
    }
  ],
  "bytecode": "0x60806040523480156200001157600080fd5b50604051620069ed380380620069ed833981016040819052620000349162000403565b6000828233604051620000479062000366565b620000559392919062000498565b604051809103906000f08015801562000072573d6000803e3d6000fd5b503360008181526004602052604090208054600160a060020a031916600160a060020a038416179055909150620000d4907f474f5645524e4d454e54000000000000000000000000000000000000000000009064010000000062000211810204565b620001097f474f5645524e4d454e5400000000000000000000000000000000000000000000806401000000006200022a810204565b6200015e7f50415449454e54000000000000000000000000000000000000000000000000007f474f5645524e4d454e54000000000000000000000000000000000000000000006401000000006200022a810204565b620001b37f484f53504954414c0000000000000000000000000000000000000000000000007f474f5645524e4d454e54000000000000000000000000000000000000000000006401000000006200022a810204565b620002087f444f43544f5200000000000000000000000000000000000000000000000000007f474f5645524e4d454e54000000000000000000000000000000000000000000006401000000006200022a810204565b5050506200053d565b62000226828264010000000062000288810204565b5050565b6000620002408364010000000062000324810204565b600084815260208190526040808220600101859055519192508391839186917fbd79b86ffe0ab8e8776151514217cd7cacd52c909f66475c3af44e129f0b00ff9190a4505050565b6200029d828264010000000062000339810204565b6200022657600082815260208181526040808320600160a060020a03851684529091529020805460ff19166001179055620002e064010000000062000362810204565b600160a060020a031681600160a060020a0316837f2f8788117e7eff1d82e926ec794901d17c78024a50270940304540a733656f0d60405160405180910390a45050565b60009081526020819052604090206001015490565b600091825260208281526040808420600160a060020a0393909316845291905290205460ff1690565b3390565b6106ef80620062fe83390190565b600082601f83011262000385578081fd5b81516001604060020a0380821115620003a257620003a26200050e565b604051601f8301601f19908116603f01168101908282118183101715620003cd57620003cd6200050e565b81604052838152866020858801011115620003e6578485fd5b620003f9846020830160208901620004db565b9695505050505050565b6000806040838503121562000416578182fd5b82516001604060020a03808211156200042d578384fd5b6200043b8683870162000374565b9350602085015191508082111562000451578283fd5b50620004608582860162000374565b9150509250929050565b6000815180845262000484816020860160208601620004db565b601f01601f19169290920160200192915050565b606081526000620004ad60608301866200046a565b8281036020840152620004c181866200046a565b915050600160a060020a0383166040830152949350505050565b60005b83811015620004f8578181015183820152602001620004de565b8381111562000508576000848401525b50505050565b7f4e487b7100000000000000000000000000000000000000000000000000000000600052604160045260246000fd5b615db1806200054d6000396000f3fe60806040523480156200001157600080fd5b5060043610620001e15760e060020a600035046301ffc9a78114620001e65780630bb307a814620002125780630d339ad2146200023857806313fa053514620002515780631f500061146200026857806322f544c9146200029f578063248a9ca314620002c557806327bbe7ee14620002dc5780632a386d1914620003045780632efbdf82146200031b5780632f2ff15d146200034357806336568abe146200035a57806351d9ab381462000371578063666ac06d14620003885780636c2b04fd146200039f5780636d10445214620003b65780637228c27414620003de5780637aa8074014620004045780638bd87475146200041b5780638f9c79ed146200043257806391d148541462000449578063996440c614620004605780639c9113091462000477578063a217fddf146200048e578063a726065f1462000497578063af0611b014620004ae578063b39a225d14620004d4578063b8eb6d1c14620004eb578063bab90dbd1462000502578063bdf6c6731462000528578063c2ec5fe2146200053f578063d18dbe251462000556578063d547741f146200056d578063efe2ccc11462000584578063eff172a014620005aa578063f039775814620005c1578063fae73e5514620005d8575b600080fd5b620001fd620001f736600462002383565b620005ef565b60405190151581526020015b60405180910390f35b62000229620002233660046200214b565b6200062d565b60405162000209919062002739565b6200024f6200024936600462002496565b6200075e565b005b6200024f620002623660046200214b565b62000862565b620002907fe5786ee6f50ab1a5567cb3f3f6840a2f4ddbafdf4a35cb2c52d5b732b1e84a3281565b60405190815260200162000209565b620002b6620002b03660046200214b565b620009ba565b604051620002099190620026d6565b62000290620002d636600462002338565b62000a4b565b620002907f72d66193ff00a845b4aed5f27e02d9b558ef32be1495a41d00c5c5fb191a076381565b6200024f6200031536600462002508565b62000a60565b620002907fc9c8e67a61d2e7371df46522b44051b955c16bf4b713ef44e1373b25bfcd80b281565b6200024f6200035436600462002351565b62000b70565b6200024f6200036b36600462002351565b62000b98565b6200024f6200038236600462002496565b62000c20565b6200024f620003993660046200214b565b62000d0b565b620001fd620003b03660046200214b565b62000e58565b620002907fc7a6bfa28ee24953425efb0bb89772445020cd5ae1af751673fd61a47416f01781565b620003f5620003ef3660046200214b565b62000e76565b604051620002099190620026ea565b6200024f620004153660046200214b565b62000f0b565b6200024f6200042c366004620023e3565b62001058565b620001fd620004433660046200214b565b6200114b565b620001fd6200045a36600462002351565b62001161565b620001fd620004713660046200214b565b6200118a565b620003f5620004883660046200214b565b620011a4565b62000290600081565b620003f5620004a83660046200214b565b620011fa565b620004c5620004bf3660046200214b565b62001250565b604051620002099190620027cf565b620003f5620004e53660046200214b565b620012e5565b62000229620004fc3660046200214b565b6200133b565b62000519620005133660046200214b565b620013a3565b6040516200020991906200278a565b620001fd620005393660046200214b565b62001691565b6200024f6200055036600462002189565b620016ad565b620003f5620005673660046200214b565b620017cd565b6200024f6200057e36600462002351565b62001823565b6200059b620005953660046200214b565b62001846565b60405162000209919062002833565b6200024f620005bb3660046200214b565b620018db565b6200024f620005d23660046200242d565b62001a28565b6200024f620005e9366004620023e3565b62001b05565b6000600160e060020a0319821660e060020a637965db0b02148062000627575060e060020a6301ffc9a702600160e060020a03198316145b92915050565b6200063762002015565b600160a060020a0380831660009081526003602052604080822054815180830180845260e060020a63c98d66c1029052915193169290918291849163c98d66c1916044808601929190818703018186803b1580156200069557600080fd5b505afa158015620006aa573d6000803e3d6000fd5b505050506040513d6000823e601f3d908101601f19168201604052620006d49190810190620023ad565b815260200182600160a060020a03166324db757f6040518163ffffffff1660e060020a02815260040160006040518083038186803b1580156200071657600080fd5b505afa1580156200072b573d6000803e3d6000fd5b505050506040513d6000823e601f3d908101601f19168201604052620007559190810190620023ad565b90529392505050565b620007693362000e58565b620007945760405160e560020a62461bcd0281526004016200078b9062002a40565b60405180910390fd5b6000838383604051620007a7906200203d565b620007b593929190620028ec565b604051809103906000f080158015620007d2573d6000803e3d6000fd5b50600160a060020a0383811660009081526004602052604090208054600160a060020a03191691831691909117905590506200081f60b260020a6911d3d591549393515395028362000b70565b7f5a221f2af3823dc4e865f47eb777fd1098e90f3302646b66d2001149303a0fae8484846040516200085493929190620028ec565b60405180910390a150505050565b6200086d336200114b565b6200088f5760405160e560020a62461bcd0281526004016200078b9062002a0d565b336000908152600160205260409081902054905160e060020a634780468f028152600160a060020a0390911690634780468f90620008d2908490600401620026d6565b600060405180830381600087803b158015620008ed57600080fd5b505af115801562000902573d6000803e3d6000fd5b505050600160a060020a038083166000908152600260205260409081902054905160e060020a636d263ceb02815291169150636d263ceb906200094a903390600401620026d6565b600060405180830381600087803b1580156200096557600080fd5b505af11580156200097a573d6000803e3d6000fd5b505050507f53a5d5073445924f6f0ab5d28be5957021597716e4ce5287d530b44d9e1bd79581604051620009af9190620026d6565b60405180910390a150565b600160a060020a03808216600090815260026020908152604080832054815160e160020a630c3b4ea30281529151939416926318769d4692600480840193919291829003018186803b15801562000a1057600080fd5b505afa15801562000a25573d6000803e3d6000fd5b505050506040513d601f19601f820116820180604052508101906200062791906200216a565b60009081526020819052604090206001015490565b62000a6b3362000e58565b62000a8d5760405160e560020a62461bcd0281526004016200078b9062002a40565b6000888888888888888860405162000aa5906200204b565b62000ab89897969594939291906200292f565b604051809103906000f08015801562000ad5573d6000803e3d6000fd5b50600160a060020a0384811660009081526002602052604090208054600160a060020a031916918316919091179055905062000b1e60d160020a652227a1aa27a9028462000b70565b7f7ac1eb3e2fa678a2606f7b6f7a51be798e4818cb448cb2e2ed79b10542bc7cb0898989898989898960405162000b5d9897969594939291906200292f565b60405180910390a1505050505050505050565b62000b7b8262000a4b565b62000b87813362001c9a565b62000b93838362001d0c565b505050565b600160a060020a038116331462000c105760405160e560020a62461bcd02815260206004820152602f60248201527f416363657373436f6e74726f6c3a2063616e206f6e6c792072656e6f756e63656044820152608960020a6e103937b632b9903337b91039b2b6330260648201526084016200078b565b62000c1c828262001d94565b5050565b62000c2b3362000e58565b62000c4d5760405160e560020a62461bcd0281526004016200078b9062002a40565b600083828460405162000c609062002059565b62000c6e93929190620028aa565b604051809103906000f08015801562000c8b573d6000803e3d6000fd5b50600160a060020a0383811660009081526003602052604090208054600160a060020a031916918316919091179055905062000cd660c260020a671213d4d412551053028362000b70565b7fc0bf761bab03f0ace87d44f1cafb9a354a731c0068428df38a4c236ba2b6e5aa8484846040516200085493929190620028ec565b62000d16336200114b565b62000d385760405160e560020a62461bcd0281526004016200078b9062002a0d565b336000908152600160205260409081902054905160e060020a6398fc90e9028152600160a060020a03909116906398fc90e99062000d7b908490600401620026d6565b600060405180830381600087803b15801562000d9657600080fd5b505af115801562000dab573d6000803e3d6000fd5b505050600160a060020a038083166000908152600260205260409081902054905160e060020a637d0d625702815291169150637d0d62579062000df3903390600401620026d6565b600060405180830381600087803b15801562000e0e57600080fd5b505af115801562000e23573d6000803e3d6000fd5b505050507f643ced6c3ed4b4f2b12bb31a053be47f35392a7eb3530af0da0f1bd5a3d427bb81604051620009af9190620026d6565b60006200062760b260020a6911d3d591549393515395028362001161565b600160a060020a0380821660009081526003602052604080822054815160e160020a6364a8b8d70281529151606094919091169263c95171ae9260048082019391829003018186803b15801562000ecc57600080fd5b505afa15801562000ee1573d6000803e3d6000fd5b505050506040513d6000823e601f3d908101601f19168201604052620006279190810190620021dc565b62000f16336200114b565b62000f385760405160e560020a62461bcd0281526004016200078b9062002a0d565b336000908152600160205260409081902054905160e160020a6354b4c483028152600160a060020a039091169063a96989069062000f7b908490600401620026d6565b600060405180830381600087803b15801562000f9657600080fd5b505af115801562000fab573d6000803e3d6000fd5b505050600160a060020a038083166000908152600360205260409081902054905160e060020a637d0d625702815291169150637d0d62579062000ff3903390600401620026d6565b600060405180830381600087803b1580156200100e57600080fd5b505af115801562001023573d6000803e3d6000fd5b505050507f5bf130f35b955ef046877f1772742e11cd0383e12ede97089d30dc257b6055d881604051620009af9190620026d6565b620010633362000e58565b620010855760405160e560020a62461bcd0281526004016200078b9062002a40565b60008282604051620010979062002067565b620010a492919062002848565b604051809103906000f080158015620010c1573d6000803e3d6000fd5b50600160a060020a0383811660009081526001602052604090208054600160a060020a03191691831691909117905590506200110b60ca60020a6614105512515395028362000b70565b7f2cc2297518d2e95f47e8d56a542b31d771111b8005cd026ebb7cd0d9107fbeec83836040516200113e92919062002848565b60405180910390a1505050565b60006200062760ca60020a661410551251539502835b600091825260208281526040808420600160a060020a0393909316845291905290205460ff1690565b60006200062760d160020a652227a1aa27a9028362001161565b600160a060020a0380821660009081526002602052604080822054815160e260020a63140ec4d50281529151606094919091169263503b13549260048082019391829003018186803b15801562000ecc57600080fd5b600160a060020a0380821660009081526001602052604080822054815160e160020a633ad290cb028152915160609491909116926375a521969260048082019391829003018186803b15801562000ecc57600080fd5b600160a060020a0380821660009081526001602052604080822054815160e060020a6363c339c3028152915160609491909116926363c339c39260048082019391829003018186803b158015620012a657600080fd5b505afa158015620012bb573d6000803e3d6000fd5b505050506040513d6000823e601f3d908101601f191682016040526200062791908101906200227f565b600160a060020a0380821660009081526003602052604080822054815160e160020a6333cd098d0281529151606094919091169263679a131a9260048082019391829003018186803b15801562000ecc57600080fd5b6200134562002015565b600160a060020a0380831660009081526004602052604080822054815180830180845260e160020a631605428b0290529151931692909182918491632c0a8516916044808601929190818703018186803b1580156200069557600080fd5b620013ad62002075565b600160a060020a0380831660009081526002602052604080822054815160c0810180845260e460020a6302796c8f0290529151931692909182918491632796c8f09160c4808601929190818703018186803b1580156200140c57600080fd5b505afa15801562001421573d6000803e3d6000fd5b505050506040513d6000823e601f3d908101601f191682016040526200144b9190810190620023ad565b815260200182600160a060020a0316632f5319e16040518163ffffffff1660e060020a02815260040160006040518083038186803b1580156200148d57600080fd5b505afa158015620014a2573d6000803e3d6000fd5b505050506040513d6000823e601f3d908101601f19168201604052620014cc9190810190620023ad565b815260200182600160a060020a031663ce3dc9416040518163ffffffff1660e060020a02815260040160006040518083038186803b1580156200150e57600080fd5b505afa15801562001523573d6000803e3d6000fd5b505050506040513d6000823e601f3d908101601f191682016040526200154d9190810190620023ad565b815260200182600160a060020a031663b2ec005e6040518163ffffffff1660e060020a02815260040160006040518083038186803b1580156200158f57600080fd5b505afa158015620015a4573d6000803e3d6000fd5b505050506040513d6000823e601f3d908101601f19168201604052620015ce9190810190620023ad565b815260200182600160a060020a031663bef31c3c6040518163ffffffff1660e060020a02815260040160006040518083038186803b1580156200161057600080fd5b505afa15801562001625573d6000803e3d6000fd5b505050506040513d6000823e601f3d908101601f191682016040526200164f9190810190620023ad565b815260200182600160a060020a03166327d206656040518163ffffffff1660e060020a02815260040160006040518083038186803b1580156200071657600080fd5b60006200062760c260020a671213d4d412551053028362001161565b620016b83362001691565b620016da5760405160e560020a62461bcd0281526004016200078b90620029d9565b600160a060020a038083166000908152600160205260409081902054905160e060020a632c7ac18f028152911690632c7ac18f906200171e90849060040162002833565b600060405180830381600087803b1580156200173957600080fd5b505af11580156200174e573d6000803e3d6000fd5b5050336000908152600360205260409081902054905160e060020a633dcda785028152600160a060020a039091169250633dcda785915062001795908590600401620026d6565b600060405180830381600087803b158015620017b057600080fd5b505af1158015620017c5573d6000803e3d6000fd5b505050505050565b600160a060020a0380821660009081526001602052604080822054815160e160020a6364a8b8d70281529151606094919091169263c95171ae9260048082019391829003018186803b15801562000ecc57600080fd5b6200182e8262000a4b565b6200183a813362001c9a565b62000b93838362001d94565b600160a060020a0380821660009081526001602052604080822054815160e560020a6307ddfc9d0281529151606094919091169263fbbf93a09260048082019391829003018186803b1580156200189c57600080fd5b505afa158015620018b1573d6000803e3d6000fd5b505050506040513d6000823e601f3d908101601f19168201604052620006279190810190620023ad565b620018e6336200114b565b620019085760405160e560020a62461bcd0281526004016200078b9062002a0d565b336000908152600160205260409081902054905160e060020a631b470bc7028152600160a060020a0390911690631b470bc7906200194b908490600401620026d6565b600060405180830381600087803b1580156200196657600080fd5b505af11580156200197b573d6000803e3d6000fd5b505050600160a060020a038083166000908152600360205260409081902054905160e060020a636d263ceb02815291169150636d263ceb90620019c3903390600401620026d6565b600060405180830381600087803b158015620019de57600080fd5b505af1158015620019f3573d6000803e3d6000fd5b505050507ff2e80366c255f5b265e62473d0d8bb0434b573ebddcd2f54ea020c53f7e2b40f81604051620009af9190620026d6565b62001a333362001691565b62001a555760405160e560020a62461bcd0281526004016200078b90620029d9565b336000908152600360205260409081902054905160e460020a6308780643028152600160a060020a039091169063878064309062001a9c9086908690869060040162002875565b600060405180830381600087803b15801562001ab757600080fd5b505af115801562001acc573d6000803e3d6000fd5b505050507f48c05cd96788c4764657e993136a23a8cadeb1fb184af08d28a5c67435195ec78383836040516200113e9392919062002875565b62001b10336200118a565b62001b5c5760405160e560020a62461bcd0281526020600482015260156024820152605960020a742932b9ba3934b1ba32b2103a37902227a1aa27a9170260448201526064016200078b565b33600090815260026020908152604080832054815160e160020a630c3b4ea30281529151600160a060020a03909116926318769d469260048082019391829003018186803b15801562001bae57600080fd5b505afa15801562001bc3573d6000803e3d6000fd5b505050506040513d601f19601f8201168201806040525081019062001be991906200216a565b600160a060020a038082166000908152600360205260409081902054905160e460020a6308780643028152929350169063878064309062001c339086908690869060040162002875565b600060405180830381600087803b15801562001c4e57600080fd5b505af115801562001c63573d6000803e3d6000fd5b505050507f27d49ad94ae77b9904d394961a5a3eca91f927e8829d026a2fe22a0a6fcabb1283836040516200113e92919062002848565b62001ca6828262001161565b62000c1c5762001cc181600160a060020a0316601462001dfc565b62001cce83602062001dfc565b60405160200162001ce19291906200265d565b60408051601f198184030181529082905260e560020a62461bcd0282526200078b9160040162002833565b62001d18828262001161565b62000c1c57600082815260208181526040808320600160a060020a03851684529091529020805460ff1916600117905562001d503390565b600160a060020a031681600160a060020a0316837f2f8788117e7eff1d82e926ec794901d17c78024a50270940304540a733656f0d60405160405180910390a45050565b62001da0828262001161565b1562000c1c57600082815260208181526040808320600160a060020a0385168085529252808320805460ff1916905551339285917ff6391f5c32d9c69d2a47ea670b442974b53935d1edc7fd64eb21e047a839171b9190a45050565b6060600062001e0d83600262002b0f565b62001e1a90600262002af4565b6001604060020a0381111562001e435760e060020a634e487b7102600052604160045260246000fd5b6040519080825280601f01601f19166020018201604052801562001e6e576020820181803683370190505b50905060fc60020a6003028160008151811062001e9e5760e060020a634e487b7102600052603260045260246000fd5b6020010190600160f860020a031916908160001a90535060fb60020a600f028160018151811062001ee25760e060020a634e487b7102600052603260045260246000fd5b6020010190600160f860020a031916908160001a905350600062001f0884600262002b0f565b62001f1590600162002af4565b90505b600181111562001fba57608160020a6f181899199a1a9b1b9c1cb0b131b232b30285600f166010811062001f5f5760e060020a634e487b7102600052603260045260246000fd5b1a60f860020a0282828151811062001f8a5760e060020a634e487b7102600052603260045260246000fd5b6020010190600160f860020a031916908160001a90535060109094049362001fb28162002b64565b905062001f18565b5083156200200e5760405160e560020a62461bcd02815260206004820181905260248201527f537472696e67733a20686578206c656e67746820696e73756666696369656e7460448201526064016200078b565b9392505050565b60405180604001604052806002905b6060815260200190600190039081620020245790505090565b6106ef8062002bcc83390190565b610c8180620032bb83390190565b6111038062003f3c83390190565b610d3d806200503f83390190565b6040805160c081019091526060815260056020820162002024565b80356200209d8162002bb2565b919050565b600082601f830112620020b3578081fd5b8135620020ca620020c48262002aca565b62002a71565b818152846020838601011115620020df578283fd5b816020850160208301379081016020019190915292915050565b600082601f8301126200210a578081fd5b81516200211b620020c48262002aca565b81815284602083860101111562002130578283fd5b6200214382602083016020870162002b31565b949350505050565b6000602082840312156200215d578081fd5b81356200200e8162002bb2565b6000602082840312156200217c578081fd5b81516200200e8162002bb2565b600080604083850312156200219c578081fd5b8235620021a98162002bb2565b915060208301356001604060020a03811115620021c4578182fd5b620021d285828601620020a2565b9150509250929050565b60006020808385031215620021ef578182fd5b82516001604060020a0381111562002205578283fd5b8301601f8101851362002216578283fd5b805162002227620020c48262002aa4565b818152838101908385018584028501860189101562002244578687fd5b8694505b83851015620022735780516200225e8162002bb2565b83526001949094019391850191850162002248565b50979650505050505050565b6000602080838503121562002292578182fd5b82516001604060020a0380821115620022a9578384fd5b818501915085601f830112620022bd578384fd5b8151620022ce620020c48262002aa4565b81815284810190848601868402860187018a1015620022eb578788fd5b875b8481101562002329578151868111156200230557898afd5b620023158c8a838b0101620020f9565b8552509287019290870190600101620022ed565b50909998505050505050505050565b6000602082840312156200234a578081fd5b5035919050565b6000806040838503121562002364578182fd5b823591506020830135620023788162002bb2565b809150509250929050565b60006020828403121562002395578081fd5b8135600160e060020a0319811681146200200e578182fd5b600060208284031215620023bf578081fd5b81516001604060020a03811115620023d5578182fd5b6200214384828501620020f9565b60008060408385031215620023f6578182fd5b82356001604060020a038111156200240c578283fd5b6200241a85828601620020a2565b9250506020830135620023788162002bb2565b60008060006060848603121562002442578081fd5b83356001604060020a0381111562002458578182fd5b6200246686828701620020a2565b9350506020840135620024798162002bb2565b915060408401356200248b8162002bb2565b809150509250925092565b600080600060608486031215620024ab578283fd5b83356001604060020a0380821115620024c2578485fd5b620024d087838801620020a2565b94506020860135915080821115620024e6578384fd5b50620024f586828701620020a2565b92505060408401356200248b8162002bb2565b600080600080600080600080610100898b03121562002525578586fd5b88356001604060020a03808211156200253c578788fd5b6200254a8c838d01620020a2565b995060208b013591508082111562002560578788fd5b6200256e8c838d01620020a2565b985060408b013591508082111562002584578788fd5b620025928c838d01620020a2565b975060608b0135915080821115620025a8578586fd5b620025b68c838d01620020a2565b965060808b0135915080821115620025cc578586fd5b620025da8c838d01620020a2565b9550620025ea60a08c0162002090565b9450620025fa60c08c0162002090565b935060e08b013591508082111562002610578283fd5b506200261f8b828c01620020a2565b9150509295985092959890939650565b600081518084526200264981602086016020860162002b31565b601f01601f19169290920160200192915050565b604d60020a76020b1b1b2b9b9a1b7b73a3937b61d1030b1b1b7bab73a1028152600083516200269481601785016020880162002b31565b607d60020a7001034b99036b4b9b9b4b733903937b6329026017918401918201528351620026ca81602884016020880162002b31565b01602801949350505050565b600160a060020a0391909116815260200190565b6020808252825182820181905260009190848201906040850190845b818110156200272d578351600160a060020a03168352928401929184019160010162002706565b50909695505050505050565b60208082526000906060830183820185845b60028110156200277e57601f198785030183526200276b8483516200262f565b935091840191908401906001016200274b565b50919695505050505050565b602080825260009060e0830183820185845b60068110156200277e57601f19878503018352620027bc8483516200262f565b935091840191908401906001016200279c565b6000602080830181845280855180835260408601915060408482028701019250838701855b828110156200282657603f19888603018452620028138583516200262f565b94509285019290850190600101620027f4565b5092979650505050505050565b6020815260006200200e60208301846200262f565b6040815260006200285d60408301856200262f565b9050600160a060020a03831660208301529392505050565b6060815260006200288a60608301866200262f565b600160a060020a0394851660208401529290931660409091015292915050565b606081526000620028bf60608301866200262f565b600160a060020a03851660208401528281036040840152620028e281856200262f565b9695505050505050565b6060815260006200290160608301866200262f565b82810360208401526200291581866200262f565b915050600160a060020a0383166040830152949350505050565b6000610100808352620029458184018c6200262f565b905082810360208401526200295b818b6200262f565b9050828103604084015262002971818a6200262f565b905082810360608401526200298781896200262f565b905082810360808401526200299d81886200262f565b600160a060020a0387811660a0860152861660c085015283810360e08501529050620029ca81856200262f565b9b9a5050505050505050505050565b6020808252601790820152604960020a762932b9ba3934b1ba32b2103a37902427a9a824aa20a61702604082015260600190565b6020808252601690820152605160020a752932b9ba3934b1ba32b2103a37902820aa24a2a72a1702604082015260600190565b6020808252601490820152606160020a732932b9ba3934b1ba32b2103a37903ab9b2b9399702604082015260600190565b604051601f8201601f191681016001604060020a038111828210171562002a9c5762002a9c62002b98565b604052919050565b60006001604060020a0382111562002ac05762002ac062002b98565b5060209081020190565b60006001604060020a0382111562002ae65762002ae662002b98565b50601f01601f191660200190565b6000821982111562002b0a5762002b0a62002b7e565b500190565b600081600019048311821515161562002b2c5762002b2c62002b7e565b500290565b60005b8381101562002b4e57818101518382015260200162002b34565b8381111562002b5e576000848401525b50505050565b60008162002b765762002b7662002b7e565b506000190190565b60e060020a634e487b710260009081526011600452602490fd5b60e060020a634e487b710260009081526041600452602490fd5b600160a060020a038116811462002bc857600080fd5b5056fe608060405234801561001057600080fd5b506040516106ef3803806106ef83398101604081905261002f916101c0565b825161004290600090602086019061007f565b50815161005690600190602085019061007f565b5060028054600160a060020a031916600160a060020a0392909216919091179055506102c49050565b82805461008b90610241565b90600052602060002090601f0160209004810192826100ad57600085556100f3565b82601f106100c657805160ff19168380011785556100f3565b828001600101855582156100f3579182015b828111156100f35782518255916020019190600101906100d8565b506100ff929150610103565b5090565b5b808211156100ff5760008155600101610104565b600082601f830112610128578081fd5b81516001604060020a038082111561014257610142610295565b604051601f8301601f19908116603f0116810190828211818310171561016a5761016a610295565b81604052838152602092508683858801011115610185578485fd5b8491505b838210156101a65785820183015181830184015290820190610189565b838211156101b657848385830101525b9695505050505050565b6000806000606084860312156101d4578283fd5b83516001604060020a03808211156101ea578485fd5b6101f687838801610118565b9450602086015191508082111561020b578384fd5b5061021886828701610118565b60408601519093509050600160a060020a0381168114610236578182fd5b809150509250925092565b60028104600182168061025557607f821691505b6020821081141561028f577f4e487b7100000000000000000000000000000000000000000000000000000000600052602260045260246000fd5b50919050565b7f4e487b7100000000000000000000000000000000000000000000000000000000600052604160045260246000fd5b61041c806102d36000396000f3fe608060405234801561001057600080fd5b50600436106100655760e060020a6000350463086c32e5811461006a57806324db757f1461007f5780632c0a85161461009d578063441e2f09146100a5578063d665b298146100b8578063d67c2da3146100e8575b600080fd5b61007d610078366004610291565b610103565b005b61008761011a565b604051610094919061033a565b60405180910390f35b6100876101ac565b61007d6100b3366004610291565b6101bb565b61007d6100c6366004610263565b60028054600160a060020a031916600160a060020a0392909216919091179055565b600254604051600160a060020a039091168152602001610094565b80516101169060019060208401906101ca565b5050565b6060600180546101299061038d565b80601f01602080910402602001604051908101604052809291908181526020018280546101559061038d565b80156101a25780601f10610177576101008083540402835291602001916101a2565b820191906000526020600020905b81548152906001019060200180831161018557829003601f168201915b5050505050905090565b6060600080546101299061038d565b80516101169060009060208401905b8280546101d69061038d565b90600052602060002090601f0160209004810192826101f8576000855561023e565b82601f1061021157805160ff191683800117855561023e565b8280016001018555821561023e579182015b8281111561023e578251825591602001919060010190610223565b5061024a92915061024e565b5090565b5b8082111561024a576000815560010161024f565b600060208284031215610274578081fd5b8135600160a060020a038116811461028a578182fd5b9392505050565b6000602082840312156102a2578081fd5b81356001604060020a03808211156102b8578283fd5b818401915084601f8301126102cb578283fd5b8135818111156102dd576102dd6103cc565b604051601f8201601f19908116603f01168101908382118183101715610305576103056103cc565b8160405282815287602084870101111561031d578586fd5b826020860160208301379182016020019490945295945050505050565b6000602080835283518082850152825b818110156103665785810183015185820160400152820161034a565b818111156103775783604083870101525b50601f01601f1916929092016040019392505050565b6002810460018216806103a157607f821691505b602082108114156103c65760e060020a634e487b710260009081526022600452602490fd5b50919050565b60e060020a634e487b710260009081526041600452602490fdfea264697066735822122031ada13bf47a10e79058a8f19cefd0c4e92aee3053932a0ed5a2275e92f717b864736f6c6343000804003360806040523480156200001157600080fd5b5060405162000c8138038062000c81833981016040819052620000349162000272565b8751620000499060009060208b0190620000fc565b5060018054600160a060020a031916600160a060020a03841617905586516200007a9060029060208a0190620000fc565b50855162000090906003906020890190620000fc565b508451620000a6906004906020880190620000fc565b508351620000bc906005906020870190620000fc565b5060068054600160a060020a031916600160a060020a0385161790558051620000ed906009906020840190620000fc565b5050505050505050506200041e565b8280546200010a9062000399565b90600052602060002090601f0160209004810192826200012e576000855562000179565b82601f106200014957805160ff191683800117855562000179565b8280016001018555821562000179579182015b82811115620001795782518255916020019190600101906200015c565b50620001879291506200018b565b5090565b5b808211156200018757600081556001016200018c565b8051600160a060020a0381168114620001ba57600080fd5b919050565b600082601f830112620001d0578081fd5b81516001604060020a0380821115620001ed57620001ed620003ef565b604051601f8301601f19908116603f01168101908282118183101715620002185762000218620003ef565b8160405283815260209250868385880101111562000234578485fd5b8491505b8382101562000257578582018301518183018401529082019062000238565b838211156200026857848385830101525b9695505050505050565b600080600080600080600080610100898b0312156200028f578384fd5b88516001604060020a0380821115620002a6578586fd5b620002b48c838d01620001bf565b995060208b0151915080821115620002ca578586fd5b620002d88c838d01620001bf565b985060408b0151915080821115620002ee578586fd5b620002fc8c838d01620001bf565b975060608b015191508082111562000312578586fd5b620003208c838d01620001bf565b965060808b015191508082111562000336578586fd5b620003448c838d01620001bf565b95506200035460a08c01620001a2565b94506200036460c08c01620001a2565b935060e08b01519150808211156200037a578283fd5b50620003898b828c01620001bf565b9150509295985092959890939650565b600281046001821680620003ae57607f821691505b60208210811415620003e9577f4e487b7100000000000000000000000000000000000000000000000000000000600052602260045260246000fd5b50919050565b7f4e487b7100000000000000000000000000000000000000000000000000000000600052604160045260246000fd5b610853806200042e6000396000f3fe608060405234801561001057600080fd5b50600436106100f45760e060020a60003504630dd1d00881146100f957806318769d461461010e5780632796c8f01461013857806327d206651461014d5780632f5319e114610155578063503b13541461015d5780636d263ceb1461017257806377b7aee0146101e65780637d0d6257146101f9578063961a5d0a1461020c5780639cc0014b1461021f578063a0257dc414610232578063acfbe68814610245578063b2ec005e14610258578063bc9c2d5514610260578063bef31c3c14610271578063ce3dc94114610279578063d13fd1e814610281578063dec1c904146102b1575b600080fd5b61010c61010736600461062f565b6102e1565b005b600654600160a060020a03165b604051600160a060020a0390911681526020015b60405180910390f35b6101406102f8565b60405161012f9190610725565b61014061038a565b610140610399565b6101656103a8565b60405161012f91906106d8565b61010c610180366004610601565b600160a060020a03166000818152600760205260408120805460ff191660019081179091556008805491820181559091527ff3f7a9fe364faab93b216da50a3214154f22a0a2b415b23a84c8169e8b636ee3018054600160a060020a0319169091179055565b61010c6101f436600461062f565b610409565b61010c610207366004610601565b61041c565b61010c61021a36600461062f565b6104ef565b61010c61022d36600461062f565b610502565b61010c61024036600461062f565b610515565b61010c61025336600461062f565b610528565b61014061053b565b600154600160a060020a031661011b565b61014061054a565b610140610559565b61010c61028f366004610601565b60018054600160a060020a031916600160a060020a0392909216919091179055565b61010c6102bf366004610601565b60068054600160a060020a031916600160a060020a0392909216919091179055565b80516102f4906009906020840190610568565b5050565b6060600080546103079061078f565b80601f01602080910402602001604051908101604052809291908181526020018280546103339061078f565b80156103805780601f1061035557610100808354040283529160200191610380565b820191906000526020600020905b81548152906001019060200180831161036357829003601f168201915b5050505050905090565b6060600980546103079061078f565b6060600280546103079061078f565b6060600880548060200260200160405190810160405280929190818152602001828054801561038057602002820191906000526020600020905b8154600160a060020a031681526001909101906020018083116103e2575050505050905090565b80516102f4906005906020840190610568565b600160a060020a0381166000908152600760205260408120805460ff191690555b60085461044c90600190610778565b8110156102f45781600160a060020a0316600882815481106104815760e060020a634e487b7102600052603260045260246000fd5b600091825260209091200154600160a060020a031614156104dd57600881815481106104c05760e060020a634e487b7102600052603260045260246000fd5b60009182526020909120018054600160a060020a03191690555050565b806104e7816107ce565b91505061043d565b80516102f4906004906020840190610568565b80516102f4906000906020840190610568565b80516102f4906003906020840190610568565b80516102f4906002906020840190610568565b6060600480546103079061078f565b6060600580546103079061078f565b6060600380546103079061078f565b8280546105749061078f565b90600052602060002090601f01602090048101928261059657600085556105dc565b82601f106105af57805160ff19168380011785556105dc565b828001600101855582156105dc579182015b828111156105dc5782518255916020019190600101906105c1565b506105e89291506105ec565b5090565b5b808211156105e857600081556001016105ed565b600060208284031215610612578081fd5b8135600160a060020a0381168114610628578182fd5b9392505050565b600060208284031215610640578081fd5b81356001604060020a0380821115610656578283fd5b818401915084601f830112610669578283fd5b81358181111561067b5761067b610803565b604051601f8201601f19908116603f011681019083821181831017156106a3576106a3610803565b816040528281528760208487010111156106bb578586fd5b826020860160208301379182016020019490945295945050505050565b6020808252825182820181905260009190848201906040850190845b81811015610719578351600160a060020a0316835292840192918401916001016106f4565b50909695505050505050565b6000602080835283518082850152825b8181101561075157858101830151858201604001528201610735565b818111156107625783604083870101525b50601f01601f1916929092016040019392505050565b60008282101561078a5761078a6107e9565b500390565b6002810460018216806107a357607f821691505b602082108114156107c85760e060020a634e487b710260009081526022600452602490fd5b50919050565b60006000198214156107e2576107e26107e9565b5060010190565b60e060020a634e487b710260009081526011600452602490fd5b60e060020a634e487b710260009081526041600452602490fdfea2646970667358221220442e81ca891bab79e2cb4854db966ddec0f58209410c34cceadbd3634e84496b64736f6c6343000804003360806040523480156200001157600080fd5b5060405162001103380380620011038339810160408190526200003491620001dd565b82516200004990600090602086019062000084565b5060018054600160a060020a031916600160a060020a03841617905580516200007a90600290602084019062000084565b50505050620002e9565b828054620000929062000264565b90600052602060002090601f016020900481019282620000b6576000855562000101565b82601f10620000d157805160ff191683800117855562000101565b8280016001018555821562000101579182015b8281111562000101578251825591602001919060010190620000e4565b506200010f92915062000113565b5090565b5b808211156200010f576000815560010162000114565b600082601f8301126200013b578081fd5b81516001604060020a0380821115620001585762000158620002ba565b604051601f8301601f19908116603f01168101908282118183101715620001835762000183620002ba565b816040528381526020925086838588010111156200019f578485fd5b8491505b83821015620001c25785820183015181830184015290820190620001a3565b83821115620001d357848385830101525b9695505050505050565b600080600060608486031215620001f2578283fd5b83516001604060020a038082111562000209578485fd5b62000217878388016200012a565b60208701519095509150600160a060020a038216821462000236578384fd5b6040860151919350808211156200024b578283fd5b506200025a868287016200012a565b9150509250925092565b6002810460018216806200027957607f821691505b60208210811415620002b4577f4e487b7100000000000000000000000000000000000000000000000000000000600052602260045260246000fd5b50919050565b7f4e487b7100000000000000000000000000000000000000000000000000000000600052604160045260246000fd5b610e0a80620002f96000396000f3fe608060405234801561001057600080fd5b50600436106100de5760e060020a6000350463086c32e581146100e35780631fc72900146100f857806324db757f14610128578063363c80aa146101465780633dcda7851461015b5780634780468f1461016e578063679a131a146101e35780636d263ceb146101f85780637d0d62571461026d57806387806430146102805780638f9c79ed1461029357806398fc90e9146102cf578063996440c6146102e2578063c95171ae1461030e578063c98d66c114610316578063ded15aaf1461031e578063e5b8459014610331575b600080fd5b6100f66100f1366004610b47565b61034c565b005b6100f6610106366004610b26565b60018054600160a060020a031916600160a060020a0392909216919091179055565b610130610363565b60405161013d9190610d1c565b60405180910390f35b61014e6103f5565b60405161013d9190610c74565b6100f6610169366004610b26565b61052e565b6100f661017c366004610b26565b6005805460018181019092557f036b6384b5eca791c62761152d0c79bb0604c104a5fb6f4eb0703f3154bb3db0018054600160a060020a03909316600160a060020a031990931683179055600091825260036020526040909120805460ff19169091179055565b6101eb610617565b60405161013d9190610c27565b6100f6610206366004610b26565b6006805460018181019092557ff652222313e28459528d920b65115c16c04f3efc82aaedc97be59f3f377c0d3f018054600160a060020a03909316600160a060020a031990931683179055600091825260046020526040909120805460ff19169091179055565b6100f661027b366004610b26565b610678565b6100f661028e366004610b81565b610750565b6102bf6102a1366004610b26565b600160a060020a031660009081526004602052604090205460ff1690565b604051901515815260200161013d565b6100f66102dd366004610b26565b610858565b6102bf6102f0366004610b26565b600160a060020a031660009081526003602052604090205460ff1690565b6101eb610930565b610130610990565b6100f661032c366004610b47565b61099f565b600154604051600160a060020a03909116815260200161013d565b805161035f9060029060208401906109ae565b5050565b60606002805461037290610d46565b80601f016020809104026020016040519081016040528092919081815260200182805461039e90610d46565b80156103eb5780601f106103c0576101008083540402835291602001916103eb565b820191906000526020600020905b8154815290600101906020018083116103ce57829003601f168201915b5050505050905090565b60606007805480602002602001604051908101604052809291908181526020016000905b828210156105255760008481526020908190206040805160a08101909152600585029091018054600160a060020a03168252600181018054929391929184019161046290610d46565b80601f016020809104026020016040519081016040528092919081815260200182805461048e90610d46565b80156104db5780601f106104b0576101008083540402835291602001916104db565b820191906000526020600020905b8154815290600101906020018083116104be57829003601f168201915b50505091835250506002820154600160a060020a03908116602080840191909152600384015490911660408301526004909201546060909101529082526001929092019101610419565b50505050905090565b60005b60075481101561035f5781600160a060020a0316600782815481106105695760e060020a634e487b7102600052603260045260246000fd5b6000918252602090912060059091020154600160a060020a0316141561060557600781815481106105ad5760e060020a634e487b7102600052603260045260246000fd5b6000918252602082206005909102018054600160a060020a0319168155906105d86001830182610a32565b50600281018054600160a060020a0319908116909155600382018054909116905560006004909101555050565b8061060f81610d85565b915050610531565b606060068054806020026020016040519081016040528092919081815260200182805480156103eb57602002820191906000526020600020905b8154600160a060020a03168152600190910190602001808311610651575050505050905090565b60005b60065461068a90600190610d2f565b81101561072e5781600160a060020a0316600682815481106106bf5760e060020a634e487b7102600052603260045260246000fd5b600091825260209091200154600160a060020a0316141561071c57600581815481106106fe5760e060020a634e487b7102600052603260045260246000fd5b60009182526020909120018054600160a060020a031916905561072e565b8061072681610d85565b91505061067b565b50600160a060020a03166000908152600460205260409020805460ff19169055565b6040805160a081018252600160a060020a0384811682526020808301878152339484019490945284821660608401524260808401526007805460018101825560009190915283517fa66cc928b5edb82af9bd49922954155ab7b0942694bea4ce44661d9a8736c68860059092029182018054600160a060020a03191691909416178355935180519394929361080c937fa66cc928b5edb82af9bd49922954155ab7b0942694bea4ce44661d9a8736c689019291909101906109ae565b506040820151600282018054600160a060020a03928316600160a060020a0319918216179091556060840151600384018054919093169116179055608090910151600490910155505050565b60005b60055461086a90600190610d2f565b81101561090e5781600160a060020a03166005828154811061089f5760e060020a634e487b7102600052603260045260246000fd5b600091825260209091200154600160a060020a031614156108fc57600581815481106108de5760e060020a634e487b7102600052603260045260246000fd5b60009182526020909120018054600160a060020a031916905561090e565b8061090681610d85565b91505061085b565b50600160a060020a03166000908152600360205260409020805460ff19169055565b606060058054806020026020016040519081016040528092919081815260200182805480156103eb57602002820191906000526020600020908154600160a060020a03168152600190910190602001808311610651575050505050905090565b60606000805461037290610d46565b805161035f9060009060208401905b8280546109ba90610d46565b90600052602060002090601f0160209004810192826109dc5760008555610a22565b82601f106109f557805160ff1916838001178555610a22565b82800160010185558215610a22579182015b82811115610a22578251825591602001919060010190610a07565b50610a2e929150610a6f565b5090565b508054610a3e90610d46565b6000825580601f10610a4e575050565b601f016020900490600052602060002090810190610a6c9190610a6f565b50565b5b80821115610a2e5760008155600101610a70565b8035600160a060020a0381168114610a9b57600080fd5b919050565b600082601f830112610ab0578081fd5b81356001604060020a0380821115610aca57610aca610dba565b604051601f8301601f19908116603f01168101908282118183101715610af257610af2610dba565b81604052838152866020858801011115610b0a578485fd5b8360208701602083013792830160200193909352509392505050565b600060208284031215610b37578081fd5b610b4082610a84565b9392505050565b600060208284031215610b58578081fd5b81356001604060020a03811115610b6d578182fd5b610b7984828501610aa0565b949350505050565b600080600060608486031215610b95578182fd5b83356001604060020a03811115610baa578283fd5b610bb686828701610aa0565b935050610bc560208501610a84565b9150610bd360408501610a84565b90509250925092565b60008151808452815b81811015610c0157602081850181015186830182015201610be5565b81811115610c125782602083870101525b50601f01601f19169290920160200192915050565b6020808252825182820181905260009190848201906040850190845b81811015610c68578351600160a060020a031683529284019291840191600101610c43565b50909695505050505050565b60208082528251828201819052600091906040908185019080840286018301878501865b83811015610d0e57888303603f1901855281518051600160a060020a0390811685528882015160a08a87018190529190610cd483880182610bdc565b848b01518316888c015260608086015190931692880192909252506080928301519290950191909152509386019390860190600101610c98565b509098975050505050505050565b602081526000610b406020830184610bdc565b600082821015610d4157610d41610da0565b500390565b600281046001821680610d5a57607f821691505b60208210811415610d7f5760e060020a634e487b710260009081526022600452602490fd5b50919050565b6000600019821415610d9957610d99610da0565b5060010190565b60e060020a634e487b710260009081526011600452602490fd5b60e060020a634e487b710260009081526041600452602490fdfea2646970667358221220b97ed47d6e889c3d2cf6ed1d28d79107108cca0b8f0221c50ec78d79c1454bf364736f6c6343000804003360806040523480156200001157600080fd5b5060405162000d3d38038062000d3d833981016040819052620000349162000134565b81516200004990600090602085019062000071565b5060018054600160a060020a031916600160a060020a039290921691909117905550620002a5565b8280546200007f9062000220565b90600052602060002090601f016020900481019282620000a35760008555620000ee565b82601f10620000be57805160ff1916838001178555620000ee565b82800160010185558215620000ee579182015b82811115620000ee578251825591602001919060010190620000d1565b50620000fc92915062000100565b5090565b5b80821115620000fc576000815560010162000101565b8051600160a060020a03811681146200012f57600080fd5b919050565b6000806040838503121562000147578182fd5b825167ffffffffffffffff808211156200015f578384fd5b818501915085601f83011262000173578384fd5b81518181111562000188576200018862000276565b604051601f8201601f19908116603f01168101908382118183101715620001b357620001b362000276565b81604052828152602093508884848701011115620001cf578687fd5b8691505b82821015620001f25784820184015181830185015290830190620001d3565b828211156200020357868484830101525b95506200021591505085820162000117565b925050509250929050565b6002810460018216806200023557607f821691505b6020821081141562000270577f4e487b7100000000000000000000000000000000000000000000000000000000600052602260045260246000fd5b50919050565b7f4e487b7100000000000000000000000000000000000000000000000000000000600052604160045260246000fd5b610a8880620002b56000396000f3fe608060405234801561001057600080fd5b50600436106100b25760e060020a60003504631b470bc781146100b75780632c5ee5011461012e5780632c7ac18f1461014e5780633e8a8009146101615780634780468f1461017457806363c339c3146101e957806375a52196146101fe57806398fc90e914610213578063996440c614610226578063a969890614610249578063bdf6c6731461025c578063c95171ae1461026f578063fbbf93a014610277575b600080fd5b61012c6100c53660046107cb565b6005805460018181019092557f036b6384b5eca791c62761152d0c79bb0604c104a5fb6f4eb0703f3154bb3db0018054600160a060020a03909316600160a060020a031990931683179055600091825260036020526040909120805460ff19169091179055565b005b600154604051600160a060020a0390911681526020015b60405180910390f35b61012c61015c3660046107f9565b61028c565b61012c61016f3660046107f9565b6102d3565b61012c6101823660046107cb565b6004805460018181019092557f8a35acfbc15ff81a39ae7d344fd709f28e8600b4aa8c65c6b64bfe7fe36bd19b018054600160a060020a03909316600160a060020a031990931683179055600091825260026020526040909120805460ff19169091179055565b6101f16102e6565b604051610145919061093a565b6102066103bf565b60405161014591906108ed565b61012c6102213660046107cb565b610421565b6102396102343660046107cb565b6104f9565b6040519015158152602001610145565b61012c6102573660046107cb565b610517565b61023961026a3660046107cb565b6105af565b6102066105cd565b61027f61062d565b604051610145919061099a565b6006805460018101825560009190915281516102cf917ff652222313e28459528d920b65115c16c04f3efc82aaedc97be59f3f377c0d3f01906020840190610732565b5050565b80516102cf906000906020840190610732565b60606006805480602002602001604051908101604052809291908181526020016000905b828210156103b6578382906000526020600020018054610329906109c4565b80601f0160208091040260200160405190810160405280929190818152602001828054610355906109c4565b80156103a25780601f10610377576101008083540402835291602001916103a2565b820191906000526020600020905b81548152906001019060200180831161038557829003601f168201915b50505050508152602001906001019061030a565b50505050905090565b6060600580548060200260200160405190810160405280929190818152602001828054801561041757602002820191906000526020600020905b8154600160a060020a031681526001909101906020018083116103f9575b5050505050905090565b60005b600454610433906001906109ad565b8110156104d75781600160a060020a0316600482815481106104685760e060020a634e487b7102600052603260045260246000fd5b600091825260209091200154600160a060020a031614156104c557600481815481106104a75760e060020a634e487b7102600052603260045260246000fd5b60009182526020909120018054600160a060020a03191690556104d7565b806104cf81610a03565b915050610424565b50600160a060020a03166000908152600260205260409020805460ff19169055565b600160a060020a031660009081526002602052604090205460ff1690565b60005b600554610529906001906109ad565b8110156104d75781600160a060020a03166005828154811061055e5760e060020a634e487b7102600052603260045260246000fd5b600091825260209091200154600160a060020a0316141561059d57600581815481106104a75760e060020a634e487b7102600052603260045260246000fd5b806105a781610a03565b91505061051a565b600160a060020a031660009081526003602052604090205460ff1690565b6060600480548060200260200160405190810160405280929190818152602001828054801561041757602002820191906000526020600020908154600160a060020a031681526001909101906020018083116103f9575050505050905090565b6060610638326104f9565b806106475750610647326105af565b8061065c5750600154600160a060020a031632145b6106ab5760405160e560020a62461bcd0281526020600482015260166024820152605160020a752932b9ba3934b1ba32b2103a37902820aa24a2a72a1702604482015260640160405180910390fd5b600080546106b8906109c4565b80601f01602080910402602001604051908101604052809291908181526020018280546106e4906109c4565b80156104175780601f1061070657610100808354040283529160200191610417565b820191906000526020600020905b81548152906001019060200180831161071457509395945050505050565b82805461073e906109c4565b90600052602060002090601f01602090048101928261076057600085556107a6565b82601f1061077957805160ff19168380011785556107a6565b828001600101855582156107a6579182015b828111156107a657825182559160200191906001019061078b565b506107b29291506107b6565b5090565b5b808211156107b257600081556001016107b7565b6000602082840312156107dc578081fd5b8135600160a060020a03811681146107f2578182fd5b9392505050565b60006020828403121561080a578081fd5b81356001604060020a0380821115610820578283fd5b818401915084601f830112610833578283fd5b81358181111561084557610845610a38565b604051601f8201601f19908116603f0116810190838211818310171561086d5761086d610a38565b81604052828152876020848701011115610885578586fd5b826020860160208301379182016020019490945295945050505050565b60008151808452815b818110156108c7576020818501810151868301820152016108ab565b818111156108d85782602083870101525b50601f01601f19169290920160200192915050565b6020808252825182820181905260009190848201906040850190845b8181101561092e578351600160a060020a031683529284019291840191600101610909565b50909695505050505050565b6000602080830181845280855180835260408601915060408482028701019250838701855b8281101561098d57603f1988860301845261097b8583516108a2565b9450928501929085019060010161095f565b5092979650505050505050565b6020815260006107f260208301846108a2565b6000828210156109bf576109bf610a1e565b500390565b6002810460018216806109d857607f821691505b602082108114156109fd5760e060020a634e487b710260009081526022600452602490fd5b50919050565b6000600019821415610a1757610a17610a1e565b5060010190565b60e060020a634e487b710260009081526011600452602490fd5b60e060020a634e487b710260009081526041600452602490fdfea2646970667358221220bf6693b7ab15109f27a4eed7779960533a58e53d6c1ba0ed8f4ac07d99f8519364736f6c63430008040033a2646970667358221220c99cd2574678f4fc221968a26d28cdce04fbc20a8c04d428e676cd918ef0174664736f6c63430008040033608060405234801561001057600080fd5b506040516106ef3803806106ef83398101604081905261002f916101c0565b825161004290600090602086019061007f565b50815161005690600190602085019061007f565b5060028054600160a060020a031916600160a060020a0392909216919091179055506102c49050565b82805461008b90610241565b90600052602060002090601f0160209004810192826100ad57600085556100f3565b82601f106100c657805160ff19168380011785556100f3565b828001600101855582156100f3579182015b828111156100f35782518255916020019190600101906100d8565b506100ff929150610103565b5090565b5b808211156100ff5760008155600101610104565b600082601f830112610128578081fd5b81516001604060020a038082111561014257610142610295565b604051601f8301601f19908116603f0116810190828211818310171561016a5761016a610295565b81604052838152602092508683858801011115610185578485fd5b8491505b838210156101a65785820183015181830184015290820190610189565b838211156101b657848385830101525b9695505050505050565b6000806000606084860312156101d4578283fd5b83516001604060020a03808211156101ea578485fd5b6101f687838801610118565b9450602086015191508082111561020b578384fd5b5061021886828701610118565b60408601519093509050600160a060020a0381168114610236578182fd5b809150509250925092565b60028104600182168061025557607f821691505b6020821081141561028f577f4e487b7100000000000000000000000000000000000000000000000000000000600052602260045260246000fd5b50919050565b7f4e487b7100000000000000000000000000000000000000000000000000000000600052604160045260246000fd5b61041c806102d36000396000f3fe608060405234801561001057600080fd5b50600436106100655760e060020a6000350463086c32e5811461006a57806324db757f1461007f5780632c0a85161461009d578063441e2f09146100a5578063d665b298146100b8578063d67c2da3146100e8575b600080fd5b61007d610078366004610291565b610103565b005b61008761011a565b604051610094919061033a565b60405180910390f35b6100876101ac565b61007d6100b3366004610291565b6101bb565b61007d6100c6366004610263565b60028054600160a060020a031916600160a060020a0392909216919091179055565b600254604051600160a060020a039091168152602001610094565b80516101169060019060208401906101ca565b5050565b6060600180546101299061038d565b80601f01602080910402602001604051908101604052809291908181526020018280546101559061038d565b80156101a25780601f10610177576101008083540402835291602001916101a2565b820191906000526020600020905b81548152906001019060200180831161018557829003601f168201915b5050505050905090565b6060600080546101299061038d565b80516101169060009060208401905b8280546101d69061038d565b90600052602060002090601f0160209004810192826101f8576000855561023e565b82601f1061021157805160ff191683800117855561023e565b8280016001018555821561023e579182015b8281111561023e578251825591602001919060010190610223565b5061024a92915061024e565b5090565b5b8082111561024a576000815560010161024f565b600060208284031215610274578081fd5b8135600160a060020a038116811461028a578182fd5b9392505050565b6000602082840312156102a2578081fd5b81356001604060020a03808211156102b8578283fd5b818401915084601f8301126102cb578283fd5b8135818111156102dd576102dd6103cc565b604051601f8201601f19908116603f01168101908382118183101715610305576103056103cc565b8160405282815287602084870101111561031d578586fd5b826020860160208301379182016020019490945295945050505050565b6000602080835283518082850152825b818110156103665785810183015185820160400152820161034a565b818111156103775783604083870101525b50601f01601f1916929092016040019392505050565b6002810460018216806103a157607f821691505b602082108114156103c65760e060020a634e487b710260009081526022600452602490fd5b50919050565b60e060020a634e487b710260009081526041600452602490fdfea264697066735822122031ada13bf47a10e79058a8f19cefd0c4e92aee3053932a0ed5a2275e92f717b864736f6c63430008040033",
  "linkReferences": {},
  "deployedLinkReferences": {}
}