{
  "_format": "hh-sol-artifact-1",
  "contractName": "DHRMS_PAT",
  "sourceName": "contracts/DHRMS_PAT.sol",
  "abi": [
    {
      "inputs": [
        {
          "internalType": "address",
          "name": "_STORAGE_CONTRACT_ADDRESS",
          "type": "address"
        },
        {
          "internalType": "address",
          "name": "_RBAC_CONTRACT_ADDRESS",
          "type": "address"
        }
      ],
      "stateMutability": "nonpayable",
      "type": "constructor"
    },
    {
      "anonymous": false,
      "inputs": [
        {
          "indexed": false,
          "internalType": "string",
          "name": "_details",
          "type": "string"
        },
        {
          "indexed": false,
          "internalType": "address",
          "name": "_PID",
          "type": "address"
        }
      ],
      "name": "editPatient",
      "type": "event"
    },
    {
      "anonymous": false,
      "inputs": [
        {
          "indexed": false,
          "internalType": "string",
          "name": "_details",
          "type": "string"
        },
        {
          "indexed": false,
          "internalType": "address",
          "name": "_PID",
          "type": "address"
        }
      ],
      "name": "newPatient",
      "type": "event"
    },
    {
      "anonymous": false,
      "inputs": [
        {
          "indexed": false,
          "internalType": "address",
          "name": "_DID",
          "type": "address"
        }
      ],
      "name": "newReadAccess",
      "type": "event"
    },
    {
      "anonymous": false,
      "inputs": [
        {
          "indexed": false,
          "internalType": "address",
          "name": "_HID",
          "type": "address"
        }
      ],
      "name": "newWriteAccess",
      "type": "event"
    },
    {
      "anonymous": false,
      "inputs": [
        {
          "indexed": false,
          "internalType": "address",
          "name": "_PID",
          "type": "address"
        }
      ],
      "name": "removeOldPatient",
      "type": "event"
    },
    {
      "anonymous": false,
      "inputs": [
        {
          "indexed": false,
          "internalType": "address",
          "name": "_DID",
          "type": "address"
        }
      ],
      "name": "removeReadAccessDoctor",
      "type": "event"
    },
    {
      "anonymous": false,
      "inputs": [
        {
          "indexed": false,
          "internalType": "address",
          "name": "_HID",
          "type": "address"
        }
      ],
      "name": "removeWriteAccessHospital",
      "type": "event"
    },
    {
      "inputs": [
        {
          "internalType": "string",
          "name": "_details",
          "type": "string"
        },
        {
          "internalType": "address",
          "name": "_PID",
          "type": "address"
        }
      ],
      "name": "addPatient",
      "outputs": [],
      "stateMutability": "nonpayable",
      "type": "function"
    },
    {
      "inputs": [
        {
          "internalType": "address",
          "name": "_PID",
          "type": "address"
        }
      ],
      "name": "getDoctorsList",
      "outputs": [
        {
          "internalType": "address[]",
          "name": "",
          "type": "address[]"
        }
      ],
      "stateMutability": "view",
      "type": "function"
    },
    {
      "inputs": [
        {
          "internalType": "address",
          "name": "_PID",
          "type": "address"
        }
      ],
      "name": "getHospitalsList",
      "outputs": [
        {
          "internalType": "address[]",
          "name": "",
          "type": "address[]"
        }
      ],
      "stateMutability": "view",
      "type": "function"
    },
    {
      "inputs": [
        {
          "internalType": "address",
          "name": "_PID",
          "type": "address"
        }
      ],
      "name": "getPatientDetails",
      "outputs": [
        {
          "internalType": "string",
          "name": "",
          "type": "string"
        }
      ],
      "stateMutability": "view",
      "type": "function"
    },
    {
      "inputs": [
        {
          "internalType": "address",
          "name": "_PID",
          "type": "address"
        }
      ],
      "name": "getPatientDetailsForGov",
      "outputs": [
        {
          "internalType": "string",
          "name": "",
          "type": "string"
        }
      ],
      "stateMutability": "view",
      "type": "function"
    },
    {
      "inputs": [
        {
          "internalType": "address",
          "name": "_PID",
          "type": "address"
        }
      ],
      "name": "getRecordsHistory",
      "outputs": [
        {
          "internalType": "string[]",
          "name": "",
          "type": "string[]"
        }
      ],
      "stateMutability": "view",
      "type": "function"
    },
    {
      "inputs": [
        {
          "internalType": "address",
          "name": "_DID",
          "type": "address"
        }
      ],
      "name": "giveReadAccess",
      "outputs": [],
      "stateMutability": "nonpayable",
      "type": "function"
    },
    {
      "inputs": [
        {
          "internalType": "address",
          "name": "_HID",
          "type": "address"
        }
      ],
      "name": "giveWriteAccess",
      "outputs": [],
      "stateMutability": "nonpayable",
      "type": "function"
    },
    {
      "inputs": [
        {
          "internalType": "address",
          "name": "_PID",
          "type": "address"
        }
      ],
      "name": "removePatient",
      "outputs": [],
      "stateMutability": "nonpayable",
      "type": "function"
    },
    {
      "inputs": [
        {
          "internalType": "address",
          "name": "_DID",
          "type": "address"
        }
      ],
      "name": "removeReadAccess",
      "outputs": [],
      "stateMutability": "nonpayable",
      "type": "function"
    },
    {
      "inputs": [
        {
          "internalType": "address",
          "name": "_HID",
          "type": "address"
        }
      ],
      "name": "removeWriteAccess",
      "outputs": [],
      "stateMutability": "nonpayable",
      "type": "function"
    },
    {
      "inputs": [
        {
          "internalType": "string",
          "name": "_details",
          "type": "string"
        },
        {
          "internalType": "address",
          "name": "_PID",
          "type": "address"
        }
      ],
      "name": "setPatientDetails",
      "outputs": [],
      "stateMutability": "nonpayable",
      "type": "function"
    }
  ],
  "bytecode": "0x60806040523480156200001157600080fd5b5060405162002ae438038062002ae4833981016040819052620000349162000083565b60008054600160a060020a03938416600160a060020a03199182161790915560018054929093169116179055620000ba565b8051600160a060020a03811681146200007e57600080fd5b919050565b6000806040838503121562000096578182fd5b620000a18362000066565b9150620000b16020840162000066565b90509250929050565b612a1a80620000ca6000396000f3fe60806040523480156200001157600080fd5b5060043610620000b55760e060020a600035046313fa05358114620000ba5780634dd3bc0614620000d35780635d20daed1462000102578063666ac06d14620001195780637aa8074014620001305780637d0d625714620001475780638bd87475146200015e578063a726065f1462000175578063af0611b0146200019b578063d18dbe2514620001c1578063efe2ccc114620001d8578063eff172a014620001ef575b600080fd5b620000d1620000cb36600462001616565b62000206565b005b620000ea620000e436600462001616565b62000487565b604051620000f99190620019ab565b60405180910390f35b620000d162000113366004620017ed565b620005f3565b620000d16200012a36600462001616565b62000787565b620000d16200014136600462001616565b620009fd565b620000d16200015836600462001616565b62000c73565b620000d16200016f366004620017ed565b62000de9565b6200018c6200018636600462001616565b62000fa4565b604051620000f99190620018f8565b620001b2620001ac36600462001616565b620010a9565b604051620000f9919062001947565b6200018c620001d236600462001616565b620011ae565b620000ea620001e936600462001616565b62001274565b620000d16200020036600462001616565b6200133a565b600160009054906101000a9004600160a060020a0316600160a060020a0316637c92ef0f6040518163ffffffff1660e060020a02815260040160006040518083038186803b1580156200025857600080fd5b505afa1580156200026d573d6000803e3d6000fd5b505060005460405160e060020a6310c5f025028152600160a060020a0390911692506310c5f0259150620002a6903390600401620018ae565b60206040518083038186803b158015620002bf57600080fd5b505afa158015620002d4573d6000803e3d6000fd5b505050506040513d601f19601f82011682018060405250810190620002fa91906200163c565b600160a060020a0316634780468f826040518263ffffffff1660e060020a0281526004016200032a9190620018ae565b600060405180830381600087803b1580156200034557600080fd5b505af11580156200035a573d6000803e3d6000fd5b505060005460405160e060020a632ed226ad028152600160a060020a039091169250632ed226ad915062000393908490600401620018ae565b60206040518083038186803b158015620003ac57600080fd5b505afa158015620003c1573d6000803e3d6000fd5b505050506040513d601f19601f82011682018060405250810190620003e791906200163c565b600160a060020a0316636d263ceb336040518263ffffffff1660e060020a028152600401620004179190620018ae565b600060405180830381600087803b1580156200043257600080fd5b505af115801562000447573d6000803e3d6000fd5b505050507f53a5d5073445924f6f0ab5d28be5957021597716e4ce5287d530b44d9e1bd795816040516200047c9190620018ae565b60405180910390a150565b6001546040805160e060020a63738833fb0281529051606092600160a060020a03169163738833fb916004808301926000929190829003018186803b158015620004d057600080fd5b505afa158015620004e5573d6000803e3d6000fd5b505060005460405160e060020a6310c5f025028152600160a060020a0390911692506310c5f02591506200051e908590600401620018ae565b60206040518083038186803b1580156200053757600080fd5b505afa1580156200054c573d6000803e3d6000fd5b505050506040513d601f19601f820116820180604052508101906200057291906200163c565b600160a060020a031663853e0b466040518163ffffffff1660e060020a02815260040160006040518083038186803b158015620005ae57600080fd5b505afa158015620005c3573d6000803e3d6000fd5b505050506040513d6000823e601f3d908101601f19168201604052620005ed9190810190620017b7565b92915050565b60015460405160e060020a63ef8a085f0281528291600160a060020a03169063ef8a085f9062000628908490600401620018c2565b60006040518083038186803b1580156200064157600080fd5b505afa15801562000656573d6000803e3d6000fd5b505060005460405160e060020a6310c5f025028152600160a060020a0390911692506310c5f02591506200068f908590600401620018ae565b60206040518083038186803b158015620006a857600080fd5b505afa158015620006bd573d6000803e3d6000fd5b505050506040513d601f19601f82011682018060405250810190620006e391906200163c565b600160a060020a0316633e8a8009846040518263ffffffff1660e060020a028152600401620007139190620019ab565b600060405180830381600087803b1580156200072e57600080fd5b505af115801562000743573d6000803e3d6000fd5b505050507f851b0b13dfd69719f101fa4c7970a5198ae3f953f2aaa9f5b229327730168c3083836040516200077a929190620019c0565b60405180910390a1505050565b600160009054906101000a9004600160a060020a0316600160a060020a0316637c92ef0f6040518163ffffffff1660e060020a02815260040160006040518083038186803b158015620007d957600080fd5b505afa158015620007ee573d6000803e3d6000fd5b505060005460405160e060020a6310c5f025028152600160a060020a0390911692506310c5f025915062000827903390600401620018ae565b60206040518083038186803b1580156200084057600080fd5b505afa15801562000855573d6000803e3d6000fd5b505050506040513d601f19601f820116820180604052508101906200087b91906200163c565b600160a060020a03166398fc90e9826040518263ffffffff1660e060020a028152600401620008ab9190620018ae565b600060405180830381600087803b158015620008c657600080fd5b505af1158015620008db573d6000803e3d6000fd5b505060005460405160e060020a632ed226ad028152600160a060020a039091169250632ed226ad915062000914908490600401620018ae565b60206040518083038186803b1580156200092d57600080fd5b505afa15801562000942573d6000803e3d6000fd5b505050506040513d601f19601f820116820180604052508101906200096891906200163c565b600160a060020a0316637d0d6257336040518263ffffffff1660e060020a028152600401620009989190620018ae565b600060405180830381600087803b158015620009b357600080fd5b505af1158015620009c8573d6000803e3d6000fd5b505050507f643ced6c3ed4b4f2b12bb31a053be47f35392a7eb3530af0da0f1bd5a3d427bb816040516200047c9190620018ae565b600160009054906101000a9004600160a060020a0316600160a060020a0316637c92ef0f6040518163ffffffff1660e060020a02815260040160006040518083038186803b15801562000a4f57600080fd5b505afa15801562000a64573d6000803e3d6000fd5b505060005460405160e060020a6310c5f025028152600160a060020a0390911692506310c5f025915062000a9d903390600401620018ae565b60206040518083038186803b15801562000ab657600080fd5b505afa15801562000acb573d6000803e3d6000fd5b505050506040513d601f19601f8201168201806040525081019062000af191906200163c565b600160a060020a031663a9698906826040518263ffffffff1660e060020a02815260040162000b219190620018ae565b600060405180830381600087803b15801562000b3c57600080fd5b505af115801562000b51573d6000803e3d6000fd5b505060005460405160e060020a6334a968d7028152600160a060020a0390911692506334a968d7915062000b8a908490600401620018ae565b60206040518083038186803b15801562000ba357600080fd5b505afa15801562000bb8573d6000803e3d6000fd5b505050506040513d601f19601f8201168201806040525081019062000bde91906200163c565b600160a060020a0316637d0d6257336040518263ffffffff1660e060020a02815260040162000c0e9190620018ae565b600060405180830381600087803b15801562000c2957600080fd5b505af115801562000c3e573d6000803e3d6000fd5b505050507f5bf130f35b955ef046877f1772742e11cd0383e12ede97089d30dc257b6055d8816040516200047c9190620018ae565b60015460405160e060020a63ef8a085f0281528291600160a060020a03169063ef8a085f9062000ca8908490600401620018c2565b60006040518083038186803b15801562000cc157600080fd5b505afa15801562000cd6573d6000803e3d6000fd5b505060005460405160e060020a63995ced4f028152600160a060020a03909116925063995ced4f915062000d0f908590600401620018ae565b600060405180830381600087803b15801562000d2a57600080fd5b505af115801562000d3f573d6000803e3d6000fd5b505060015460405160e060020a638dd19969028152600160a060020a039091169250638dd19969915062000d78908590600401620019ed565b600060405180830381600087803b15801562000d9357600080fd5b505af115801562000da8573d6000803e3d6000fd5b505050507f8ab68d2a7fa54eb40208382e5b7bcab274734b9baf09d88188ca7f645fa6f7178260405162000ddd9190620018ae565b60405180910390a15050565b600160009054906101000a9004600160a060020a0316600160a060020a031663738833fb6040518163ffffffff1660e060020a02815260040160006040518083038186803b15801562000e3b57600080fd5b505afa15801562000e50573d6000803e3d6000fd5b5050600054604051600160a060020a03909116925063d101a514915083908590829062000e7d90620015b0565b62000e8a929190620019c0565b604051809103906000f08015801562000ea7573d6000803e3d6000fd5b5060405160e060020a63ffffffff8516028152600160a060020a03928316600482015291166024820152604401600060405180830381600087803b15801562000eef57600080fd5b505af115801562000f04573d6000803e3d6000fd5b505060015460405160e360020a631cbf05f9028152600160a060020a03909116925063e5f82fc8915062000f3d908490600401620019ed565b600060405180830381600087803b15801562000f5857600080fd5b505af115801562000f6d573d6000803e3d6000fd5b505050507f2cc2297518d2e95f47e8d56a542b31d771111b8005cd026ebb7cd0d9107fbeec828260405162000ddd929190620019c0565b60005460405160e060020a6310c5f025028152606091600160a060020a0316906310c5f0259062000fda908590600401620018ae565b60206040518083038186803b15801562000ff357600080fd5b505afa15801562001008573d6000803e3d6000fd5b505050506040513d601f19601f820116820180604052508101906200102e91906200163c565b600160a060020a03166375a521966040518163ffffffff1660e060020a02815260040160006040518083038186803b1580156200106a57600080fd5b505afa1580156200107f573d6000803e3d6000fd5b505050506040513d6000823e601f3d908101601f19168201604052620005ed91908101906200165b565b60005460405160e060020a6310c5f025028152606091600160a060020a0316906310c5f02590620010df908590600401620018ae565b60206040518083038186803b158015620010f857600080fd5b505afa1580156200110d573d6000803e3d6000fd5b505050506040513d601f19601f820116820180604052508101906200113391906200163c565b600160a060020a03166363c339c36040518163ffffffff1660e060020a02815260040160006040518083038186803b1580156200116f57600080fd5b505afa15801562001184573d6000803e3d6000fd5b505050506040513d6000823e601f3d908101601f19168201604052620005ed9190810190620016fe565b60005460405160e060020a6310c5f025028152606091600160a060020a0316906310c5f02590620011e4908590600401620018ae565b60206040518083038186803b158015620011fd57600080fd5b505afa15801562001212573d6000803e3d6000fd5b505050506040513d601f19601f820116820180604052508101906200123891906200163c565b600160a060020a031663c95171ae6040518163ffffffff1660e060020a02815260040160006040518083038186803b1580156200106a57600080fd5b60005460405160e060020a6310c5f025028152606091600160a060020a0316906310c5f02590620012aa908590600401620018ae565b60206040518083038186803b158015620012c357600080fd5b505afa158015620012d8573d6000803e3d6000fd5b505050506040513d601f19601f82011682018060405250810190620012fe91906200163c565b600160a060020a031663fbbf93a06040518163ffffffff1660e060020a02815260040160006040518083038186803b158015620005ae57600080fd5b600160009054906101000a9004600160a060020a0316600160a060020a0316637c92ef0f6040518163ffffffff1660e060020a02815260040160006040518083038186803b1580156200138c57600080fd5b505afa158015620013a1573d6000803e3d6000fd5b505060005460405160e060020a6310c5f025028152600160a060020a0390911692506310c5f0259150620013da903390600401620018ae565b60206040518083038186803b158015620013f357600080fd5b505afa15801562001408573d6000803e3d6000fd5b505050506040513d601f19601f820116820180604052508101906200142e91906200163c565b600160a060020a0316631b470bc7826040518263ffffffff1660e060020a0281526004016200145e9190620018ae565b600060405180830381600087803b1580156200147957600080fd5b505af11580156200148e573d6000803e3d6000fd5b505060005460405160e060020a6334a968d7028152600160a060020a0390911692506334a968d79150620014c7908490600401620018ae565b60206040518083038186803b158015620014e057600080fd5b505afa158015620014f5573d6000803e3d6000fd5b505050506040513d601f19601f820116820180604052508101906200151b91906200163c565b600160a060020a0316636d263ceb336040518263ffffffff1660e060020a0281526004016200154b9190620018ae565b600060405180830381600087803b1580156200156657600080fd5b505af11580156200157b573d6000803e3d6000fd5b505050507ff2e80366c255f5b265e62473d0d8bb0434b573ebddcd2f54ea020c53f7e2b40f816040516200047c9190620018ae565b610ee78062001afe83390190565b600082601f830112620015cf578081fd5b8151620015e6620015e08262001a6d565b62001a14565b818152846020838601011115620015fb578283fd5b6200160e82602083016020870162001a97565b949350505050565b60006020828403121562001628578081fd5b8135620016358162001ae4565b9392505050565b6000602082840312156200164e578081fd5b8151620016358162001ae4565b600060208083850312156200166e578182fd5b82516001604060020a0381111562001684578283fd5b8301601f8101851362001695578283fd5b8051620016a6620015e08262001a47565b8181528381019083850185840285018601891015620016c3578687fd5b8694505b83851015620016f2578051620016dd8162001ae4565b835260019490940193918501918501620016c7565b50979650505050505050565b6000602080838503121562001711578182fd5b82516001604060020a038082111562001728578384fd5b818501915085601f8301126200173c578384fd5b81516200174d620015e08262001a47565b81815284810190848601868402860187018a10156200176a578788fd5b875b84811015620017a8578151868111156200178457898afd5b620017948c8a838b0101620015be565b85525092870192908701906001016200176c565b50909998505050505050505050565b600060208284031215620017c9578081fd5b81516001604060020a03811115620017df578182fd5b6200160e84828501620015be565b6000806040838503121562001800578081fd5b82356001604060020a0381111562001816578182fd5b8301601f8101851362001827578182fd5b803562001838620015e08262001a6d565b8181528660208385010111156200184d578384fd5b8160208401602083013783602083830101528094505050506020830135620018758162001ae4565b809150509250929050565b600081518084526200189a81602086016020860162001a97565b601f01601f19169290920160200192915050565b600160a060020a0391909116815260200190565b600160a060020a0391909116815260406020820181905260079082015260ca60020a661410551251539502606082015260800190565b6020808252825182820181905260009190848201906040850190845b818110156200193b578351600160a060020a03168352928401929184019160010162001914565b50909695505050505050565b6000602080830181845280855180835260408601915060408482028701019250838701855b828110156200199e57603f198886030184526200198b85835162001880565b945092850192908501906001016200196c565b5092979650505050505050565b60208152600062001635602083018462001880565b604081526000620019d5604083018562001880565b9050600160a060020a03831660208301529392505050565b60ca60020a6614105512515395028152600160a060020a0391909116602082015260400190565b604051601f8201601f191681016001604060020a038111828210171562001a3f5762001a3f62001aca565b604052919050565b60006001604060020a0382111562001a635762001a6362001aca565b5060209081020190565b60006001604060020a0382111562001a895762001a8962001aca565b50601f01601f191660200190565b60005b8381101562001ab457818101518382015260200162001a9a565b8381111562001ac4576000848401525b50505050565b60e060020a634e487b710260009081526041600452602490fd5b600160a060020a038116811462001afa57600080fd5b5056fe60806040523480156200001157600080fd5b5060405162000ee738038062000ee7833981016040819052620000349162000134565b81516200004990600090602085019062000071565b5060018054600160a060020a031916600160a060020a039290921691909117905550620002a5565b8280546200007f9062000220565b90600052602060002090601f016020900481019282620000a35760008555620000ee565b82601f10620000be57805160ff1916838001178555620000ee565b82800160010185558215620000ee579182015b82811115620000ee578251825591602001919060010190620000d1565b50620000fc92915062000100565b5090565b5b80821115620000fc576000815560010162000101565b8051600160a060020a03811681146200012f57600080fd5b919050565b6000806040838503121562000147578182fd5b825167ffffffffffffffff808211156200015f578384fd5b818501915085601f83011262000173578384fd5b81518181111562000188576200018862000276565b604051601f8201601f19908116603f01168101908382118183101715620001b357620001b362000276565b81604052828152602093508884848701011115620001cf578687fd5b8691505b82821015620001f25784820184015181830185015290830190620001d3565b828211156200020357868484830101525b95506200021591505085820162000117565b925050509250929050565b6002810460018216806200023557607f821691505b6020821081141562000270577f4e487b7100000000000000000000000000000000000000000000000000000000600052602260045260246000fd5b50919050565b7f4e487b7100000000000000000000000000000000000000000000000000000000600052604160045260246000fd5b610c3280620002b56000396000f3fe608060405234801561001057600080fd5b50600436106100bd5760e060020a60003504631b470bc781146100c25780632c5ee501146101395780632c7ac18f146101595780633e8a80091461016c5780634780468f1461017f57806363c339c3146101f457806375a5219614610209578063853e0b461461021e57806398fc90e914610233578063996440c614610246578063a969890614610269578063bdf6c6731461027c578063c95171ae1461028f578063fbbf93a014610297575b600080fd5b6101376100d0366004610975565b6005805460018181019092557f036b6384b5eca791c62761152d0c79bb0604c104a5fb6f4eb0703f3154bb3db0018054600160a060020a03909316600160a060020a031990931683179055600091825260036020526040909120805460ff19169091179055565b005b600154604051600160a060020a0390911681526020015b60405180910390f35b6101376101673660046109a3565b61029f565b61013761017a3660046109a3565b6102e6565b61013761018d366004610975565b6004805460018181019092557f8a35acfbc15ff81a39ae7d344fd709f28e8600b4aa8c65c6b64bfe7fe36bd19b018054600160a060020a03909316600160a060020a031990931683179055600091825260026020526040909120805460ff19169091179055565b6101fc6102f9565b6040516101509190610ae4565b6102116103d2565b6040516101509190610a97565b610226610434565b6040516101509190610b44565b610137610241366004610975565b6104bd565b610259610254366004610975565b610634565b6040519015158152602001610150565b610137610277366004610975565b610652565b61025961028a366004610975565b6107c9565b6102116107e7565b610226610847565b6006805460018101825560009190915281516102e2917ff652222313e28459528d920b65115c16c04f3efc82aaedc97be59f3f377c0d3f019060208401906108dc565b5050565b80516102e29060009060208401906108dc565b60606006805480602002602001604051908101604052809291908181526020016000905b828210156103c957838290600052602060002001805461033c90610b6e565b80601f016020809104026020016040519081016040528092919081815260200182805461036890610b6e565b80156103b55780601f1061038a576101008083540402835291602001916103b5565b820191906000526020600020905b81548152906001019060200180831161039857829003601f168201915b50505050508152602001906001019061031d565b50505050905090565b6060600580548060200260200160405190810160405280929190818152602001828054801561042a57602002820191906000526020600020905b8154600160a060020a0316815260019091019060200180831161040c575b5050505050905090565b60606000805461044390610b6e565b80601f016020809104026020016040519081016040528092919081815260200182805461046f90610b6e565b801561042a5780601f106104915761010080835404028352916020019161042a565b820191906000526020600020905b81548152906001019060200180831161049f57509395945050505050565b60005b6004548110156102e25781600160a060020a0316600482815481106104f85760e060020a634e487b7102600052603260045260246000fd5b600091825260209091200154600160a060020a03161415610622576004546001146105ba576004805461052d90600190610b57565b8154811061054e5760e060020a634e487b7102600052603260045260246000fd5b60009182526020909120015460048054600160a060020a03909216918390811061058b5760e060020a634e487b7102600052603260045260246000fd5b9060005260206000200160006101000a815481600160a060020a030219169083600160a060020a031602179055505b60048054806105dc5760e060020a634e487b7102600052603160045260246000fd5b6000828152602080822083016000199081018054600160a060020a0319169055909201909255600160a060020a03841682526002905260409020805460ff191690555050565b8061062c81610bad565b9150506104c0565b600160a060020a031660009081526002602052604090205460ff1690565b60005b6005548110156102e25781600160a060020a03166005828154811061068d5760e060020a634e487b7102600052603260045260246000fd5b600091825260209091200154600160a060020a031614156107b75760045460011461074f57600580546106c290600190610b57565b815481106106e35760e060020a634e487b7102600052603260045260246000fd5b60009182526020909120015460058054600160a060020a0390921691839081106107205760e060020a634e487b7102600052603260045260246000fd5b9060005260206000200160006101000a815481600160a060020a030219169083600160a060020a031602179055505b60058054806107715760e060020a634e487b7102600052603160045260246000fd5b6000828152602080822083016000199081018054600160a060020a0319169055909201909255600160a060020a03841682526003905260409020805460ff191690555050565b806107c181610bad565b915050610655565b600160a060020a031660009081526003602052604090205460ff1690565b6060600480548060200260200160405190810160405280929190818152602001828054801561042a57602002820191906000526020600020908154600160a060020a0316815260019091019060200180831161040c575050505050905090565b606061085161085e565b6000805461044390610b6e565b61086732610634565b806108765750610876326107c9565b8061088b5750600154600160a060020a031632145b6108da5760405160e560020a62461bcd0281526020600482015260166024820152605160020a752932b9ba3934b1ba32b2103a37902820aa24a2a72a1702604482015260640160405180910390fd5b565b8280546108e890610b6e565b90600052602060002090601f01602090048101928261090a5760008555610950565b82601f1061092357805160ff1916838001178555610950565b82800160010185558215610950579182015b82811115610950578251825591602001919060010190610935565b5061095c929150610960565b5090565b5b8082111561095c5760008155600101610961565b600060208284031215610986578081fd5b8135600160a060020a038116811461099c578182fd5b9392505050565b6000602082840312156109b4578081fd5b81356001604060020a03808211156109ca578283fd5b818401915084601f8301126109dd578283fd5b8135818111156109ef576109ef610be2565b604051601f8201601f19908116603f01168101908382118183101715610a1757610a17610be2565b81604052828152876020848701011115610a2f578586fd5b826020860160208301379182016020019490945295945050505050565b60008151808452815b81811015610a7157602081850181015186830182015201610a55565b81811115610a825782602083870101525b50601f01601f19169290920160200192915050565b6020808252825182820181905260009190848201906040850190845b81811015610ad8578351600160a060020a031683529284019291840191600101610ab3565b50909695505050505050565b6000602080830181845280855180835260408601915060408482028701019250838701855b82811015610b3757603f19888603018452610b25858351610a4c565b94509285019290850190600101610b09565b5092979650505050505050565b60208152600061099c6020830184610a4c565b600082821015610b6957610b69610bc8565b500390565b600281046001821680610b8257607f821691505b60208210811415610ba75760e060020a634e487b710260009081526022600452602490fd5b50919050565b6000600019821415610bc157610bc1610bc8565b5060010190565b60e060020a634e487b710260009081526011600452602490fd5b60e060020a634e487b710260009081526041600452602490fdfea264697066735822122013cf7fbf1dad14158abd3de064d548e7bc62f55e00dda1b57e233df7a5932a5e64736f6c63430008040033a26469706673582212205d4c94b280c62710d04ce2548572a1adfc4f97408aaf51c419d098722e6d7d7964736f6c63430008040033",
  "linkReferences": {},
  "deployedLinkReferences": {}
}