{
  "_format": "hh-sol-artifact-1",
  "contractName": "ROLE_BASED_ACCESS",
  "sourceName": "contracts/RBAC.sol",
  "abi": [
    {
      "inputs": [],
      "stateMutability": "nonpayable",
      "type": "constructor"
    },
    {
      "anonymous": false,
      "inputs": [
        {
          "indexed": true,
          "internalType": "bytes32",
          "name": "role",
          "type": "bytes32"
        },
        {
          "indexed": true,
          "internalType": "bytes32",
          "name": "previousAdminRole",
          "type": "bytes32"
        },
        {
          "indexed": true,
          "internalType": "bytes32",
          "name": "newAdminRole",
          "type": "bytes32"
        }
      ],
      "name": "RoleAdminChanged",
      "type": "event"
    },
    {
      "anonymous": false,
      "inputs": [
        {
          "indexed": true,
          "internalType": "bytes32",
          "name": "role",
          "type": "bytes32"
        },
        {
          "indexed": true,
          "internalType": "address",
          "name": "account",
          "type": "address"
        },
        {
          "indexed": true,
          "internalType": "address",
          "name": "sender",
          "type": "address"
        }
      ],
      "name": "RoleGranted",
      "type": "event"
    },
    {
      "anonymous": false,
      "inputs": [
        {
          "indexed": true,
          "internalType": "bytes32",
          "name": "role",
          "type": "bytes32"
        },
        {
          "indexed": true,
          "internalType": "address",
          "name": "account",
          "type": "address"
        },
        {
          "indexed": true,
          "internalType": "address",
          "name": "sender",
          "type": "address"
        }
      ],
      "name": "RoleRevoked",
      "type": "event"
    },
    {
      "inputs": [],
      "name": "DEFAULT_ADMIN_ROLE",
      "outputs": [
        {
          "internalType": "bytes32",
          "name": "",
          "type": "bytes32"
        }
      ],
      "stateMutability": "view",
      "type": "function"
    },
    {
      "inputs": [],
      "name": "DOCTOR",
      "outputs": [
        {
          "internalType": "bytes32",
          "name": "",
          "type": "bytes32"
        }
      ],
      "stateMutability": "view",
      "type": "function"
    },
    {
      "inputs": [],
      "name": "GOVERNMENT",
      "outputs": [
        {
          "internalType": "bytes32",
          "name": "",
          "type": "bytes32"
        }
      ],
      "stateMutability": "view",
      "type": "function"
    },
    {
      "inputs": [],
      "name": "HOSPITAL",
      "outputs": [
        {
          "internalType": "bytes32",
          "name": "",
          "type": "bytes32"
        }
      ],
      "stateMutability": "view",
      "type": "function"
    },
    {
      "inputs": [],
      "name": "PATIENT",
      "outputs": [
        {
          "internalType": "bytes32",
          "name": "",
          "type": "bytes32"
        }
      ],
      "stateMutability": "view",
      "type": "function"
    },
    {
      "inputs": [
        {
          "internalType": "address",
          "name": "userAdd",
          "type": "address"
        },
        {
          "internalType": "string",
          "name": "userType",
          "type": "string"
        }
      ],
      "name": "_onlyAuth",
      "outputs": [],
      "stateMutability": "view",
      "type": "function"
    },
    {
      "inputs": [],
      "name": "_onlyDoctor",
      "outputs": [],
      "stateMutability": "view",
      "type": "function"
    },
    {
      "inputs": [],
      "name": "_onlyGoverment",
      "outputs": [],
      "stateMutability": "view",
      "type": "function"
    },
    {
      "inputs": [],
      "name": "_onlyHospital",
      "outputs": [],
      "stateMutability": "view",
      "type": "function"
    },
    {
      "inputs": [],
      "name": "_onlyPatient",
      "outputs": [],
      "stateMutability": "view",
      "type": "function"
    },
    {
      "inputs": [
        {
          "internalType": "bytes32",
          "name": "role",
          "type": "bytes32"
        }
      ],
      "name": "getRoleAdmin",
      "outputs": [
        {
          "internalType": "bytes32",
          "name": "",
          "type": "bytes32"
        }
      ],
      "stateMutability": "view",
      "type": "function"
    },
    {
      "inputs": [
        {
          "internalType": "bytes32",
          "name": "role",
          "type": "bytes32"
        },
        {
          "internalType": "address",
          "name": "account",
          "type": "address"
        }
      ],
      "name": "grantRole",
      "outputs": [],
      "stateMutability": "nonpayable",
      "type": "function"
    },
    {
      "inputs": [
        {
          "internalType": "bytes32",
          "name": "_role",
          "type": "bytes32"
        },
        {
          "internalType": "address",
          "name": "_address",
          "type": "address"
        }
      ],
      "name": "grantRoleAccessControl",
      "outputs": [],
      "stateMutability": "nonpayable",
      "type": "function"
    },
    {
      "inputs": [
        {
          "internalType": "bytes32",
          "name": "role",
          "type": "bytes32"
        },
        {
          "internalType": "address",
          "name": "account",
          "type": "address"
        }
      ],
      "name": "hasRole",
      "outputs": [
        {
          "internalType": "bool",
          "name": "",
          "type": "bool"
        }
      ],
      "stateMutability": "view",
      "type": "function"
    },
    {
      "inputs": [
        {
          "internalType": "address",
          "name": "_DID",
          "type": "address"
        }
      ],
      "name": "isDoctor",
      "outputs": [
        {
          "internalType": "bool",
          "name": "",
          "type": "bool"
        }
      ],
      "stateMutability": "view",
      "type": "function"
    },
    {
      "inputs": [
        {
          "internalType": "address",
          "name": "_GID",
          "type": "address"
        }
      ],
      "name": "isGovernment",
      "outputs": [
        {
          "internalType": "bool",
          "name": "",
          "type": "bool"
        }
      ],
      "stateMutability": "view",
      "type": "function"
    },
    {
      "inputs": [
        {
          "internalType": "address",
          "name": "_GID",
          "type": "address"
        }
      ],
      "name": "isHospital",
      "outputs": [
        {
          "internalType": "bool",
          "name": "",
          "type": "bool"
        }
      ],
      "stateMutability": "view",
      "type": "function"
    },
    {
      "inputs": [
        {
          "internalType": "address",
          "name": "_PID",
          "type": "address"
        }
      ],
      "name": "isPatient",
      "outputs": [
        {
          "internalType": "bool",
          "name": "",
          "type": "bool"
        }
      ],
      "stateMutability": "view",
      "type": "function"
    },
    {
      "inputs": [
        {
          "internalType": "bytes32",
          "name": "role",
          "type": "bytes32"
        },
        {
          "internalType": "address",
          "name": "account",
          "type": "address"
        }
      ],
      "name": "renounceRole",
      "outputs": [],
      "stateMutability": "nonpayable",
      "type": "function"
    },
    {
      "inputs": [
        {
          "internalType": "bytes32",
          "name": "role",
          "type": "bytes32"
        },
        {
          "internalType": "address",
          "name": "account",
          "type": "address"
        }
      ],
      "name": "revokeRole",
      "outputs": [],
      "stateMutability": "nonpayable",
      "type": "function"
    },
    {
      "inputs": [
        {
          "internalType": "bytes32",
          "name": "_role",
          "type": "bytes32"
        },
        {
          "internalType": "address",
          "name": "_address",
          "type": "address"
        }
      ],
      "name": "revokeRoleAccessControl",
      "outputs": [],
      "stateMutability": "nonpayable",
      "type": "function"
    },
    {
      "inputs": [
        {
          "internalType": "address",
          "name": "_address",
          "type": "address"
        }
      ],
      "name": "setContracts",
      "outputs": [],
      "stateMutability": "nonpayable",
      "type": "function"
    },
    {
      "inputs": [
        {
          "internalType": "bytes32",
          "name": "_role",
          "type": "bytes32"
        },
        {
          "internalType": "address",
          "name": "_address",
          "type": "address"
        }
      ],
      "name": "setUpRoleAccessControl",
      "outputs": [],
      "stateMutability": "nonpayable",
      "type": "function"
    },
    {
      "inputs": [
        {
          "internalType": "bytes32",
          "name": "_role",
          "type": "bytes32"
        },
        {
          "internalType": "bytes32",
          "name": "_roleAdmin",
          "type": "bytes32"
        }
      ],
      "name": "setUpRoleAdminAccessControl",
      "outputs": [],
      "stateMutability": "nonpayable",
      "type": "function"
    },
    {
      "inputs": [
        {
          "internalType": "bytes4",
          "name": "interfaceId",
          "type": "bytes4"
        }
      ],
      "name": "supportsInterface",
      "outputs": [
        {
          "internalType": "bool",
          "name": "",
          "type": "bool"
        }
      ],
      "stateMutability": "view",
      "type": "function"
    }
  ],
  "bytecode": "0x60806040523480156200001157600080fd5b50620000477f474f5645524e4d454e54000000000000000000000000000000000000000000003364010000000062000181810204565b6200007c7f474f5645524e4d454e5400000000000000000000000000000000000000000000806401000000006200019a810204565b620000d17f50415449454e54000000000000000000000000000000000000000000000000007f474f5645524e4d454e54000000000000000000000000000000000000000000006401000000006200019a810204565b620001267f484f53504954414c0000000000000000000000000000000000000000000000007f474f5645524e4d454e54000000000000000000000000000000000000000000006401000000006200019a810204565b6200017b7f444f43544f5200000000000000000000000000000000000000000000000000007f474f5645524e4d454e54000000000000000000000000000000000000000000006401000000006200019a810204565b620002d6565b620001968282640100000000620001f8810204565b5050565b6000620001b08364010000000062000294810204565b600084815260208190526040808220600101859055519192508391839186917fbd79b86ffe0ab8e8776151514217cd7cacd52c909f66475c3af44e129f0b00ff9190a4505050565b6200020d8282640100000000620002a9810204565b6200019657600082815260208181526040808320600160a060020a03851684529091529020805460ff1916600117905562000250640100000000620002d2810204565b600160a060020a031681600160a060020a0316837f2f8788117e7eff1d82e926ec794901d17c78024a50270940304540a733656f0d60405160405180910390a45050565b60009081526020819052604090206001015490565b600091825260208281526040808420600160a060020a0393909316845291905290205460ff1690565b3390565b610e0c80620002e66000396000f3fe608060405234801561001057600080fd5b50600436106101365760e060020a600035046301ffc9a7811461013b5780631f50006114610163578063248a9ca31461019857806327bbe7ee146101ab5780632efbdf82146101d25780632f2ff15d146101f957806336568abe1461020e5780635a2e2f47146102215780636c2b04fd146102345780636d104452146102475780636d1ecf1f1461026e578063738833fb146102815780637c92ef0f14610289578063853dd9f7146102915780638dd19969146102995780638f9c79ed146102ac57806391d14854146102bf578063996440c6146102d2578063a217fddf146102e5578063adf97e7c146102ed578063bdf6c673146102f5578063d547741f14610308578063e401ec631461031b578063e5f82fc81461032e578063ef8a085f14610341575b600080fd5b61014e610149366004610c54565b610354565b60405190151581526020015b60405180910390f35b61018a7fe5786ee6f50ab1a5567cb3f3f6840a2f4ddbafdf4a35cb2c52d5b732b1e84a3281565b60405190815260200161015a565b61018a6101a6366004610bf0565b610391565b61018a7f72d66193ff00a845b4aed5f27e02d9b558ef32be1495a41d00c5c5fb191a076381565b61018a7fc9c8e67a61d2e7371df46522b44051b955c16bf4b713ef44e1373b25bfcd80b281565b61020c610207366004610c08565b6103a6565b005b61020c61021c366004610c08565b6103c8565b61020c61022f366004610b1a565b610451565b61014e610242366004610b1a565b61046e565b61018a7fc7a6bfa28ee24953425efb0bb89772445020cd5ae1af751673fd61a47416f01781565b61020c61027c366004610c33565b61048a565b61020c610494565b61020c6104ff565b61020c610565565b61020c6102a7366004610c08565b6105ca565b61014e6102ba366004610b1a565b6105d4565b61014e6102cd366004610c08565b6105e9565b61014e6102e0366004610b1a565b610612565b61018a600081565b61020c61062a565b61014e610303366004610b1a565b610691565b61020c610316366004610c08565b6106ab565b61020c610329366004610c08565b6106c8565b61020c61033c366004610c08565b6106d2565b61020c61034f366004610b34565b6106dc565b6000600160e060020a0319821660e060020a637965db0b02148061038b575060e060020a6301ffc9a702600160e060020a03198316145b92915050565b60009081526020819052604090206001015490565b6103af82610391565b6103b9813361074c565b6103c383836107b3565b505050565b600160a060020a03811633146104435760405160e560020a62461bcd02815260206004820152602f60248201527f416363657373436f6e74726f6c3a2063616e206f6e6c792072656e6f756e63656044820152608960020a6e103937b632b9903337b91039b2b6330260648201526084015b60405180910390fd5b61044d8282610837565b5050565b61046b60b260020a6911d3d59154939351539502826103a6565b50565b600061038b60b260020a6911d3d59154939351539502836105e9565b61044d828261089c565b6104ae60b260020a6911d3d59154939351539502326105e9565b6104fd5760405160e560020a62461bcd02815260206004820152601f60248201527f52657374726963746564206f6e6c7920746f20476f7665726e6d656e74732e00604482015260640161043a565b565b61051660ca60020a661410551251539502326105e9565b6104fd5760405160e560020a62461bcd02815260206004820152601b60248201527f52657374726963746564206f6e6c7920746f2050415449454e542e0000000000604482015260640161043a565b61057b60d160020a652227a1aa27a902326105e9565b6104fd5760405160e560020a62461bcd02815260206004820152601a60248201527f52657374726963746564206f6e6c7920746f20444f43544f522e000000000000604482015260640161043a565b61044d82826106ab565b600061038b60ca60020a661410551251539502835b600091825260208281526040808420600160a060020a0393909316845291905290205460ff1690565b600061038b60d160020a652227a1aa27a902836105e9565b61064260c260020a671213d4d41255105302326105e9565b6104fd5760405160e560020a62461bcd02815260206004820152601c60248201527f52657374726963746564206f6e6c7920746f20484f53504954414c2e00000000604482015260640161043a565b600061038b60c260020a671213d4d41255105302836105e9565b6106b482610391565b6106be813361074c565b6103c38383610837565b61044d82826108ef565b61044d82826103a6565b6106ed8180519060200120326105e9565b80610700575032600160a060020a038316145b61044d5760405160e560020a62461bcd0281526020600482015260176024820152604960020a762932b9ba3934b1ba32b21037b7363c903a37902ab9b2b902604482015260640161043a565b61075682826105e9565b61044d5761076e81600160a060020a031660146108f9565b6107798360206108f9565b60405160200161078a929190610c7c565b60408051601f198184030181529082905260e560020a62461bcd02825261043a91600401610cf1565b6107bd82826105e9565b61044d57600082815260208181526040808320600160a060020a03851684529091529020805460ff191660011790556107f33390565b600160a060020a031681600160a060020a0316837f2f8788117e7eff1d82e926ec794901d17c78024a50270940304540a733656f0d60405160405180910390a45050565b61084182826105e9565b1561044d57600082815260208181526040808320600160a060020a0385168085529252808320805460ff1916905551339285917ff6391f5c32d9c69d2a47ea670b442974b53935d1edc7fd64eb21e047a839171b9190a45050565b60006108a783610391565b600084815260208190526040808220600101859055519192508391839186917fbd79b86ffe0ab8e8776151514217cd7cacd52c909f66475c3af44e129f0b00ff9190a4505050565b61044d82826107b3565b60606000610908836002610d3c565b610913906002610d24565b6001604060020a0381111561093b5760e060020a634e487b7102600052604160045260246000fd5b6040519080825280601f01601f191660200182016040528015610965576020820181803683370190505b50905060fc60020a600302816000815181106109945760e060020a634e487b7102600052603260045260246000fd5b6020010190600160f860020a031916908160001a90535060fb60020a600f02816001815181106109d75760e060020a634e487b7102600052603260045260246000fd5b6020010190600160f860020a031916908160001a90535060006109fb846002610d3c565b610a06906001610d24565b90505b6001811115610aa557608160020a6f181899199a1a9b1b9c1cb0b131b232b30285600f1660108110610a4e5760e060020a634e487b7102600052603260045260246000fd5b1a60f860020a02828281518110610a785760e060020a634e487b7102600052603260045260246000fd5b6020010190600160f860020a031916908160001a905350601090940493610a9e81610d8b565b9050610a09565b508315610af75760405160e560020a62461bcd02815260206004820181905260248201527f537472696e67733a20686578206c656e67746820696e73756666696369656e74604482015260640161043a565b9392505050565b8035600160a060020a0381168114610b1557600080fd5b919050565b600060208284031215610b2b578081fd5b610af782610afe565b60008060408385031215610b46578081fd5b610b4f83610afe565b915060208301356001604060020a0380821115610b6a578283fd5b818501915085601f830112610b7d578283fd5b813581811115610b8f57610b8f610dbc565b604051601f8201601f19908116603f01168101908382118183101715610bb757610bb7610dbc565b81604052828152886020848701011115610bcf578586fd5b82602086016020830137856020848301015280955050505050509250929050565b600060208284031215610c01578081fd5b5035919050565b60008060408385031215610c1a578182fd5b82359150610c2a60208401610afe565b90509250929050565b60008060408385031215610c45578182fd5b50508035926020909101359150565b600060208284031215610c65578081fd5b8135600160e060020a031981168114610af7578182fd5b604d60020a76020b1b1b2b9b9a1b7b73a3937b61d1030b1b1b7bab73a102815260008351610cb1816017850160208801610d5b565b607d60020a7001034b99036b4b9b9b4b733903937b6329026017918401918201528351610ce5816028840160208801610d5b565b01602801949350505050565b6020815260008251806020840152610d10816040850160208701610d5b565b601f01601f19169190910160400192915050565b60008219821115610d3757610d37610da2565b500190565b6000816000190483118215151615610d5657610d56610da2565b500290565b60005b83811015610d76578181015183820152602001610d5e565b83811115610d85576000848401525b50505050565b600081610d9a57610d9a610da2565b506000190190565b60e060020a634e487b710260009081526011600452602490fd5b60e060020a634e487b710260009081526041600452602490fdfea2646970667358221220515a283344926e5527dcdb57832bc4db702ac8e6824af52dea8663ec507c403064736f6c63430008040033",
  "linkReferences": {},
  "deployedLinkReferences": {}
}