{
  "_format": "hh-sol-artifact-1",
  "contractName": "ROLE_BASED_ACCESS",
  "sourceName": "contracts/Main.sol",
  "abi": [
    {
      "inputs": [],
      "stateMutability": "nonpayable",
      "type": "constructor"
    },
    {
      "anonymous": false,
      "inputs": [
        {
          "indexed": true,
          "internalType": "bytes32",
          "name": "role",
          "type": "bytes32"
        },
        {
          "indexed": true,
          "internalType": "bytes32",
          "name": "previousAdminRole",
          "type": "bytes32"
        },
        {
          "indexed": true,
          "internalType": "bytes32",
          "name": "newAdminRole",
          "type": "bytes32"
        }
      ],
      "name": "RoleAdminChanged",
      "type": "event"
    },
    {
      "anonymous": false,
      "inputs": [
        {
          "indexed": true,
          "internalType": "bytes32",
          "name": "role",
          "type": "bytes32"
        },
        {
          "indexed": true,
          "internalType": "address",
          "name": "account",
          "type": "address"
        },
        {
          "indexed": true,
          "internalType": "address",
          "name": "sender",
          "type": "address"
        }
      ],
      "name": "RoleGranted",
      "type": "event"
    },
    {
      "anonymous": false,
      "inputs": [
        {
          "indexed": true,
          "internalType": "bytes32",
          "name": "role",
          "type": "bytes32"
        },
        {
          "indexed": true,
          "internalType": "address",
          "name": "account",
          "type": "address"
        },
        {
          "indexed": true,
          "internalType": "address",
          "name": "sender",
          "type": "address"
        }
      ],
      "name": "RoleRevoked",
      "type": "event"
    },
    {
      "inputs": [],
      "name": "DEFAULT_ADMIN_ROLE",
      "outputs": [
        {
          "internalType": "bytes32",
          "name": "",
          "type": "bytes32"
        }
      ],
      "stateMutability": "view",
      "type": "function"
    },
    {
      "inputs": [],
      "name": "DOCTOR",
      "outputs": [
        {
          "internalType": "bytes32",
          "name": "",
          "type": "bytes32"
        }
      ],
      "stateMutability": "view",
      "type": "function"
    },
    {
      "inputs": [],
      "name": "GOVERNMENT",
      "outputs": [
        {
          "internalType": "bytes32",
          "name": "",
          "type": "bytes32"
        }
      ],
      "stateMutability": "view",
      "type": "function"
    },
    {
      "inputs": [],
      "name": "HOSPITAL",
      "outputs": [
        {
          "internalType": "bytes32",
          "name": "",
          "type": "bytes32"
        }
      ],
      "stateMutability": "view",
      "type": "function"
    },
    {
      "inputs": [],
      "name": "PATIENT",
      "outputs": [
        {
          "internalType": "bytes32",
          "name": "",
          "type": "bytes32"
        }
      ],
      "stateMutability": "view",
      "type": "function"
    },
    {
      "inputs": [
        {
          "internalType": "bytes32",
          "name": "role",
          "type": "bytes32"
        }
      ],
      "name": "getRoleAdmin",
      "outputs": [
        {
          "internalType": "bytes32",
          "name": "",
          "type": "bytes32"
        }
      ],
      "stateMutability": "view",
      "type": "function"
    },
    {
      "inputs": [
        {
          "internalType": "bytes32",
          "name": "role",
          "type": "bytes32"
        },
        {
          "internalType": "address",
          "name": "account",
          "type": "address"
        }
      ],
      "name": "grantRole",
      "outputs": [],
      "stateMutability": "nonpayable",
      "type": "function"
    },
    {
      "inputs": [
        {
          "internalType": "bytes32",
          "name": "_role",
          "type": "bytes32"
        },
        {
          "internalType": "address",
          "name": "_address",
          "type": "address"
        }
      ],
      "name": "grantRoleAccessControl",
      "outputs": [],
      "stateMutability": "nonpayable",
      "type": "function"
    },
    {
      "inputs": [
        {
          "internalType": "bytes32",
          "name": "role",
          "type": "bytes32"
        },
        {
          "internalType": "address",
          "name": "account",
          "type": "address"
        }
      ],
      "name": "hasRole",
      "outputs": [
        {
          "internalType": "bool",
          "name": "",
          "type": "bool"
        }
      ],
      "stateMutability": "view",
      "type": "function"
    },
    {
      "inputs": [
        {
          "internalType": "address",
          "name": "_GID",
          "type": "address"
        }
      ],
      "name": "isDoctor",
      "outputs": [
        {
          "internalType": "bool",
          "name": "",
          "type": "bool"
        }
      ],
      "stateMutability": "view",
      "type": "function"
    },
    {
      "inputs": [
        {
          "internalType": "address",
          "name": "_GID",
          "type": "address"
        }
      ],
      "name": "isGovernment",
      "outputs": [
        {
          "internalType": "bool",
          "name": "",
          "type": "bool"
        }
      ],
      "stateMutability": "view",
      "type": "function"
    },
    {
      "inputs": [
        {
          "internalType": "address",
          "name": "_GID",
          "type": "address"
        }
      ],
      "name": "isHospital",
      "outputs": [
        {
          "internalType": "bool",
          "name": "",
          "type": "bool"
        }
      ],
      "stateMutability": "view",
      "type": "function"
    },
    {
      "inputs": [
        {
          "internalType": "address",
          "name": "_GID",
          "type": "address"
        }
      ],
      "name": "isPatient",
      "outputs": [
        {
          "internalType": "bool",
          "name": "",
          "type": "bool"
        }
      ],
      "stateMutability": "view",
      "type": "function"
    },
    {
      "inputs": [
        {
          "internalType": "bytes32",
          "name": "role",
          "type": "bytes32"
        },
        {
          "internalType": "address",
          "name": "account",
          "type": "address"
        }
      ],
      "name": "renounceRole",
      "outputs": [],
      "stateMutability": "nonpayable",
      "type": "function"
    },
    {
      "inputs": [
        {
          "internalType": "bytes32",
          "name": "role",
          "type": "bytes32"
        },
        {
          "internalType": "address",
          "name": "account",
          "type": "address"
        }
      ],
      "name": "revokeRole",
      "outputs": [],
      "stateMutability": "nonpayable",
      "type": "function"
    },
    {
      "inputs": [
        {
          "internalType": "address",
          "name": "_address",
          "type": "address"
        }
      ],
      "name": "setContracts",
      "outputs": [],
      "stateMutability": "nonpayable",
      "type": "function"
    },
    {
      "inputs": [
        {
          "internalType": "bytes32",
          "name": "_role",
          "type": "bytes32"
        },
        {
          "internalType": "address",
          "name": "_address",
          "type": "address"
        }
      ],
      "name": "setUpRoleAccessControl",
      "outputs": [],
      "stateMutability": "nonpayable",
      "type": "function"
    },
    {
      "inputs": [
        {
          "internalType": "bytes32",
          "name": "_role",
          "type": "bytes32"
        },
        {
          "internalType": "bytes32",
          "name": "_roleAdmin",
          "type": "bytes32"
        }
      ],
      "name": "setUpRoleAdminAccessControl",
      "outputs": [],
      "stateMutability": "nonpayable",
      "type": "function"
    },
    {
      "inputs": [
        {
          "internalType": "bytes4",
          "name": "interfaceId",
          "type": "bytes4"
        }
      ],
      "name": "supportsInterface",
      "outputs": [
        {
          "internalType": "bool",
          "name": "",
          "type": "bool"
        }
      ],
      "stateMutability": "view",
      "type": "function"
    }
  ],
  "bytecode": "0x608060405234801561001057600080fd5b506100447f474f5645524e4d454e540000000000000000000000000000000000000000000033640100000000610175810204565b6100777f474f5645524e4d454e54000000000000000000000000000000000000000000008064010000000061018c810204565b6100ca7f50415449454e54000000000000000000000000000000000000000000000000007f474f5645524e4d454e540000000000000000000000000000000000000000000064010000000061018c810204565b61011d7f484f53504954414c0000000000000000000000000000000000000000000000007f474f5645524e4d454e540000000000000000000000000000000000000000000064010000000061018c810204565b6101707f444f43544f5200000000000000000000000000000000000000000000000000007f474f5645524e4d454e540000000000000000000000000000000000000000000064010000000061018c810204565b6102c1565b61018882826401000000006101e8810204565b5050565b60006101a08364010000000061027f810204565b600084815260208190526040808220600101859055519192508391839186917fbd79b86ffe0ab8e8776151514217cd7cacd52c909f66475c3af44e129f0b00ff9190a4505050565b6101fb8282640100000000610294810204565b61018857600082815260208181526040808320600160a060020a03851684529091529020805460ff1916600117905561023b6401000000006102bd810204565b600160a060020a031681600160a060020a0316837f2f8788117e7eff1d82e926ec794901d17c78024a50270940304540a733656f0d60405160405180910390a45050565b60009081526020819052604090206001015490565b600091825260208281526040808420600160a060020a0393909316845291905290205460ff1690565b3390565b610a97806102d06000396000f3fe608060405234801561001057600080fd5b50600436106100f45760e060020a600035046301ffc9a781146100f95780631f50006114610121578063248a9ca31461015657806327bbe7ee146101695780632efbdf82146101905780632f2ff15d146101b757806336568abe146101cc5780635a2e2f47146101df5780636c2b04fd146101f25780636d104452146102055780636d1ecf1f1461022c5780638f9c79ed1461023f57806391d1485414610252578063996440c614610265578063a217fddf14610278578063bdf6c67314610280578063d547741f14610293578063e401ec63146102a6578063e5f82fc8146102b9575b600080fd5b61010c6101073660046108f9565b6102cc565b60405190151581526020015b60405180910390f35b6101487fe5786ee6f50ab1a5567cb3f3f6840a2f4ddbafdf4a35cb2c52d5b732b1e84a3281565b604051908152602001610118565b610148610164366004610895565b610309565b6101487f72d66193ff00a845b4aed5f27e02d9b558ef32be1495a41d00c5c5fb191a076381565b6101487fc9c8e67a61d2e7371df46522b44051b955c16bf4b713ef44e1373b25bfcd80b281565b6101ca6101c53660046108ad565b61031e565b005b6101ca6101da3660046108ad565b610340565b6101ca6101ed36600461087b565b6103c9565b61010c61020036600461087b565b6103e6565b6101487fc7a6bfa28ee24953425efb0bb89772445020cd5ae1af751673fd61a47416f01781565b6101ca61023a3660046108d8565b610402565b61010c61024d36600461087b565b61040c565b61010c6102603660046108ad565b610421565b61010c61027336600461087b565b61044a565b610148600081565b61010c61028e36600461087b565b610462565b6101ca6102a13660046108ad565b61047c565b6101ca6102b43660046108ad565b610499565b6101ca6102c73660046108ad565b6104a3565b6000600160e060020a0319821660e060020a637965db0b021480610303575060e060020a6301ffc9a702600160e060020a03198316145b92915050565b60009081526020819052604090206001015490565b61032782610309565b61033181336104ad565b61033b8383610514565b505050565b600160a060020a03811633146103bb5760405160e560020a62461bcd02815260206004820152602f60248201527f416363657373436f6e74726f6c3a2063616e206f6e6c792072656e6f756e63656044820152608960020a6e103937b632b9903337b91039b2b6330260648201526084015b60405180910390fd5b6103c58282610598565b5050565b6103e360b260020a6911d3d591549393515395028261031e565b50565b600061030360b260020a6911d3d5915493935153950283610421565b6103c582826105fd565b600061030360ca60020a661410551251539502835b600091825260208281526040808420600160a060020a0393909316845291905290205460ff1690565b600061030360d160020a652227a1aa27a90283610421565b600061030360c260020a671213d4d4125510530283610421565b61048582610309565b61048f81336104ad565b61033b8383610598565b6103c58282610650565b6103c5828261031e565b6104b78282610421565b6103c5576104cf81600160a060020a0316601461065a565b6104da83602061065a565b6040516020016104eb929190610921565b60408051601f198184030181529082905260e560020a62461bcd0282526103b291600401610996565b61051e8282610421565b6103c557600082815260208181526040808320600160a060020a03851684529091529020805460ff191660011790556105543390565b600160a060020a031681600160a060020a0316837f2f8788117e7eff1d82e926ec794901d17c78024a50270940304540a733656f0d60405160405180910390a45050565b6105a28282610421565b156103c557600082815260208181526040808320600160a060020a0385168085529252808320805460ff1916905551339285917ff6391f5c32d9c69d2a47ea670b442974b53935d1edc7fd64eb21e047a839171b9190a45050565b600061060883610309565b600084815260208190526040808220600101859055519192508391839186917fbd79b86ffe0ab8e8776151514217cd7cacd52c909f66475c3af44e129f0b00ff9190a4505050565b6103c58282610514565b606060006106698360026109e1565b6106749060026109c9565b6001604060020a0381111561069c5760e060020a634e487b7102600052604160045260246000fd5b6040519080825280601f01601f1916602001820160405280156106c6576020820181803683370190505b50905060fc60020a600302816000815181106106f55760e060020a634e487b7102600052603260045260246000fd5b6020010190600160f860020a031916908160001a90535060fb60020a600f02816001815181106107385760e060020a634e487b7102600052603260045260246000fd5b6020010190600160f860020a031916908160001a905350600061075c8460026109e1565b6107679060016109c9565b90505b600181111561080657608160020a6f181899199a1a9b1b9c1cb0b131b232b30285600f16601081106107af5760e060020a634e487b7102600052603260045260246000fd5b1a60f860020a028282815181106107d95760e060020a634e487b7102600052603260045260246000fd5b6020010190600160f860020a031916908160001a9053506010909404936107ff81610a30565b905061076a565b5083156108585760405160e560020a62461bcd02815260206004820181905260248201527f537472696e67733a20686578206c656e67746820696e73756666696369656e7460448201526064016103b2565b9392505050565b8035600160a060020a038116811461087657600080fd5b919050565b60006020828403121561088c578081fd5b6108588261085f565b6000602082840312156108a6578081fd5b5035919050565b600080604083850312156108bf578081fd5b823591506108cf6020840161085f565b90509250929050565b600080604083850312156108ea578182fd5b50508035926020909101359150565b60006020828403121561090a578081fd5b8135600160e060020a031981168114610858578182fd5b604d60020a76020b1b1b2b9b9a1b7b73a3937b61d1030b1b1b7bab73a102815260008351610956816017850160208801610a00565b607d60020a7001034b99036b4b9b9b4b733903937b632902601791840191820152835161098a816028840160208801610a00565b01602801949350505050565b60208152600082518060208401526109b5816040850160208701610a00565b601f01601f19169190910160400192915050565b600082198211156109dc576109dc610a47565b500190565b60008160001904831182151516156109fb576109fb610a47565b500290565b60005b83811015610a1b578181015183820152602001610a03565b83811115610a2a576000848401525b50505050565b600081610a3f57610a3f610a47565b506000190190565b60e060020a634e487b710260009081526011600452602490fdfea26469706673582212200a2340cc8fcac32dad55873692ef452e7816a1391a87dc27cbcfb9f51b295c8b64736f6c63430008040033",
  "linkReferences": {},
  "deployedLinkReferences": {}
}