{
  "_format": "hh-sol-artifact-1",
  "contractName": "STORAGE",
  "sourceName": "contracts/STORAGE.sol",
  "abi": [
    {
      "inputs": [
        {
          "internalType": "string",
          "name": "_officeName",
          "type": "string"
        },
        {
          "internalType": "string",
          "name": "_phoneNumber",
          "type": "string"
        },
        {
          "internalType": "address",
          "name": "_RBAC_CONTRACT_ADDRESS",
          "type": "address"
        }
      ],
      "stateMutability": "nonpayable",
      "type": "constructor"
    },
    {
      "inputs": [
        {
          "internalType": "address",
          "name": "DID",
          "type": "address"
        },
        {
          "internalType": "address",
          "name": "instanceAdd",
          "type": "address"
        }
      ],
      "name": "addDoctorDetails",
      "outputs": [],
      "stateMutability": "nonpayable",
      "type": "function"
    },
    {
      "inputs": [
        {
          "internalType": "address",
          "name": "GID",
          "type": "address"
        },
        {
          "internalType": "address",
          "name": "instanceAdd",
          "type": "address"
        }
      ],
      "name": "addGovernmentDetails",
      "outputs": [],
      "stateMutability": "nonpayable",
      "type": "function"
    },
    {
      "inputs": [
        {
          "internalType": "address",
          "name": "HID",
          "type": "address"
        },
        {
          "internalType": "address",
          "name": "instanceAdd",
          "type": "address"
        }
      ],
      "name": "addHospitalDetails",
      "outputs": [],
      "stateMutability": "nonpayable",
      "type": "function"
    },
    {
      "inputs": [
        {
          "internalType": "address",
          "name": "PID",
          "type": "address"
        },
        {
          "internalType": "address",
          "name": "instanceAdd",
          "type": "address"
        }
      ],
      "name": "addPatientDetails",
      "outputs": [],
      "stateMutability": "nonpayable",
      "type": "function"
    },
    {
      "inputs": [
        {
          "internalType": "address",
          "name": "",
          "type": "address"
        }
      ],
      "name": "doctorDetails",
      "outputs": [
        {
          "internalType": "address",
          "name": "",
          "type": "address"
        }
      ],
      "stateMutability": "view",
      "type": "function"
    },
    {
      "inputs": [
        {
          "internalType": "address",
          "name": "",
          "type": "address"
        }
      ],
      "name": "governmentDetails",
      "outputs": [
        {
          "internalType": "address",
          "name": "",
          "type": "address"
        }
      ],
      "stateMutability": "view",
      "type": "function"
    },
    {
      "inputs": [
        {
          "internalType": "address",
          "name": "",
          "type": "address"
        }
      ],
      "name": "hospitalDetails",
      "outputs": [
        {
          "internalType": "address",
          "name": "",
          "type": "address"
        }
      ],
      "stateMutability": "view",
      "type": "function"
    },
    {
      "inputs": [
        {
          "internalType": "address",
          "name": "",
          "type": "address"
        }
      ],
      "name": "patientDetails",
      "outputs": [
        {
          "internalType": "address",
          "name": "",
          "type": "address"
        }
      ],
      "stateMutability": "view",
      "type": "function"
    },
    {
      "inputs": [
        {
          "internalType": "address",
          "name": "DID",
          "type": "address"
        }
      ],
      "name": "removeDoctorDetails",
      "outputs": [],
      "stateMutability": "nonpayable",
      "type": "function"
    },
    {
      "inputs": [
        {
          "internalType": "address",
          "name": "GID",
          "type": "address"
        }
      ],
      "name": "removeGovernmentDetails",
      "outputs": [],
      "stateMutability": "nonpayable",
      "type": "function"
    },
    {
      "inputs": [
        {
          "internalType": "address",
          "name": "HID",
          "type": "address"
        }
      ],
      "name": "removeHospitalDetails",
      "outputs": [],
      "stateMutability": "nonpayable",
      "type": "function"
    },
    {
      "inputs": [
        {
          "internalType": "address",
          "name": "PID",
          "type": "address"
        }
      ],
      "name": "removePatientDetails",
      "outputs": [],
      "stateMutability": "nonpayable",
      "type": "function"
    }
  ],
  "bytecode": "0x608060405234801561001057600080fd5b50604051610d5d380380610d5d83398101604081905261002f9161013d565b82823360405161003e906100ab565b61004a939291906101ea565b604051809103906000f080158015610066573d6000803e3d6000fd5b503360009081526003602052604090208054600160a060020a03928316600160a060020a03199182161790915560048054939092169216919091179055506102889050565b6106ef8061066e83390190565b600082601f8301126100c8578081fd5b81516001604060020a03808211156100e2576100e2610259565b604051601f8301601f19908116603f0116810190828211818310171561010a5761010a610259565b81604052838152866020858801011115610122578485fd5b610133846020830160208901610229565b9695505050505050565b600080600060608486031215610151578283fd5b83516001604060020a0380821115610167578485fd5b610173878388016100b8565b94506020860151915080821115610188578384fd5b50610195868287016100b8565b60408601519093509050600160a060020a03811681146101b3578182fd5b809150509250925092565b600081518084526101d6816020860160208601610229565b601f01601f19169290920160200192915050565b6060815260006101fd60608301866101be565b828103602084015261020f81866101be565b915050600160a060020a0383166040830152949350505050565b60005b8381101561024457818101518382015260200161022c565b83811115610253576000848401525b50505050565b7f4e487b7100000000000000000000000000000000000000000000000000000000600052604160045260246000fd5b6103d7806102976000396000f3fe608060405234801561001057600080fd5b50600436106100a75760e060020a600035046310c5f02581146100ac57806315085494146100f15780632ed226ad1461012f57806334a968d71461015857806377f6939214610181578063860df70f146101b65780638a13cd38146101f2578063995ced4f1461021b578063d101a51414610250578063d6ee0c731461028c578063f552dec8146102c1578063f94a2356146102fd575b600080fd5b6100d56100ba36600461034e565b600160205260009081526040902054600160a060020a031681565b604051600160a060020a03909116815260200160405180910390f35b61012d6100ff36600461036f565b600160a060020a0391821660009081526003602052604090208054600160a060020a03191691909216179055565b005b6100d561013d36600461034e565b600060208190529081526040902054600160a060020a031681565b6100d561016636600461034e565b600260205260009081526040902054600160a060020a031681565b61012d61018f36600461034e565b600160a060020a031660009081526002602052604090208054600160a060020a0319169055565b61012d6101c436600461036f565b600160a060020a0391821660009081526020819052604090208054600160a060020a03191691909216179055565b6100d561020036600461034e565b600360205260009081526040902054600160a060020a031681565b61012d61022936600461034e565b600160a060020a031660009081526001602052604090208054600160a060020a0319169055565b61012d61025e36600461036f565b600160a060020a0391821660009081526001602052604090208054600160a060020a03191691909216179055565b61012d61029a36600461034e565b600160a060020a031660009081526020819052604090208054600160a060020a0319169055565b61012d6102cf36600461036f565b600160a060020a0391821660009081526002602052604090208054600160a060020a03191691909216179055565b61012d61030b36600461034e565b600160a060020a031660009081526003602052604090208054600160a060020a0319169055565b8035600160a060020a038116811461034957600080fd5b919050565b60006020828403121561035f578081fd5b61036882610332565b9392505050565b60008060408385031215610381578081fd5b61038a83610332565b915061039860208401610332565b9050925092905056fea26469706673582212206bcfef626fefe5843eea884ce20fb57e47fbec1305d8fc60600f28921edabb3a64736f6c63430008040033608060405234801561001057600080fd5b506040516106ef3803806106ef83398101604081905261002f916101c0565b825161004290600090602086019061007f565b50815161005690600190602085019061007f565b5060028054600160a060020a031916600160a060020a0392909216919091179055506102c49050565b82805461008b90610241565b90600052602060002090601f0160209004810192826100ad57600085556100f3565b82601f106100c657805160ff19168380011785556100f3565b828001600101855582156100f3579182015b828111156100f35782518255916020019190600101906100d8565b506100ff929150610103565b5090565b5b808211156100ff5760008155600101610104565b600082601f830112610128578081fd5b81516001604060020a038082111561014257610142610295565b604051601f8301601f19908116603f0116810190828211818310171561016a5761016a610295565b81604052838152602092508683858801011115610185578485fd5b8491505b838210156101a65785820183015181830184015290820190610189565b838211156101b657848385830101525b9695505050505050565b6000806000606084860312156101d4578283fd5b83516001604060020a03808211156101ea578485fd5b6101f687838801610118565b9450602086015191508082111561020b578384fd5b5061021886828701610118565b60408601519093509050600160a060020a0381168114610236578182fd5b809150509250925092565b60028104600182168061025557607f821691505b6020821081141561028f577f4e487b7100000000000000000000000000000000000000000000000000000000600052602260045260246000fd5b50919050565b7f4e487b7100000000000000000000000000000000000000000000000000000000600052604160045260246000fd5b61041c806102d36000396000f3fe608060405234801561001057600080fd5b50600436106100655760e060020a6000350463086c32e5811461006a57806324db757f1461007f5780632c0a85161461009d578063441e2f09146100a5578063d665b298146100b8578063d67c2da3146100e8575b600080fd5b61007d610078366004610291565b610103565b005b61008761011a565b604051610094919061033a565b60405180910390f35b6100876101ac565b61007d6100b3366004610291565b6101bb565b61007d6100c6366004610263565b60028054600160a060020a031916600160a060020a0392909216919091179055565b600254604051600160a060020a039091168152602001610094565b80516101169060019060208401906101ca565b5050565b6060600180546101299061038d565b80601f01602080910402602001604051908101604052809291908181526020018280546101559061038d565b80156101a25780601f10610177576101008083540402835291602001916101a2565b820191906000526020600020905b81548152906001019060200180831161018557829003601f168201915b5050505050905090565b6060600080546101299061038d565b80516101169060009060208401905b8280546101d69061038d565b90600052602060002090601f0160209004810192826101f8576000855561023e565b82601f1061021157805160ff191683800117855561023e565b8280016001018555821561023e579182015b8281111561023e578251825591602001919060010190610223565b5061024a92915061024e565b5090565b5b8082111561024a576000815560010161024f565b600060208284031215610274578081fd5b8135600160a060020a038116811461028a578182fd5b9392505050565b6000602082840312156102a2578081fd5b81356001604060020a03808211156102b8578283fd5b818401915084601f8301126102cb578283fd5b8135818111156102dd576102dd6103cc565b604051601f8201601f19908116603f01168101908382118183101715610305576103056103cc565b8160405282815287602084870101111561031d578586fd5b826020860160208301379182016020019490945295945050505050565b6000602080835283518082850152825b818110156103665785810183015185820160400152820161034a565b818111156103775783604083870101525b50601f01601f1916929092016040019392505050565b6002810460018216806103a157607f821691505b602082108114156103c65760e060020a634e487b710260009081526022600452602490fd5b50919050565b60e060020a634e487b710260009081526041600452602490fdfea264697066735822122031ada13bf47a10e79058a8f19cefd0c4e92aee3053932a0ed5a2275e92f717b864736f6c63430008040033",
  "linkReferences": {},
  "deployedLinkReferences": {}
}